:100000006F00407F13000000130000001300000089
:100010001300000013000000130000001300000094
:100020001300000013000000130000001300000084
:08003000130000007300100032
:100038006FF09FFC000000006F0000716F00C0713E
:1000480000000000000000000000000000000000A8
:100058000000000000000000000000000000000098
:100068006FF09FF9000000006FF01FF9000000001A
:100078006FF09FF86FF05FF86FF01FF86FF0DFF721
:100088006FF09FF76FF05FF76F0060276F00202811
:100098006F00802C6F00A02D6F00602E6FF0DFF5D1
:1000A8006FF09FF56FF05FF56F0040636F0060675A
:1000B8006FF09FF46FF05FF46F00602F0000000096
:1000C8000000000000000000000000006F00202C6D
:1000D8006F00E02E6F00E0316F00A0346F00E03950
:1000E8006F00A0426F0060456F0020486FF0DFF09E
:1000F8006FF09FF06FF05FF06FF01FF06FF0DFEFC1
:100108006FF09FEF6F0060496F00A0566F00005CB2
:100118006F00E0286FF05FEE6FF01FEE6FF0DFED1D
:1001280000000000000000000000000000000000C7
:080138000000000000000000BF
:100140003D432A876373C3029377F700BDEFADE5A4
:10015000937606FF3D8ABA960CC34CC30CC74CC7B6
:100160004107E36BD7FE11E28280B306C3408A06E3
:100170009702000096966780A6002307B700A306A3
:10018000B7002306B700A305B7002305B700A304F3
:10019000B7002304B700A303B7002303B700A302EB
:1001A000B7002302B700A301B7002301B700A300E3
:1001B000B7002300B700828093F5F50F9396850072
:1001C000D58D93960501D58D61B79396270097023B
:1001D000000096968682E78086FA9680C1171D8F6A
:1001E0003E96E374C3F8A5B73367B500FD530D8B96
:1001F00079E7B7877F7F9387F7F710419441B37210
:10020000F6003363F600BE92B3E262006397720CAD
:100210006318D6065041D441B372F6003363F6003A
:10022000BE92B3E262006398720A631BD604104563
:100230009445B372F6003363F600BE92B3E26200F7
:100240006391720A631ED6025045D445B372F6001C
:100250003363F600BE92B3E26200639A72086311E0
:10026000D60210499449B372F6003363F600BE9289
:10027000B3E26200639372085105D105E30FD6F62D
:100280001317060193970601631CF7001357060125
:1002900093D706013305F7409375F50F91E98280F6
:1002A0004183C1833305F7409375F50F91E1828057
:1002B0001377F70F93F7F70F3305F7408280034664
:1002C000050083C60500050585056313D60065FA9C
:1002D0003305D640828011059105E312D6FE014513
:1002E00082802105A105E31CD6FC014582803105F1
:1002F000B105E316D6FC014582804105C105E31036
:10030000D6FC01458280411122C60008010032441A
:10031000410173002030411122C600080945EF0059
:1003200010142A8785476318F702B707002003A730
:10033000471E89476315F700EF20603711A8B707FC
:10034000002003A7471E85476314F700EF20E0282D
:100350000945EF003016010032444101730020309E
:10036000411122C600081145EF00D01401003244AB
:10037000410173002030411122C6000801003244BF
:10038000410173002030411122C6000801003244AF
:10039000410173002030411122C60008010032449F
:1003A000410173002030411122C60008010032448F
:1003B000410173002030411122C60008010032447F
:1003C000410173002030411122C600089305000846
:1003D000B7370140138507C0EF10B033AA8789CB28
:1003E00093050008B7370140138507C0EF10703937
:1003F00001003244410173002030411122C600083F
:100400008545B7370140138507C0EF109030AA87A4
:1004100081CB8545B7370140138507C0EF10703693
:1004200001003244410173002030411122C600080E
:1004300093050004B7370140138507C0EF10702DF6
:10044000AA8789CB93050004B7370140138507C0FD
:10045000EF10303393050002B7370140138507C012
:10046000EF10302BAA8789CB93050002B7370140E4
:10047000138507C0EF10F0300100324441017300D2
:100480002030411122C600088945B7370140138545
:1004900007C0EF101028AA8781CB8945B7370140E4
:1004A000138507C0EF10F02D9145B7370140138534
:1004B00007C0EF101026AA8781CB9145B7370140BE
:1004C000138507C0EF10F02BA145B7370140138506
:1004D00007C0EF101024AA8781CBA145B737014090
:1004E000138507C0EF10F029C145B73701401385C8
:1004F00007C0EF101022AA8781CBC145B737014052
:10050000138507C0EF10F02701003244410173004A
:100510002030411122C60008854537050040EF1004
:10052000501FAA8791CB854537050040EF107025F5
:1005300013055002EF2000400100324441017300D6
:100540002030411122C600088545B70700401385B9
:100550000740EF10101CAA8781CB8545B7070040E4
:1005600013850740EF10F021010032444101730070
:100570002030411122C600088545B7170040138579
:100580000780EF101019AA8781CB8545B717004067
:1005900013850780EF10F01E010032444101730003
:1005A0002030011122CE0010C145B747014013850C
:1005B0000780EF10505FAA87C5CFC145B7470140FC
:1005C00013850780EF10906205472388E180B747C5
:1005D00001409387078083D707002317F4FEB747AE
:1005E00001409387078083D747002317F4FE814596
:1005F000B7070240138587053523B70702401385E7
:1006000087057523AA8793F7F70F13074006B307EB
:10061000F740A306F4FEB707024093878705130748
:100620004006D8C30347D4FEB7070020938787212D
:10063000BA97130700022380E7008347D4FE13878D
:100640001700B707002093878721BA9723800700F8
:10065000EF30A02B130640068145B7070020138515
:100660008721F93C8545B7070240138587055D2939
:1006700001007244056173002030411122C6000858
:1006800093055052B747004013850740EF10F058CC
:10069000AA8785CF93055052B7470040138507407E
:1006A000EF10D067B707002003A7471E89476315DF
:1006B000F700EF10D07811A8B707002003A7471E56
:1006C00085476314F700EF10506A0100324441017E
:1006D00073002030411122C600080100324441015C
:1006E00073002030411122C600080965F9292A87C4
:1006F00085476317F70209653D23B707002003A765
:10070000471E89476315F700EF10D07D11A8B70782
:10071000002003A7471E85476314F700EF10506FB2
:1007200001003244410173002030411106C622C449
:1007300000083705020051292A8785476315F7000D
:1007400037050200CD210100B240224441018280E0
:10075000411122C6000801003244410173002030DB
:10076000411122C6000801A0011106CE22CC0010C2
:10077000EF20C030EF20F055EF20507DEF30402FBC
:100780000145EF206033956713858717EF30B04E32
:10079000839721811387873E896793870771B367A2
:1007A000F7021397070141872399E18083972181FD
:1007B0003E8783972181BE85839721813E868397DB
:1007C0002181BE863A85EF30A03383C70181E9D30A
:1007D00023880180232604FE31A08327C4FE8507D9
:1007E0002326F4FE83C78182FD170327C4FEE34658
:1007F000F7FE79BF970100209381C11E1751002099
:100800001301418017550000130585B997F5FF1FA7
:100810009385457F1386018163FAC5008322050015
:1008200023A0550011059105E3EAC5FE138501815A
:10083000938501946377B500232005001105E36DCE
:10084000B5FE9302800873A0023097F2FFFF9382F7
:10085000E27E93E2120073905230EF2070679702AD
:1008600000009382A2F073901234730020300111C3
:1008700022CE00102326A4FE8327C4FE9843C1671E
:10088000F9177D8F8327C4FE98C38327C4FE23A056
:1008900007008327C4FE23A207008327C4FE23A4E6
:1008A00007008327C4FE23A607000327C4FEB7075B
:1008B0000240A107631BF700B7070240D843B70700
:1008C00002401367F700D8C375A20327C4FEB70719
:1008D0000240F107631BF700B7070240D843B70790
:1008E00002401367070FD8C371A20327C4FEB707DE
:1008F000024093870703631DF700B7070240D44304
:10090000B70702400567130707F0558FD8C39DA2AC
:100910000327C4FEB707024093874704631BF70011
:10092000B7070240D443B70702403D67558FD8C38D
:1009300091A20327C4FEB707024093878705631C73
:10094000F700B7070240D443B707024037070F004C
:10095000558FD8C305A20327C4FEB707024093876B
:10096000C706631CF700B7070240D443B70702402D
:100970003707F000558FD8C3F5A80327C4FEB70783
:10098000024093870708631CF700B7070240D4436F
:10099000B70702403707000F558FD8C3E1A80327D8
:1009A000C4FEB707024093878740631FF700B7076D
:1009B000024093870740D843B70702409387074018
:1009C0001367F700D8C37DA00327C4FEB707024012
:1009D0009387C741631FF700B7070240938707401B
:1009E000D843B7070240938707401367070FD8C360
:1009F00051A00327C4FEB707024093870743631142
:100A0000F702B707024093870740D443B707024075
:100A1000938707400567130707F0558FD8C399A838
:100A20000327C4FEB707024093874744631FF700BC
:100A3000B707024093870740D443B7070240938724
:100A400007403D67558FD8C335A00327C4FEB707BD
:100A5000024093878745631FF700B70702409387DB
:100A60000740D443B70702409387074037070F007A
:100A7000558FD8C30100724405618280797122D6F6
:100A80000018232EA4FC232CB4FC232604FE832769
:100A9000C4FD9C432326F4FE0327C4FEE177BD0773
:100AA000F98F2326F4FE832784FD9847832784FD4E
:100AB0009C535D8F832784FD9C4B5D8F832784FD32
:100AC000DC4B5D8F832784FD9C4F5D8F832784FDE6
:100AD000DC4F5D8F832784FDDC535D8F832784FD8E
:100AE0009C57D98F0327C4FED98F2326F4FE832772
:100AF000C4FD0327C4FE98C3832784FDD8478327FA
:100B0000C4FDD8C3832784FD98438327C4FD98C7B9
:100B1000832784FDD8438327C4FDD8C701003254FE
:100B200045618280011122CE00102326A4FE2324D9
:100B3000B4FE832784FE91CB8327C4FE9C4313E736
:100B400017008327C4FE98C311A88327C4FE9843C7
:100B5000C167F9177D8F8327C4FE98C301007244D3
:100B600005618280011122CE00102326A4FE2324D9
:100B7000B4FE2322C4FE832744FE99CB8327C4FE00
:100B80009843832784FE5D8F8327C4FE98C321A8E2
:100B90008327C4FE9843832784FE93C7F7FF7D8F86
:100BA0008327C4FE98C3010072440561828001114D
:100BB00022CE00102326A4FE8327C4FEDC43C207F6
:100BC000C1833E85724405618280797122D6001806
:100BD000232EA4FC232604FE232404FE0327C4FDA5
:100BE000B7070010F98F89CBB707024093870740FA
:100BF0009C432324F4FE31A0B70702409C432324E6
:100C0000F4FE032784FE8327C4FDF98F89C7854737
:100C10002326F4FE19A0232604FE8327C4FE3E8566
:100C2000325445618280011122CE00102326A4FE99
:100C30000327C4FEB7070010F98F89CBB70702401E
:100C4000938707400327C4FED8C331A0B7070240EB
:100C50000327C4FED8C30100724405618280797104
:100C600022D60018232EA4FC232604FE232404FEEF
:100C7000B7070140938707409C430327C4FDF98FC2
:100C80002324F4FEB707014093870740D84B8327FE
:100C9000C4FDF98F81CB832784FE89C7854723262E
:100CA000F4FE19A0232604FE8327C4FE3E85325499
:100CB00045618280011122CE00102326A4FEB707D1
:100CC0000140938707400327C4FED8CB010072443C
:100CD00005618280397122DE80002326A4FC232452
:100CE000B4FC232604FE232004FE232404FE232E2A
:100CF00004FC232204FE232C04FC832784FC9C4751
:100D0000BD8B2326F4FE832784FC9C47C18B89CBB3
:100D1000832784FCDC430327C4FED98F2326F4FEFB
:100D2000832784FC83D7070093F7F70FF1CF83273E
:100D3000C4FC9C432322F4FE232404FE65A88327DD
:100D400084FE0547B317F700232EF4FC832784FCA9
:100D500083D707003E878327C4FDF98F2320F4FE45
:100D6000032704FE8327C4FD6311F708832784FE4D
:100D70008A07232EF4FC8327C4FD3D47B317F700F1
:100D8000232CF4FC832784FD93C7F7FF032744FE3D
:100D9000F98F2322F4FE8327C4FD0327C4FEB31773
:100DA000F700032744FED98F2322F4FE832784FC17
:100DB000984793078002631BF700832784FE05474B
:100DC0003317F7008327C4FCD8CB05A0832784FC06
:100DD000984793078004631AF700832784FE05472A
:100DE0003317F7008327C4FC98CB832784FE85073D
:100DF0002324F4FE032784FE9D47E3F2E7F48327D0
:100E0000C4FC032744FE98C3832784FC03D7070050
:100E10009307F00F63F1E70E8327C4FCDC43232222
:100E2000F4FE232404FE75A8832784FEA10705474A
:100E3000B317F700232EF4FC832784FC83D7070025
:100E40003E878327C4FDF98F2320F4FE032704FE89
:100E50008327C4FD6312F708832784FE8A07232EA5
:100E6000F4FC8327C4FD3D47B317F700232CF4FCA3
:100E7000832784FD93C7F7FF032744FEF98F2322BE
:100E8000F4FE8327C4FD0327C4FEB317F70003272E
:100E900044FED98F2322F4FE832784FC98479307CE
:100EA0008002631BF700832784FEA10705473317E1
:100EB000F7008327C4FCD8CB832784FC984793078B
:100EC0008004631BF700832784FEA10705473317BF
:100ED000F7008327C4FC98CB832784FE850723244F
:100EE000F4FE032784FE9D47E3F0E7F48327C4FC68
:100EF000032744FED8C3010072542161828001118E
:100F000022CE00102326A4FEAE872322C4FE231582
:100F1000F4FE832744FE99C70357A4FE8327C4FE2B
:100F200098CB31A00357A4FE8327C4FED8CB010081
:100F3000724405618280797122D60018232EA4FCA8
:100F4000232CB4FC232404FE232204FE232604FEC7
:100F5000232004FE8327C4FD63D80700B7070140A0
:100F6000DC4F2326F4FE31A0B7070140DC432326E3
:100F7000F4FE8327C4FDC183BD8B2320F4FE032729
:100F8000C4FDC167FD17F98F2324F4FE0327C4FDB8
:100F9000B70730007D8FB70730006315F7020327CE
:100FA000C4FEB70700F1FD17F98F2326F4FEB7073B
:100FB0000140D443B7070140370700F17D17758F13
:100FC000D8C3ADA00327C4FDB7071000F98F8DCBA0
:100FD000832704FE0D47B317F7002322F4FE83276F
:100FE00044FE93C7F7FF0327C4FEF98F2326F4FEC0
:100FF0000327C4FEB707000FD98F2326F4FE3DA0B8
:101000008327C4FDD5839207032784FEB317F70017
:1010100093C7F7FF0327C4FEF98F2326F4FE0327A7
:10102000C4FEB707000FD98F2326F4FE832784FD63
:1010300091CF8327C4FDD5839207032784FEB3177E
:10104000F7000327C4FED98F2326F4FE8327C4FDAF
:1010500063D80700B70701400327C4FED8CF31A0EB
:10106000B70701400327C4FED8C3010032544561CD
:101070008280011122CE00102326A4FE8327C4FE05
:10108000FD8B0547B316F70037E700E08327C4FE62
:101090009583938707048A07BA9794C30100724423
:1010A00005618280011122CE00102326A4FE832731
:1010B000C4FEFD8B0547B316F70037E700E0832732
:1010C000C4FE9583938707068A07BA9794C30100E5
:1010D000724405618280011122CE00102326A4FEF5
:1010E000AE87A305F4FE37E700E08327C4FEBA9776
:1010F0000347B4FE2380E74001007244056182800B
:10110000011106CE22CC00102326A4FEB7E700E092
:10111000BC47898B8DC38327C4FE83C707003E87E6
:101120008327C4FE83C72700920793F7F70FBE8576
:101130003A85553795A0B7E700E0BC47898BA9EF02
:101140008327C4FE03C7170085476318F702832768
:10115000C4FE83C707003E878327C4FE83C72700DA
:101160009207E207E18793E707F8E207E18793F741
:10117000F70FBE853A85853705A08327C4FE83C750
:1011800007003E878327C4FE83C72700920793F793
:10119000F70FBE853A8581378327C4FEDC4381CBB8
:1011A0008327C4FE83C707003E85E13539A0832726
:1011B000C4FE83C707003E85F5350100F240624456
:1011C00005618280797122D60018232EA4FC232683
:1011D00004FE232404FE232204FE232004FEB7176A
:1011E0000240DC43B18B2326F4FE0327C4FE914763
:1011F0006302F7020327C4FEA1476305F7028327B2
:10120000C4FEC5E78327C4FD37177A0013070720FC
:1012100098C365A08327C4FD37177A0013070720FA
:1012200098C361A8B7170240D843B7073C00F98FAD
:101230002324F4FEB7170240D843C167F98F232255
:10124000F4FE832784FEC98389072324F4FE8327C1
:1012500044FE89EF032784FEB7173D00938707906C
:101260003307F7028327C4FD98C381A8B71702404C
:10127000D843B7070200F98F89CF032784FEB71739
:101280003D00938707903307F7028327C4FD98C377
:101290002DA0032784FEB7177A0093870720330712
:1012A000F7028327C4FD98C309A88327C4FD371715
:1012B0007A001307072098C30100B7170240DC43E8
:1012C00093F7070F2326F4FE8327C4FE918323267A
:1012D000F4FEB7070020138707008327C4FEBA97E0
:1012E00083C7070093F7F70F2320F4FE8327C4FD7D
:1012F0009843832704FE3357F7008327C4FDD8C3E0
:10130000B7170240DC4393F707702326F4FE8327C8
:10131000C4FEA1832326F4FEB7070020138707002D
:101320008327C4FEBA9783C7070093F7F70F2320DC
:10133000F4FE8327C4FDD843832704FE3357F70008
:101340008327C4FD98C7B7170240D8439167938796
:101350000780F98F2326F4FE8327C4FEAD8323265E
:10136000F4FEB7070020138707008327C4FEBA974F
:1013700083C7070093F7F70F2320F4FE8327C4FDEC
:10138000D843832704FE3357F7008327C4FDD8C70B
:10139000B7170240D843B167F98F2326F4FE83279D
:1013A000C4FEB9832326F4FEB70700201387071E67
:1013B0008327C4FEBA9783C7070093F7F70F23204C
:1013C000F4FE8327C4FDD847832704FE3357F70272
:1013D0008327C4FD98CB01003254456182800111FE
:1013E00022CE00102326A4FE2324B4FE832784FEED
:1013F00099CBB7170240D44BB71702400327C4FE5E
:10140000558FD8CB21A8B7170240D44B8327C4FEF1
:1014100013C7F7FFB7170240758FD8CB010072448E
:1014200005618280011122CE00102326A4FE232410
:10143000B4FE832784FE99CBB7170240944FB717A9
:1014400002400327C4FE558F98CF21A8B71702404A
:10145000944F8327C4FE13C7F7FFB7170240758F59
:1014600098CF0100724405618280011122CE0010E4
:101470002326A4FE2324B4FE832784FE99CBB7172A
:101480000240D44FB71702400327C4FE558FD8CF70
:1014900021A8B7170240D44F8327C4FE13C7F7FF14
:1014A000B7170240758FD8CF010072440561828062
:1014B000797122D60018232EA4FC232CB4FC231708
:1014C00004FE8327C4FD83D707002317F4FE0327F8
:1014D000C4FDB7370140938707C06308F7020327AD
:1014E000C4FDB70700406302F7020327C4FDB70736
:1014F000004093870740630AF7000327C4FDB7172E
:101500000040938707806311F7028357E4FE93F747
:10151000F7F82317F4FE832784FD03D727008357AA
:10152000E4FED98F2317F4FE8357E4FE93F7F7CF39
:101530002317F4FE832784FD03D767008357E4FE57
:10154000D98F2317F4FE8327C4FD0357E4FE2390AD
:10155000E700832784FD03D747008327C4FD239634
:10156000E702832784FD03D707008327C4FD239464
:10157000E7020327C4FDB7370140938707C0631D07
:10158000F700832784FD83C78700139707014183F2
:101590008327C4FD2398E7028327C4FD0547239AC8
:1015A000E7000100325445618280797122D600182B
:1015B000232EA4FC232CB4FC231504FE231704FEC5
:1015C000231604FE8327C4FD83D70702C207C18305
:1015D000F99B1397070141838327C4FD2390E702FA
:1015E0008327C4FD83D707022317F4FE8327C4FD96
:1015F00083D747002316F4FE8327C4FD83D78701D2
:101600002315F4FE8357A4FE93F7F7F82315F4FE91
:101610008357A4FEF19B2315F4FE832784FD03D793
:1016200007008357A4FED98F2315F4FE8357E4FEE9
:10163000F59B2317F4FE832784FD03D78700835788
:10164000E4FED98F2317F4FE832784FD03D72700F8
:101650008357E4FED98F2317F4FE0327C4FDB73761
:101660000140938707C0631CF7068357E4FEDD9BA8
:101670002317F4FE832784FD03D7A7008357E4FED6
:10168000D98F2317F4FE8357E4FEED9B2317F4FE56
:10169000832784FD03D747008357E4FED98F2317A0
:1016A000F4FE8357C4FE93F7F7EF2316F4FE835737
:1016B000C4FE93F7F7DF2316F4FE832784FD03D7D8
:1016C000C7008357C4FED98F2316F4FE832784FDF9
:1016D00003D7E7008357C4FED98F2316F4FE832770
:1016E000C4FD0357C4FE2392E7008327C4FD0357BC
:1016F000A4FE239CE700832784FD03D7670083278C
:10170000C4FD239AE7028327C4FD0357E4FE239018
:10171000E7020100325445618280797122D60018B7
:10172000232EA4FC232CB4FC231504FE231704FE53
:10173000231604FE8327C4FD83D70702C207C18393
:10174000BD9B1397070141838327C4FD2390E702C4
:101750008327C4FD83D707022317F4FE8327C4FD24
:1017600083D747002316F4FE8327C4FD83D7870160
:101770002315F4FE0357A4FEE577FD17F98F231513
:10178000F4FE8357A4FE93F7F7CF2315F4FE8327C7
:1017900084FD83D70700A20713970701418383576E
:1017A000A4FED98F2315F4FE8357E4FE93F7F7FDCB
:1017B0002317F4FE832784FD83D7870092071397AE
:1017C000070141838357E4FED98F2317F4FE832753
:1017D00084FD83D72700920713970701418383571E
:1017E000E4FED98F2317F4FE0327C4FDB737014069
:1017F000938707C06310F70A8357E4FE93F7F7F760
:101800002317F4FE832784FD83D7A700920713973D
:10181000070141838357E4FED98F2317F4FE8357D2
:10182000E4FE93F7F7FB2317F4FE832784FD83D7A9
:10183000470092071397070141838357E4FED98F2E
:101840002317F4FE8357C4FE93F7F7BF2316F4FE65
:101850000357C4FEFD779387F77FF98F2316F4FEB5
:10186000832784FD83D7C7008A0713970701418325
:101870008357C4FED98F2316F4FE832784FD83D7B4
:10188000E7008A071397070141838357C4FED98F66
:101890002316F4FE8327C4FD0357C4FE2392E700FA
:1018A0008327C4FD0357A4FE239CE700832784FD00
:1018B00003D767008327C4FD239CE7028327C4FD69
:1018C0000357E4FE2390E702010032544561828011
:1018D000797122D60018232EA4FC232CB4FC2315E6
:1018E00004FE231704FE231604FE8327C4FD83D7BA
:1018F0000702C207C18393F7F7EF139707014183EC
:101900008327C4FD2390E7028327C4FD83D7070202
:101910002317F4FE8327C4FD83D747002316F4FE64
:101920008327C4FD83D7C7012315F4FE8357A4FE84
:1019300093F7F7F82315F4FE8357A4FEF19B2315C4
:10194000F4FE832784FD03D707008357A4FED98FB5
:101950002315F4FE8357E4FE93F7F7DF2317F4FE15
:10196000832784FD83D78700A2071397070141834C
:101970008357E4FED98F2317F4FE832784FD83D792
:101980002700A2071397070141838357E4FED98FED
:101990002317F4FE0327C4FDB7370140938707C020
:1019A0006312F70A0357E4FEFD779387F77FF98FF9
:1019B0002317F4FE832784FD83D7A700A20713977C
:1019C000070141838357E4FED98F2317F4FE835721
:1019D000E4FE93F7F7BF2317F4FE832784FD83D734
:1019E0004700A2071397070141838357E4FED98F6D
:1019F0002317F4FE0357C4FEFD77FD17F98F231656
:101A0000F4FE0357C4FEF977FD17F98F2316F4FE91
:101A1000832784FD83D7C70092071397070141836B
:101A20008357C4FED98F2316F4FE832784FD83D702
:101A3000E70092071397070141838357C4FED98FAC
:101A40002316F4FE8327C4FD0357C4FE2392E70048
:101A50008327C4FD0357A4FE239EE700832784FD4C
:101A600003D767008327C4FD239EE7028327C4FDB5
:101A70000357E4FE2390E70201003254456182805F
:101A8000797122D60018232EA4FC232CB4FC231633
:101A900004FE231504FE231704FE8327C4FD83D709
:101AA0000702139707014183FD77FD17F98F1397FD
:101AB000070141838327C4FD2390E7028327C4FDE8
:101AC00083D707022315F4FE8327C4FD83D747007D
:101AD0002317F4FE8327C4FD83D7C7012316F4FE22
:101AE0000357C4FEE577FD17F98F2316F4FE8357DD
:101AF000C4FE93F7F7CF2316F4FE832784FD83D724
:101B00000700A2071397070141838357C4FED98FAB
:101B10002316F4FE0357A4FEF977FD17F98F23155A
:101B2000F4FE832784FD83D78700B207139707014C
:101B300041838357A4FED98F2315F4FE832784FDA8
:101B400083D72700B2071397070141838357A4FE69
:101B5000D98F2315F4FE0327C4FDB73701409387BF
:101B600007C06316F7020357E4FEF177FD17F98FFC
:101B70002317F4FE832784FD83D7C7009A071397A2
:101B8000070141838357E4FED98F2317F4FE83278F
:101B9000C4FD0357E4FE2392E7008327C4FD0357E7
:101BA000C4FE239EE700832784FD03D767008327B5
:101BB000C4FD2390E7048327C4FD0357A4FE2390AC
:101BC000E7020100325445618280011122CE0010EB
:101BD0002326A4FE2324B4FE832784FE8DC38327FB
:101BE000C4FE83D70700C207C18393E7170013978A
:101BF000070141838327C4FE2390E70039A8832788
:101C0000C4FE83D70700C207C183F99B139707015E
:101C100041838327C4FE2390E700010072440561DD
:101C20008280011122CE00102326A4FE2324B4FEBC
:101C3000832784FE95C38327C4FE83D74704139765
:101C400007014183E177D98F1397070141838327E8
:101C5000C4FE2392E70415A08327C4FE83D747045C
:101C6000139707014183A167FD17F98F13970701A8
:101C700041838327C4FE2392E70401007244056177
:101C80008280797122D60018232EA4FCAE87231DF2
:101C9000F4FC231704FE8327C4FD83D78701231791
:101CA000F4FE8357E4FEDD9B2317F4FE0357E4FEA6
:101CB0008357A4FDD98F2317F4FE8327C4FD035750
:101CC000E4FE239CE7000100325445618280797173
:101CD00022D60018232EA4FCAE87231DF4FC231764
:101CE00004FE8327C4FD83D787012317F4FE03571F
:101CF000E4FEFD779387F77FF98F2317F4FE835770
:101D0000A4FDA2071397070141838357E4FED98FEF
:101D10002317F4FE8327C4FD0357E4FE239CE7004A
:101D20000100325445618280797122D60018232E39
:101D3000A4FCAE87231DF4FC231704FE8327C4FDF7
:101D400083D7C7012317F4FE8357E4FEDD9B2317D7
:101D5000F4FE0357E4FE8357A4FDD98F2317F4FE46
:101D60008327C4FD0357E4FE239EE700010032549D
:101D700045618280797122D60018232EA4FCAE879B
:101D8000231DF4FC231704FE8327C4FD83D7C7015A
:101D90002317F4FE0357E4FEFD779387F77FF98F4F
:101DA0002317F4FE8357A4FDA2071397070141836D
:101DB0008357E4FED98F2317F4FE8327C4FD03570E
:101DC000E4FE239EE7000100325445618280797170
:101DD00022D60018232EA4FCAE87231DF4FC231763
:101DE00004FE8327C4FD83D787012317F4FE83579E
:101DF000E4FEED9B2317F4FE0357E4FE8357A4FD96
:101E0000D98F2317F4FE8327C4FD0357E4FE239CD8
:101E1000E7000100325445618280797122D60018B2
:101E2000232EA4FCAE87231DF4FC231704FE832776
:101E3000C4FD83D787012317F4FE8357E4FE93F78D
:101E4000F7BF2317F4FE8357A4FDA20713970701DA
:101E500041838357E4FED98F2317F4FE8327C4FD03
:101E60000357E4FE239CE700010032544561828061
:101E7000797122D60018232EA4FCAE87231DF4FC12
:101E8000231704FE8327C4FD83D7C7012317F4FE5D
:101E90008357E4FEED9B2317F4FE0357E4FE8357BC
:101EA000A4FDD98F2317F4FE8327C4FD0357E4FE56
:101EB000239EE7000100325445618280797122D669
:101EC0000018232EA4FCAE87231DF4FC231704FE68
:101ED0008327C4FD83D7C7012317F4FE8357E4FE8D
:101EE00093F7F7BF2317F4FE8357A4FDA2071397B8
:101EF000070141838357E4FED98F2317F4FE83271C
:101F0000C4FD0357E4FE239EE700010032544561FF
:101F10008280797122D60018232EA4FCAE87231D5F
:101F2000F4FC232604FE231504FE231404FE832759
:101F3000C4FD83D707011397070141838357A4FD8D
:101F4000F98F2315F4FE8327C4FD83D7C7001397A9
:101F5000070141838357A4FDF98F2314F4FE8357AF
:101F6000A4FE81CB835784FE89C785472326F4FED0
:101F700019A0232604FE8327C4FE3E853254456102
:101F80008280011122CE00102326A4FEAE872315E5
:101F9000F4FE8357A4FE93C7F7FF1397070141830D
:101FA0008327C4FE2398E700010072440561828004
:101FB0005D7186C6A2C48008232EA4FA232CB4FA2D
:101FC000232604FE232404FE232204FE232004FEF1
:101FD000232E04FC8327C4FB232EF4FC8327C4FB9D
:101FE00083D70701C207C1832326F4FE0327C4FE5B
:101FF000B567FD17F98F2326F4FE832784FB83D76B
:1020000067003E878327C4FED98F2326F4FE8327EB
:10201000C4FE1397070141838327C4FB2398E7007D
:102020008327C4FB83D7C700C207C1832326F4FEDE
:102030000327C4FEBD679387379FF98F2326F4FEDD
:10204000832784FB03D74700832784FB83D787003C
:10205000D98F139707014183832784FB83D7A70078
:10206000D98FC207C1833E878327C4FED98F232619
:10207000F4FE8327C4FE1397070141838327C4FB23
:102080002396E7008327C4FB83D74701C207C18398
:102090002326F4FE0327C4FEC1679387F7CFF98F89
:1020A0002326F4FE832784FB83D7C7003E8783273C
:1020B000C4FED98F2326F4FE8327C4FE139707019D
:1020C00041838327C4FB239AE700930784FC3E8562
:1020D000EFF04F8F0327C4FDB74701409387078078
:1020E0006317F700832744FD2324F4FE29A08327E8
:1020F00004FD2324F4FE8327C4FB83D7C700C20753
:10210000C183C207C18763D20702032784FEBA874F
:102110008607BA978E073E97832784FB9C438607E2
:10212000B357F7022322F4FE05A0032784FEBA87E3
:102130008607BA978E073E97832784FB9C438A07BE
:10214000B357F7022322F4FE032744FE9307400609
:10215000B357F70292072326F4FE8327C4FE13D752
:10216000470093074006B307F702032744FEB3076F
:10217000F7402320F4FE8327C4FB83D7C700C207A0
:10218000C183C207C18763D20702832704FE8E077B
:102190001387270393074006B357F7029D8B032746
:1021A000C4FED98F2326F4FE05A0832704FE9207E0
:1021B0001387270393074006B357F702BD8B032706
:1021C000C4FED98F2326F4FE8327C4FE139707018C
:1021D00041838327C4FB2394E7000100B6402644D3
:1021E00061618280011122CE00102326A4FE2324E7
:1021F000B4FE832784FE95C38327C4FE83D7C7001C
:102200001397070141838967D98F1397070141838A
:102210008327C4FE2396E70015A08327C4FE83D737
:10222000C700139707014183F977FD17F98F1397BB
:10223000070141838327C4FE2396E700010072440F
:1022400005618280797122D60018232EA4FCAE8706
:10225000232AC4FC231DF4FC232404FE232204FEB1
:10226000232004FE232604FE8327C4FD2326F4FE38
:102270008357A4FD93F7F70F958393F7F70F232464
:10228000F4FE8357A4FDFD8B2322F4FE832744FE36
:102290000547B317F7002320F4FE032784FE854784
:1022A0006318F7008327C4FEB1072326F4FE0DA0B0
:1022B000032784FE89476318F7008327C4FEC107FC
:1022C0002326F4FE31A08327C4FED1072326F4FE83
:1022D000832744FD99CB8327C4FE94438327C4FE00
:1022E000032704FE558F98C321A88327C4FE944377
:1022F000832704FE13C7F7FF8327C4FE758F98C397
:102300000100325445618280011122CE0010232643
:10231000A4FEAE872322C4FE2315F4FE832744FEC9
:102320009DC38327C4FE83D74701139707014183C9
:102330008357A4FED98F1397070141838327C4FED7
:10234000239AE70035A08327C4FE83D7470113975C
:10235000070141838357A4FE93C7F7FFC207C183D8
:10236000F98F1397070141838327C4FE239AE7005F
:102370000100724405618280011122CE00102326E3
:10238000A4FEAE872315F4FE8357A4FE93F7F71F30
:102390001397070141838327C4FE2392E7000100BE
:1023A000724405618280797122D60018232EA4FC24
:1023B000AE87231DF4FC232604FE8327C4FD83D7A8
:1023C00007001397070141838357A4FDF98FC207C4
:1023D000C18389C785472326F4FE19A0232604FE5E
:1023E0008327C4FE3E85325445618280011122CE8E
:1023F00000102326A4FEAE872315F4FE8357A4FE07
:1024000093C7F7FF1397070141838327C4FE2390E7
:10241000E7000100724405618280797122D60018BC
:10242000232EA4FCAE87231DF4FC232204FE2326C6
:1024300004FE232004FE232404FE8357A4FD93F707
:10244000F70F958393F7F70F2320F4FE8357A4FD2E
:10245000FD8B2326F4FE8327C4FE0547B317F70040
:102460002326F4FE032704FE8547631FF700832716
:10247000C4FD83D7C700C207C1833E878327C4FE3C
:10248000F98F2326F4FE3DA8032704FE8947631F26
:10249000F7008327C4FD83D70701C207C1833E87A6
:1024A0008327C4FEF98F2326F4FE29A88327C4FDC1
:1024B00083D74701C207C1833E878327C4FEF98FB4
:1024C0002326F4FE8357A4FDA183C207C1832322E0
:1024D000F4FE832744FE0547B317F7002322F4FEDA
:1024E0008327C4FD83D70700C207C1833E878327A4
:1024F00044FEF98F2322F4FE8327C4FE81CB832779
:1025000044FE89C785472324F4FE19A0232404FE32
:10251000832784FE3E85325445618280797122D6BC
:102520000018232EA4FCAE87231DF4FC231704FE01
:10253000231604FE8357A4FDA1832317F4FE8357BB
:10254000E4FE0547B317F7002316F4FE8357C4FED5
:1025500093C7F7FF1397070141838327C4FD239097
:10256000E7000100325445618280411122C6000813
:1025700095679387C71DDC4383D7470013970701EF
:10258000418383C77181BE861377F70F938741819B
:10259000B6972380E70083C77181850713F7F70F8C
:1025A000A38BE18003C771818547631AF70003C7D6
:1025B00041819307500A6304F700A38B018003C78E
:1025C00071818D476317F700A38B01800547238C2A
:1025D000E1800100324441018280411122C600089D
:1025E000B70702409387470409671307874BD8C38F
:1025F000B7070240938747049843B7070240938781
:1026000047041367170098C30100324441018280D8
:10261000411122C600080547A38CE180B70702409C
:10262000938747049443B707024093874704416761
:102630007917758F98C3010032444101828041119E
:1026400022C6000895679387C71DDC4383D74700E0
:1026500013970701418383C7F181BE861377F70F74
:102660009387C181B6972380E70083C7F1818507EF
:1026700013F7F70FA38FE18003C7F1818547631A32
:10268000F70003C7C1819307500A6304F700A38FC3
:10269000018003C7F1818D476317F700A38F018085
:1026A00005472380E18201003244410182804111CB
:1026B00022C60008B707024093874704056713073F
:1026C0000796D8C3B7070240938747049843B707D4
:1026D0000240938747041367170098C301003244F0
:1026E00041018280411122C600080547A380E18292
:1026F000B7070240938747049443B7070240938784
:10270000470441677917758F98C30100324441012E
:102710008280797106D622D40018232EA4FC232CA3
:10272000B4FCB2872328D4FCA30BF4FC8327C4FD9C
:10273000958393F7F70F9D8BA307F4FE8327C4FDC2
:1027400093F7F70FFD8B2307F4FE0327C4FD9307D0
:102750000008630DF7148327C4FD958391E7854531
:102760001145EFE03FCC61A88327C4FD13D7570084
:1027700085476317F70085452145EFE0BFCA41A0B3
:102780008327C4FD13D7570089476317F700854592
:102790004145EFE03FC9A5A08327C4FD13D75700EB
:1027A0008D476318F700854513050002EFE09FC7CA
:1027B000B9A08327C4FD13D7570091476318F700CA
:1027C000854513050004EFE0FFC515A88327C4FD68
:1027D00013D7570095476318F70085451305000880
:1027E000EFE05FC429A88327C4FD13D7570099479A
:1027F0006317F700854513050010EFE0BFC283475C
:10280000E4FE0547B317F700C207C1832310F4FEA7
:10281000032784FD85476317F702832704FDC2075A
:10282000C183A183C207C18389E78D472322F4FEB8
:1028300011A8832704FDC207C183A183C207C183F6
:102840002322F4FE832704FDC207C18393F7F70F09
:102850002324F4FE0347F4FE95670A079387C71BFA
:10286000BA979C433E87930704FEBE853A85EFE006
:102870006FC6032784FD8547631BF7020347F4FEF9
:1028800095670A079387C71BBA979C43BE86834701
:10289000E4FE0547B317F700C207C183034774FD81
:1028A0003A86BE853685EFE08FE511A00100B25073
:1028B000225445618280797122D60018232EA4FC0F
:1028C000AE87A30DF4FC8327C4FD958393F7F70F20
:1028D0009D8BA307F4FE8327C4FD93F7F70FFD8BB1
:1028E0002307F4FE0347B4FD85476312F7028347CD
:1028F000E4FE0547B316F7000347F4FE95670A07A1
:102900009387C71BBA979C43368798CB05A083470C
:10291000E4FE0547B316F7000347F4FE95670A0780
:102920009387C71BBA979C433687D8CB0100325494
:1029300045618280797122D60018232EA4FC83275A
:10294000C4FD958393F7F70F9D8BA307F4FE8327B0
:10295000C4FD93F7F70FFD8B2307F4FE0347F4FE46
:1029600095670A079387C71BBA979C43DC470347C1
:10297000E4FE85463397E600420741833A86834664
:10298000F4FE15678A061307C71B36971843B18FE5
:102990005CC70100325445618280797106D622D429
:1029A0000018232EA4FCAE873687A30DF4FCB28753
:1029B000230DF4FCBA87A30CF4FC8327C4FD93F722
:1029C000F70F2304F4FE8347B4FDA304F4FE83470A
:1029D000A4FD2305F4FE834794FD2326F4FE93070C
:1029E00084FE3E85EFE0CFF1B7E700E09843FD7746
:1029F0007D8F83A7C1895D8F23AEE188B7E700E0B3
:102A0000D843B7070010FD177D8F9387C189DC433A
:102A10005D8F9387C189D8C39387C18903C7870016
:102A200085476313F70031200100B25022544561FD
:102A30008280411122C60008B7E700E07D5723A03D
:102A4000E718B7E700E07D5723A2E71801003244FA
:102A500041018280411122C60008B7E700E003A7C8
:102A6000C18923A0E710B7E700E01387C189584365
:102A700023A2E7100100324441018280011106CEF9
:102A800022CC00109387C18905472384E70083A7E0
:102A9000C18981EB9387C189DC4381E7A30704FEE9
:102AA00021A08547A307F4FE69378347F4FE3E85DE
:102AB000F240624405618280011106CE22CC0010F2
:102AC000AA87A307F4FE8347F4FE91E79387C189A1
:102AD0002384070041370100F2406244056182808F
:102AE000011106CE22CC00102326A4FE0327C4FE2B
:102AF00093070020630CF7220327C4FE93070020EE
:102B000063EAE70A0327C4FE93071010630BF71A62
:102B10000327C4FE9307101063E2E7040327C4FEF3
:102B20008947630BF7160327C4FE894763ECE70068
:102B30008327C4FE638407140327C4FE8547630606
:102B4000F714CDA40327C4FE8D47630EF7140327A3
:102B5000C4FE93070010630FF714E9A40327C4FE13
:102B6000930700116304F7180327C4FE93070011AD
:102B700063EFE7000327C4FE93072010630AF714EE
:102B80000327C4FE93073010630BF71461AC0327CF
:102B9000C4FE93072011630AF7160327C4FE9307A8
:102BA0002011636CF7140327C4FE930730116306EA
:102BB000F7168DAC0327C4FE930730216305F71E7B
:102BC0000327C4FE9307302163EEE7040327C4FE06
:102BD000930730206305F7180327C4FE93073020BE
:102BE00063EFE7000327C4FE930710206308F71480
:102BF0000327C4FE93072020630AF71425A40327A4
:102C0000C4FE93071021630EF7160327C4FE930733
:102C1000102163E1E7180327C4FE9307002163092D
:102C2000F71409A40327C4FE930700306308F71ABA
:102C30000327C4FE9307003063EFE7000327C4FEB9
:102C400093070022630AF7160327C4FE9307102296
:102C5000630DF716C1AA0327C4FE93072030630152
:102C6000F71A0327C4FE930720306362F71803277F
:102C7000C4FE93073030630EF7186DA293068031BF
:102C8000014685452145713471AA9306803101467C
:102C900085452545BD3C79A2930680310146854591
:102CA0002945853C41A293068031014685452D4545
:102CB0008D348DAA93068031014685450145913CAE
:102CC00095A293068031014685450545993499AA18
:102CD00093068031014685450945253CA1A293060E
:102CE0008031014685450D452D342DAA930680314E
:102CF000014685453D45313C35A29306803101466C
:102D0000854513053002313431AA930680310146DE
:102D100085451305A002F53A31A29306803101469C
:102D200085451305B002EFF0DF9EEDA893068031D4
:102D3000014685451945EFF0DF9DEDA093068031F2
:102D4000014685451D45EFF0DF9CE9A893068031DB
:102D50000146854513050002EFF0BF9BE1A09306F5
:102D600080310146854513051002EFF09F9A5DA85A
:102D7000930680310146854513056004EFF07F9985
:102D800055A0930680310146854513057004EFF088
:102D90005F9849A893068031014685451305800454
:102DA000EFF03F9741A0930680310146854513051A
:102DB0009004EFF01F96BDA0930680310146854533
:102DC00013054002EFF0FF94B1A89306803101464D
:102DD000854513055002EFF0DF93A9A093068031DB
:102DE0000146854513056002EFF0BF9225A89306C2
:102DF00080310146854513057002EFF09F911DA0BB
:102E0000930680310146854513058002EFF07F90DF
:102E100011A8930680310146854513059002EFF015
:102E20005F8F01000100F2406244056182803971C8
:102E300006DE22DC80002326A4FC2324B4FC23220B
:102E4000C4FC231704FE0325C4FC59398327C4FCA2
:102E5000A18381EB8545856713850780EFE08FDCD3
:102E6000A1A08327C4FC13D7870085476317F70009
:102E700085450545EFE06FDF05A88327C4FC13D720
:102E8000870089476317F70085450945EFE0EFDDC7
:102E900021A88327C4FC13D787008D476316F7004A
:102EA00085451145EFE06FDC85450545EFE08FD79F
:102EB0008327C4FC13D74700C147631AF700854531
:102EC000B707160013850704EFE0EF86B9A883273C
:102ED000C4FC13D74700C547631AF7008545B707F9
:102EE000180013850730EFE00F8581A08327C4FC0D
:102EF00013D7470093071002631AF7008545B717E9
:102F00001A00138507C0EFE00F8305A08327C4FCD8
:102F100013D74700930720026319F7008545B717B9
:102F20001A0013850780EFE00F81B7170240DC43DA
:102F3000C98313F7F700B7177A0093870720330781
:102F4000F702B727F400938707403E9723A2E18258
:102F500003A74182832784FCB357F702C183231759
:102F6000F4FE03A741828357E4FE8507BE868327CC
:102F700084FCB387F602B357F7022316F4FE035717
:102F8000C4FE832744FC3307F702896793870771E0
:102F9000B357F7022315F4FE8357C4FEFD17C2078B
:102FA000C1832312F4FE8357E4FE2310F4FE23139F
:102FB00004FE231104FE230404FE930700072318D4
:102FC000F4FC85472319F4FC231A04FC8357A4FE60
:102FD000231BF4FC8947231CF4FC8947231DF4FCC4
:102FE000231E04FC231F04FC8327C4FC13D7870083
:102FF00095670A079387C71CBA979C433E87930738
:1030000004FEBE853A85EFE0AFCA8327C4FC8D8BF2
:10301000B9EF8327C4FC13D7870095670A07938706
:10302000C71CBA979C433E87930704FDBE853A852B
:10303000EFE0AFD78327C4FC13D7870095670A0753
:103040009387C71CBA979C43A1453E85EFE07FC399
:103050008327C4FC13D7870095670A079387C71C8B
:10306000BA979C4391453E85EFE07FD689A283279E
:10307000C4FC13F7370085476311F7068327C4FCA8
:1030800013D7870095670A079387C71CBA979C4395
:103090003E87930704FDBE853A85EFE00FE883275E
:1030A000C4FC13D7870095670A079387C71CBA9794
:1030B0009C43A1453E85EFE09FC18327C4FC13D705
:1030C000870095670A079387C71CBA979C439305A7
:1030D00000403E85EFE07FD4D9A88327C4FC13F7D6
:1030E000370089476310F7068327C4FC13D787008E
:1030F00095670A079387C71CBA979C433E87930737
:1031000004FDBE853A85EFE0AFFC8327C4FC13D7EE
:10311000870095670A079387C71CBA979C43A14508
:103120003E85EFE07FC08327C4FC13D787009567F7
:103130000A079387C71CBA979C4391453E85EFE0E9
:103140003FD3B5A08327C4FC13F737008D47631026
:10315000F7068327C4FC13D7870095670A07938770
:10316000C71CBA979C433E87930704FDBE853A85EA
:10317000EFE01F918327C4FC13D7870095670A07E8
:103180009387C71CBA979C43A1453E85EFE09FBE3D
:103190008327C4FC13D7870095670A079387C71C4A
:1031A000BA979C43930500403E85EFE03FD18327CB
:1031B000C4FC13D7870095670A079387C71CBA9783
:1031C0009C4385453E85EFE05FA08327C4FC13D771
:1031D000870095670A079387C71CBA979C43854564
:1031E0003E85EFE01FA40100F2506254216182800D
:1031F000797122D60018232EA4FC232CB4FC83273B
:10320000C4FD13D7870095670A079387C71CBA9731
:103210009C4383D7C7022317F4FE0357E4FE83279A
:1032200084FD3307F702896793870771B357F70265
:103230002316F4FE8327C4FDA18385E38327C4FD01
:1032400013F73700B75700109387D7B0BA978A079C
:103250003E878357C4FE1CC349A08327C4FD13D7F0
:10326000870085476310F7028327C4FD13F73700F3
:10327000B7070010B507BA978A073E878357C4FE81
:103280001CC3A1A88327C4FD13D7870089476311F6
:10329000F7028327C4FD13F73700B70700109387A1
:1032A000D710BA978A073E878357C4FE1CC335A040
:1032B0008327C4FD13D787008D476310F702832748
:1032C000C4FD13F73700B70700109387D720BA97CC
:1032D0008A073E878357C4FE1CC3010032544561F0
:1032E0008280011106CE22CC00102326A4FE2324C6
:1032F000B4FE8327C4FE85E7032784FE8547631059
:10330000F70293068031014685452545EFF06FC0F1
:103310009146014681452945EFF0AFBF65A00327DF
:10332000C4FE89476312F702930680310146854542
:1033300013056002EFF0EFBD91460146814513058C
:103340007002EFF00FBDBDA80327C4FEC147631094
:10335000F70293068031014685450945EFF06FBBC2
:103360009146014681450D45EFF0AFBAA1A803276C
:10337000C4FE930700026312F702930680310146F0
:1033800085451305A002EFF0CFB89146014681456F
:103390001305B002EFF0EFB735A00327C4FE930783
:1033A00020026311F702930680310146854513051B
:1033B000A004EFF00FB69146014681451305B00415
:1033C000EFF02FB50100F24062440561828079710F
:1033D00006D622D40018232EA4FC232CB4FC232AC6
:1033E000C4FC2328D4FC85450545EFE0AF83832545
:1033F00004FD032544FDF535032744FD8947631B80
:10340000F700032704FD8D476316F7008545114536
:10341000EFD07FB2032744FD93072002631FF7001C
:10342000032704FD930730026319F7008545B707AA
:10343000140013850701EFD01FB08327C4FD91E767
:1034400085451165EFD01FFE35A00327C4FD8547D4
:103450006318F700854537050200EFE00F8119A8D2
:103460000327C4FD89476317F70085453705040026
:10347000EFD0BFFF832784FD2320F4FE231204FE38
:10348000231304FE231404FE231604FEB147231560
:10349000F4FE95670327C4FD0A079387C71DBA97F3
:1034A0009C433E87930704FEBE853A85EFE05FB0FC
:1034B00095670327C4FD0A079387C71DBA979C43E6
:1034C00085453E85EFE01FD20100B2502254456190
:1034D0008280411106C622C40008B7170240DC43AF
:1034E000C98313F7F700B7177A00938707203307CC
:1034F000F702B727F400938707403E9723A2E182A3
:1035000085460146F167938507200145C9350100CD
:10351000B240224441018280797106D622D400183B
:10352000232EA4FC232CB4FC232AC4FC232604FE53
:1035300099A00100956783A7C71D930500043E85E8
:10354000EFE07FE6AA87FDD7956783A7C71DBE86F4
:10355000832784FD13871700232CE4FC838707004F
:10356000C207C183BE853685EFE01FE18327C4FE15
:1035700085072326F4FE0327C4FE832744FDE34A80
:10358000F7FA832744FD3E85B2502254456182807C
:10359000011122CE0010232604FE232404FEB717B7
:1035A00002409443B71702404167558F98C3B7173D
:1035B00002409843B7070200F98F2324F4FE8327C3
:1035C000C4FE85072326F4FE832784FE99E703279C
:1035D000C4FE93070050E31CF7FCB7170240984362
:1035E000B7070200F98F89C785472324F4FE19A085
:1035F000232404FE032784FE85476317F70CB727AF
:1036000002409843B72702401367070198C3B727C2
:1036100002409843B7270240719B98C3B7270240E6
:103620009843B72702401367270098C33717024013
:10363000B71702405843D8C337170240B7170240A4
:103640005843D8C337170240B71702405843D8C36E
:10365000B7170240D443B71702403707C1FF7D17A1
:10366000758FD8C3B7170240D443B7170240370746
:103670002500558FD8C3B71702409443B7170240AF
:1036800037070001558F98C30100B71702409843D0
:10369000B7070002F98FF5DBB7170240D843B71719
:1036A0000240719BD8C3B7170240D843B7170240F6
:1036B00013672700D8C30100B7170240DC4313F794
:1036C000C700A147E31AF7FE01007244056182803A
:1036D000411106C622C40008B71702409843B71725
:1036E00002401367170098C3B7170240D443B717B7
:1036F00002403707FFF8758FD8C3B71702409443CD
:10370000B71702403707F7FE7D17758F98C3B717B5
:1037100002409443B71702403707FCFF7D17758FAF
:1037200098C3B7170240D443B7170240370781FF49
:103730007D17758FD8C3B717024037079F0098C70A
:10374000813D0100B240224441018280411106C600
:1037500022C4000885460146814513055003EFF059
:10376000CFA3054693054042B74701401385078024
:10377000EFE05FAD054693050004B74701401385B0
:103780000780EFE07FB8B707002093878721930673
:1037900040063E86B747014093854780B707024001
:1037A0001385870531200100B24022444101828007
:1037B0005D7186C6A2C48008232EA4FA232CB4FA15
:1037C000232AC4FA2328D4FA0327C4FBB7070240EC
:1037D000A1076301F7060327C4FBB7070240F107FF
:1037E000630AF7040327C4FBB70702409387070364
:1037F0006302F7040327C4FBB7070240938747041B
:10380000630AF7020327C4FBB707024093878705C3
:103810006302F7020327C4FBB70702409387C7067A
:10382000630AF7000327C4FBB70702409387070822
:103830006317F70085450545EFD07FBAA9A8032790
:10384000C4FBB7070240938787406302F70403274E
:10385000C4FBB70702409387C741630AF7020327F7
:10386000C4FBB7070240938707436302F7020327AD
:10387000C4FBB707024093874744630AF700032756
:10388000C4FBB7070240938787456316F700854559
:103890000945EFD0DFB40325C4FBEFC05FFD8327EC
:1038A00084FB2322F4FC832744FB2324F4FC2326FB
:1038B00004FC832704FB2328F4FC232A04FC93073D
:1038C0000008232CF4FC232E04FC232004FE2322D6
:1038D00004FE8D672324F4FE232604FE930744FC94
:1038E000BE850325C4FBEFD06F99054689450325A6
:1038F000C4FBEFD02FA785450325C4FBEFD08FA2D3
:103900000100B640264461618280411106C622C48E
:1039100000081386818A93859182B707002013855A
:103920008721292883C791823E879385818A3A859A
:1039300071280100B240224441018280797106D68B
:1039400022D40018232EA4FC232CB4FC232AC4FC6C
:103950009567938587180325C4FDEF0070322326F1
:10396000A4FE232404FE91A0832784FE138717005E
:103970002324E4FE8A07032744FDBA970327C4FEE5
:1039800098C3032784FEA54763D9E700956713858D
:10399000C718EF00502E81472DA095679385871893
:1039A0000145EF00F02D2326A4FE8327C4FECDFFA2
:1039B000832784FE13F7F70F832784FD2380E70016
:1039C00085473E85B250225445618280797106D682
:1039D00022D40018232EA4FC232CB4FC832784FDBE
:1039E000984395679385871A3A85EFC0EFFFAA87BA
:1039F000B5EB232604FE95A08327C4FE85078A071E
:103A0000032784FDBA979C433E857124AA87939629
:103A10000701C1860327C4FE1386018DBA87860776
:103A2000BA978607B297239AD7040327C4FE9386D2
:103A3000018DBA878607BA978607B6978397470599
:103A40003E868325C4FE95671385071BEF00F010A3
:103A50008327C4FE85072326F4FE0327C4FE8D4773
:103A6000E3DCE7F885473E85B25022544561828009
:103A7000411106C622C4000893060031014685455F
:103A80001305A004EFE0FFC80146916793858726E0
:103A900013050030EFF0AFB99306003101468545BC
:103AA0001305B004EFE0FFC60146916793858726B2
:103AB00013051030EFF0AFB793060031014685458E
:103AC0001305C002EFE0FFC4014691679385872686
:103AD00013052030EFF0AFB5930600310146854560
:103AE0002145EFE01FC301469167938587261305A3
:103AF0003030EFF0CFB30100B24022444101828068
:103B0000011106CE22CC00102326A4FE2324B4FEED
:103B10002322C4FE2320D4FE0327C4FE8967938793
:103B2000077163D8E7008967938707712326F4FE3E
:103B300029A80327C4FEF9779387078F6357F700F7
:103B4000F9779387078F2326F4FE032784FE89677E
:103B50009387077163D8E7008967938707712324E8
:103B6000F4FE29A8032784FEF9779387078F63570C
:103B7000F700F9779387078F2324F4FE032744FE89
:103B800089679387077163D8E7008967938707710F
:103B90002322F4FE29A8032744FEF9779387078F91
:103BA0006357F700F9779387078F2322F4FE0327E3
:103BB00004FE89679387077163D8E7008967938755
:103BC00007712320F4FE29A8032704FEF9779387C1
:103BD000078F6357F700F9779387078F2320F4FE49
:103BE0008327C4FE63C8070081451305A004EFE0E6
:103BF0009FCC31A085451305A004EFE0DFCB8327E0
:103C0000C4FEBE8513050030EFF08FDE832784FEEF
:103C100063C8070081451305B004EFE0DFC931A098
:103C200085451305B004EFE01FC9832784FEBE85D8
:103C300013051030EFF0CFDB832744FE63C8070085
:103C400081451305C002EFE01FC731A0854513056C
:103C5000C002EFE05FC6832744FEBE851305203017
:103C6000EFF00FD9832704FE63C707008145214584
:103C7000EFE07FC429A085452145EFE0DFC383271E
:103C800004FEBE8513053030EFF08FD60100F24000
:103C9000624405618280294681456F0030201C46C0
:103CA000FD171CC663DA0700184E63C5E700A94775
:103CB0006394F5006F0050201C422E851387170077
:103CC00018C22380B7008280011122CC26CA4AC8BC
:103CD0004EC652C406CE2A89AE893284B304D600B9
:103CE0007D5A63149400014509A8834504004E865B
:103CF0004A8575370504E31645FFF2406244D24415
:103D00004249B249224A05618280357122CD26CBD3
:103D10004AC94EC706CF52C556C35AC1DEDEE2DCE1
:103D2000E6DAAA89AE843289368409C51C4D99E346
:103D3000EF00F05A9717000093874751639CF40CEB
:103D400083A4490083D7C400A18BFDC79C48EDC75D
:103D500093070002A304F1029307000302D2230594
:103D6000F10222C6930B5002971A0000938A4A4828
:103D7000054C294B4A848347040099C36391770F0C
:103D8000B30C2441638D0C00E6864A86A6854E85D9
:103D9000253FFD576309F51E9256E69636D28347B6
:103DA00004006382071EFD571309140002C802CEE7
:103DB0003ECA02CCA309010482D4834509001546FA
:103DC0005685EF00907C13041900C24759E913F798
:103DD000070109C713070002A309E10413F78700CD
:103DE00009C71307B002A309E104834609001307BA
:103DF000A0026380E608F2474A84814625460347CD
:103E0000040093051400130707FD6379E60AB5CA99
:103E10003ECE85A897170000938747456395F40029
:103E200083A4890005B79717000093872740E39B79
:103E3000F4F083A4C90039B7A6854E85EF00D013EE
:103E400001D97D55FA406A44DA444A49BA492A4AB6
:103E50009A4A0A4BF65B665CD65C0D61828005046B
:103E600019BF330555413315AC00C98F3EC82289AF
:103E7000A9B7324793064700184336C6634907027D
:103E80003ACE034704009307E002631FF704034799
:103E900014009307A002631BF702B24709041387BB
:103EA00047009C433AC663C107023ECA35A83307A0
:103EB000E04093E727003ACE3EC8E1B7B3876703F7
:103EC00085462E84BA9725BFFD57C5B7050402CA9B
:103ED00081468147254603470400930514001307D4
:103EE00007FD6378E606F1F2834504000D461715D9
:103EF000000013056530EF00506911CD97170000E1
:103F00009387872F1D8D93070004B397A700424521
:103F100005045D8D2AC88345040019461715000065
:103F20001305C52D130914002304B102EF00F06539
:103F30003DC197C7FFFF9387E70C95E74247B2471C
:103F40001377071009CF91073EC69257D2973ED2FA
:103F500015B5B387670385462E84BA97ADBF9D0715
:103F6000E19BA107D5B7780097060000938606D697
:103F700026860C084E8597000000E7000000FD57DC
:103F80002A8AE314F5FC83D7C40093F70704E39A65
:103F900007EA125545BD780097060000938606D3C0
:103FA00026860C084E85012AD9BF797156CA9C49CC
:103FB000BA8A984522D426D24ECE52CC06D64AD0C2
:103FC0005AC85EC6AA892E84B284368A63D3E700B3
:103FD000BA879CC00347340419C385079CC01C40A2
:103FE00093F7070281C79C4089079CC003290400FE
:103FF00013796900631A0900130B9401FD5B5C449B
:104000009840998F634CF9041C408346340493F71D
:104010000702B336D000A5EB13063404D2854E85D3
:10402000829AFD576303F5041C4011469840998B12
:10403000544481446397C700B384E64063D30400CB
:1040400081441C4418486354F700998FBE94014979
:1040500069047D5B63982405014509A885465A8655
:10406000D2854E85829A631E75017D55B2502254C9
:1040700092540259F249624AD24A424BB24B4561CC
:1040800082800509ADBF3307D40013060003A301E6
:10409000C7040347540493871600A2978906A38197
:1040A000E7049DBF85462286D2854E85829AE30E1F
:1040B00065FB050945B7797122D426D24AD04ECE88
:1040C00006D652CC56CA5AC8B68983C6850193070C
:1040D000E0063289AA842E84138635046380F61E96
:1040E00063E2D706930730066382F60A63EDD700D2
:1040F000638A061E930780056386F616930A2404D6
:104100002301D40469A8930740066386F600930749
:104110009006E395F6FE1C40084393F607089305C6
:104120004500C1C21C410CC363D807001307D0026D
:10413000B307F040A301E404971600009386860CB1
:10414000294765A0930730076382F61A63EFD7000B
:104150009307F006638FF60493070007E390F6FADF
:104160009C4193E707029CC109A89307500763820B
:10417000F60493078007E393F6F893078007A302FA
:10418000F4049716000093862609DDA01C43938A49
:104190002504938647009C4314C32381F504854777
:1041A000B5A293F607041C410CC3BDDEC207C1874C
:1041B000A5BF0C401C4313F8050813854700630591
:1041C000080008C39C4339A093F5050408C3FDD932
:1041D00083D707001307F006638AE60C97160000E2
:1041E000938646022947A30104044C400CC463C5CE
:1041F000050008406D9908C099E3B28A91CDB28A52
:10420000B3F5E702FD1AB69583C505002380BA0011
:10421000B3D5E70263F2E70AA147631EF7001C402B
:10422000858B91CB58401C4863C7E7009307000378
:10423000A38FFAFEFD1A3306564110C84E87CA8670
:104240007000A285268595337D5A6315450D7D55F1
:10425000B250225492540259F249624AD24A424B15
:1042600045618280A382D50497160000938686F963
:104270000C40084313F805081C41110563000802AF
:1042800008C313F7150001C793E505020CC04147A9
:10429000B9FB0C4093F5F5FD0CC0B1B713F805045C
:1042A00008C3E30008FEC207C183E1BF9716000000
:1042B000938646F5214705BFAE8799B794411C43C5
:1042C000CC4913F80608138547006306080008C3A5
:1042D0009C438CC301A808C393F606049C43F5DAFB
:1042E0002390B70023280400B28A89BF1C43D04121
:1042F00081459386470014C383AA07005685EF00C3
:10430000D02801C53305554148C05C401CC8A301F5
:1043100004042DB714485686CA8526858299E30879
:1043200045F31C40898B8DE7B2474844E352F5F2D0
:104330003E8539BF85465686CA8526858299E3081B
:1043400065F1050A5C443247998FE345FAFEE9BFFF
:10435000014A930A94017D5BF5B739713EDA2ED29A
:1043600032D436D63AD842DC46DE9387818022CCDE
:10437000804326CA06CEAA8411C41C4C81E722853C
:10438000EF00E0750C4454102686228536C6EFF007
:10439000DF97F2406244D24421618280011126CA33
:1043A0004AC806CE22CC4EC652C4AA842E8901C564
:1043B0001C4D91E32D279C4C804499E326850527CD
:1043C00097170000938787E8631CF402C040835767
:1043D000C400A18BB1C71C48A1C7FD59294A1C4480
:1043E00083450900FD17B1E91CC463DE0706228678
:1043F000A9452685D124FD576308F502294535A036
:1044000097170000938787E66314F4008044C1B7D0
:1044100097170000938787E1E31BF4FAC04445BF78
:10442000A2852685912E55D97D55F2406244D2440D
:104430004249B249224A056182801CC4050963D7FA
:104440000700184C63CBE700638945011C401387C4
:10445000170018C02380B70059B722862685A92CDB
:10446000E31F35F7D1B71C401387170018C0294741
:104470002380E70061B793878180AA85884339BF8D
:1044800001119387818022CC804326CA06CE3C4C02
:10449000AA84B1EF130500052EC6EF00D00AB2457D
:1044A00028CC2320050023220500232405002326F1
:1044B000050023280500232A0500232C05002324BA
:1044C00005022326050223280502232A0502232CA0
:1044D0000502232E0502232005042322050423249C
:1044E000050423260504230E050023220502304C73
:1044F0006244F2402685D2448546056109A009E55B
:10450000084219E182803E859307150003C8F7FF32
:104510002E8705078348F7FF639808006310080299
:104520002320060001458280E31518FFE9FE1CC226
:10453000230005008280814739A889E6850703C8E2
:10454000F7FF2E8705078346F7FFE318D8FEE3043D
:1045500008FEA38F07FE1CC2828079714AD04ECE1E
:1045600006D622D426D2AA892E899304190003C420
:10457000F4FF3A8536C632C42EC23AC0C12D229508
:104580008347150002479245A18B2246B246C9E7F0
:104590009307D0026314F40883C70400054393040F
:1045A0002900FDC641476392E60213070003639E9C
:1045B000E70083C704001307800593F7F70D6394A2
:1045C000E70C83C71400C1468904B7080080631450
:1045D000030093C8F8FF33FFD80201480145A54FF7
:1045E000E54EFD5233DED802138707FD63E4EF0486
:1045F000BA8763DFD704630D58007D58636AAE0045
:104600006314AE006346FF0005483385A6023E955D
:10461000850483C7F4FFC9BF268981BF9307B00211
:104620006305F400A2870143ADBF83C70400930470
:104630002900D5BF1387F7FB63E5EE00938797FC4E
:104640004DBF1387F7F963E5EE00938797FA55B7E7
:10465000FD57631FF8009307200223A0F900468549
:1046600019EEB250225492540259F24945618280A7
:10467000630403003305A0406DD6630408009385EE
:10468000F4FF0CC2F9BF93070003A1F2A14635BFA6
:1046900013070003E38FE7F0A94605BF93878180E6
:1046A0009C43B286985309E717C7FF1F1307879CDF
:1046B0002E86AA853E8555B5011122CC26CA4AC848
:1046C00006CE4EC6AA842E89328401C51C4D91E3C4
:1046D000392197170000938767B76319F406C04024
:1046E0001C4C1CC48357C400A18BC9C31C48BDCF3C
:1046F0001C4808409379F90F1379F90F1D8D5C4818
:104700006346F500A2852685652C2DE51C4405052C
:10471000FD171CC41C401387170018C023803701E5
:104720005C486389A7008357C400858B81CBA94768
:104730006316F900A285268561240DEDF2406244DE
:104740004A85D2444249B2490561828097170000E8
:104750009387C7B16314F400804459B797170000DA
:104760009387C7ACE31EF4F6C0449DBFA28526859F
:1047700021203DDD7D59D9B741119387818026C223
:10478000844322C44AC006C62A892E8489C49C4C0C
:1047900099E32685A92697170000938727AB631C0A
:1047A000F402C0400317C40093170701C18393F6B6
:1047B0008700B5EE93F607019DEEA5472320F9008B
:1047C000136707042316E4007D55B2402244924447
:1047D00002494101828097170000938727A963143B
:1047E000F4008044C1B797170000938727A4E31B08
:1047F000F4FAC04445BF918B8DC74C5889C99307C3
:1048000044046384F5004A85712B232A04028357EC
:10481000C4002322040093F7B7FD2316F4001C48BC
:104820001CC08357C40093E787002316F4001C487C
:1048300081EF8357C4001307002093F7072863858F
:10484000E700A2854A8595218357C40013F7170016
:1048500005C75C4823240400B307F0401CCC1C4867
:104860000145A5F78317C40013F7070839DF93E75D
:1048700007042316F40089BF898B014791E3584848
:1048800018C4F1BF83D7C500011122CC26CA06CEB9
:104890004AC84EC613F78700AA842E8471EFD84108
:1048A000634DE000B841634AE0000145F2406244D4
:1048B000D2444249B2490561828058547DD703A948
:1048C00004009396370123A0040063DD06067048B8
:1048D0008357C400918B99C75C401D8E5C5899C367
:1048E0003C401D8E5C540C50814626858297FD57B6
:1048F0000357C400631DF5009440F54763E8D706ED
:10490000B70740208507B3D7D700858BA5C31C48C0
:10491000232204001CC09317370163D80700FD57FA
:104920006314F5009C4091E368C84C5823A024010F
:10493000ADDD930744046384F5002685A521232A71
:104940000402A5B70C500146854626850297FD57FF
:104950002A86E31FF5F69C40A5DF75476385E700CF
:1049600059476394E70423A0240181B71367070420
:104970002316E4007D551DBF83A90501E38709F2D5
:1049800003A905008D8B23A0350133093941014767
:1049900091E3D84918C4E35A20F11C540C50CA863C
:1049A0004E86268582976349A0008357C40093E70B
:1049B00007042316F4007DBFAA993309A940E1BF7B
:1049C0009C49B9CF011122CC06CE2A8411C51C4DB9
:1049D00081E72EC62922B2459717000093870787E3
:1049E000639BF5004C408397C50095C722856244C0
:1049F000F240056141BD97170000938727876394B4
:104A0000F5000C44CDB79717000093872782E39CED
:104A1000F5FC4C44C9BFF240624401450561828007
:104A200001458280411122C406C62A842316B5009E
:104A30002317C50023200500232205002324050099
:104A40002322050623280500232A0500232C050020
:104A5000214681451305C505EFB08FEE970700008D
:104A60009387274E5CD097070000938787501CD40C
:104A7000970700009387C7545CD49707000093877B
:104A8000875700D01CD8B24022444101828097054C
:104A90000000938525F3A9A2411126C213068006C2
:104AA0009384F5FFB384C4024AC02E8922C406C68B
:104AB00093854407512E2A8401CD2320050023220B
:104AC0002501310508C4138684068145EFB04FE700
:104AD0002285B240224492440249410182801C4D09
:104AE000ADE3411106C622C497070000938767FA19
:104AF0001CD59387C1809C432324050423260504E9
:104B0000232805046314F50085471CCD2A841D283D
:104B100048C02285052808C422852D2048C4484065
:104B200001469145013708440546A545E53D484401
:104B30000946C945C53D85471CCCB24022444101C8
:104B40008280828041119387C18026C284434AC0FB
:104B500006C69C4C22C42A8999E32685493793844A
:104B600084048044DC40FD1763D607009C40B9CF25
:104B70008440C5BF0317C40039E7C17785072322E6
:104B800004062320040023220400232404005CC420
:104B900023280400232A0400232C040021468145F5
:104BA0001305C405EFB0CFD9232A0402232C040235
:104BB00023240404232604042285B2402244924480
:104BC0000249410182801304840671BF91454A85E0
:104BD000E13588C051FDB1472320F9000144E9BF08
:104BE000797122D44AD052CC56CA5AC85EC606D66B
:104BF00026D24ECE2A8AAE8A130485040149054B7B
:104C0000FD5B09ECB25022544A8592540259F24994
:104C1000624AD24A424BB24B4561828004448329A6
:104C20004400FD1963D409000040E1BF83D7C400EC
:104C3000637BFB008397E40063877701A685528539
:104C4000829A3369A90093848406E1BF0325C50EC7
:104C500082801971A6DAAE848395E500A2DC86DE37
:104C6000328463DC050083D7C40023A0060093F7D9
:104C700007089DE39307004015A0300836C6C52EEF
:104C8000B246E34205FE7247BD67F98F7977BA975E
:104C900093B717009CC2F9BF930700041CC0F650DD
:104CA0006654D65401450961828083D7C50001113D
:104CB00022CC06CE26CA4AC8898B2E8489CF930778
:104CC00074041CC01CC885475CC8F2406244D244CE
:104CD00042490561828074003000AA849D3FA2454C
:104CE0002A892685952201ED8317C40013F7072032
:104CF00069FFF19B93E727002316F400C9B79707D4
:104D00000000938707D99CD48357C40008C008C803
:104D100093E707082316F400A2475CC8B24789CF7F
:104D20008315E40026858D2E01C98357C400F19BAD
:104D300093E717002316F4008357C4003369F90082
:104D40002316240159B793878180AA858843EDA84B
:104D500085E141116C00014511CA795581CA83472B
:104D600006009CC1034506003335A0004101828046
:104D7000014519CA795589CA834706009CC1034574
:104D800006003335A0008280828093F5F50F2A96C5
:104D90006314C5000145828083470500E38DB7FE9B
:104DA0000505FDB7CDC183A7C5FF411122C406C6C5
:104DB00026C21384C5FF63D307003E94AA843D2610
:104DC0009387C1829C4399EB2322040023A681820E
:104DD0002244B24026859244410111AE637EF40024
:104DE00014403307D4006396E7009843DC433697BA
:104DF00018C05CC0E1BFBA87D84319C3E37DE4FEA5
:104E000094433386D700631F86001040B29694C344
:104E10003386D700E31EC7FA10435843B29694C3B3
:104E2000D8C37DB76375C400B1479CC055B7104067
:104E3000B306C4006316D70014435843B29614C097
:104E400058C0C0C371B78280011126CA938435004F
:104E5000F19806CE22CC4AC84EC6A104B14763F1F0
:104E6000F404B14463E0B4042A8949249387C182DD
:104E700098433A8431E0938701839C4391E78145CD
:104E80004A85512823A8A182A6854A856920FD5913
:104E900063173507B1472320F9004A85892C29A0DB
:104EA000E3D204FCB1471CC10145F2406244D24444
:104EB0004249B249056182801C40858F63CE07025A
:104EC000AD4663F6F6001CC03E9404C031A05C40C1
:104ED0006312870223A6F1824A85112C1305B400C0
:104EE0009307440061993307F54061D33A94898F61
:104EF0001CC065BF5CC3CDB722874040A5BF13046B
:104F000035007198E30385FCB305A4404A85212050
:104F1000E31D35FB41B7411122C42A842E8523AEFF
:104F2000019206C6152CFD576317F5009387C193B0
:104F30009C4391C31CC0B240224441018280411174
:104F400022C42E848395E50006C65D2263490500D0
:104F50007C48AA977CC8B240224441018280835792
:104F6000C4007D777D17F98F2316F400EDB783D742
:104F7000C500011122CC26CA4AC84EC606CE93F7F8
:104F80000710AA842E843289B68991C78395E500DB
:104F90008946014635228357C4007D777D17F98FF6
:104FA0002316F4008315E4006244F240CE864A865C
:104FB000B24942492685D2440561B9A8411122C4AB
:104FC0002E848395E50006C6E528FD570357C400E7
:104FD000631BF500FD77FD17F98F2316F400B2402F
:104FE0002244410182808567D98F2316F40068C866
:104FF000FDB78395E50081A891CD9307F00F63F786
:10500000C7009307A0081CC17D5582802380C5007E
:105010000545828001458280411122C42A842E8563
:10502000B285368623AE019206C6EFE0EFCEFD577D
:105030006317F5009387C1939C4391C31CC0B24092
:10504000224441018280411122C42A842E8523AE4C
:10505000019206C6E120FD576317F5009387C193BF
:105060009C4391C31CC0B240224441018280411143
:1050700022C42A842E85B28523AE019206C66D20F5
:10508000FD576317F5009387C1939C4391C31CC0E0
:10509000B240224441018280411122C42A842E85DB
:1050A00023AE019206C67920FD576317F50093875A
:1050B000C1939C4391C31CC0B240224441018280F1
:1050C000411122C42A842E85B285368623AE0192F0
:1050D00006C6BD20FD576317F5009387C1939C4317
:1050E00091C31CC0B24022444101828082808280F0
:1050F000411122C42A842E85B285368623AE0192C0
:1051000006C6A920FD576317F5009387C1939C43FA
:1051100091C31CC0B24022444101828093078005A4
:1051200023AEF1927D5582809307800523AEF192E4
:105130007D5582809307800523AEF19201458280E0
:105140009307800523AEF1927D55828093078005F9
:1051500023AEF1927D558280938741839C4391C712
:105160003E9523AAA1823E858280938701943E9535
:1051700023AAA1823E8582803D3D496E6974204408
:105180006F6E653D3D0D000020000000232320547C
:105190006F6F206D616E7920617267756D656E74D9
:1051A00073212023230D0000536574447574790026
:1051B0005B25645D3A25640D0A000000000801408B
:1051C000000C01400010014000140140002C01407F
:1051D000000000400004004000080040003801408A
:1051E0000044004000480040004C0040232D302B7C
:1051F00020000000686C4C0065666745464700006B
:1052000030313233343536373839414243444546FC
:1052100000000000303132333435363738396162BE
:1052200063646566000000000000000000000000EC
:10523000000000000000000000000000000000006E
:10524000000000000000000000000000000000005E
:10525000000000000000000000000000000000004E
:10526000000000000000000000000000000000003E
:10527000000000000000000000000000000000002E
:10528000000000000000000043000000504F5349A0
:10529000580000002E0000000020202020202020A8
:1052A00020202828282828202020202020202020D6
:1052B00020202020202020202088101010101010E6
:1052C0001010101010101010100404040404040432
:1052D00004040410101010101010414141414141CC
:1052E00001010101010101010101010101010101AE
:1052F00001010101101010101010424242424242BE
:10530000020202020202020202020202020202027D
:105310000202020210101010200000000000000025
:10532000000000000000000000000000000000007D
:10533000000000000000000000000000000000006D
:10534000000000000000000000000000000000005D
:10535000000000000000000000000000000000004D
:10536000000000000000000000000000000000003D
:10537000000000000000000000000000000000002D
:10538000000000000000000000000000000000001D
:0C53900000000000000000000000000011
:10539C0000000000010203040102030406070809CF
:1053AC000000000048520000685200002852000023
:1053BC0000000000000000000000000000000000E1
:1053CC0000000000000000000000000000000000D1
:1053DC0000000000000000000000000000000000C1
:1053EC0000000000000000000000000000000000B1
:1053FC0000000000000000000000000000000000A1
:10540C00430000000000000000000000000000004D
:10541C000000000000000000000000000000000080
:10542C00430000000000000000000000000000002D
:10543C000000000000000000000000000000000060
:10544C00430000000000000000000000000000000D
:10545C000000000000000000000000000000000040
:10546C0043000000000000000000000000000000ED
:10547C000000000000000000000000000000000020
:10548C0043000000000000000000000000000000CD
:10549C000000000000000000000000000000000000
:1054AC0043000000000000000000000000000000AD
:1054BC0000000000000000000000000000000000E0
:1054CC00430000000000000000000000000000008D
:1054DC0000000000000000000000000000000000C0
:1054EC00F84F0000504D00000000000098520000E2
:1054FC009452000010520000105200001052000094
:10550C001052000010520000105200001052000007
:10551C001052000010520000FFFFFFFFFFFFFFFFC3
:10552C00FFFFFFFFFFFF000001004153434949000B
:10553C00000000000000000000000000000000005F
:10554C0000000000000000000000415343494900E6
:10555C00000000000000000000000000000000003F
:10556C00000000000000000000000000000000002F
:10557C0002040608010000001000002010000020AA
:00000001FF
