:100000006F00206F130000001300000013000000B9
:100010001300000013000000130000001300000094
:100020001300000013000000130000001300000084
:08003000130000007300100032
:100038006FF09FFC000000006F0060626F0060625C
:1000480000000000000000000000000000000000A8
:100058000000000000000000000000000000000098
:100068006FF09FF9000000006FF01FF9000000001A
:100078006FF09FF86FF05FF86FF01FF86FF0DFF721
:100088006FF09FF76FF05FF76F0060276F006027D2
:100098006F00A0286F00E0286F00E0286FF0DFF500
:1000A8006FF09FF56FF05FF56F0000586F004059D3
:1000B8006FF09FF46FF05FF46F00A027000000005E
:1000C8000000000000000000000000006F00E025B4
:1000D8006F0060266F00A0286F00E0336F00603863
:1000E8006F0060406F00E0416F00E0436FF0DFF0A9
:1000F8006FF09FF06FF05FF06FF01FF06FF0DFEFC1
:100108006FF09FEF6F0060446F00C04C6F00404F6E
:100118006F00E0216FF05FEE6FF01FEE6FF0DFED24
:1001280000000000000000000000000000000000C7
:080138000000000000000000BF
:100140003D432A876373C3029377F700BDEFADE5A4
:10015000937606FF3D8ABA960CC34CC30CC74CC7B6
:100160004107E36BD7FE11E28280B306C3408A06E3
:100170009702000096966780A6002307B700A306A3
:10018000B7002306B700A305B7002305B700A304F3
:10019000B7002304B700A303B7002303B700A302EB
:1001A000B7002302B700A301B7002301B700A300E3
:1001B000B7002300B700828093F5F50F9396850072
:1001C000D58D93960501D58D61B79396270097023B
:1001D000000096968682E78086FA9680C1171D8F6A
:1001E0003E96E374C3F8A5B73367B500FD530D8B96
:1001F00079E7B7877F7F9387F7F710419441B37210
:10020000F6003363F600BE92B3E262006397720CAD
:100210006318D6065041D441B372F6003363F6003A
:10022000BE92B3E262006398720A631BD604104563
:100230009445B372F6003363F600BE92B3E26200F7
:100240006391720A631ED6025045D445B372F6001C
:100250003363F600BE92B3E26200639A72086311E0
:10026000D60210499449B372F6003363F600BE9289
:10027000B3E26200639372085105D105E30FD6F62D
:100280001317060193970601631CF7001357060125
:1002900093D706013305F7409375F50F91E98280F6
:1002A0004183C1833305F7409375F50F91E1828057
:1002B0001377F70F93F7F70F3305F7408280034664
:1002C000050083C60500050585056313D60065FA9C
:1002D0003305D640828011059105E312D6FE014513
:1002E00082802105A105E31CD6FC014582803105F1
:1002F000B105E316D6FC014582804105C105E31036
:10030000D6FC01458280730020300945B52D854714
:100310006304F50073002030EF108037094559253C
:10032000D5BF114541257300203073002030730084
:10033000203073002030730020307300203093058C
:10034000000837350140130505C0EF00306819E19A
:10035000730020309305000837350140130505C0B0
:10036000EF009068F5B7411122C685453735014049
:10037000130505C0EF00906509E5324441017300A3
:100380002030854537350140130505C0EF00D065A5
:100390001387C18283470700850793F7F70F230070
:1003A000F70013F7170035E30547A384E1822382A2
:1003B000E19E13F73700133717002385E182514779
:1003C000B3F7E70293B717002384F182EF10401EC2
:1003D000EF108022839781831307007D635AF70211
:1003E000239CE18203958183EF50F05FEF60B0586A
:1003F0002A8403952183EF50105FEF60D057A285C8
:10040000EF20704023A4A19A8DBFA384018255B729
:1004100013070083E3D8E7FC239CE182E1B793054F
:10042000000437350140130505C0EF00305A01EDD7
:100430009305000237350140130505C0EF00105940
:1004400001ED73002030930500043735014013059A
:1004500005C0EF007059E9BF930500023735014030
:10046000130505C0EF005058E9BF894537350140F5
:10047000130505C0EF0090551DE991453735014042
:10048000130505C0EF0090541DE9A1453735014023
:10049000130505C0EF0090531DE9C14537350140F4
:1004A000130505C0EF0090521DE973002030894507
:1004B00037350140130505C0EF0010537DBF91454E
:1004C00037350140130505C0EF0010527DBFA1452F
:1004D00037350140130505C0EF0010517DBFC14500
:1004E00037350140130505C0EF0010507DBF85452D
:1004F00037050040EF00904D19E17300203085452D
:1005000037050040EF00504ECDBF85453705004010
:1005100013050540EF00904B19E17300203085452D
:100520003705004013050540EF00104CFDB7854529
:100530003715004013050580EF00504919E173009D
:10054000203085453715004013050580EF00D04960
:10055000FDB7411122C626C4C145374501401305E8
:100560000580EF00F06011E53244A24441017300C0
:100570002030C1453744014013050480EF0010606E
:100580000547A385E1820357048083574480814552
:1005900037040240130584054126130584056526AA
:1005A000930740067CCC130484053385A74013755C
:1005B000F50F938701883E95930700022300F5000D
:1005C000A3000500EF20003B13064006814513857C
:1005D0000188BD3685452285812679B7930550521D
:1005E0003745004013050540EF00305A19E173000C
:1005F0002030930550523745004013050540EF0069
:10060000905DEF10E003E5B7930550523755004079
:1006100013050580EF00705719E173002030930532
:1006200050523755004013050580EF00D05AF5B7FA
:100630000965312E85476304F50073002030096594
:100640003D26EF104006D5BF411106C63705020012
:10065000FD2C85476305F500B240410182803705D6
:1006600002003126D5BF7300203001A0411106C61B
:1006700022C426C24AC0EF10A020EF10504BEF104A
:100680003079EF109065EF20E033EF00B0659545CD
:100690000145EF10A022054685453734014013057A
:1006A00004C0EF00D0258545130504C0EF00D0330A
:1006B00085460946854513059002EF10E015014572
:1006C000EF10801E37950000130505DBEF10F04991
:1006D0000964130404F49304200303A541843355EF
:1006E0008502330595028145EF10B027EF20205891
:1006F000EDB7970100209381E131175100201301DC
:100700006190179500001305E5009705002093857B
:10071000658F1386818263FAC5008322050023A0BA
:10072000550011059105E3EAC5FE13858182938585
:1007300001A06377B500232005001105E36DB5FE28
:100740009302800873A00230970200009382028F08
:1007500093E2120073905230EF107047970200003E
:10076000938202F173901234730020301C41416770
:100770007917F98F1CC123200500232205002324AB
:10078000050023260500B7070240A1076304F5080A
:10079000B7070240F1076306F508B70702409387E1
:1007A00007036307F508B707024093874704630A06
:1007B000F508B707024093878705630BF508B7076D
:1007C00002409387C706630DF508B7070240938779
:1007D0000708630FF508B707024093878740630156
:1007E000F50AB70702409387C7416304F50AB707C4
:1007F0000240938707436307F50AB70702409387D0
:100800004744630CF50AB707024093878745630F97
:10081000F50A8280370702405C4393E7F7005CC328
:100820008280370702405C4393E7070F5CC38280F6
:10083000B7060240DC420567130707F0D98FDCC218
:100840008280370702405C43BD66D58F5CC38280DF
:10085000370702405C43B7060F00D58F5CC3828028
:10086000370702405C43B706F000D58F5CC3828037
:10087000370702405C43B706000FD58F5CC3828008
:10088000B707024003A747401367F70023A2E740DA
:100890008280B707024003A747401367070F23A2D0
:1008A000E7408280B707024003A7474085669386EA
:1008B00006F0558F23A2E7408280B707024003A7C6
:1008C0004740BD66558F23A2E7408280B7070240AC
:1008D00003A74740B7060F00558F23A2E74015BF77
:1008E0001C4161773D077D8F9C459451D58F94497C
:1008F000D58FD449D58F944DD58FD44DD58FD45124
:10090000D58F9455D58FD98F1CC1DC455CC19C41D6
:100910001CC5DC415CC5828091C51C4193E7170072
:100920001CC182801C4141677917F98F1CC18280EC
:1009300009C61C41DD8D0CC182801C4193C5F5FFA9
:10094000FD8D0CC182804841420541818280931710
:10095000350063DA0700B707024083A707407D8DA3
:100960003335A0008280B70702409C43CDBF931768
:10097000350063D70700B707024023A2A740828053
:10098000B7070240C8C3828037070140832707406A
:1009900003274741698F09C77D8D3335A0008280C9
:1009A00001458280B707014023AAA74082809C4569
:1009B00093F8F700C18B81C7DC41B3E8F80083C727
:1009C0000500A9CB10418147054E3D4F930E800293
:1009D000930F8004214329A054C98507638B6702C4
:1009E000B316FE0003D70500758FE398E6FE139754
:1009F00027003318EF001348F8FF3376C800339709
:100A0000E800598E9845E309D7FDE318F7FD14C9AE
:100A1000E9B710C103D705009307F00F63FDE704A2
:100A20005041A147054EBD4F130F8002930E800425
:100A3000414331A054C915A88507638D6702B316D9
:100A4000FE0003D70500758FE398E6FE1397270095
:100A500001173398EF001348F8FF3376C800339737
:100A6000E800598E9845E307E7FD9845E316D7FD62
:100A700014C9D9B750C1828019C20CC982804CC92F
:100A800082802A8663400504B7070140DC43931641
:100A90000501C182370730003378E5006308E802BA
:100AA0001317B500635C0704135705011378F700AB
:100AB0000D47331707011347F7FF7D8FB707000F67
:100AC000D98F0DA0B7070140DC4FD1B7370700F130
:100AD0007D17F98FB708014003A848003377E80075
:100AE00023A2E80091C5558112053395A600C98F50
:100AF00063420602370701405CC3828013575501E9
:100B000012073397E6001347F7FF7D8FB707000FF3
:100B1000D98FC9BF370701405CCF8280B7E700E0BB
:100B2000BC47898B95CF83460500834725009207F4
:100B300093F7F70F37E700E036972300F7405C4163
:100B4000B5C703470500935757008546B396E6009F
:100B5000938707048A0737E700E0BA9794C3828037
:100B6000B7E700E0BC47898BF9FB034715008547D1
:100B7000630FF7008346050083472500920793F72C
:100B8000F70F37E700E036972300F7404DBF834665
:100B9000050083472500920793E707F893F7F70FBF
:100BA00037E700E036972300F74051BF03470500C1
:100BB000935757008546B396E600938707068A0742
:100BC00037E700E0BA9794C38280B7170240DC434E
:100BD000B18B11476384E70821476387E70899C70A
:100BE000B7177A00938707201CC131A0B7177A0086
:100BF000938707201CC1371602405C429183BD8B4E
:100C00003707002013070700BA9783C607001C4167
:100C1000B3D7D7005CC15442A1829D8ABA9683C6DD
:100C20000600B3D6D70014C55442AD829D8A3697CC
:100C300003470700B3D7E7005CC558423983937672
:100C400037003707002013070721369703470700AF
:100C50001377F70FB3D7E7021CC98280B7177A0062
:100C6000938707201CC141BF371702405C4358439C
:100C7000C983BD8B89079316F70063CA060037172F
:100C80003D0013070790B387E7021CC1ADB73717C4
:100C9000024058439316E70063DA060037173D0019
:100CA00013070790B387E7021CC1B1B737177A0063
:100CB00013070720B387E7021CC135BF99C5371753
:100CC00002405C4B5D8D48CB8280B7170240D84B09
:100CD0001345F5FF798DC8CB828099C5371702403F
:100CE0001C4F5D8D08CF8280B7170240984F134587
:100CF000F5FF798D88CF828099C5371702405C4F08
:100D00005D8D48CF8280B7170240D84F1345F5FF5D
:100D1000798DC8CF8280035705008D6793870704BC
:100D20007D8F83D7050083D62500D58F83D64500D8
:100D3000D58F83D66500D58F83D68500D58F83D692
:100D4000A500D58F83D6C500D58F83D6E500D58F76
:100D5000D98F2310F5000357C501FD779387F77FDF
:100D6000F98F231EF50083D705012318F500828033
:100D700081C98357050093E707042310F50082809B
:100D800083570500C207C18393F7F7FBC207C183EE
:100D90002310F500828083570500C207C1833737CF
:100DA0000140130707C06300E504370700406307ED
:100DB000E506130707406303E506371700401307EE
:100DC0000780630DE50493F7F7CF03D76500D98F4C
:100DD0002310F50083D745002316F50283D70500BD
:100DE0002314F50285A093F7F7F803D72500D98FD0
:100DF00093F7F7CF03D76500D98F2310F50083D77A
:100E000045002316F50283D705002314F50203C716
:100E10008500B73701402398E7C22DA093F7F7F874
:100E200003D72500D98F93F7F7CF03D76500D98F64
:100E30002310F50083D745002316F50283D705005C
:100E40002314F5028547231AF50082808357050293
:100E5000C207C183F99BC207C1832310F5028357E0
:100E60000502C207C18383564500C206C1820357EB
:100E70008501420741831377C7F803D60500518FD8
:100E8000F59B03D6850003D8250033660601D18F74
:100E900037360140130606C0630DC5002312D50086
:100EA000231CE50003D76500231AE5022310F50291
:100EB0008280DD9B03D6A500D18FED9B03D6450034
:100EC000D18F93F6F6CF03D6C50003D8E50033667D
:100ED0000601D18EE1B783570502C207C183BD9BCE
:100EE000C207C1832310F50283570502C207C183DD
:100EF00003564500420641828356850165771307F4
:100F0000F7CF758F83D60500A206558F4207418320
:100F100093F7F7FD03D8850083D62500B3E60601D5
:100F20009206D58FC207C183B7360140938606C0AB
:100F3000630DD5002312C500231CE50003D765000F
:100F4000231CE5022310F502828093F7F7F783D67E
:100F5000A5009206D58FC207C18393F7F7FB83D60E
:100F600045009206D58FC207C183FD769386F63F72
:100F7000758E03D8C50083D6E500B3E606018A0660
:100F8000558E420641827DB783570502C207C18351
:100F900093F7F7EFC207C1832310F50283570502C9
:100FA000C207C18303564500420641820357C5016B
:100FB000420741831377C7F883D60500558F93F70F
:100FC000F7DF03D8850083D62500B3E60601A20625
:100FD000D58FC207C183B7360140938606C0630D23
:100FE000D5002312C500231EE50003D76500231E8C
:100FF000E5022310F5028280FD769386F67FF58F59
:1010000083D6A500A206D58FC207C18393F7F7BF89
:1010100083D64500A206D58FC207C183F576FD169B
:10102000758E03D8C50083D6E500B3E606019206A7
:10103000558E4206418275B703570502FD77FD17AD
:10104000F98F2310F50203580502035645004206A6
:1010500041828357C50165771307F7CF7D8F83D60C
:101060000500A206558F42074183F977FD17B3F7B4
:10107000070103D8850083D62500B3E60601B20632
:10108000D58FC207C183B7360140938606C0630D72
:10109000D5002312C500231EE50003D765002310E9
:1010A000E5042310F5028280F176FD16758E83D655
:1010B000C5009A06558E42064182E1BF81C9835719
:1010C000050093E717002310F50082808357050081
:1010D000C207C183F99BC207C1832310F500828038
:1010E00081C9835745042167D98F2312F504828073
:1010F00083574504C607C5832312F504828019C6A9
:101100008357C500DD8D2316B50082808357C50047
:1011100093C5F5FFFD8D2316B500828083578501A9
:10112000C207C183DD9BDD8D231CB5008280035780
:101130008501FD779387F77FF98FA205CD8FC207D1
:10114000C183231CF50082808357C501C207C18378
:10115000DD9BDD8D231EB50082800357C501FD7721
:101160009387F77FF98FA205CD8FC207C183231E16
:10117000F500828083578501C207C183ED9BDD8D19
:10118000231CB500828083578501C207C18393F772
:10119000F7BFA205CD8FC207C183231CF500828053
:1011A0008357C501C207C183ED9BDD8D231EB500AA
:1011B00082808357C501C207C18393F7F7BFA20599
:1011C000CD8FC207C183231EF5008280835705019E
:1011D0000355C50042054181ED8F89C76D8D3335BB
:1011E000A00082800145828093C5F5FFC205C181C0
:1011F0002318B5008280797106D622D426D22A849B
:10120000AE8403570501F577FD17F98F03D7650005
:10121000D98F2318F5000357C500FD779387379FB3
:10122000F98F03D74500D98F03D78500D98F03D70E
:10123000A500D98F2316F50083574501C207C18346
:1012400093F7F7CF03D7C500D98F231AF5006800AD
:10125000AD3AB7470140938707806301F4065247D0
:101260008357C400C207C18763CC070493171700D4
:10127000BA978E07BA9798400A07B3D7E7021307C1
:101280004006B3D6E7029206B3F7E7020357C4005D
:101290004207418763400704920793872703130798
:1012A0004006B3D7E702BD8BD58FC207C183231495
:1012B000F400B250225492544561828062474DB787
:1012C00093171700BA978E07BA9798400607B3D7B7
:1012D000E70275B7139737001307270393074006F4
:1012E0003357F7021D8BB367D700C1B781C9835746
:1012F000C5000967D98F2316F50082800357C50002
:10130000F977FD17F98F2316F500828093F7F50F13
:1013100095830547B315B700638CE700894613072B
:101320004501638AD70019CA1C43DD8D0CC3828036
:101330001307C500CDBF13070501F5B71C4393C5BF
:10134000F5FFFD8D0CC3828019C683574501DD8DE5
:10135000231AB50082808357450193C5F5FFFD8DA3
:10136000231AB500828093F5F51F2312B500828001
:10137000035505006D8D3335A000828093C5F5FFC0
:10138000C205C1812310B500828093F7F50F9583C4
:1013900085463397B6006388D70289466389D702AA
:1013A000835745017D8F0355050093170501C183C0
:1013B000014509CBA1810545B315B50033F5B7004B
:1013C0003335A00082808357C5007D8FE9BF8357E6
:1013D00005017D8FC9BFA1818547B397B70093C72A
:1013E000F7FFC207C1832310F5008280011106CEEA
:1013F00022CC26CAA56783A447DC056413040480B5
:10140000C0C82306A100A306B10089467000B285BA
:101410000545EF00705180C8F2406244D244056136
:101420008280011106CE22CC26CA4AC82E89A56721
:1014300083A447DC056413040480C0C8136505F861
:101440002306A10083C70500A306F10089467000AA
:10145000B2850545EF00504D8347D1002300F900C8
:1014600080C8F2406244D244424905618280411101
:1014700006C622C426C2A56783A447DC05641304FC
:101480000480C0C8AE862A86AA850545EF00D049EB
:1014900080C8B2402244924441018280011106CEAC
:1014A00022CC26CA4AC8A30701000964130404F425
:1014B000C9449305F10013055007A53783A741845C
:1014C000B3D78702139527003E958145EF007049F9
:1014D0008347F100E39F97FCF2406244D2444249C3
:1014E00005618280011106CE22CC26CA4AC8A30714
:1014F000010003A541840964130404F433558502F3
:10150000931725003E9506058145EF009045094853
:1015100081472D479306200213061002930500020F
:101520000545EF00D0309D3F930500081305B00638
:10153000753D03A541843355850206058145EF00BD
:10154000504226890964130404F49304100493059B
:10155000F1001305B006F13503A54184335585022A
:10156000931725003E9506058145EF00903F834780
:10157000F100E39E97FC85451305B006853D814546
:101580001305C006A535854569458D359D456545DD
:10159000B13DE1456D45993DC1457145813D8D4563
:1015A0007545A935F2406244D244424905618280C2
:1015B000011106CE9307B0FB2304F1009D452800DE
:1015C0007D3583479100A2070347A100D98F239758
:1015D000F1828347B100A2070347C100D98F239846
:1015E000F1828347D100A2070347E100D98F2399F5
:1015F000F182F24005618280011106CE930730FC32
:101600002304F1009D4528009D3583479100A207E2
:101610000347A100D98F239AF1828347B100A20723
:101620000347C100D98F239BF1828347D100A207D2
:101630000347E100D98F239CF182F240056182804B
:10164000A56783A707E703D647009386F18383C77F
:1016500006001387C1833E972300C700850793F7D1
:10166000F70F2380F6000547638BE7000D4763976C
:10167000E700A38F018205472380E184828003C7AE
:10168000C1839307500AE30BF7FEA38F0182828088
:10169000B707024009671307874BB8C7F8431367BA
:1016A0001700F8C382800547238DE182B706024008
:1016B000FC4241677917F98FFCC28280130700084A
:1016C0006306E510797106D622D426D24AD04ECED2
:1016D00052CC9357550013F977001374F501368AED
:1016E000B289AE848DCB05476389E7060947638BD2
:1016F000E7060D47638DE70611476380E708154746
:101700006383E7081947639CE700854513050010CC
:10171000EFF0AFDC29A085451145EFF00FDC8547E0
:101720003394870042044180231281006383F406CE
:101730009376FA0F36C613172900A567938747DCFF
:10174000BA974C008843EFF08FA6B25022549254BF
:101750000259F249624A4561828085452145EFF090
:10176000CFD775BF85454145EFF02FD74DBF854594
:1017700013050002EFF06FD65DB785451305000431
:10178000EFF0AFD569BF854513050008EFF0EFD442
:1017900079B793170A01C183A1839DE78D473EC4A2
:1017A0009376FA0F36C613172900A566938646DC92
:1017B000369704434C002685EFF06F9F4E86A28536
:1017C0002685EFF06FAB51B73EC4D9BF82809357E7
:1017D00055009D8B7D890547638DE5008A07256748
:1017E000130747DCBA97984385473395A70048CB42
:1017F00082808A072567130747DCBA979843854795
:101800003395A70008CB8280B7E700E07D5723A07F
:10181000E71823A2E7188280011106CE2304A10055
:10182000A304B1002305C10036C62800EFF00FAFB6
:1018300037E600E01842FD76F98E03A7418E558FFA
:1018400023A2E18E58429387418E12071183D4431D
:10185000558FD8C303C7870085476305F700F2405B
:10186000056182805537E5BF83A6418E37E700E0EA
:101870002320D7109387418EDC432322F7108280E8
:10188000411106C622C49387418E85462384D70022
:1018900003A4418EDC435D8C33348000B537228550
:1018A000B24022444101828011C18280411106C6AA
:1018B0002386018E553FB24041018280011106CE40
:1018C00022CC26CA2A84AE8449C58547630AF50816
:1018D0008947630CF5088D47630EF508CDC083A7D3
:1018E00041841307007DB3D7E702FD172314F100ED
:1018F0008604FD1423129100231501002313010017
:10190000230601009317240025671307C7E1BA9740
:1019100084434C002685EFF00FC805468545268593
:10192000EFF0EFFD85452685EFF01F8C25C8854734
:10193000630DF40689476301F4088D476305F408D5
:1019400085452685EFF08FF7F2406244D244056169
:1019500082808545056513050580EFF00FB8BDBF92
:1019600085450545EFF04FB995BF85450945EFF031
:10197000AFB8ADB785451145EFF00FB885B7B7964D
:1019800000009386C6DE2566130646DD9305200318
:1019900037950000130505DFEF50F01B854609461B
:1019A0008545130590028D3D61BF854609468545F5
:1019B0001305C002953569B7854609468545130567
:1019C000D002993DB5BF8546094685451305E0021D
:1019D000A135BDB7411106C6930700206301F51C70
:1019E00063F0A704930730216301F52063E5A70E98
:1019F000930730206303F51C63FFA70A93071021A8
:101A00006305F51C63EBA71C930700216313F51214
:101A1000930680310146854513056004453111AABE
:101A2000930710106308F51263FAA70293070011D9
:101A30006300F51463F2A706930720116309F514F8
:101A4000636FF512930730116315F50E930680311D
:101A5000014685451305B0029531E1A88947630D1C
:101A6000F50C63F0A7028D47630FF50C9307001088
:101A70006311F50C930680310146854501453D39DA
:101A80004DA855C185476316F50A93068031014676
:101A900085452545253171A8930720106303F50C72
:101AA000930730106317F50893068031014685458A
:101AB0000D452931BDA8930710206309F50E930742
:101AC00020206318F50693068031014685451305ED
:101AD0000002ED36B9A8930700306308F51263F4ED
:101AE000A702930720306303F5146368F512930788
:101AF00030306310F50493068031014685451305A7
:101B000090026D3E3DA0930700226308F50E9307F7
:101B100010226310F50293068031014685451305B6
:101B20005002693E39A09306803101468545214522
:101B30007136B2404101828093068031014685456D
:101B40002945AD3EFDB793068031014685452D45BB
:101B5000B536C5B793068031014685450545B93E82
:101B6000C9BF93068031014685450945813ED1B7FD
:101B700093068031014685453D4589365DBF930614
:101B8000803101468545130530020D3E5DB7930651
:101B90008031014685451305A0020D3659BF9306D5
:101BA0008031014685451945113E61B79306803164
:101BB000014685451D451936ADBF93068031014666
:101BC000854513051002DD3CADB793068031014613
:101BD000854513057004DD34A9BF930680310146A5
:101BE000854513058004D93CA9B793068031014689
:101BF000854513059004D9342DBF930680310146E5
:101C00008545130540025D3C2DB7930680310146A2
:101C10008545130560025D3429BF93068031014676
:101C2000854513057002EFF07FA921B79306803137
:101C30000146854513058002EFF05FA8DDBD3971CF
:101C400006DE22DC26DA4AD84ED6AA84AE8932894C
:101C5000513313D4840075C085476307F40E894758
:101C6000630CF4108D47630FF41285450545EFF0C2
:101C7000CF86B7170240DC43C983BD8B37177A0084
:101C800013070720B387E7023727F400130707403D
:101C9000BA9723A2F18433D7370341839305170002
:101CA000B3853503B3D7B7029386F7FF231CD10062
:101CB000231AE100231D0100231B0100230E010054
:101CC000130700072312E10005472313E100231443
:101CD0000100C207C183B387270309671307077190
:101CE000B3D7E7022315F10089472316F100231724
:101CF000F10023180100231901000A04A567938746
:101D0000C7E13E9400404C082285EFF0CF888D88D3
:101D1000F9C08547638CF40E89476387F4104C0043
:101D20002285EFF06FB1A1452285EFF00FC3930537
:101D300000402285EFF0EFC75DA8854505651305D6
:101D40000580EFE09FF915B785450545EFE0DFFA1F
:101D500085450545EFE07FF893D744004147638808
:101D6000E7044547E397E7F0854537051800130575
:101D70000530EFE01FD1F5BD85450945EFE0DFF700
:101D800085450545EFE07FF593D744001307100222
:101D90006397E702854537151A00130505C0EFE084
:101DA0005FCEC1BD85451145EFE01FF57DBD854581
:101DB0003705160013050504EFE0BFCC5DBD130722
:101DC0002002E398E7EA854537151A0013050580D8
:101DD000EFE03FCB79BD4C002285EFF02F87A14586
:101DE0002285EFF0AFB391452285EFF0AFB885457E
:101DF0002285EFF0AFAC85452285EFF06FAEF25053
:101E00006254D2544259B259216182804C002285D9
:101E1000EFF06F8CA1452285EFF06FB19305004084
:101E20002285EFF04FB6E1B74C002285EFF0CF9559
:101E3000A1452285EFF04FB191452285EFF04FB6D5
:101E40007DB71357850093172700A5669386C6E1D3
:101E5000B6979C4383D7C702B385F50289679387FA
:101E60000771B3D5F50201EF0D89B75700109387BD
:101E7000D7B03E950A05C205C1810CC18280854755
:101E80006309F70089476300F7028D476308F7028B
:101E900082800D89B7070010B5073E950A05C20577
:101EA000C1810CC182800D89B70700109387D710BC
:101EB0003E950A05C205C1810CC182800D89B70714
:101EC00000109387D7203E950A05C205C1810CC139
:101ED000C1B7411106C622C426C24AC0AE843284AC
:101EE00036892DCDC1476303F508930700026318B7
:101EF000F50893068031054685451305D002EFF0BD
:101F0000EFFB8547638CF408C5476381F40A9307A8
:101F100010026396F40A9306803105468545130541
:101F2000F002EFF0AFF98947630AF40AC947630F7B
:101F3000F40A930720026304F40C93073002631938
:101F4000F40C93060031054685454A85EFF00FF7FE
:101F5000B24022449244024941018280930680317A
:101F6000054685451545EFF06FF561BF9306803155
:101F70000546854513053002EFF04FF459B7B79683
:101F800000009386C6E325661306C6E29305D002D9
:101F900037950000130505E4EF50E03B93068031D0
:101FA000054685451D45EFF06FF1B5BF93068031BD
:101FB0000546854513055002EFF04FF0ADB7B796D3
:101FC00000009386C6E325661306C6E29305200348
:101FD00037950000130505E4EF50E0379306803194
:101FE000054685451945EFF06FEDA1BF9306803199
:101FF0000546854513054002EFF04FEC99B793066F
:102000008031054685451305E002EFF02FEB15BF43
:10201000B79600009386C6E325661306C6E29305CD
:10202000800337950000130505E4EF50C032397185
:1020300006DE22DC26DA4AD84ED652D456D25AD000
:102040002A84AE89328AB68A3A8BBE84428941C5D7
:1020500085476308F508DA865686D2854E85953D14
:1020600023160100930740102317F10023180100E5
:1020700085476383F40893978401E187ADCB894753
:102080006382F4088D476385F40893070020231BBF
:10209000F1000E09231C2101231D01009D47231E71
:1020A000F1000A041385C181229500416C0022854C
:1020B000EFE07FC6C1476384F90685452285EFE0DE
:1020C0003FCBF2506254D2544259B259225A925ADA
:1020D000025B21618280854505650505EFE0FFBF54
:1020E0009DBF854511650505EFE01FC1ADB72319FB
:1020F0000100231A010051BF231901008547231A4B
:10210000F10061B789472319F100231A0100B5BF17
:1021100089472319F1008547231AF100BDB785458A
:102120000545EFE01F9651BFAE969387C1810A0522
:102130003E956387B6028505184183C7F5FF2316D0
:10214000F70083578700898BEDDF65D683578700BB
:10215000858BEDDF8357C7002300F6000506D1BF4E
:102160008280B7F700E023A0070023820700A38244
:10217000070023830700A383070023840700A384A9
:10218000070023850700A3850700054798C337F795
:1021900000E081475443E39FB7FEE37DD5FE828094
:1021A000411106C60DE585476385F500B240410142
:1021B000828093068031014685452545EFF00FD09A
:1021C0009146014681452945EFF04FCFC5B7894774
:1021D0006309F502C1476306F50493070002631023
:1021E000F50693068031014685451305A002EFF000
:1021F000EFCC9146014681451305B002EFF00FCCBC
:1022000075B7930680310146854513056002EFF0EE
:10221000EFCA91460146814513057002EFF00FCADF
:1022200071B793068031014685450945EFF00FC926
:102230009146014681450D45EFF04FC885BF930794
:102240002002E315F5F69306803101468545130516
:10225000A004EFF0AFC69146014681451305B004D6
:10226000EFF0CFC5A1B7797106D622D426D24AD0D5
:102270004ECE2A84AE89B284368985450545EFE085
:10228000DFA5CA852685293F89476381F402930724
:1022900020026390F40293073002631CF900854525
:1022A000370514004105EFE0CFFD21A08D47630AFB
:1022B000F90429CC85476300F40689476303F406D3
:1022C0004EC0231201002313010023140100231622
:1022D0000100B1472315F1000A04A5679387C7E6FB
:1022E0003E9400408A852285EFE0FFF085452285F7
:1022F000EFE0DFFFB250225492540259F249456197
:10230000828085451145EFE0CFF765B785451165BA
:10231000EFE0BF9C75B7854537050200EFE0DF9D14
:1023200045B7854537050400EFE01F9D51BF4111BA
:1023300006C6B7170240DC43C983BD8B37177A0046
:1023400013070720B387E7023727F4001307074076
:10235000BA9723A2F18485460146F165938505204D
:1023600001451137B24041018280397106CE22CC3D
:1023700026CA4AC82ED232D436D63AD83EDA42DC01
:1023800046DE541036C62A86930540061385018F13
:10239000EF5030246357A0029384018F33099500D6
:1023A000A56703A4C7E6930500042285EFE05FFC60
:1023B0007DD983C504002285EFE0FFFA8504E3940C
:1023C00024FFF2406244D24442492161828041119B
:1023D000B717024098431367170098C3D843B7064E
:1023E000FFF8758FD8C39843B706F7FEFD16758FB3
:1023F00098C39843B706FCFFFD16758F98C3D84362
:10240000B70681FFFD16758FD8C337079F0098C7A1
:1024100002C402C69843C166558F98C3371602405E
:10242000B7060200130700501C42F58F3EC6A247B4
:1024300085073EC4B24781E7A247E397E7FEB71797
:1024400002409C431397E700635A070085473EC646
:10245000324785476306F7004101828002C6CDBF3F
:10246000B727024098431367070198C39843719BAD
:1024700098C398431367270098C3B7170240D843FF
:10248000D8C3D843D8C3D843D8C3D843B706C1FFAD
:10249000FD16758FD8C3D843B7062500558FD8C30E
:1024A0009843B7060001558F98C3371702401C4365
:1024B00093966700E3DD06FEB7170240D843719B91
:1024C000D8C3D84313672700D8C3B71602402147A3
:1024D000DC42B18BE39EE7FE41B7411106C693068D
:1024E00080040146814513052002EFF02F9D9306DD
:1024F00080040146814513054002EFF02F9C9306AE
:1025000080040146814513055002EFF02F9BB24035
:10251000410182805D7186C6A2C4A6C2CAC04EDED9
:102520002A84AE893289B684B7070240A1076308BE
:10253000F508B7070240F1076303F508B707024043
:1025400093870703630DF506B70702409387470497
:102550006307F506B7070240938787056301F50611
:10256000B70702409387C706630BF504B70702401D
:10257000938707086305F504B707024093878740F0
:10258000630AF502B70702409387C7416304F50267
:10259000B707024093870743630EF500B707024071
:1025A000938747446308F500B70702409387874540
:1025B000631BF50085450945EFE04FF029A08545EF
:1025C0000545EFE0AFEF2285EFE04F9A4EC24AC4D7
:1025D00002C626C802CA930700083ECC02CE02D02B
:1025E00002D28D673ED402D64C002285EFE04FAF79
:1025F000054689452285EFE0AFB385452285EFE0AA
:10260000AFB1B640264496440649F25961618280D2
:10261000411106C622C48546014681451305500373
:10262000EFF08F9F05469305404237440140130564
:102630000480EFE0BFCD0546930500041305048038
:10264000EFE09FD0930640061386018893054480EF
:102650003705024013058505753D854601468145D0
:102660007D45EFF06F9BB240224441018280011111
:1026700006CE22CC26CA4AC84EC652C42E8A3284FE
:10268000B795000093854556EF50E04A29C108C030
:102690001104854437990000A9499305495601451D
:1026A000EF50604915C5850408C01104E39734FF55
:1026B000379500001305C5F5EFF03FCB0145F2401B
:1026C0006244D2444249B249224A0561828081442F
:1026D00023009A000545E5B7011106CE22CC26CA93
:1026E0004AC84EC652C4AE8403A90500B79500007F
:1026F000938585E94A85EFD03FAF29E92A84910483
:102700001389C197379A000091498840EF4050489B
:10271000131605014186231AC904A28513050AEA86
:10272000EFF0BFC4050491041909E31034FF379595
:102730000000130505EFEFF05FC30545F24062446A
:10274000D2444249B249224A05618280B7950000CD
:10275000938585EA4A85EFD03FA959C9B79500000E
:10276000938545EF4A85EFD03FA84DCDB795000042
:10277000938545F04A85EFD03FA7630F050CB795C9
:102780000000938545F14A85EFD01FA6630205122C
:10279000B7950000938585F24A85EFD0FFA46305C5
:1027A0000516B79500009385C5F34A85EFD0DFA3E2
:1027B00063080518B7950000938505F54A85EFD0A5
:1027C000BFA225FD1307000023AEE1969387C197B2
:1027D000D8C78847EF40E07C814613160501418643
:1027E000814537950000130585EBEFF01FB8B1B7B1
:1027F000379700000327C7E723AEE1969387C19779
:1028000037970000032707E898C713070000D8C7C9
:1028100081460546814537950000130585EBEFF0AD
:10282000DFB421BF379700000327C7E723AEE19647
:102830009387C19737970000032747E898C7130786
:102840000000D8C781467D568145379500001305A5
:1028500085EBEFF09FB1D5B51384C1974844EF40A5
:10286000D006B797000003A607E983A647E9EF1053
:10287000F071EF40501048C4EF40A07213190501E9
:10288000135909410844EF40C071131405014184F4
:1028900003A5C197EF40E070CA8622869315050113
:1028A000C18537950000130585EBEFF01FAC71B5BE
:1028B0001384C1974844EF405001B797000003A626
:1028C00007E983A647E9EF30A017EF40D00A48C4D4
:1028D000EF40206D13190501135909410844EF40D9
:1028E000406C13140501418403A5C197EF40606B50
:1028F000CA86228693150501C18537950000130508
:1029000085EBEFF09FA615BD9387C197B7960000A2
:1029100083A686E894C7B796000083A6C6E723AED1
:10292000D196C847EF40E06793160501C1860D4672
:10293000814537950000130585EBEFF01FA3F5BB2C
:102940009387C1979306000094C7B796000083A6AB
:10295000C6E723AED196C847EF40A06493160501A1
:10296000C1860146814537950000130585EBEFF0E0
:10297000DF9FE1B3411106C622C426C2938481843D
:10298000138641959385818413850188EFF03FCEAE
:102990009385419503C50400EFF01FD4B240224453
:1029A0009244410182809387C19713070000B8C306
:1029B000D8DBD8CF98D3D8D798DFD8DFD8D398D75B
:1029C00098DB8280411106C611219387C197138736
:1029D00087012399070423980704239A070499077A
:1029E000E399E7FE9387C197238407061307000046
:1029F00098C798C3D8C723AC07007537B2404101C8
:102A000082805D7186C6A2C4A6C2CAC04EDE52DCF8
:102A100056DA5AD85ED662D466D26AD06ECE2A8989
:102A20002E8A328403A74199854793040000630EE0
:102A3000F7064A85EF4060692A89AE89A6855285E6
:102A4000EF40A01DEF4060682A8AAE8AEF00C07890
:102A50002A86AE864A85CE85EF201033EF40A071DE
:102A6000AA8C5285D685EF00C07F2A86AE864A851D
:102A7000CE85EF207031EF4000702A8DB7970000AF
:102A800083A587F72285EF30F05E634DA006B797E8
:102A9000000083A5C7F72285EF303066635805062E
:102AA000B797000003A4C7F795A003A5819AEF404C
:102AB000C061B797000003A687F983A6C7F9EF2086
:102AC0003078EF40406BAA84EF4020602A8BAE8BB9
:102AD000B797000003A607FA83A647FAEF20F01F76
:102AE000E359A0F45A86DE86B797000003A587FA5B
:102AF00083A5C7FAEF20D074EF40E067B7040080E9
:102B0000A98C05BFB797000003A487F7B79700000B
:102B100083A507F82285EF301067B794000083A5DE
:102B200044F8EF3050662A8CB797000083A587F8E9
:102B30002285EF30506583A544F8EF30D064AA8D2C
:102B40002564130484FDA564938484FB0A89930B94
:102B50000402CA89B797000003AA07FB83AA47FBB0
:102B60000840EF40204AE285EF30F061E685EF3023
:102B7000A06E8C40EF3030612A8B4840EF40804897
:102B8000EE85EF305060EA85EF30006DCC40EF30DD
:102B9000905FAA855A85EF30206CEF400053528633
:102BA000D686EF20A031EF40005D23A0A9002104CC
:102BB000A1049109E31674FB0A85292E0144B797F5
:102BC000000003AAC7F8B79900009144D2850325F5
:102BD0000900EF30505BEF40C03C2A86A285138588
:102BE00009EAEFF08FF805041109E31194FE379517
:102BF0000000130505EFEFF04FF737940000832531
:102C000004F93245EF303058EF40A039AA898325C6
:102C100004F92245EF303057EF40A0382A89832548
:102C200004F91245EF303056EF40A037AA848325CF
:102C300004F90245EF303055B797000083A547F9F6
:102C4000EF308061EF40E035CE864A86A6852D289C
:102C5000B640264496440649F259625AD25A425B1B
:102C6000B25B225C925C025DF24D61618280411137
:102C700006C69387C197D0478C478843EFF07FD82B
:102C8000F92AB24041018280011106CE22CC26CA27
:102C90004AC84EC652C456C25AC02E8BB28A368A11
:102CA000AA89F9779387078F6353F500BE898967EF
:102CB0009387077163D33701BE895A89F977938760
:102CC000078F6353FB003E8989679387077163D33E
:102CD00027013E89D684F9779387078F63D3FA005B
:102CE000BE8489679387077163D39700BE8452843B
:102CF000F9779387078F6353FA003E848967938738
:102D0000077163D387003E84634B05088145130533
:102D1000A004EFE0DFAB93D5F941B3C93501B3852A
:102D2000B94013050030EFF0CF9163400B088145A7
:102D30001305B004EFE0BFA99355F94133C925014C
:102D4000B305B94013051030EFF0AF8F63C50A0625
:102D500081451305C002EFE09FA793D5F441AD8CE8
:102D6000B385B44013052030EFF0AF8D634B0A04F8
:102D700081452145EFE0BFA59355F4412D8CB30566
:102D8000B44013053030EFF0CF8BF2406244D244B0
:102D90004249B249224A924A024B056182808545E6
:102DA0001305A004EFE0BFA2BDB785451305B0042D
:102DB000EFE0FFA151B785451305C002EFE03FA149
:102DC00069BF85452145EFE09FA07DB7411106C64B
:102DD00022C493060031014685451305A004EFE0A7
:102DE000FF8D014611649305842613050030EFE042
:102DF0001FE593060031014685451305B004EFE059
:102E0000FF8B01469305842613051030EFE03FE366
:102E100093060031014685451305C002EFE01F8A85
:102E200001469305842613052030EFE05FE1930609
:102E30000031014685452145EFE05F880146930555
:102E4000842613053030EFE09FDF8146014681453F
:102E50000145EFF07FE3B240224441018280797165
:102E600006D622D426D24AD04ECE52CC02C002C2BE
:102E700002C402C61384C1978A84130A8401B70965
:102E8000002003150405EF40E0172A8903154405C7
:102E9000EF4040174A86AA85138509016520EF4057
:102EA000401088C019049104E31D44FD8387419EAE
:102EB00089EBB250225492540259F249624A456158
:102EC0008280B246224692450245EFF0FFDB238224
:102ED000019EC5B7797106D622D426D24AD04ECEED
:102EE00052CC56CA5AC85EC62A84130A0501B7973F
:102EF000000083A987FF37970000832BC7FF5E8BF5
:102F0000CE8A21A8DE852685EF30301F6354050068
:102F1000232064011104630C44010440CE852685FE
:102F2000EF305015E350A0FE23205401E5B7B25016
:102F3000225492540259F249624AD24A424BB24B4D
:102F400045618280011106CE22CC26CA4AC84EC6EF
:102F500052C42A842E85B285EF30304CAA840C4CA2
:102F6000EF30B04BB797000083A50700EF30B021DA
:102F70002A89B797000083A54700484CEF30B0205E
:102F8000CA85EF30602D2A8904CC48CC4C44268574
:102F9000EF30701F4C48EF30202C2A8A48C8832914
:102FA0000401CE85EF30100D6352A004232A3401B2
:102FB0000C402685EF30301DAA840C444A85EF3042
:102FC000901CAA852685EF302029AA844C404848C9
:102FD000EF30701BAA852685EF300028F24062444E
:102FE000D2444249B249224A05618280B707008033
:102FF000B3C93701CE855285EF303010E35A05FA58
:10300000232A340175B71D7186CEA2CCA6CACAC8C0
:10301000CEC6D2C4D6C2DAC05EDE62DC66DA6AD858
:103020006ED62A8A2E85138941860327090083AA32
:1030300041813AC8BA85EF30503ED685EF30B014A2
:103040009389818683A50900EF3000212AC63704C1
:10305000002013040403832B44000444DE8503A5ED
:103060008180EF30903BA685EF30303BAA85938777
:10307000C19E88C3832CC400370B0080334B9B0157
:1030800023A2670123A4670103ADC18023A6A70182
:103090005685EF30500F0C40EF30001CAA8DDA85BA
:1030A0005685EF30500E2A8BAA855E85EF30C01A08
:1030B0002ACCDA852685EF30201A2A8CB245528533
:1030C000EF30B035AA8B23A6A18403854180EF3071
:1030D00070732A8BAA856ECA6E85EF30D00AAA84D7
:1030E00023AEA184DA8562CE6285EF30D009AA8D45
:1030F00023A0A186A6855A85EF30F00883A501811B
:10310000EF3080152A8C23A8A184AA852685EF306C
:10311000404B2A8A23AAA184E2856E85EF30604A5B
:103120002A8C23ACA18423A69186DA85E24D6E8594
:10313000EF3070052A8B23A8A186D2852685EF3033
:103140009004AA855245EF30502D08C0DA8552858B
:10315000EF307003AA856E85EF30302C48C0E285D1
:103160002685EF305002AA857245EF30102B08C437
:10317000EA855685EF303001E685EF30E00DAA8410
:10318000DA856285EF303000AA852685EF30F02899
:1031900048C4D2855E85EF30007FB245EF30C00B6A
:1031A0002A8423A0A900E2855E85EF30C07DC24558
:1031B000EF30800A2320A9002285F6406644D644D9
:1031C0004649B649264A964A064BF25B625CD25C97
:1031D000425DB25D25618280011122CC37040080FE
:1031E0009347F4FF3727E93F06CEED8F1307B71F4C
:1031F0006350F7043707F07F63CAE700AE862A867C
:10320000EF201004F2406244056182800A86CD20DE
:103210000D8985476305F50289472246B246630D4D
:10322000F5021DC5024592450547EF106012D9BF52
:10323000014681460523F2406244056182802246B0
:10324000B246024592450547EF108010A18D5DBF43
:103250000245924501237DB702459245E529A18D9E
:1032600055B7011122CC370400809347F4FF37276C
:10327000E93F06CEED8F1307B71F635FF7023707ED
:10328000F07F63CAE700AE862A86EF20607BF240BB
:103290006244056182800A86A1280D8985476306FC
:1032A000F50289472246B246630DF5020DC5024577
:1032B00092454D21A18DE1BF014701468146EF10A6
:1032C0002009F2406244056182802246B2460245EE
:1032D000924549216DBF024592450547EF104007D1
:1032E0007DB7024592450547EF108006A18D45B791
:1032F0005971A2D43727E93F1394150086D6A6D278
:10330000CAD0CECED2CCD6CADAC8DEC6E2C4E6C2B5
:10331000EAC06EDE05801307B71F635B871437E7CB
:1033200002401307B797B289634F8706976700007B
:103330009387C7CD9043D4436356B03AEF20407093
:10334000B727F93F9387B71F2A8AAE8A6308F41418
:1033500017640000130404CC104054408544EF204F
:10336000206E2A86AE8623A0A90023A2B90052852A
:10337000D685EF20E06C10405440EF20606C23A411
:10338000A90023A6B900B65026542685065996549E
:10339000F649664AD64A464BB64B264C964C064DE5
:1033A000F25D65618280372739411307B71F2E8987
:1033B000635887103707F07F6354E40C135A444175
:1033C000130AAABE93174A011D8CA285AA84EF2076
:1033D000105BEF2050612A87AE873A86BE8626852D
:1033E000A2853ACC3ECE97640000938424C6EF2099
:1033F00020659040D440EF202019AE8B2A8BEF201F
:1034000010582A84EF20305E2A87AE872A86AE863F
:103410005A85DE853AD03ED2EF2080629040D4407B
:10342000EF208016814601462AD42ED6EF20400494
:10343000B3368000850663170522976700009387DF
:1034400067C909475286CE852808C923AA84E35C48
:1034500009F203A7490083A7C900B7060080358F8A
:10346000B58F23A2E90023A6F900B304A04021BF31
:1034700008C24CC22324060023260600814421B73B
:103480002A86AE86EF20C05B23A4A90023A6B9003C
:1034900023A0A90023A2B9008144F5B597670000D5
:1034A0009387C7B79043D44317640000130484B7CD
:1034B0008544EF20E0582A8AAE8A1040544045B532
:1034C000EF10200297670000938747B69043D443DC
:1034D0002A8AAE8AEF20400B97670000938787B552
:1034E0009043D443EF10802AEF207049AA84EF2044
:1034F000904F97670000938767B19043D4432A8B1E
:10350000AE8BEF2060082A86AE865285D685EF20E6
:103510002053976700009387E7AF9043D4432A8DE9
:10352000AE8C5A85DE85EF2020062A8AAE8AFD47BA
:103530006A85E6855286D68663C79702EF2040509B
:103540009387F4FF1397270097670000938787B04E
:10355000BA979C43AA8D2E8C638B870023A0A90069
:1035600023A2B90025A0EF20A04DAA8D2E8C935741
:103570004C011358444193F7F77FB307F840C14615
:1035800063C6F60423A0B90123A289016E86E286F0
:103590006A85E685EF20C04A5286D686EF20404AEB
:1035A00023A4A90023A6B900E35F09DCB7070080C4
:1035B00033CC8701BD8D23A0B90123A2890123A4A7
:1035C000A90023A6B900B304904075BB976700001B
:1035D0009387C7A49043D4435A85DE8542C4EF1035
:1035E000B07A2A8AAE8A2A86AE866A85E685EF2078
:1035F00020452E8C2A86AE862A842EC66A85E685CC
:10360000EF2000445286D686EF2080439767000063
:10361000938747A19043D4432A8AAE8A5A85DE8590
:10362000EF1090765286D686EF2080412A86AE86AD
:103630002A8AAE8A2285E285EF208040224893D7ED
:10364000450193F7F77F3308F84093071003E28CA6
:10365000AA8D2E8C63CA070123A0A90023A2B9005A
:10366000228D2DB78D46D1BB976700009387079DAC
:103670009043D4435A85DE85EF101071324C2A8A6C
:10368000AE8A2A86AE862285E285EF20603B2A86B6
:10369000AE862A8DAE8C2285E285EF20603A528676
:1036A000D686EF20E039976700009387A79990436B
:1036B000D4432A8AAE8A5A85DE85EF10F06C528692
:1036C000D686EF20E0372A86AE862A8AAE8A6A85B9
:1036D000E685EF20E036AA8D2E8C23A0A90023A238
:1036E000B9006DB5EF10800AB727F93F9387B71F70
:1036F0002A8AAE8A630EF4021764000013048491D0
:1037000010405440FD54EF1060082A86AE8623A076
:10371000A90023A2B9005285D685EF20603210405F
:103720005440EF10A00623A4A90023A6B900A1B914
:10373000976700009387878E9043D44317640000F7
:103740001304448EFD54EF1060042A8AAE8A1040A0
:10375000544055BF39715AD0139B15004AD84ED6E4
:1037600062CC66CA06DE22DC26DA52D456D25ECE9F
:103770006AC86EC6135B1B00B707403E2E8CAA8C2E
:103780003289B6896355FB10EF20701F6309052647
:103790006686E2866685E285EF10105F9767000017
:1037A000938747A59043D4432A84AE84EF10D05D1D
:1037B00097670000938787A49043D443EF00107D60
:1037C0002286A686EF10505C97670000938787A338
:1037D0009043D443EF20C0262286A686EF10D05A0D
:1037E00097670000938787A29043D443EF00107A35
:1037F0002286A686EF10505997670000938787A10D
:103800009043D443EF20C0232286A686EF10D057E2
:1038100097670000938787A09043D443EF00107709
:103820002286A686EF1050562A8AAE8A9767000035
:10383000938747809043D4432285A685EF10D054C8
:103840002A8BAE8B5286D6862285A685EF10D05362
:103850002A84AE844A86CE866685E285EF10D052F1
:103860002A86AE862285A685EF20801D2A86AE8612
:103870005A85DE85EF20C01C976700009387079765
:103880002A86AE868843CC43EF20801B0DAA2A8669
:10389000AE86EF10704F976700009387A79590430F
:1038A000D4432A84AE84EF10304E9767000093878C
:1038B000E7949043D443EF00706D2286A686EF1004
:1038C000B04C976700009387E7939043D443EF2071
:1038D00020172286A686EF10304B9767000093874B
:1038E000E7929043D443EF00706A2286A686EF10D9
:1038F000B049976700009387E7919043D443EF2046
:1039000020142286A686EF10304897670000938720
:10391000E7909043D443EF0070672286A686EF10AD
:10392000B046B737D33F938727332A8AAE8AE3DF7F
:1039300067EFB707E93F63C3670B1767000013071B
:10394000E78AB707E0FF08434C433E9B8147DA868E
:103950003E863E8DEF20C00EDA8DAE8B2A8B9757B8
:1039600000009387276D9043D4432285A685EF10EE
:10397000B0416A86EE86EF20A00C2A8DAE8D52866D
:10398000D6862285A685EF1030402A84AE844A86EA
:10399000CE866685E285EF10303F2A86AE86228588
:1039A000A685EF20E0092A86AE866A85EE85EF209F
:1039B00020092A86AE865A85DE85EF206008F250FF
:1039C0006254D2544259B259225A925A025BF24B73
:1039D000624CD24C424DB24D21618280975700001B
:1039E0009387C77F03AB070083AB4700975700005F
:1039F0009387477F03AD070083AD47008DB7975787
:103A000000009387A77E8843CC4355BF130101D59F
:103A1000232E3129B689131827003ADC3ED41767C4
:103A20000000130727869387F9FF232EB1274297BB
:103A30002326112A2324812A2322912A2320212B81
:103A4000232C4129232A512923286129232671293E
:103A500023248129232291292320A129B1562AD266
:103A60002EDA3EC8832D0700634FD67E1307D6FF9C
:103A7000E147B347F7023ED0850713972700998F98
:103A80008E0782559386F9FF3387DD00B297338422
:103A9000D540130917003ECA04092299634307025F
:103AA000225A93172400D2970145814563450400AB
:103AB0008843EF20407388C0CCC00504A104E31202
:103AC00024FF63C40D06C24B125D1C0913993B0011
:103AD00013048900139A3D003E99BC0B840B3E9A57
:103AE0006A944A8BEA8A014C814C63C80B02032614
:103AF0000B0083264B0003A50A0083A54A00A10AF8
:103B0000611BEF1070282A86AE866285E685EF007D
:103B1000F0472A8CAE8CE39C8AFC23A0840123A26C
:103B20009401A1042109E39E44FB13972D00701812
:103B3000930687FF330CE600980036973AD8125761
:103B4000139439009387FDFF3A94370700207D17BF
:103B50003ACC370780007D178A073ADE981CBA975F
:103B6000EE84130D011D3ED66ECE93973400981C43
:103B7000BA9703AA07F683AA47F663569008E24766
:103B8000930901043389F400975700009387076E67
:103B900003A847009C430E0942C23EC0975700004D
:103BA0009387C74A03A847009C436A9942C63EC40C
:103BB00011A03E89024692465285D685EF10D01C50
:103BC000EF20E05BEF2020622246B2462A8BAE8BCC
:103BD000EF10901B2A86AE865285D685EF10506670
:103BE000EF20E059032609008326490023A0A900FD
:103BF000DE855A85EF0090392A8AAE8A930789FFBD
:103C00009109E3182DFB524BD68552855A86EF0059
:103C1000B022975700009387E7659043D4432A89E1
:103C2000AE89EF107016EF00300C975700009387A5
:103C3000E7649043D443EF1030152A86AE864A8558
:103C4000CE85EF10F05FAE892A89EF204053AA8A13
:103C5000EF2060592A86AE864A85CE85EF10505EE9
:103C60002A89AE89635760139387F4FF981C8A07EB
:103C7000BA9703AA07DD614733076741B356EA40A5
:103C80003397E6003307EA405D4A330A6A4123A8C6
:103C9000E7DC335A4741B69A634B401101468146EF
:103CA0004A85CE85EF10C07C6318051AF24713864B
:103CB000F4FF634FF600939724009800F117BA972A
:103CC00001479443F117558FE39D87FF631D072834
:103CD000B25783A707DD63930728C2570547F1173B
:103CE000D4430507EDDE93871400BE8ABA94424799
:103CF000925D62C03309F7000257330AF70062474A
:103D00008E070A0A3A9922570E09B309FD001C09C9
:103D10003A9A3E9903250A00EF20E04CC24723243B
:103D2000A9002326B90063C90704CA8B6E8B014C16
:103D3000814C31A003A50B0083A54B00E11B03269A
:103D40000B0083264B00210BEF1010042A86AE8651
:103D50006285E685EF0090232A8CAE8CE31C8BFCF9
:103D600023A0890123A29901850A110AA109210929
:103D7000E3D254FB024CD5BB014C814C23A08901FA
:103D800023A29901850A110AA1092109E3D454F952
:103D9000D5B7D247639807189387F4FF8A07981C12
:103DA000BA9703AA07DD135A7A41E35940EF850A0F
:103DB000635F904A0648854763150812638EF400D6
:103DC000D400054703A80600930717009106631B5C
:103DD00008103E87E398F4FE52476353E00285479C
:103DE0006307F7468947631DF7009387F4FF981C24
:103DF0008A07BA9703A707DD2A07298323A8E7DCE8
:103E00008947E31DFAE8975700009387273E8843C8
:103E1000CC434A86CE8642C0EF10904202482A899F
:103E2000AE89E30D08E6975700009387273C884347
:103E3000CC435246EF0050002A86AE864A85CE8596
:103E4000EF1010402A89AE89014681464A85CE8509
:103E5000EF100062E30C05E4524D4A85CE8533062F
:103E6000A041F24DEF00407D975700009387071E59
:103E700003A9070083A947002A8C4A86CE86AE8C08
:103E8000EF10A06563400546175700001307073E73
:103E9000104354436285E685EF10006FEF20202E1B
:103EA0009C1C139424003E94AA8BEF20C0334A86B6
:103EB000CE86EF10606D2A86AE866285E685EF10AD
:103EC0003038EF20C02B138B1400981C93172B0055
:103ED000BA972328A4DC13078D013ACA23A877DDFB
:103EE00055A801470A0737060001941C3697330886
:103EF0000641232807DD63D597028A073387F6003A
:103F00008C0093962400032707DDAE97AE967D16AE
:103F100011A098433307E64098C39107E39BD7FE6F
:103F200005485DBD975700009387C7109043D44361
:103F3000014AEF10805AE34305D6850A094AE34B4C
:103F400090E6975700009387672A8843CC434A86B8
:103F5000CE86EF10F02E2A89AE8989B3938714009C
:103F6000BE8ABE8469B3981C93172600BA9752473D
:103F700083A707DDF24D21173ACA328B81EF939761
:103F80002400E1179400B697F117D4437D1B211745
:103F9000E5DE3ACA97570000938747258843CC430C
:103FA0005246EF0060692A84AE8463400B38931751
:103FB0003B003E87940BB38BE6003EC417570000CE
:103FC0001307C72A93172B009400B38CF6005E8C5E
:103FD000032907008329470011A0BE8C03A50C000C
:103FE000611CEF2040202286A686EF10E059232492
:103FF000AC002326BC002285A6854A86CE86EF101B
:10400000A05898002A84AE849387CCFFE31797FDCD
:104010001C1A3EC0EE8CBE84014463C80C06975740
:10402000000093872724175C0000130CAC1FDE8967
:104030008843CC43014D814D014909A8210CA109B8
:104040006347240303250C0083254C0003A60900C5
:1040500083A649000509EF1020532A86AE866A859B
:10406000EE85EF00A0722A8DAE8DE3D92CFD23A042
:10407000A40123A2B401980B0504A10493878BFF2C
:1040800063027703BE8BE3DC0CF8014D814D23A066
:10409000A40123A2B401980B0504A10493878BFF0C
:1040A000E31277FF6257894763C7E7086343E01C61
:1040B00021E7A247024401458145B30CF40003A661
:1040C0000C0083A64C00EF00606C93878CFF630D9F
:1040D0009401BE8C03A60C0083A64C00EF00006B7D
:1040E00093878CFFE31794FF63050A00B7070080EE
:1040F000BD8DD25688C2CCC28320C12A0324812A16
:1041000013F57A008324412A0329012A8329C1292E
:10411000032A8129832A4129032B0129832BC128C2
:10412000032C8128832C4128032D0128832DC127AE
:104130001301012B828062578D47E31FF7FA635604
:104140006021931B3B009C1CDE9793090113138491
:104150008BFF4EC083AD07EC03AD47EC4E9411A02E
:104160003E84032C0400832C44006E86EA8662851C
:10417000E685292D2A89AE842A86AE866285E68563
:10418000EF10100C6E86EA86112508C44CC423205B
:10419000240144C0930784FFCA8D268DE39289FCD5
:1041A000854763D4671B13143B00024B9C1CBE9BCA
:1041B000611403AD0BECB3048B0083AB4BEC11A08B
:1041C000BE8403AC040083AC44006A86DE8662854C
:1041D000E6856D2BAA892E892A86AE866285E685BC
:1041E000EF1010066A86DE86552388C4CCC423A04F
:1041F000340123A22401938784FF4E8DCA8BE311DF
:10420000FBFC824721040145338987008145032651
:104210000900832649006119952BE39A24FF03289E
:10422000011303274113032681138327C113631747
:104230000A0CBE88D2574283328823A06700D8C3B5
:1042400023A4070123A6170188CBCCCB75B5938790
:10425000F4FF981C8A07BA9703A707DDF256758FFB
:1042600023A8E7DC71BEA15702D06FF09F810148FF
:10427000A5B60247A24701448144B30CF700A287C8
:104280003A8411A0BA8C03A60C0083A64C002685A4
:10429000BE85ED2913878CFFAA84AE87E31494FFB3
:1042A0002E8403250113832541132686A286EF1051
:1042B000207963130A06D25684C2C0C263506003D9
:1042C000241A05449040D4400504A104C121E35BB5
:1042D0008BFE63050A00B7070080BD8DD25688C6E5
:1042E000CCC619BD9C1C139424006285E6853E94BF
:1042F000EF10F0682328A4DC268B69B9B70600808C
:10430000358FB58FAD8ED25523A00501D8C190C58C
:10431000DCC588C9D4C9CDB3B70700803D8CD2575E
:1043200084C3C0C3E34E60F97DB762578947E3C4D5
:10433000E7E06349E00001458145E31F07DAE30A4E
:104340000ADA6DB381440144A9BF01458145C1BD6D
:1043500039719397150022DC26DA52D456D262CCFA
:1043600006DE4AD84ED65AD05ECE66CA6AC86EC637
:1043700085833708403E2E84AA84328AB68A3A8CD6
:1043800063D70701EF10B05F2687A28761C1268639
:10439000A2862685A285EF10201F2A89AE892A864B
:1043A000AE862685A285EF10201E975700009387C2
:1043B00067EE9043D4432A8BAE8B4A85CE85EF10AF
:1043C000A01C97570000938767ED9043D443EF10EC
:1043D00020674A86CE86EF10201B975700009387F0
:1043E00067EC9043D4435D264A86CE86EF10C01911
:1043F00097570000938787EB9043D443EF104064B6
:104400004A86CE86EF10401897570000938787EAB8
:104410009043D443A52E2A8DAE8D631A0C042A86B0
:10442000AE864A85CE85EF102016975700009387F9
:10443000E7E89043D443EF10A0605A86DE86EF1081
:10444000A0142686A28699262A87AE87F250625447
:10445000D2544259B259225A925A025BF24B624CE0
:10446000D24C424DB24D3A85BE852161828097572C
:104470000000938727BC9043D4435285D685EF1024
:10448000A0102A8CAE8C6A86EE865A85DE85EF10E7
:10449000A00F2A86AE866285E685EF10605A4A86AE
:1044A000CE86EF10600E5286D686EF106059975771
:1044B00000009387A7E09043D4432A89AE895A85A8
:1044C000DE85EF10600C2A86AE864A85CE857D2C6F
:1044D0002A86AE862685A285EF1080562A87AE876B
:1044E000B5B786058581828093D74541011193F741
:1044F000F77F22CC26CA4AC84EC652C406CE56C240
:104500005AC0938417C04D472E84AA892E892A8ABF
:104510006348970863C40406370B1000930AFBFF37
:10452000B3DA9A40B3F7BA00C98FAA862E879DCB1B
:1045300097570000938707D99043D443812C0146B5
:104540008146EF009079635DA00063560400B35488
:104550009B403389840093CAFAFF33795901014A99
:10456000D2864A87F2406244D2444249B249224A42
:10457000924A024B3685BA850561828097570000C2
:10458000938747D49043D443112401468146EF00DA
:10459000D074E357A0FC63430406014A0149C9B73C
:1045A00013073003635E970093070040AA862E87A7
:1045B000E39AF4FAAE862A86D12AAA862E875DB7B8
:1045C0009387D7BEFD5AB3DAFA00B3F7AA00AA86DA
:1045D0002E87C9DB975700009387C7CE9043D443FB
:1045E000752201468146EF00506FE35BA0F6634001
:1045F000040293C7FAFF337AFA009DB706040580D8
:1046000033643401014A29DC3709F0BF91BFD14737
:10461000638FF40093074003858F8544B394F400BF
:10462000A69963F94901130914004E8AD9B71309F1
:104630001400C1B74E8A75BF411193D7454122C4BA
:1046400006C626C293F7F77F2E87AA863284C1E773
:10465000939715008583C98FA5CB97570000938743
:10466000E7C6D4439043EF003072D177938707CBEE
:10467000AA862E876340F40E93D7454193F7F77FC0
:104680002E869387A7FCA2979305E07F63C2F50A65
:104690006345F00A9305B0FC63D0B706B167938712
:1046A000073563C78708975700009387A7C28043E1
:1046B000C44336862285BA86A6857528A6862286B4
:1046C000EF00906CAA862E87B24022449244368531
:1046D000BA85410182801308F07F2E86E39507FB9F
:1046E000AE862A866520B2402244AA862E8792444E
:1046F0003685BA8541018280370710807D17938700
:104700006703798ED20717570000130727BDB685B8
:10471000D18F544310432E85BE85EF00F066B24022
:104720002244AA862E8792443685BA85410182802A
:1047300097570000938707B99DBF37071080B24095
:1047400022447D17718FD2075D8F92443685BA85DA
:1047500041018280975700009387C7B7D4439043A5
:10476000EF009062B2402244AA862E87924436859A
:10477000BA8541018280370700809347F7FFF98EA1
:10478000ED8F2A87D58F3A85BE8582803708100045
:1047900001117D183377B80026CA3378D80093D436
:1047A000450113D34601131E37004EC61357D501DA
:1047B0000E089357D60193F4F47F1373F37F06CE5C
:1047C00022CC4AC893D9F50193DEF6013367C701BD
:1047D000131F350033E80701931F3600338E644002
:1047E0006380D9196356C0136304031CB7068000A5
:1047F0009307F07F3368D800638FF4369307800304
:1048000063C0C735FD4763CDC747130500023305B5
:10481000C541B3D7CF01B316A8003399AF00DD8EE1
:1048200033392001B357C80133E926011D8F3309FD
:104830002F41B3372F013306F7409317860063D417
:104840000724370780007D173374E600630C042CBF
:104850002285EF20F028130785FF93070002998F28
:10486000B357F9003316E400D18F3319E9006341DF
:10487000972A33059740130615007D47634DC738C7
:1048800013070002118FB356C9003319E90033979B
:10489000E700558F333920013369270133D6C7002C
:1048A00081449377790081CF1377F90091476308AA
:1048B000F70013074900333927014A963A899317BD
:1048C000860063D6071C138514009307F07FCE85FE
:1048D0006304F520B70780FFFD17F18F9398D70188
:1048E00013593900A607B3E82801B1831375F57F82
:1048F0009396C7005205F2406244B182FE05C98E0C
:10490000CD8ED2444249B2494685B6850561828042
:10491000631E0E0A138314001373E37F63170322CD
:10492000B367E701B368F801639D041A6387074022
:10493000638608443309FF41B307074133362F012B
:104940003386C7409317860063D6074C3389EF41FF
:10495000B307E84033B62F013386C740F68991B7D5
:104960006350C00F6300030CB70680009307F07F0D
:104970003368D800638AF43A9307800363CBC71384
:10498000FD4763DFC73513090EFE93070002B356D8
:104990002801630AFE00130900043309C9413319D1
:1049A0002801B3EF2F013339F0013369D90031A267
:1049B000B367F801638A071C9307FEFF638C07380F
:1049C0009306F07F6309DE1A3E8E0DBDB30593405A
:1049D00063910422B367E701638707329387F5FF8A
:1049E000638107449306F07F638CD520BE859307CF
:1049F000800363CCB72AFD4763CFB73C930700021F
:104A00008D8F3319F700B356BF00B317FF0033691A
:104A1000D900B337F0003357B7003369F9003308D2
:104A2000E84041ACB367F801638007349307FEFFA9
:104A3000638A07209306F07F6308DE2E3E8E2DBF2B
:104A4000631E0E149386140093F7E67F6391073478
:104A5000B367E7016395042C6380073EB367F801F1
:104A6000638E07303309FF01B3070701333FE901C4
:104A70003386E7019317860063D70700B70780FFE7
:104A8000FD177D8E854493777900E39F07E09317A8
:104A9000D60193583900B3E8F8009357360013074E
:104AA000F07F638DE404B207B18313F5F47FCE8504
:104AB00081B53369F801333920017A99B337E901B7
:104AC0003386E70093178600E3DF07FA8504930730
:104AD000F07F6396F418CE851305F07F81478148F7
:104AE00001BDC1EB6384083A931636009317D801D1
:104AF0008D82B3E8D700F68993573800B3E7F80002
:104B0000F9DB81451305F07FB70708008148CDB375
:104B1000370680FF7D167D8E93777900998CE3951B
:104B200007D8B5B74A85EF20A07B13078501FD475D
:104B3000E3D5E7D2130685FFB317C900014905BBCA
:104B40003369F80133392001DDB13309FF41330600
:104B5000074133342F01330486409317840063CD1B
:104B60000724B3688900E39308CE814781498144D3
:104B70001DBFE39808F80E059317D7010D81B3E820
:104B8000A700935737009DBF0E059317D7010D81DE
:104B9000B3E8A700F2849357370011B73305934069
:104BA00063820412B70680009307F07F558F630D70
:104BB000F32E9307800363CBA720FD4763C3A72A87
:104BC00093070002898F3319F700B356AF00B3176C
:104BD000FF003369D900B337F0003357A7003369BA
:104BE000F9003A987E99B337F901338607019A8420
:104BF000D1BDB70680009307F07F558FE319F3DE30
:104C0000931736008D839318D801B3E81701F689FE
:104C100093573800E5B5130715FE9306000233D706
:104C2000E700630AD600930600043386C640339635
:104C3000C7003369C900333920013369E9000146EF
:104C4000814491B53309FF01B30707013336E90108
:104C50003E96931786008544E3D707E28944B70759
:104C600080FFFD17F18F135719001379190033696D
:104C700027019398F70133E9280113D6170015B1DE
:104C800013090EFE93070002B3562801630AFE00C3
:104C9000130900043309C94133192801B3EF2F0167
:104CA0003339F0013369D90059B63369E701333933
:104CB000200133892F41B3B72F013306F8409A847E
:104CC000F689A5BEB367E701638207189307F5FF6E
:104CD0006384071C9306F07F6304D5123E85D1BD23
:104CE00093070002B387C741B316F8003399FF005A
:104CF00033D6CF01D18E33392001B357C80133E900
:104D000026013E975DBB931736008D839318D8011B
:104D1000B3E81701AE8493573800F68949B3EDC361
:104D20003369F801E31F09DC0E059317D7010D81E4
:104D3000B368F50093573700D1B36381080E93161B
:104D400036009317D8018D82B3E8D700F6899357C0
:104D5000380091BB3309FF41B3070741333F2F01AF
:104D60003386E7418544D1BC0E059317D7010D81E9
:104D7000B368F500F2849357370015B30E05931707
:104D8000D7010D81B3E8A7009357370029BB9307DC
:104D9000F07FE382F6D43309FF013336E901B3072C
:104DA0000701B2979398F7011359190033E92801C5
:104DB00013D61700B684C1B93389EF413307E840F1
:104DC00033B62F013304C740F68949B43369E7018C
:104DD0003339200101BD938705FE93060002B357C6
:104DE000F700638AD50093060004B385B6403317F5
:104DF000B700336FEF003339E0013369F90055BD77
:104E0000931736008D839318D801B3E81701935791
:104E10003800EDB1B368C900E39708C681478149FE
:104E200059B13389EF41B307E84033B62F013386D8
:104E3000C740F689854411B4931636009317D801FC
:104E40008D82B3E8D70093573800B1B99316360076
:104E50009317D8018D82B3E8D700AA8493573800FE
:104E60003DB9930705FE93060002B357F700630AA6
:104E7000D500930600043385A6403317A700336F8F
:104E8000EF003339E0013369F900A9BB814513050F
:104E9000F07FB7070800A9BC3309FF01B30707017A
:104EA0003336F9013E9675B3931636009317D80141
:104EB0008D82B3E8D7009357380089B1397193D701
:104EC000450122DC4AD856D22A891394C50006DE51
:104ED00026DA4ED652D45AD05ECE13F5F77F318003
:104EE00093DAF501630B05109307F07F630BF5145C
:104EF000135AD9010E0433648A00370A8000336ADA
:104F00004401131B3900930415C00144814B13D88D
:104F100046011399C6001378F87FB2881359C90067
:104F200093D9F601630E08089307F07F6300F80435
:104F30001357D6010E0933692701130818C0B707A4
:104F400080003367F90093183600B384044181452B
:104F5000BD4733C83A0163E4871A97470000938737
:104F600067380A043E9410403E9602863367C900B3
:104F700093841480631207101364240081488945C8
:104F8000C1BF1306F07F81470147B207F250625458
:104F90005206B1837E08D18FB3E70701D25442593C
:104FA000B259225A925A025BF24B3A85BE85216170
:104FB000828001481306F07FB70708000147F1B768
:104FC0003367C9004DC7630809304A8532C4EF20F2
:104FD00020312246130755FFF547930685FF998F29
:104FE0003319D900B357F60033E72701B318D600B9
:104FF00026959304353F8145A1BF336A240163039D
:105000000A0636C632C46306042A2285EF20402DE4
:105010002246B246AA84130755FF754A138B84FFB4
:10502000330AEA4033146401335A4901336A8A006F
:10503000331B69011305D0C0B30495400144814B73
:10504000F9B5336A240163180A002144014B930423
:10505000F07F894B6DBD228A4A8B31449304F07FE7
:105060008D4B75B51144014B8144854B4DB513648F
:10507000140081488545E9BD136434004A878D4595
:10508000C1BD630A052E8547898F9306800363DDC2
:10509000F632014681470147CDBDCE868947638DF3
:1050A000F53A8D47E387F5F085473688E383F5FECB
:1050B0001385F43FE357A0FC93F778006396072825
:1050C00093D638009317770063D80700B70700FF1F
:1050D000FD177D8F138504409307E07FE3C3A7EAA4
:1050E0001316D70193179700B1833367D600137651
:1050F000F57F61BDD6865287DA88DE8545B7636164
:105100004723630DEA20DA86FD145284014B93177E
:10511000870013D388013363F300935E0301B35711
:10512000D403131F0301135F0F0193D50601139ED0
:1051300088003374D4033307FF024204C18D63FB3C
:10514000E5009A951386F7FF63EE652663FCE52676
:10515000F9179A95998D33D7D503C206C182B3F555
:10516000D5033306EF02C205D58D63FBC5009A95C2
:105170009306F7FF63E6652463F4C52479179A95CF
:10518000C20741645D8F9307F4FF3375F7009358AE
:105190000701935F0E01B377FE00B302F502B386F9
:1051A000C540B383F80293D502013386AF021E9641
:1051B0002E963385F803637376002295C168FD1837
:1051C00093550601337616014206B3F81201AA95EB
:1051D000469663E6B6126382B6123306CB408D8ED6
:1051E000333BCB00338B66411385F43F630C63176D
:1051F000B358DB0393550601337BDB03B3061F0370
:10520000420B33EB6501637BDB001A9B9385F8FF50
:10521000636D6B20637BDB20F9181A9B330BDB403B
:10522000B356DB0342064182337BDB03330FDF02DD
:10523000420B33666601637BE6011A969385F6FF9F
:105240006367661E6375E61FF9161A96C208B3E80F
:10525000D8009395080193D20801C181B38EF5025D
:105260003306E641B385BF0293D60E01B387F2023F
:10527000BE95AE96B38F5F0263F4F600C167BE9F22
:10528000C165FD1593D70601ED8EC206B3FEBE00C3
:10529000BE9FF696637FF6091A969387F8FF6369B7
:1052A000661A6368F619630FF61BBE8893E8180048
:1052B00011B54A85EF20C00213075501F14593044B
:1052C00005022246B246E3DAE5D4130485FF331A19
:1052D0008900014B85B3328532C4EF20600013078B
:1052E0005501F146AA87224613050502E3D6E6CE0C
:1052F000E1173317F6008148E5B9E370CBEE729BF6
:105300003335CB011A95AA961305F7FF6378D302BC
:1053100063E6B6106382D5102A87C1B5E3651BDF4B
:1053200093551B009316FA0113541A00CD8E7E0B71
:10533000F9BBE31DF6F7E38F06D6B9BFE31ED3FC36
:10534000E378CBFD2A8751BD93F7F8009146E389B6
:10535000D7D693B7C8FF9386480093C717008D82AE
:105360003E978DB381468547E34CA0FEFD58E31C74
:1053700005D0930410C085471385E441B316A700F8
:1053800033D6F8003395A800D18E3335A000C98EEE
:1053900013F676003357F70001CE93F7F600114667
:1053A0006388C70093874600B3B6D7003697BE869A
:1053B0009317870063D80704054681470147F1B674
:1053C00036877DBBB28779B3FD46E3D7F6FA05563B
:1053D000098E930600023356C7006388D70093876F
:1053E000E443B317F700B3E8F800B3361001D18EE9
:1053F00013F67600814701CE93F7F6001146014778
:10540000E392C7FA931797001316D701B18313D706
:105410003600518F014695BEE370CBF0729B333559
:10542000CB011A957917AA964DBBAE88C5BBAE863F
:1054300031BD93171E0033BEC70172931A96F91837
:105440003E8EE315F6E7E307DEC693E818009DB14C
:10545000BE88E30AF6FF99BD36881306F07F8147C0
:10546000014725B6E367DEFCBE88E310DEFE99B196
:1054700013D74501B7071000FD1713D8460113775E
:10548000F77F9308F07F33FEB700AA8EF58FFD817A
:10549000328F1378F87FFD82630B17010543630693
:1054A000180163140701630DFE001A858280B3683A
:1054B000AE000543E39B08FEE319E8FED18FF5F744
:1054C0000543E394EEFF0143E381D5FE054371FFFD
:1054D0003365AE003333A000C9BF13D74501B7070A
:1054E0001000FD1713D846011377F77F9308F07F5C
:1054F00033F3B7002A8EF58FFD81B28E1378F87FD3
:10550000FD8263081703630018030DEBB368A30063
:10551000631408005D8E29CA638508046388D50278
:10552000054595ED8280B3E8C700E38008FE795514
:1055300082803365A30065FD630CE80263140800F4
:105540005D8E79DEE39ED5FCE34CE8FC6348070101
:10555000E3E867FC6303F302637FF30081E57D55B5
:105560008280F5DE054582800145E39B08FA828052
:105570005D8E69DA6DBF01458280E3E3CEFB0145B4
:10558000E372DEFBE5F1E1BF39714AD813D9450179
:105590004ED652D456D29399C50006DE22DC26DAC6
:1055A0005AD05ECE1379F97F2A8A93D9C90093DA4B
:1055B000F501630D090E9307F07F6306F918135484
:1055C000D5018E09B36934013704800033E48900C2
:1055D00093143500130919C08149814B13D7460133
:1055E000139AC6001377F77FB285135ACA0013DBEC
:1055F000F601630B07109307F07F6303F7049357DB
:10560000D6010E0A33EA4701130717C0B707800017
:10561000B367FA00931536003A99814833C76A0197
:10562000BD463A851308190063E83617174600008F
:10563000130646CF8A09B29983A60900B2968286DC
:10564000B367CA001309F97F6399071293E9290028
:1056500081458948E1B701479307F07F3704080087
:1056600081443204D20731807E075D8C598CA2853B
:10567000F250625426854259D254B259225A925A53
:10568000025BF24B216182805A853E84AE84C68BD8
:105690008947638DFB0E8D47E38FFBFA85472A8789
:1056A000639EFB3881470144814465BF33E4A90010
:1056B00061C036C632C4638C092A4E85EF10504251
:1056C0002246B246AA87130755FF7544938487FF85
:1056D000198CB399990033548A0033643401B3149C
:1056E0009A0013D746011309D0C0139AC600137746
:1056F000F77F3309F9408149814BB285135ACA00BB
:1057000013DBF601E31907EEB367CA00B1C7630FF5
:105710000A22528532C4EF10B03C22462A879306F3
:1057200055FFF547930587FF958F331ABA00B35796
:10573000F600B3E74701B315B6003309E940130992
:10574000D9C08148E1BD33E4A90001ECA1498144FD
:105750001309F07F894B59B593E9190081458548B4
:1057600075BD4E84AA84B1491309F07F8D4BBDB538
:10577000914981440149854B95B593E93900D28718
:105780008D4869BD89475685E397FBF02A879307C3
:10579000F07F01448144F1B5C16E1386FEFF93D6BC
:1057A000040113DE0501F18CF18D338695023383FC
:1057B000B6029358060133059E021A95AA98B38241
:1057C000C60363F36800F692C16F1383FFFF33F5DE
:1057D000670093D30701B3F76800C207337366000D
:1057E0003E933306950293D80801B387A602135F50
:1057F0000601B3849302BE94FA94B38E760263F3E7
:10580000F400FE9E416A9307FAFF935F0401B376AA
:10581000F400B3F9F4007D8EC1803384D502C2094F
:10582000338FD401B299CE98B307DE02935E0401A0
:10583000B385BF02AE97BE9E330EFE0363F3BE0078
:10584000529EC1679385F7FF33F6BE006D8C42060A
:10585000229693DE0E01B305D502769E3385AF0204
:1058600013D40501B386D302AA96A296B38FF3038D
:1058700063F3A600BE9F41657D15B3F7A600C2077E
:105880006D8DAA97B3855800B3B93501FA97B295D3
:105890003384370133B6C500B30EC4013385CE005F
:1058A00033343401B3B7E701C18F33BECE0113D413
:1058B00006013336C5003E943366CE0093949500BE
:1058C00032947E94B3E46400260493567501B33495
:1058D0009000DD8193179500CD8C558CDD8C93174E
:1058E000740063DB070093D7140085889316F401D6
:1058F000DD8CD58C058042899307F93F6359F00808
:1059000093F6740081CE93F6F40011466388C600C6
:1059100093864400B3B496002694B684931674001C
:1059200063D80600B70700FFFD177D8C9307094079
:105930009306E07F63CFF60E93D634009314D40120
:105940002604D58C318093F7F77F21BB328532C492
:10595000EF10101993065501F1471307050222466F
:10596000E3D1D7DC6115B317A6008145F9B3EF1079
:10597000301713075501F145930705022246B24639
:10598000E3D5E5D461153314AA00814499BB85465B
:105990009D8EB1E71309E941B3972401B3D4D40034
:1059A00033192401B337F000B3649900DD8C93F709
:1059B0007400B356D40081CF93F7F4001146638886
:1059C000C70093874400B3B49700A696BE8493970C
:1059D000860063D8070485470144814459B1130602
:1059E0008003E341D6CC7D46E356D6FA0556B3078D
:1059F000F640930500023356F4006387B60013099E
:105A0000E943B3172401DD8CB3349000D18C93F6B5
:105A10007400014499CA93F7F40011468146E39259
:105A2000C7FA139496003180F6068D80D58C814795
:105A30000DB99307F07F0144814425B142896DBDC2
:105A4000370710007D1701113373B70093D8460153
:105A5000758F935ED60122CC26CA0E0393D44501DE
:105A60009357D5010E0706CE4AC84EC693F8F87F65
:105A7000130EF07F33E7EE0093F4F47F13D4F501B7
:105A800033E36700131F3500FD82931E36006380E9
:105A9000C81993C61600B38514416305D412635127
:105AA000B018638B081AB70780005D8F6381C459F3
:105AB0009307800363C4B734FD4763C5B7489307B2
:105AC00000028D8FB3D9BE003318F700B39EFE00DD
:105AD000336838013357B700B339D0013368380120
