:100000006F000073130000001300000013000000D5
:100010001300000013000000130000001300000094
:100020001300000013000000130000001300000084
:08003000130000007300100032
:100038006FF09FFC000000006F00E06A6F00A06B8B
:1000480000000000000000000000000000000000A8
:100058000000000000000000000000000000000098
:100068006FF09FF9000000006FF01FF9000000001A
:100078006FF09FF86FF05FF86FF01FF86FF0DFF721
:100088006FF09FF76FF05FF76F0060276F00202811
:100098006F00602A6F00802B6F00402C6FF0DFF537
:1000A8006FF09FF56FF05FF56F00405F6F00406184
:1000B8006FF09FF46FF05FF46F00402D00000000B8
:1000C8000000000000000000000000006F00002A8F
:1000D8006F00C02C6F00C02F6F0080326F00C037D8
:1000E8006F0080406F0040436F0000466FF0DFF004
:1000F8006FF09FF06FF05FF06FF01FF06FF0DFEFC1
:100108006FF09FEF6F0040476F00C0546F000058BA
:100118006F00C0266FF05FEE6FF01FEE6FF0DFED3F
:1001280000000000000000000000000000000000C7
:080138000000000000000000BF
:100140003D432A876373C3029377F700BDEFADE5A4
:10015000937606FF3D8ABA960CC34CC30CC74CC7B6
:100160004107E36BD7FE11E28280B306C3408A06E3
:100170009702000096966780A6002307B700A306A3
:10018000B7002306B700A305B7002305B700A304F3
:10019000B7002304B700A303B7002303B700A302EB
:1001A000B7002302B700A301B7002301B700A300E3
:1001B000B7002300B700828093F5F50F9396850072
:1001C000D58D93960501D58D61B79396270097023B
:1001D000000096968682E78086FA9680C1171D8F6A
:1001E0003E96E374C3F8A5B73367B500FD530D8B96
:1001F00079E7B7877F7F9387F7F710419441B37210
:10020000F6003363F600BE92B3E262006397720CAD
:100210006318D6065041D441B372F6003363F6003A
:10022000BE92B3E262006398720A631BD604104563
:100230009445B372F6003363F600BE92B3E26200F7
:100240006391720A631ED6025045D445B372F6001C
:100250003363F600BE92B3E26200639A72086311E0
:10026000D60210499449B372F6003363F600BE9289
:10027000B3E26200639372085105D105E30FD6F62D
:100280001317060193970601631CF7001357060125
:1002900093D706013305F7409375F50F91E98280F6
:1002A0004183C1833305F7409375F50F91E1828057
:1002B0001377F70F93F7F70F3305F7408280034664
:1002C000050083C60500050585056313D60065FA9C
:1002D0003305D640828011059105E312D6FE014513
:1002E00082802105A105E31CD6FC014582803105F1
:1002F000B105E316D6FC014582804105C105E31036
:10030000D6FC01458280411122C60008010032441A
:10031000410173002030411122C600080945EF0059
:10032000D0072A8785476317F700EF20C01E0945CD
:10033000EF00100C010032444101730020304111E4
:1003400022C600081145EF00B00A01003244410105
:1003500073002030411122C60008010032444101DF
:1003600073002030411122C60008010032444101CF
:1003700073002030411122C60008010032444101BF
:1003800073002030411122C60008010032444101AF
:1003900073002030411122C600080100324441019F
:1003A00073002030411122C6000893050008B737BA
:1003B0000140138507C0EF109029AA8789CB9305C8
:1003C0000008B7370140138507C0EF10502F010018
:1003D0003244410173002030411122C60008854596
:1003E000B7370140138507C0EF107026AA8781CB6D
:1003F0008545B7370140138507C0EF10502C010029
:100400003244410173002030411122C60008930597
:100410000004B7370140138507C0EF105023AA87A7
:1004200089CB93050004B7370140138507C0EF104F
:10043000102993050002B7370140138507C0EF105C
:100440001021AA8789CB93050002B7370140138595
:1004500007C0EF10D0260100324441017300203064
:10046000411122C600088945B7370140138507C0EE
:10047000EF10F01DAA8781CB8945B737014013855E
:1004800007C0EF10D0239145B7370140138507C04F
:10049000EF10F01BAA8781CB9145B7370140138538
:1004A00007C0EF10D021A145B7370140138507C021
:1004B000EF10F019AA8781CBA145B737014013850A
:1004C00007C0EF10D01FC145B7370140138507C0E3
:1004D000EF10F017AA8781CBC145B73701401385CC
:1004E00007C0EF10D01D01003244410173002030DD
:1004F000411122C60008854537050040EF10301530
:10050000AA8791CB854537050040EF10501B130596
:100510005002EF20C020010032444101730020301E
:10052000411122C600088545B707004013850740E2
:10053000EF10F011AA8781CB8545B70700401385DE
:100540000740EF10D0170100324441017300203002
:10055000411122C600088545B71700401385078062
:10056000EF10F00EAA8781CB8545B71700401385A1
:100570000780EF10D0140100324441017300203095
:10058000011122CE0010C145B747014013850780F5
:10059000EF103055AA87D5CFC145B7470140138525
:1005A0000780EF107058B707002005472384E71E27
:1005B000B74701409387078083D707002317F4FECE
:1005C000B74701409387078083D747002317F4FE7E
:1005D0008145B7070240138587055921B7070240B7
:1005E000138587051923AA8793F7F70F130740068A
:1005F000B307F740A306F4FEB707024093878705C9
:1006000013074006D8C30347D4FEB70700209387DB
:100610008720BA97130700022380E7008347D4FEA0
:1006200013871700B707002093878720BA97238086
:100630000700EF20907E130640068145B707002093
:1006400013858720F53C8545B7070240138587054C
:10065000012901007244056173002030411122C656
:10066000000893055052B747004013850740EF102C
:10067000904EAA8799CB93055052B74700401385F7
:100680000740EF10705DEF1010620100324441012D
:1006900073002030411122C600080100324441019C
:1006A00073002030411122C600080965A9292A8754
:1006B00085476316F70009656D21EF103069010069
:1006C0003244410173002030411106C622C40008A3
:1006D000370502000D292A8785476315F70037057E
:1006E000020041210100B2402244410182804111B7
:1006F00022C600080100324441017300203041113C
:1007000022C6000801A0411106C622C40008EF203D
:100710008015EF20D029EF20B053EF30200601459F
:10072000EF202018916713850758EF20B02C01A007
:10073000970100209381012B175100201301818C18
:100740001745000013050506970500209385858B46
:100750001386818063FAC5008322050023A055001B
:1007600011059105E3EAC5FE1385818093854199C2
:100770006377B500232005001105E36DB5FE9302F4
:10078000800873A00230970200009382228B93E2CC
:10079000120073905230EF20F043970200009382D2
:1007A000C2F67390123473002030011122CE001073
:1007B0002326A4FE8327C4FE9843C167F9177D8FC3
:1007C0008327C4FE98C38327C4FE23A00700832782
:1007D000C4FE23A207008327C4FE23A407008327A7
:1007E000C4FE23A607000327C4FEB7070240A107E3
:1007F000631BF700B7070240D843B70702401367EF
:10080000F700D8C375A20327C4FEB7070240F1075B
:10081000631BF700B7070240D843B70702401367CE
:10082000070FD8C371A20327C4FEB70702409387FE
:100830000703631DF700B7070240D443B707024020
:100840000567130707F0558FD8C39DA20327C4FE81
:10085000B707024093874704631BF700B7070240BE
:10086000D443B70702403D67558FD8C391A20327F1
:10087000C4FEB707024093878705631CF700B707DC
:100880000240D443B707024037070F00558FD8C343
:1008900005A20327C4FEB70702409387C706631C5F
:1008A000F700B7070240D443B70702403707F0000C
:1008B000558FD8C3F5A80327C4FEB7070240938716
:1008C0000708631CF700B7070240D443B70702408C
:1008D0003707000F558FD8C3E1A80327C4FEB70719
:1008E000024093878740631FF700B7070240938752
:1008F0000740D843B7070240938707401367F700C4
:10090000D8C37DA00327C4FEB70702409387C74121
:10091000631FF700B707024093870740D843B70724
:100920000240938707401367070FD8C351A00327DE
:10093000C4FEB7070240938707436311F702B70766
:10094000024093870740D443B7070240938707408C
:100950000567130707F0558FD8C399A80327C4FE6E
:10096000B707024093874744631FF700B707024069
:1009700093870740D443B7070240938707403D67FA
:10098000558FD8C335A00327C4FEB707024093870D
:100990008745631FF700B707024093870740D4439A
:1009A000B70702409387074037070F00558FD8C31A
:1009B0000100724405618280797122D60018232ECD
:1009C000A4FC232CB4FC232604FE8327C4FD9C43F3
:1009D0002326F4FE0327C4FEE177BD07F98F232603
:1009E000F4FE832784FD9847832784FD9C535D8F05
:1009F000832784FD9C4B5D8F832784FDDC4B5D8FBB
:100A0000832784FD9C4F5D8F832784FDDC4F5D8FA2
:100A1000832784FDDC535D8F832784FD9C57D98F0A
:100A20000327C4FED98F2326F4FE8327C4FD0327A2
:100A3000C4FE98C3832784FDD8478327C4FDD8C349
:100A4000832784FD98438327C4FD98C7832784FDAB
:100A5000D8438327C4FDD8C7010032544561828042
:100A6000011122CE00102326A4FE2324B4FE8327E6
:100A700084FE91CB8327C4FE9C4313E71700832792
:100A8000C4FE98C311A88327C4FE9843C167F91711
:100A90007D8F8327C4FE98C3010072440561828064
:100AA000011122CE00102326A4FE2324B4FE23220B
:100AB000C4FE832744FE99CB8327C4FE9843832733
:100AC00084FE5D8F8327C4FE98C321A88327C4FEBC
:100AD0009843832784FE93C7F7FF7D8F8327C4FE47
:100AE00098C30100724405618280011122CE00107A
:100AF0002326A4FE8327C4FEDC43C207C1833E85B0
:100B0000724405618280797122D60018232EA4FCDC
:100B1000232604FE232404FE0327C4FDB707001088
:100B2000F98F89CBB7070240938707409C43232462
:100B3000F4FE31A0B70702409C432324F4FE0327B0
:100B400084FE8327C4FDF98F89C785472326F4FED9
:100B500019A0232604FE8327C4FE3E853254456136
:100B60008280011122CE00102326A4FE0327C4FE9A
:100B7000B7070010F98F89CBB7070240938707406A
:100B80000327C4FED8C331A0B70702400327C4FE21
:100B9000D8C30100724405618280797122D60018A1
:100BA000232EA4FC232604FE232404FEB7070140C1
:100BB000938707409C430327C4FDF98F2324F4FE49
:100BC000B707014093870740D84B8327C4FDF98FAF
:100BD00081CB832784FE89C785472326F4FE19A08D
:100BE000232604FE8327C4FE3E853254456182805D
:100BF000011122CE00102326A4FEB70701409387DF
:100C000007400327C4FED8CB0100724405618280EF
:100C1000397122DE80002326A4FC2324B4FC232681
:100C200004FE232004FE232404FE232E04FC23229E
:100C300004FE232C04FC832784FC9C47BD8B2326C5
:100C4000F4FE832784FC9C47C18B89CB832784FCDB
:100C5000DC430327C4FED98F2326F4FE832784FCBC
:100C600083D7070093F7F70FF1CF8327C4FC9C438A
:100C70002322F4FE232404FE65A8832784FE05476F
:100C8000B317F700232EF4FC832784FC83D70700D7
:100C90003E878327C4FDF98F2320F4FE032704FE3B
:100CA0008327C4FD6311F708832784FE8A07232E58
:100CB000F4FC8327C4FD3D47B317F700232CF4FC55
:100CC000832784FD93C7F7FF032744FEF98F232270
:100CD000F4FE8327C4FD0327C4FEB317F7000327E0
:100CE00044FED98F2322F4FE832784FC9847930780
:100CF0008002631BF700832784FE05473317F70044
:100D00008327C4FCD8CB05A0832784FC984793078E
:100D10008004631AF700832784FE05473317F70022
:100D20008327C4FC98CB832784FE85072324F4FE05
:100D3000032784FE9D47E3F2E7F48327C4FC0327DF
:100D400044FE98C3832784FC03D707009307F00F62
:100D500063F1E70E8327C4FCDC432322F4FE232443
:100D600004FE75A8832784FEA1070547B317F70083
:100D7000232EF4FC832784FC83D707003E87832738
:100D8000C4FDF98F2320F4FE032704FE8327C4FD4E
:100D90006312F708832784FE8A07232EF4FC832737
:100DA000C4FD3D47B317F700232CF4FC832784FDD3
:100DB00093C7F7FF032744FEF98F2322F4FE83270E
:100DC000C4FD0327C4FEB317F700032744FED98FE1
:100DD0002322F4FE832784FC984793078002631B39
:100DE000F700832784FEA10705473317F700832701
:100DF000C4FCD8CB832784FC984793078004631BEB
:100E0000F700832784FEA10705473317F7008327E0
:100E1000C4FC98CB832784FE85072324F4FE032794
:100E200084FE9D47E3F0E7F48327C4FC032744FED8
:100E3000D8C30100725421618280011122CE0010BA
:100E40002326A4FEAE872322C4FE2315F4FE8327A7
:100E500044FE99C70357A4FE8327C4FE98CB31A054
:100E60000357A4FE8327C4FED8CB0100724405615A
:100E70008280797122D60018232EA4FC232CB4FC86
:100E8000232404FE232204FE232604FE232004FE42
:100E90008327C4FD63D80700B7070140DC4F232632
:100EA000F4FE31A0B7070140DC432326F4FE83277C
:100EB000C4FDC183BD8B2320F4FE0327C4FDC1679D
:100EC000FD17F98F2324F4FE0327C4FDB707300074
:100ED0007D8FB70730006315F7020327C4FEB707FD
:100EE00000F1FD17F98F2326F4FEB7070140D44324
:100EF000B7070140370700F17D17758FD8C3ADA044
:100F00000327C4FDB7071000F98F8DCB832704FE9C
:100F10000D47B317F7002322F4FE832744FE93C73F
:100F2000F7FF0327C4FEF98F2326F4FE0327C4FE30
:100F3000B707000FD98F2326F4FE3DA08327C4FDF9
:100F4000D5839207032784FEB317F70093C7F7FFF3
:100F50000327C4FEF98F2326F4FE0327C4FEB70738
:100F6000000FD98F2326F4FE832784FD91CF83279A
:100F7000C4FDD5839207032784FEB317F700032728
:100F8000C4FED98F2326F4FE8327C4FD63D807004F
:100F9000B70701400327C4FED8CF31A0B7070140EF
:100FA0000327C4FED8C30100325445618280011179
:100FB00022CE00102326A4FE8327C4FEFD8B054706
:100FC000B316F70037E700E08327C4FE95839387C5
:100FD00007048A07BA9794C30100724405618280AE
:100FE000011122CE00102326A4FE8327C4FEFD8B10
:100FF0000547B316F70037E700E08327C4FE958363
:10100000938707068A07BA9794C301007244056163
:101010008280011122CE00102326A4FEAE87A305F4
:10102000F4FE37E700E08327C4FEBA970347B4FE17
:101030002380E7400100724405618280011106CEE1
:1010400022CC00102326A4FEB7E700E0BC47898B22
:101050008DC38327C4FE83C707003E878327C4FE52
:1010600083C72700920793F7F70FBE853A85553758
:1010700095A0B7E700E0BC47898BA9EF8327C4FEA2
:1010800003C7170085476318F7028327C4FE83C789
:1010900007003E878327C4FE83C727009207E20725
:1010A000E18793E707F8E207E18793F7F70FBE853B
:1010B0003A85853705A08327C4FE83C707003E878E
:1010C0008327C4FE83C72700920793F7F70FBE85D7
:1010D0003A8581378327C4FEDC4381CB8327C4FE56
:1010E00083C707003E85E13539A08327C4FE83C747
:1010F00007003E85F5350100F240624405618280BB
:10110000797122D60018232EA4FC232604FE232462
:1011100004FE232204FE232004FEB7170240DC4312
:10112000B18B2326F4FE0327C4FE91476302F70226
:101130000327C4FEA1476305F7028327C4FEC5E762
:101140008327C4FD37177A001307072098C365A0CB
:101150008327C4FD37177A001307072098C361A8B7
:10116000B7170240D843B7073C00F98F2324F4FE99
:10117000B7170240D843C167F98F2322F4FE8327B3
:1011800084FEC98389072324F4FE832744FE89EF64
:10119000032784FEB7173D00938707903307F702B4
:1011A0008327C4FD98C381A8B7170240D843B70767
:1011B0000200F98F89CF032784FEB7173D0093877C
:1011C00007903307F7028327C4FD98C32DA0032798
:1011D00084FEB7177A00938707203307F702832727
:1011E000C4FD98C309A88327C4FD37177A001307E5
:1011F000072098C30100B7170240DC4393F7070F9D
:101200002326F4FE8327C4FE91832326F4FEB7072A
:101210000020138707008327C4FEBA9783C70700FF
:1012200093F7F70F2320F4FE8327C4FD9843832709
:1012300004FE3357F7008327C4FDD8C3B717024015
:10124000DC4393F707702326F4FE8327C4FEA183B3
:101250002326F4FEB7070020138707008327C4FE68
:10126000BA9783C7070093F7F70F2320F4FE83276D
:10127000C4FDD843832704FE3357F7008327C4FDFA
:1012800098C7B7170240D843916793870780F98FB3
:101290002326F4FE8327C4FEAD832326F4FEB7077E
:1012A0000020138707008327C4FEBA9783C707006F
:1012B00093F7F70F2320F4FE8327C4FDD843832739
:1012C00004FE3357F7008327C4FDD8C7B717024081
:1012D000D843B167F98F2326F4FE8327C4FEB98370
:1012E0002326F4FEB70700201387071E8327C4FEBA
:1012F000BA9783C7070093F7F70F2320F4FE8327DD
:10130000C4FDD847832704FE3357F7028327C4FD63
:1013100098CB0100325445618280011122CE001029
:101320002326A4FE2324B4FE832784FE99CBB7177B
:101330000240D44BB71702400327C4FE558FD8CBC9
:1013400021A8B7170240D44B8327C4FE13C7F7FF69
:10135000B7170240758FD8CB0100724405618280B7
:10136000011122CE00102326A4FE2324B4FE8327DD
:1013700084FE99CBB7170240944FB717024003275A
:10138000C4FE558F98CF21A8B7170240944F8327EA
:10139000C4FE13C7F7FFB7170240758F98CF01003F
:1013A000724405618280011122CE00102326A4FE22
:1013B0002324B4FE832784FE99CBB7170240D44F71
:1013C000B71702400327C4FE558FD8CF21A8B717FF
:1013D0000240D44F8327C4FE13C7F7FFB71702405C
:1013E000758FD8CF0100724405618280797122D651
:1013F0000018232EA4FC232CB4FC231704FE8327FF
:10140000C4FD83D707002317F4FE0327C4FDB737B5
:101410000140938707C06308F7020327C4FDB7079D
:1014200000406302F7020327C4FDB707004093871B
:101430000740630AF7000327C4FDB71700409387EE
:1014400007806311F7028357E4FE93F7F7F8231739
:10145000F4FE832784FD03D727008357E4FED98F4A
:101460002317F4FE8357E4FE93F7F7CF2317F4FE18
:10147000832784FD03D767008357E4FED98F2317A2
:10148000F4FE8327C4FD0357E4FE2390E70083277F
:1014900084FD03D747008327C4FD2396E7028327F3
:1014A00084FD03D707008327C4FD2394E7020327A5
:1014B000C4FDB7370140938707C0631DF70083273A
:1014C00084FD83C787001397070141838327C4FDE9
:1014D0002398E7028327C4FD0547239AE70001000C
:1014E000325445618280797122D60018232EA4FCE3
:1014F000232CB4FC231504FE231704FE231604FE3C
:101500008327C4FD83D70702C207C183F99B1397C2
:10151000070141838327C4FD2390E7028327C4FD8D
:1015200083D707022317F4FE8327C4FD83D7470020
:101530002316F4FE8327C4FD83D787012315F4FE09
:101540008357A4FE93F7F7F82315F4FE8357A4FE00
:10155000F19B2315F4FE832784FD03D707008357EF
:10156000A4FED98F2315F4FE8357E4FEF59B2317C1
:10157000F4FE832784FD03D787008357E4FED98FC9
:101580002317F4FE832784FD03D727008357E4FE47
:10159000D98F2317F4FE0327C4FDB7370140938783
:1015A00007C0631CF7068357E4FEDD9B2317F4FE98
:1015B000832784FD03D7A7008357E4FED98F231721
:1015C000F4FE8357E4FEED9B2317F4FE832784FD8E
:1015D00003D747008357E4FED98F2317F4FE8357C0
:1015E000C4FE93F7F7EF2316F4FE8357C4FE93F778
:1015F000F7DF2316F4FE832784FD03D7C700835744
:10160000C4FED98F2316F4FE832784FD03D7E70099
:101610008357C4FED98F2316F4FE8327C4FD0357D6
:10162000C4FE2392E7008327C4FD0357A4FE239C36
:10163000E700832784FD03D767008327C4FD239A2F
:10164000E7028327C4FD0357E4FE2390E70201006D
:10165000325445618280797122D60018232EA4FC71
:10166000232CB4FC231504FE231704FE231604FECA
:101670008327C4FD83D70702C207C183BD9B13978D
:10168000070141838327C4FD2390E7028327C4FD1C
:1016900083D707022317F4FE8327C4FD83D74700AF
:1016A0002316F4FE8327C4FD83D787012315F4FE98
:1016B0000357A4FEE577FD17F98F2315F4FE835732
:1016C000A4FE93F7F7CF2315F4FE832784FD83D779
:1016D0000700A2071397070141838357A4FED98F00
:1016E0002315F4FE8357E4FE93F7F7FD2317F4FE6A
:1016F000832784FD83D787009207139707014183CF
:101700008357E4FED98F2317F4FE832784FD83D704
:10171000270092071397070141838357E4FED98F6F
:101720002317F4FE0327C4FDB7370140938707C092
:101730006310F70A8357E4FE93F7F7F72317F4FED5
:10174000832784FD83D7A70092071397070141835E
:101750008357E4FED98F2317F4FE8357E4FE93F7F3
:10176000F7FB2317F4FE832784FD83D747009207F6
:101770001397070141838357E4FED98F2317F4FEA3
:101780008357C4FE93F7F7BF2316F4FE0357C4FE36
:10179000FD779387F77FF98F2316F4FE832784FD67
:1017A00083D7C7008A071397070141838357C4FE75
:1017B000D98F2316F4FE832784FD83D7E7008A0799
:1017C0001397070141838357C4FED98F2316F4FE74
:1017D0008327C4FD0357C4FE2392E7008327C4FD7B
:1017E0000357A4FE239CE700832784FD03D76700EB
:1017F0008327C4FD239CE7028327C4FD0357E4FE2F
:101800002390E7020100325445618280797122D62B
:101810000018232EA4FC232CB4FC231504FE23174C
:1018200004FE231604FE8327C4FD83D70702C207E4
:10183000C18393F7F7EF1397070141838327C4FD13
:101840002390E7028327C4FD83D707022317F4FE02
:101850008327C4FD83D747002316F4FE8327C4FDE6
:1018600083D7C7012315F4FE8357A4FE93F7F7F837
:101870002315F4FE8357A4FEF19B2315F4FE832762
:1018800084FD03D707008357A4FED98F2315F4FEE8
:101890008357E4FE93F7F7DF2317F4FE832784FDD5
:1018A00083D78700A2071397070141838357E4FE7C
:1018B000D98F2317F4FE832784FD83D72700A2073F
:1018C0001397070141838357E4FED98F2317F4FE52
:1018D0000327C4FDB7370140938707C06312F70A97
:1018E0000357E4FEFD779387F77FF98F2317F4FE04
:1018F000832784FD83D7A700A2071397070141839D
:101900008357E4FED98F2317F4FE8357E4FE93F741
:10191000F7BF2317F4FE832784FD83D74700A20770
:101920001397070141838357E4FED98F2317F4FEF1
:101930000357C4FEFD77FD17F98F2316F4FE0357F6
:10194000C4FEF977FD17F98F2316F4FE832784FD73
:1019500083D7C70092071397070141838357C4FEBB
:10196000D98F2316F4FE832784FD83D7E7009207DF
:101970001397070141838357C4FED98F2316F4FEC2
:101980008327C4FD0357C4FE2392E7008327C4FDC9
:101990000357A4FE239EE700832784FD03D7670037
:1019A0008327C4FD239EE7028327C4FD0357E4FE7B
:1019B0002390E7020100325445618280797122D67A
:1019C0000018232EA4FC232CB4FC231604FE23159C
:1019D00004FE231704FE8327C4FD83D70702139751
:1019E00007014183FD77FD17F98F139707014183A5
:1019F0008327C4FD2390E7028327C4FD83D7070212
:101A00002315F4FE8327C4FD83D747002317F4FE74
:101A10008327C4FD83D7C7012316F4FE0357C4FEF2
:101A2000E577FD17F98F2316F4FE8357C4FE93F76D
:101A3000F7CF2316F4FE832784FD83D70700A20780
:101A40001397070141838357C4FED98F2316F4FEF1
:101A50000357A4FEF977FD17F98F2315F4FE8327AA
:101A600084FD83D78700B20713970701418383570B
:101A7000A4FED98F2315F4FE832784FD83D7270086
:101A8000B2071397070141838357A4FED98F23150B
:101A9000F4FE0327C4FDB7370140938707C06316E0
:101AA000F7020357E4FEF177FD17F98F2317F4FED1
:101AB000832784FD83D7C7009A07139707014183C3
:101AC0008357E4FED98F2317F4FE8327C4FD035701
:101AD000E4FE2392E7008327C4FD0357C4FE239E40
:101AE000E700832784FD03D767008327C4FD239085
:101AF000E7048327C4FD0357A4FE2390E7020100F7
:101B0000325445618280011122CE00102326A4FEAA
:101B10002324B4FE832784FE8DC38327C4FE83D78A
:101B20000700C207C18393E717001397070141839A
:101B30008327C4FE2390E70039A88327C4FE83D7F8
:101B40000700C207C183F99B1397070141838327CD
:101B5000C4FE2390E70001007244056182800111F8
:101B600022CE00102326A4FE2324B4FE832784FE65
:101B700095C38327C4FE83D7470413970701418386
:101B8000E177D98F1397070141838327C4FE2392FE
:101B9000E70415A08327C4FE83D7470413970701E2
:101BA0004183A167FD17F98F1397070141838327AD
:101BB000C4FE2392E70401007244056182807971BA
:101BC00022D60018232EA4FCAE87231DF4FC231775
:101BD00004FE8327C4FD83D787012317F4FE8357B0
:101BE000E4FEDD9B2317F4FE0357E4FE8357A4FDB8
:101BF000D98F2317F4FE8327C4FD0357E4FE239CEB
:101C0000E7000100325445618280797122D60018C4
:101C1000232EA4FCAE87231DF4FC231704FE832788
:101C2000C4FD83D787012317F4FE0357E4FEFD7735
:101C30009387F77FF98F2317F4FE8357A4FDA2073C
:101C40001397070141838357E4FED98F2317F4FECE
:101C50008327C4FD0357E4FE239CE70001003254B0
:101C600045618280797122D60018232EA4FCAE87AC
:101C7000231DF4FC231704FE8327C4FD83D7C7016B
:101C80002317F4FE8357E4FEDD9B2317F4FE03576E
:101C9000E4FE8357A4FDD98F2317F4FE8327C4FDE8
:101CA0000357E4FE239EE700010032544561828021
:101CB000797122D60018232EA4FCAE87231DF4FCD4
:101CC000231704FE8327C4FD83D7C7012317F4FE1F
:101CD0000357E4FEFD779387F77FF98F2317F4FE10
:101CE0008357A4FDA2071397070141838357E4FE9E
:101CF000D98F2317F4FE8327C4FD0357E4FE239EE8
:101D0000E7000100325445618280797122D60018C3
:101D1000232EA4FCAE87231DF4FC231704FE832787
:101D2000C4FD83D787012317F4FE8357E4FEED9BA0
:101D30002317F4FE0357E4FE8357A4FDD98F23171E
:101D4000F4FE8327C4FD0357E4FE239CE700010053
:101D5000325445618280797122D60018232EA4FC6A
:101D6000AE87231DF4FC231704FE8327C4FD83D70D
:101D700087012317F4FE8357E4FE93F7F7BF231779
:101D8000F4FE8357A4FDA2071397070141838357ED
:101D9000E4FED98F2317F4FE8327C4FD0357E4FE26
:101DA000239CE7000100325445618280797122D67C
:101DB0000018232EA4FCAE87231DF4FC231704FE79
:101DC0008327C4FD83D7C7012317F4FE8357E4FE9E
:101DD000ED9B2317F4FE0357E4FE8357A4FDD98F30
:101DE0002317F4FE8327C4FD0357E4FE239EE70078
:101DF0000100325445618280797122D60018232E69
:101E0000A4FCAE87231DF4FC231704FE8327C4FD26
:101E100083D7C7012317F4FE8357E4FE93F7F7BF78
:101E20002317F4FE8357A4FDA207139707014183EC
:101E30008357E4FED98F2317F4FE8327C4FD03578D
:101E4000E4FE239EE70001003254456182807971EF
:101E500022D60018232EA4FCAE87231DF4FC2326D3
:101E600004FE231504FE231404FE8327C4FD83D738
:101E700007011397070141838357A4FDF98F2315A9
:101E8000F4FE8327C4FD83D7C7001397070141835E
:101E90008357A4FDF98F2314F4FE8357A4FE81CB4E
:101EA000835784FE89C785472326F4FE19A023267D
:101EB00004FE8327C4FE3E853254456182800111B1
:101EC00022CE00102326A4FEAE872315F4FE8357EE
:101ED000A4FE93C7F7FF1397070141838327C4FE2E
:101EE0002398E70001007244056182805D7186C617
:101EF000A2C48008232EA4FA232CB4FA232604FEBD
:101F0000232404FE232204FE232004FE232E04FCAB
:101F10008327C4FB232EF4FC8327C4FB83D707014C
:101F2000C207C1832326F4FE0327C4FEB567FD174D
:101F3000F98F2326F4FE832784FB83D767003E872F
:101F40008327C4FED98F2326F4FE8327C4FE13976C
:101F5000070141838327C4FB2398E7008327C4FB41
:101F600083D7C700C207C1832326F4FE0327C4FE1C
:101F7000BD679387379FF98F2326F4FE832784FB61
:101F800003D74700832784FB83D78700D98F139714
:101F900007014183832784FB83D7A700D98FC2071A
:101FA000C1833E878327C4FED98F2326F4FE83276F
:101FB000C4FE1397070141838327C4FB2396E700E0
:101FC0008327C4FB83D74701C207C1832326F4FEBE
:101FD0000327C4FEC1679387F7CFF98F2326F4FE4A
:101FE000832784FB83D7C7003E878327C4FED98F0E
:101FF0002326F4FE8327C4FE13970701418383271A
:10200000C4FB239AE700930784FC3E85EFF04F8FD3
:102010000327C4FDB7470140938707806317F70084
:10202000832744FD2324F4FE29A0832704FD2324D1
:10203000F4FE8327C4FB83D7C700C207C183C2074E
:10204000C18763D20702032784FEBA878607BA973F
:102050008E073E97832784FB9C438607B357F7027E
:102060002322F4FE05A0032784FEBA878607BA97C9
:102070008E073E97832784FB9C438A07B357F7025A
:102080002322F4FE032744FE93074006B357F702CA
:1020900092072326F4FE8327C4FE13D74700930735
:1020A0004006B307F702032744FEB307F740232097
:1020B000F4FE8327C4FB83D7C700C207C183C207CE
:1020C000C18763D20702832704FE8E071387270385
:1020D00093074006B357F7029D8B0327C4FED98FA1
:1020E0002326F4FE05A0832704FE92071387270307
:1020F00093074006B357F702BD8B0327C4FED98F61
:102100002326F4FE8327C4FE139707014183832708
:10211000C4FB2394E7000100B6402644616182803D
:10212000011122CE00102326A4FE2324B4FE83270F
:1021300084FE95C38327C4FE83D7C7001397070186
:1021400041838967D98F1397070141838327C4FE91
:102150002396E70015A08327C4FE83D7C7001397F3
:1021600007014183F977FD17F98F13970701418321
:102170008327C4FE2396E700010072440561828034
:10218000797122D60018232EA4FCAE87232AC4FC22
:10219000231DF4FC232404FE232204FE232004FE3A
:1021A000232604FE8327C4FD2326F4FE8357A4FDC3
:1021B00093F7F70F958393F7F70F2324F4FE8357D4
:1021C000A4FDFD8B2322F4FE832744FE0547B317AD
:1021D000F7002320F4FE032784FE85476318F700E9
:1021E0008327C4FEB1072326F4FE0DA0032784FE37
:1021F00089476318F7008327C4FEC1072326F4FE2E
:1022000031A08327C4FED1072326F4FE832744FD93
:1022100099CB8327C4FE94438327C4FE032704FE7F
:10222000558F98C321A88327C4FE9443832704FEB7
:1022300013C7F7FF8327C4FE758F98C3010032547C
:1022400045618280011122CE00102326A4FEAE87B4
:102250002322C4FE2315F4FE832744FE9DC3832757
:10226000C4FE83D747011397070141838357A4FE18
:10227000D98F1397070141838327C4FE239AE70070
:1022800035A08327C4FE83D74701139707014183F5
:102290008357A4FE93C7F7FFC207C183F98F139733
:1022A000070141838327C4FE239AE700010072449B
:1022B00005618280011122CE00102326A4FEAE8784
:1022C0002315F4FE8357A4FE93F7F71F1397070116
:1022D00041838327C4FE2392E70001007244056115
:1022E0008280797122D60018232EA4FCAE87231D8C
:1022F000F4FC232604FE8327C4FD83D7070013972D
:10230000070141838357A4FDF98FC207C18389C7A1
:1023100085472326F4FE19A0232604FE8327C4FE46
:102320003E85325445618280011122CE0010232661
:10233000A4FEAE872315F4FE8357A4FE93C7F7FFD0
:102340001397070141838327C4FE2390E700010010
:10235000724405618280797122D60018232EA4FC74
:10236000AE87231DF4FC232204FE232604FE232033
:1023700004FE232404FE8357A4FD93F7F70F9583EF
:1023800093F7F70F2320F4FE8357A4FDFD8B23263C
:10239000F4FE8327C4FE0547B317F7002326F4FE97
:1023A000032704FE8547631FF7008327C4FD83D7F7
:1023B000C700C207C1833E878327C4FEF98F232647
:1023C000F4FE3DA8032704FE8947631FF700832717
:1023D000C4FD83D70701C207C1833E878327C4FE9C
:1023E000F98F2326F4FE29A88327C4FD83D747014C
:1023F000C207C1833E878327C4FEF98F2326F4FEDC
:102400008357A4FDA183C207C1832322F4FE83273F
:1024100044FE0547B317F7002322F4FE8327C4FDCB
:1024200083D70700C207C1833E87832744FEF98F05
:102430002322F4FE8327C4FE81CB832744FE89C771
:1024400085472324F4FE19A0232404FE832784FE59
:102450003E85325445618280797122D60018232E40
:10246000A4FCAE87231DF4FC231704FE231604FEF0
:102470008357A4FDA1832317F4FE8357E4FE054789
:10248000B317F7002316F4FE8357C4FE93C7F7FF74
:102490001397070141838327C4FD2390E7000100C0
:1024A000325445618280411122C6000891679387AA
:1024B000075EDC4383D7470013970701418383C737
:1024C000F180BE861377F70F9387C180B69723807C
:1024D000E70083C7F180850713F7F70FA387E18033
:1024E00003C7F1808547631AF70003C7C1809307CC
:1024F000500A6304F700A387018003C7F1808D476A
:102500006317F700A387018005472388E180010056
:10251000324441018280411122C60008B7070240BF
:102520009387470409671307874BD8C3B70702404F
:10253000938747049843B70702409387470413677C
:10254000170098C30100324441018280411122C624
:1025500000080547A388E180B70702409387470436
:102560009443B70702409387470441677917758FF3
:1025700098C30100324441018280797106D622D489
:102580000018232EA4FC232CB4FCB2872328D4FCEF
:10259000A30BF4FC8327C4FD958393F7F70F9D8B62
:1025A000A307F4FE8327C4FD93F7F70FFD8B2307E2
:1025B000F4FE0327C4FD93070008630DF714832777
:1025C000C4FD958391E785451145EFE07FD961A86A
:1025D0008327C4FD13D7570085476317F700854548
:1025E0002145EFE0FFD741A08327C4FD13D7570053
:1025F00089476317F70085454145EFE07FD6A5A0E1
:102600008327C4FD13D757008D476318F70085450E
:1026100013050002EFE0DFD4B9A08327C4FD13D770
:10262000570091476318F700854513050004EFE054
:102630003FD315A88327C4FD13D7570095476318C8
:10264000F700854513050008EFE09FD129A88327EF
:10265000C4FD13D7570099476317F7008545130545
:102660000010EFE0FFCF8347E4FE0547B317F70004
:10267000C207C1832310F4FE032784FD8547631737
:10268000F702832704FDC207C183A183C207C18368
:1026900089E78D472322F4FE11A8832704FDC20792
:1026A000C183A183C207C1832322F4FE832704FDD3
:1026B000C207C18393F7F70F2324F4FE0347F4FE08
:1026C00091670A079387075CBA979C433E879307F5
:1026D00004FEBE853A85EFE0AFD3032784FD85472E
:1026E000631BF7020347F4FE91670A079387075CB1
:1026F000BA979C43BE868347E4FE0547B317F700AD
:10270000C207C183034774FD3A86BE853685EFE074
:10271000CFF211A00100B25022544561828079713C
:1027200022D60018232EA4FC8327C4FD958393F79B
:10273000F70F9D8BA307F4FE8327C4FD93F7F70FD4
:10274000FD8B2307F4FE0347F4FE91670A07938786
:10275000075CBA979C43DC470347E4FE8546339702
:10276000E600420741833A868346F4FE11678A06F3
:102770001307075C36971843B18F5CC701003254CA
:1027800045618280797106D622D40018232EA4FCDC
:10279000AE873687A30DF4FCB287230DF4FCBA870D
:1027A000A30CF4FC8327C4FD93F7F70F2304F4FE76
:1027B0008347B4FDA304F4FE8347A4FD2305F4FE80
:1027C000834794FD2326F4FE930784FE3E85EFE0C5
:1027D000FF86B7E700E09843FD777D8F83A7C18828
:1027E0005D8F23A6E188B7E700E0D843B707001064
:1027F000FD177D8F9387C188DC435D8F9387C188E8
:10280000D8C39387C18803C7870085476313F70040
:1028100031200100B250225445618280411122C60C
:102820000008B7E700E07D5723A0E718B7E700E00E
:102830007D5723A2E71801003244410182804111F3
:1028400022C60008B7E700E003A7C18823A0E7106D
:10285000B7E700E01387C188584323A2E7100100BF
:10286000324441018280011106CE22CC00109387B0
:10287000C18805472384E70083A7C18881EB93873C
:10288000C188DC4381E7A30704FE21A08547A30795
:10289000F4FE69378347F4FE3E85F24062440561E9
:1028A0008280011106CE22CC0010AA87A307F4FE75
:1028B0008347F4FE91E79387C1882384070041375B
:1028C0000100F240624405618280011106CE22CCF3
:1028D00000102326A4FE0327C4FE93070020630BE9
:1028E000F7220327C4FE9307002063EAE70A0327C1
:1028F000C4FE93071010630BF71A0327C4FE930757
:10290000101063E2E7040327C4FE8947630BF71640
:102910000327C4FE894763ECE7008327C4FE638472
:1029200007140327C4FE85476306F714D9A40327B9
:10293000C4FE8D47630EF7140327C4FE93070010EF
:10294000630FF7147DA40327C4FE930700116304EB
:10295000F7180327C4FE9307001163EFE70003276E
:10296000C4FE93072010630AF7140327C4FE9307DD
:102970003010630BF714B5AC0327C4FE9307201186
:10298000630AF7160327C4FE93072011636CF7143C
:102990000327C4FE930730116306F71699AC03278B
:1029A000C4FE93073021630DF71C0327C4FE930771
:1029B000302163EEE7040327C4FE93073020630150
:1029C000F7180327C4FE9307302063EFE7000327BF
:1029D000C4FE930710206306F7140327C4FE930771
:1029E00020206307F71431A40327C4FE93071021A6
:1029F0006308F7160327C4FE9307102163EAE7165E
:102A00000327C4FE930700216304F714DDA2032704
:102A1000C4FE93070030630DF7180327C4FE930725
:102A2000003063EFE7000327C4FE93070022630131
:102A3000F7160327C4FE930710226303F71655AA5F
:102A40000327C4FE930720306304F7180327C4FE4E
:102A5000930720306366F7160327C4FE93073030D0
:102A60006300F71879A29306803101468545214518
:102A7000293641A293068031014685452545F53C1E
:102A80008DAA93068031014685452945FD3495A2DE
:102A900093068031014685452D45C53499AA930694
:102AA0008031014685450145C93CA1A2930680318C
:102AB000014685450545D1342DAA9306803101464E
:102AC000854509455D3C35A2930680310146854523
:102AD0000D45653439AA93068031014685453D454B
:102AE000693C01AA930680310146854513053002F1
:102AF000693401A293068031014685451305A00281
:102B0000AD3CC5A893068031014685451305B0024A
:102B1000AD34C5A093068031014685451945B13CC9
:102B2000C9A893068031014685451D45B934D1A019
:102B30009306803101468545130500023D3C55A8AA
:102B40009306803101468545130510023D3455A09A
:102B5000930680310146854513056004393C51A830
:102B6000930680310146854513057004393451A020
:102B7000930680310146854513058004FD3A95A8EA
:102B8000930680310146854513059004FD3295A0DA
:102B9000930680310146854513054002F93A91A814
:102BA000930680310146854513055002F93291A004
:102BB0009306803101468545130560027D3A15A8CC
:102BC0009306803101468545130570027D3215A0BC
:102BD000930680310146854513058002793A11A894
:102BE000930680310146854513059002EFF0FF986A
:102BF00001000100F240624405618280397106DE05
:102C000022DC80002326A4FC2324B4FC2322C4FC61
:102C1000231704FE0325C4FC4D398327C4FCA1837C
:102C200081EB8545856713850780EFE06FF3A1A0F1
:102C30008327C4FC13D7870085476317F7008545B2
:102C40000545EFE04FF605A88327C4FC13D787009E
:102C500089476317F70085450945EFE0CFF421A8C0
:102C60008327C4FC13D787008D476316F70085457B
:102C70001145EFE04FF385450545EFE06FEE832703
:102C8000C4FC13D74700C147631AF7008545B7074F
:102C9000160013850704EFE0CF9DB9A88327C4FC75
:102CA00013D74700C547631AF7008545B7071800D3
:102CB00013850730EFE0EF9B81A08327C4FC13D777
:102CC000470093071002631AF7008545B7171A00EB
:102CD000138507C0EFE0EF9905A08327C4FC13D745
:102CE0004700930720026319F7008545B7171A00BC
:102CF00013850780EFE0EF97B7170240DC43C983E5
:102D000013F7F700B7177A00938707203307F70206
:102D1000B727F400938707403E9723AAE18003A7D3
:102D20004181832784FCB357F702C1832317F4FE44
:102D300003A741818357E4FE8507BE86832784FC71
:102D4000B387F602B357F7022316F4FE0357C4FE07
:102D5000832744FC3307F702896793870771B357CA
:102D6000F7022315F4FE8357C4FEFD17C207C18383
:102D70002312F4FE8357E4FE2310F4FE231304FE13
:102D8000231104FE230404FE930700072318F4FC18
:102D900085472319F4FC231A04FC8357A4FE231B44
:102DA000F4FC8947231CF4FC8947231DF4FC231EF3
:102DB00004FC231F04FC8327C4FC13D787009167FE
:102DC0000A079387075DBA979C433E87930704FEE3
:102DD000BE853A85EFE08FE18327C4FC8D8BB9EF88
:102DE0008327C4FC13D7870091670A079387075D81
:102DF000BA979C433E87930704FDBE853A85EFE072
:102E00008FEE8327C4FC13D7870091670A07938747
:102E1000075DBA979C43A1453E85EFE05FDA8327C3
:102E2000C4FC13D7870091670A079387075DBA9799
:102E30009C4391453E85EFE05FED89A28327C4FC6A
:102E400013F7370085476311F7068327C4FC13D7B0
:102E5000870091670A079387075DBA979C433E876F
:102E6000930704FDBE853A85EFE0EFFE8327C4FC9F
:102E700013D7870091670A079387075DBA979C432A
:102E8000A1453E85EFE07FD88327C4FC13D7870098
:102E900091670A079387075DBA979C4393050040A3
:102EA0003E85EFE05FEBD9A88327C4FC13F737001A
:102EB00089476310F7068327C4FC13D787009167FF
:102EC0000A079387075DBA979C433E87930704FDE3
:102ED000BE853A85EFE09F938327C4FC13D7870014
:102EE00091670A079387075DBA979C43A1453E8582
:102EF000EFE05FD78327C4FC13D7870091670A07E9
:102F00009387075DBA979C4391453E85EFE01FEAA2
:102F1000B5A08327C4FC13F737008D476310F7066D
:102F20008327C4FC13D7870091670A079387075D3F
:102F3000BA979C433E87930704FDBE853A85EFE030
:102F4000FFA78327C4FC13D7870091670A079387DD
:102F5000075DBA979C43A1453E85EFE07FD5832767
:102F6000C4FC13D7870091670A079387075DBA9758
:102F70009C43930500403E85EFE01FE88327C4FC97
:102F800013D7870091670A079387075DBA979C4319
:102F900085453E85EFE03FB78327C4FC13D7870004
:102FA00091670A079387075DBA979C4385453E85DD
:102FB000EFE0FFBA0100F2506254216182800111FA
:102FC00006CE22CC00102326A4FE2324B4FE8327A1
:102FD000C4FE85E7032784FE85476310F702930646
:102FE0008031014685452545EFF02FD991460146B0
:102FF00081452945EFF06FD865A00327C4FE8947B6
:103000006312F7029306803101468545130560027D
:10301000EFF0AFD691460146814513057002EFF0FF
:10302000CFD5BDA80327C4FEC1476310F70293069E
:103030008031014685450945EFF02FD49146014680
:1030400081450D45EFF06FD3A1A80327C4FE930778
:1030500000026312F702930680310146854513058D
:10306000A002EFF08FD19146014681451305B002D1
:10307000EFF0AFD035A00327C4FE93072002631101
:10308000F70293068031014685451305A004EFF051
:10309000CFCE9146014681451305B004EFF0EFCD48
:1030A0000100F240624405618280797106D622D423
:1030B0000018232EA4FC232CB4FC232AC4FC2328B0
:1030C000D4FC85450545EFE0AFA9832504FD032524
:1030D00044FDF535032744FD8947631BF7000327AB
:1030E00004FD8D476316F70085451145EFD07FD865
:1030F000032744FD93072002631FF700032704FD05
:10310000930730026319F7008545B707140013854C
:103110000701EFD01FD68327C4FD91E785451165D0
:10312000EFE00FA435A00327C4FD85476318F7001F
:10313000854537050200EFE00FA719A80327C4FD56
:1031400089476317F700854537050400EFE0AFA511
:10315000832784FD2320F4FE231204FE231304FEA0
:10316000231404FE231604FEB1472315F4FE9167D1
:103170000327C4FD0A079387075EBA979C433E87DF
:10318000930704FEBE853A85EFE05FD6916703277B
:10319000C4FD0A079387075EBA979C4385453E8521
:1031A000EFE01FF80100B2502254456182804111C6
:1031B00006C622C40008B7170240DC43C98313F7D0
:1031C000F700B7177A00938707203307F702B7276E
:1031D000F400938707403E9723AAE1808546014685
:1031E000F167938507200145C9350100B2402244AB
:1031F000410182805D7106D622D40018232EA4FCE2
:103200004CC010C454C418C85CC8232C0401232E1D
:1032100014019307040291172322F4FE832744FE2E
:10322000BE860326C4FD9305400613858189EF0001
:10323000504E2324A4FE232604FE91A00100916792
:1032400083A7075E930500043E85EFF08F89AA8768
:10325000FDD7916783A7075EBE8613878189832781
:10326000C4FEBA9783C70700C207C183BE853685EF
:10327000EFF04F848327C4FE85072326F4FE03273F
:10328000C4FE832784FEE34BF7FA0100B2502254B8
:1032900061618280011122CE0010232604FE2324C6
:1032A00004FEB71702409443B71702404167558F99
:1032B00098C3B71702409843B7070200F98F232439
:1032C000F4FE8327C4FE85072326F4FE832784FEAD
:1032D00099E70327C4FE93070050E31CF7FCB717D8
:1032E00002409843B7070200F98F89C78547232416
:1032F000F4FE19A0232404FE032784FE85476317E8
:10330000F70CB72702409843B7270240136707011D
:1033100098C3B72702409843B7270240719B98C3D0
:10332000B72702409843B72702401367270098C386
:1033300037170240B71702405843D8C33717024027
:10334000B71702405843D8C337170240B717024097
:103350005843D8C3B7170240D443B71702403707C2
:10336000C1FF7D17758FD8C3B7170240D443B71775
:10337000024037072500558FD8C3B7170240944342
:10338000B717024037070001558F98C30100B717E0
:1033900002409843B7070002F98FF5DBB7170240E8
:1033A000D843B7170240719BD8C3B7170240D84320
:1033B000B717024013672700D8C30100B7170240B0
:1033C000DC4313F7C700A147E31AF7FE010072447C
:1033D00005618280411106C622C40008B717024069
:1033E0009843B71702401367170098C3B7170240F6
:1033F000D443B71702403707FFF8758FD8C3B71704
:1034000002409443B71702403707F7FE7D17758FC8
:1034100098C3B71702409443B71702403707FCFF21
:103420007D17758F98C3B7170240D443B717024072
:10343000370781FF7D17758FD8C3B717024037074D
:103440009F0098C7813D0100B24022444101828023
:10345000411106C622C40008854601468145130570
:103460005003EFF02FB2054693054042B7470140A5
:1034700013850780EFE0DFD0054693050004B747CA
:10348000014013850780EFE0FFDBB707002093873B
:103490008720930640063E86B747014093854780C4
:1034A000B7070240138587052128854601468145D7
:1034B0007D45EFF02FAD0100B240224441018280F2
:1034C0005D7186C6A2C48008232EA4FA232CB4FA08
:1034D000232AC4FA2328D4FA0327C4FBB7070240DF
:1034E000A1076301F7060327C4FBB7070240F107F2
:1034F000630AF7040327C4FBB70702409387070357
:103500006302F7040327C4FBB7070240938747040D
:10351000630AF7020327C4FBB707024093878705B6
:103520006302F7020327C4FBB70702409387C7066D
:10353000630AF7000327C4FBB70702409387070815
:103540006317F70085450545EFD03FDDA9A80327A0
:10355000C4FBB7070240938787406302F704032741
:10356000C4FBB70702409387C741630AF7020327EA
:10357000C4FBB7070240938707436302F7020327A0
:10358000C4FBB707024093874744630AF700032749
:10359000C4FBB7070240938787456316F70085454C
:1035A0000945EFD09FD70325C4FBEFD00FA0832799
:1035B00084FB2322F4FC832744FB2324F4FC2326EE
:1035C00004FC832704FB2328F4FC232A04FC930730
:1035D0000008232CF4FC232E04FC232004FE2322C9
:1035E00004FE8D672324F4FE232604FE930744FC87
:1035F000BE850325C4FBEFD02FBC054689450325B6
:10360000C4FBEFD0EFC985450325C4FBEFD04FC500
:103610000100B640264461618280411106C622C481
:1036200000081386C18F93858181B7070020138519
:103630008720292883C781813E879385C18F3A855A
:1036400061280100B240224441018280797106D68E
:1036500022D40018232EA4FC232CB4FC232AC4FC5F
:103660009167938507590325C4FD31252326A4FEC0
:10367000232404FE89A0832784FE138717002324B4
:10368000E4FE8A07032744FDBA970327C4FE98C3C4
:10369000032784FEA54763D9E7009167138547593F
:1036A000EFF05FB5814725A09167938507590145E4
:1036B000D9232326A4FE8327C4FED5FF832784FEB7
:1036C00013F7F70F832784FD2380E70085473E85A6
:1036D000B250225445618280797106D622D40018F6
:1036E000232EA4FC232CB4FC832784FD98439167EC
:1036F0009385075B3A85EFC03FAFAA87B5EB2326DA
:1037000004FE95A08327C4FE85078A07032784FD4E
:10371000BA979C433E85DD28AA8793960701C18608
:103720000327C4FE13864192BA878607BA97860795
:10373000B297239AD7040327C4FE93864192BA878F
:103740008607BA978607B697839747053E868325EF
:10375000C4FE91671385875BEFF0DFA98327C4FE62
:1037600085072326F4FE0327C4FE8D47E3DCE7F834
:1037700085473E85B250225445618280411106C67C
:1037800022C4000893060031014685451305A004B4
:10379000EFE0BFDE01469167938587261305003071
:1037A000EFF0CFC593060031014685451305B004FF
:1037B000EFE0BFDC01469167938587261305103043
:1037C000EFF0CFC393060031014685451305C002D3
:1037D000EFE0BFDA01469167938587261305203015
:1037E000EFF0CFC193060031014685452145EFE05A
:1037F000DFD8014691679385872613053030EFF0B7
:10380000EFBF0100B2402244410182802946814538
:1038100051A5B3C7A5008D8B3307C50081E78D4740
:1038200063EEC700AA876370E50A83C605008507B3
:103830008505A38FD7FEE3EAE7FE82809376350005
:10384000AA8791CA83C6050085078505A38FD7FE81
:1038500093F63700FDB79376C7FF138606FE63F035
:10386000C70683A3050083A2450083AF850003AF8D
:10387000C50083AE050103AE450103A3850183A8FE
:10388000C5019385450223A0770003A8C5FF23A2A5
:10389000570023A4F70123A6E70123A8D70123AAF1
:1038A000C70123AC670023AE17019387470223AEFD
:1038B00007FF75B790419107910523AEC7FEE3EB73
:1038C000D7FEE3E4E7F68280797156CA9C49BA8A4A
:1038D000984522D426D24ECE52CC06D64AD05AC8CB
:1038E0005EC6AA892E84B284368A63D3E700BA877B
:1038F0009CC00347340419C385079CC01C4093F740
:10390000070281C79C4089079CC0032904001379E2
:103910006900631A0900130B9401FD5B5C44984035
:10392000998F634CF9041C408346340493F70702D3
:10393000B336D000A5EB13063404D2854E85829AA7
:10394000FD576303F5041C4011469840998B54447D
:1039500081446397C700B384E64063D30400814485
:103960001C4418486354F700998FBE9401496904B8
:103970007D5B63982405014509A885465A86D28552
:103980004E85829A631E75017D55B2502254925421
:103990000259F249624AD24A424BB24B4561828097
:1039A0000509ADBF3307D40013060003A301C70404
:1039B0000347540493871600A2978906A381E7045E
:1039C0009DBF85462286D2854E85829AE30E65FB91
:1039D000050945B7797122D426D24AD04ECE06D6F3
:1039E00052CC56CA5AC8B68983C685019307E006E9
:1039F0003289AA842E84138635046380F61E63E21E
:103A0000D706930730066382F60A63EDD700638A10
:103A1000061E930780056386F616930A2404230185
:103A2000D40469A8930740066386F60093079006BE
:103A3000E395F6FE1C40084393F6070893054500FE
:103A4000C1C21C410CC363D807001307D002B307DF
:103A5000F040A301E404971600009386A6B9294715
:103A600065A0930730076382F61A63EFD7009307C8
:103A7000F006638FF60493070007E390F6FA9C4183
:103A800093E707029CC109A8930750076382F604D5
:103A900093078007E393F6F893078007A302F404E3
:103AA00097160000938646B6DDA01C43938A250432
:103AB000938647009C4314C32381F5048547ADA238
:103AC00093F607041C410CC3BDDEC207C187A5BF26
:103AD0000C401C4313F805081385470063050800D4
:103AE00008C39C4339A093F5050408C3FDD983D7C7
:103AF00007001307F006638AE60C9716000093860A
:103B000066AF2947A30104044C400CC463C50500FB
:103B100008406D9908C099E3B28A91CDB28AB3F595
:103B2000E702FD1AB69583C505002380BA00B3D518
:103B3000E70263F2E70AA147631EF7001C40858B8A
:103B400091CB58401C4863C7E70093070003A38F3D
:103B5000FAFEFD1A3306564110C84E87CA86700019
:103B6000A285268595337D5A6314450D7D55B25047
:103B7000225492540259F249624AD24A424B456158
:103B80008280A382D504971600009386A6A60C40D7
:103B9000084313F805081C4111056300080208C317
:103BA00013F7150001C793E505020CC04147B9FBA7
:103BB0000C4093F5F5FD0CC0B1B713F8050408C32C
:103BC000E30008FEC207C183E1BF97160000938699
:103BD00066A2214705BFAE8799B794411C43CC49E3
:103BE00013F80608138547006306080008C39C43C2
:103BF0008CC301A808C393F606049C43F5DA23900E
:103C0000B70023280400B28A89BF1C43D0418145F4
:103C10009386470014C383AA07005685A12E01C5C9
:103C20003305554148C05C401CC8A301040435B7A6
:103C300014485686CA8526858299E30945F31C40B7
:103C4000898B8DE7B2474844E353F5F23E8505B7CB
:103C500085465686CA8526858299E30965F1050A57
:103C60005C443247998FE345FAFEE9BF014A930A63
:103C700094017D5BF5B7011197C7FF1F9387C75666
:103C800022CC804326CA06CE3C4CAA84A9EF130559
:103C900000052EC6612CB24528CC23200500232226
:103CA0000500232405002326050023280500232AD8
:103CB0000500232C050023240502232605022328C2
:103CC0000502232A0502232C0502232E05022320A8
:103CD0000504232205042324050423260504230EBA
:103CE000050023220502304C6244F2402685D2446E
:103CF0008546056109A009E5084219E182803E85F3
:103D00009307150003C8F7FF2E8705078348F7FFC1
:103D10006398080063100802232006000145828092
:103D2000E31518FFE9FE1CC22300050082808147CD
:103D300039A889E6850703C8F7FF2E87050783465C
:103D4000F7FFE318D8FEE30408FEA38F07FE1CC2AA
:103D5000828079714AD04ECE06D622D426D2AA8944
:103D60002E899304190003C4F4FF3A8536C632C481
:103D70002EC23AC04D2A229583471500024792452C
:103D8000A18B2246B246C9E79307D0026314F40818
:103D900083C70400054393042900FDC6414763928D
:103DA000E60213070003639EE70083C704001307BE
:103DB000800593F7F70D6394E70C83C71400C146A1
:103DC0008904B70800806314030093C8F8FF33FF29
:103DD000D80201480145A54FE54EFD5233DED80219
:103DE000138707FD63E4EF04BA8763DFD704630D2D
:103DF00058007D58636AAE006314AE006346FF004E
:103E000005483385A6023E95850483C7F4FFC9BFE4
:103E1000268981BF9307B0026305F400A28701439E
:103E2000ADBF83C7040093042900D5BF1387F7FBF8
:103E300063E5EE00938797FC4DBF1387F7F963E5C1
:103E4000EE00938797FA55B7FD57631FF800930765
:103E5000200223A0F900468519EEB2502254925454
:103E60000259F24945618280630403003305A04092
:103E70006DD6630408009385F4FF0CC2F9BF930765
:103E80000003A1F2A14635BF13070003E38FE7F05B
:103E9000A94605BF97C7FF1F938707359C43B28686
:103EA000985309E717C7FF1F1307C71C2E86AA855B
:103EB0003E8545B51971A2DC86DEA6DA3284635BE5
:103EC00006009307B0081CC17D55F6506654D654C1
:103ED000096182803686930680202EC42ECC231A58
:103EE000D100814519C09305F4FFFD572EC82ECE91
:103EF000BA862C00231BF100AA845926FD5763556E
:103F0000F5009307B0089CC069D0A2472380070042
:103F10006DBF97C7FF1F9387272D3687B2862E86E2
:103F2000AA85884341BF0325C50E828097C7FF1F1E
:103F30009387872BAA85884391A285E141116C0064
:103F4000014511CA795581CA834706009CC10345C2
:103F500006003335A00041018280014519CA795518
:103F600089CA834706009CC1034506003335A0007B
:103F70008280828093F5F50F2A966314C50001456F
:103F8000828083470500E38DB7FE0505FDB763F327
:103F9000A504B386C500637FD5029345F6FF81472C
:103FA000FD176393F50082803387F600034807000E
:103FB0003387C7002A9723000701DDB73387F50051
:103FC000834607003307F50085072300D700E31772
:103FD000F6FE82808147E5BFCDC183A7C5FF4111B1
:103FE00022C406C626C21384C5FF63D307003E94CD
:103FF000AA84912B9387C1819C4399EB23220400CF
:1040000023AE81802244B2402685924441012DABEB
:10401000637EF40014403307D4006396E7009843AE
:10402000DC43369718C05CC0E1BFBA87D84319C3D8
:10403000E37DE4FE94433386D700631F860010407F
:10404000B29694C33386D700E31EC7FA1043584391
:10405000B29694C3D8C37DB76375C400B1479CC002
:1040600055B71040B306C4006316D7001443584335
:10407000B29614C058C0C0C371B78280011126CA5D
:1040800093843500F19806CE22CC4AC84EC6A104CE
:10409000B14763F1F404B14463E0B4042A896521B3
:1040A0009387C18198433A8431E0938701829C438E
:1040B00091E781454A85A12123A0A182A6854A8551
:1040C0003D29FD5963173507B1472320F9004A857B
:1040D000A52929A0E3D204FCB1471CC10145F24047
:1040E0006244D2444249B249056182801C40858FB6
:1040F00063CE0702AD4663F6F6001CC03E9404C0D2
:1041000031A05C406312870223AEF1804A852D29DD
:104110001305B4009307440061993307F54061D358
:104120003A94898F1CC065BF5CC3CDB722874040DD
:10413000A5BF130435007198E30385FCB305A440C3
:104140004A85752EE31D35FB41B799E1B2853DB730
:10415000011122CC06CE26CA4AC84EC6328419EABC
:10416000A53D0149F24062444A85D2444249B249E0
:1041700005618280AE84AA89C92E2689E37485FEF2
:10418000A2854E85E53D2A8971DDA6852286EFF060
:104190004FE8A6854E858935F1B701114AC803A9B4
:1041A000850022CC52C45AC006CE26CA4EC656C27C
:1041B0002E84328B368A63ED260983D7C50013F728
:1041C000074849C704408C495848AA8AB389B44073
:1041D0008D44B384E4020947B3C4E4021387160094
:1041E0004E9763F3E400BA8493F70740C9C3A685EA
:1041F000568569352A890DE5B14723A0FA00835712
:10420000C4007D5593E707042316F400F24062448E
:10421000D2444249B249224A924A024B0561828005
:104220000C484E86EFF0EFDE8357C40093F7F7B7E4
:1042300093E707082316F4002328240144C84E9965
:10424000B38434412320240104C4528963732A01B6
:10425000528908404A86DA851D3B1C440145B387D4
:1042600027411CC41C403E992320240145B72686C3
:104270005685E13D2A8969F10C485685B13BADBFB1
:1042800083D7C500717126D34AD14ECF06D722D528
:1042900052CD56CB5AC95EC762C566C393F70708AD
:1042A000AA892E89B284B1C39C49A1E39305000475
:1042B00036C6E9332320A9002328A900B24615E118
:1042C000B14723A0F9007D55BA502A549A540A598F
:1042D000FA496A4ADA4A4A4BBA4B2A4C9A4C4D611F
:1042E000828093070004232AF90093070002A30C9D
:1042F000F1029307000302DA230DF10236CE930B8D
:104300005002970A0000938A6A38054C294B26848C
:104310008347040099C3639C7709B30C9440638D71
:104320000C00E6862686CA854E85853DFD576304CA
:10433000F51AD256E69636DA83470400638D0718DD
:10434000FD579304140002D002D63ED202D4A3013A
:10435000010682DC83C5040015465685EFF09FC137
:1043600013841400825731E513F7070109C71307B7
:104370000002A301E10613F7870009C71307B00283
:10438000A301E10683C604001307A002638BE602C3
:10439000B25726848146254603470400930514003E
:1043A000130707FD6374E6068DC63ED61DA00504FF
:1043B00085B7330555413315AC00C98F3ED0A28473
:1043C00051BF724793064700184336CE6349070230
:1043D0003AD6034704009307E002631FF70403473C
:1043E00014009307A002631BF702F2470904138726
:1043F00047009C433ACE63C107023ED235A833073B
:10440000E04093E727003AD63ED0E1B7B387670391
:1044100085462E84BA9749B7FD57C5B7050402D221
:10442000814681472546034704009305140013077E
:1044300007FD6378E606F1F2834504000D46170593
:10444000000013052525EFF0FFB211CD97070000FE
:10445000938747241D8D93070004B397A700025547
:1044600005045D8D2AD08345040019461705000018
:104470001305852293041400230CB102EFF09FAFC3
:1044800025C597C7FFFF9387E7B795E70257F24720
:104490001377071009CF91073ECED257D2973EDA55
:1044A000BDB5B387670385462E84BA97ADBF9D0718
:1044B000E19BA107D5B7780897060000938626CE22
:1044C0004A860C104E8597000000E7000000FD575B
:1044D0002A8AE314F5FC8357C9007D5593F7070436
:1044E000E39407DE5255CDB3780897060000938613
:1044F00006CB4A860C104E85EFF0CFCDC9BF4111D7
:1045000022C42A842E8523A8019806C68928FD572F
:104510006317F500938701999C4391C31CC0B24077
:1045200022444101828091CD9307F00F63F7C700C9
:104530009307A0081CC17D5582802380C5000545D6
:104540008280014582808280828083A7C5FF138597
:10455000C7FF63D50700AA959C413E95828093874B
:1045600041829C4391C73E9523A2A1823E858280D1
:10457000938741993E9523A2A1823E8582800000C7
:104580003D3D496E697420446F6E653D3D0D0A00E6
:1045900020000000232320546F6F206D616E79206E
:1045A000617267756D656E7473212023230D0A0097
:1045B00053657444757479005B25645D3A25640025
:1045C00000080140000C01400010014000140140AF
:1045D000002C0140000000400004004000080040A2
:1045E000003801400044004000480040004C0040BA
:1045F0003031323334353637383941424344454619
:1046000000000000303132333435363738396162DA
:104610006364656600000000000000000000000008
:10462000000000000000000000000000000000008A
:10463000000000000000000000000000000000007A
:10464000000000000000000000000000000000006A
:10465000000000000000000000000000000000005A
:10466000000000000000000000000000000000004A
:10467000000000000000000043000000504F5349BC
:10468000580000002E000000232D302B20000000D9
:10469000686C4C0065666745464700000020202096
:1046A00020202020202028282828282020202020E2
:1046B00020202020202020202020202020881010B2
:1046C000101010101010101010101010100404040E
:1046D00004040404040404101010101010104141CC
:1046E00041414141010101010101010101010101BA
:1046F00001010101010101011010101010104242CE
:104700004242424202020202020202020202020289
:104710000202020202020202101010102000000029
:104720000000000000000000000000000000000089
:104730000000000000000000000000000000000079
:104740000000000000000000000000000000000069
:104750000000000000000000000000000000000059
:104760000000000000000000000000000000000049
:104770000000000000000000000000000000000039
:104780000000000000000000000000000000000029
:104790000000000000000000000000000000000019
:1047A00000000000010203040102030406070809D7
:1047B000000000003846000058460000184600007F
:1047C00000000000000000000000000000000000E9
:1047D00000000000000000000000000000000000D9
:1047E00000000000000000000000000000000000C9
:1047F00000000000000000000000000000000000B9
:1048000000000000000000000000000000000000A8
:104810004300000000000000000000000000000055
:104820000000000000000000000000000000000088
:104830004300000000000000000000000000000035
:104840000000000000000000000000000000000068
:104850004300000000000000000000000000000015
:104860000000000000000000000000000000000048
:1048700043000000000000000000000000000000F5
:104880000000000000000000000000000000000028
:1048900043000000000000000000000000000000D5
:1048A0000000000000000000000000000000000008
:1048B00043000000000000000000000000000000B5
:1048C00000000000000000000000000000000000E8
:1048D0004300000000000000000000000000000095
:1048E00000000000000000000000000000000000C8
:1048F000264500003A3F0000000000009C460000F2
:10490000844600000046000000460000004600000B
:10491000004600000046000000460000004600007F
:104920000046000000460000FFFFFFFFFFFFFFFF03
:10493000FFFFFFFFFFFF0000010041534349490013
:104940000000000000000000000000000000000067
:1049500000000000000000000000415343494900EE
:104960000000000000000000000000000000000047
:104970000000000000000000000000000000000037
:084980000204060810000020EB
:00000001FF
