:100000006F00106A130000001300000013000000CE
:100010001300000013000000130000001300000094
:100020001300000013000000130000001300000084
:08003000130000007300100032
:100038006FF09FFC000000006F0010326F00D03698
:1000480000000000000000000000000000000000A8
:100058000000000000000000000000000000000098
:100068006F603035000000006F00000F00000000D6
:100078006F0010366FF05FF86F00903A6F00703BBA
:100088006F00503C6F00303D6F0060226F006028A9
:100098006F0060306F0060366F00603C6F00D03CCE
:1000A8006F0090416F0050466F00F0226F00D04AF9
:1000B8006F00904F6F0050546F00205A00000000EE
:1000C8000000000000000000000000006F00603F1A
:1000D8006F00A05D6F00A0646F00606B6F00A0747C
:1000E8006F0070016F0010046F00D00A6FF0DFF02E
:1000F8006FF09FF06FF05FF06FF01FF06FF0DFEFC1
:100108006FF09FEF6F60104E6F00D00F6F00B01749
:100118006F0080476FF05FEE6FF01FEE6FF0DFED5E
:1001280000000000000000000000000000000000C7
:080138000000000000000000BF
:1001400073750430828073100530828097520020CE
:10015000938242EB739002340321050095A00100C5
:10016000197106C212C816CA1ACC1ECE22D026D2C7
:100170002AD42ED632D836DA3ADC3EDEC2C0C6C227
:10018000CAC4CEC6D2C8D6CADACCDECEE2D0E6D257
:10019000EAD4EED6F2D8F6DAFADCFEDEF32200304C
:1001A00016C483A2818A23A02200F322103416C031
:1001B000EF50703283A2C18A03A1020011A0010096
:1001C000824273901234A2427390023092404242B3
:1001D000D2426243F243025492542255B2554256DF
:1001E000D2566257F257064896482649B649464ABB
:1001F000D64A664BF64B065C965C265DB65D465E5F
:10020000D65E665FF65F09617300203000003D43F3
:100210002A876373C3029377F700BDEFADE593764A
:1002200006FF3D8ABA960CC34CC30CC74CC74107A6
:10023000E36BD7FE11E28280B306C3408A069702C1
:10024000000096966780A6002307B700A306B700B4
:100250002306B700A305B7002305B700A304B70022
:100260002304B700A303B7002303B700A302B7001A
:100270002302B700A301B7002301B700A300B70012
:100280002300B700828093F5F50F93968500D58DF6
:1002900093960501D58D61B79396270097020000CC
:1002A00096968682E78086FA9680C1171D8F3E96C5
:1002B000E374C3F8A5B7397106DE16DC1ADA1ED866
:1002C0002AD62ED432D236D03ACE3ECC42CA46C8F6
:1002D00072C676C47AC27EC0EF4020530545EF1047
:1002E000800685476307F502EF406054F250E25202
:1002F0005253C2533255A255125682567247E247A4
:100300005248C248324EA24E124F824F21617300B2
:1003100020300545EF10E004C1BF397106DE16DC60
:100320001ADA1ED82AD62ED432D236D03ACE3ECCC5
:1003300042CA46C872C676C47AC27EC0EF40E04C5C
:100340000945EF10400085476307F502EF40204E56
:10035000F250E2525253C2533255A25512568256AF
:100360007247E2475248C248324EA24E124F824F65
:10037000216173002030B707002083A7C70F09470A
:100380006389E70005476389E7000945EF00707D51
:1003900075BFEF20703DD5BFEF204070FDB73971BC
:1003A00006DE16DC1ADA1ED82AD62ED432D236D081
:1003B0003ACE3ECC42CA46C872C676C47AC27EC025
:1003C000EF40A0441145EF00107885476307F50220
:1003D000EF40E045F250E2525253C2533255A2551B
:1003E000125682567247E2475248C248324EA24ED7
:1003F000124F824F2161730020301145EF0070765B
:10040000C1BF397106DE16DC1ADA1ED82AD62ED400
:1004100032D236D03ACE3ECC42CA46C872C676C434
:100420007AC27EC0EF40603E2145EF00D071854723
:100430006307F502EF40A03FF250E2525253C2531D
:100440003255A255125682567247E2475248C24868
:10045000324EA24E124F824F21617300203021454F
:10046000EF003070C1BF397106DE16DC1ADA1ED813
:100470002AD62ED432D236D03ACE3ECC42CA46C844
:1004800072C676C47AC27EC0EF4020384145EF0084
:10049000906B85476307F502EF406039F250E252F6
:1004A0005253C2533255A255125682567247E247F2
:1004B0005248C248324EA24E124F824F2161730001
:1004C00020304145EF00F069C1BF397106DE16DC0E
:1004D0001ADA1ED82AD62ED432D236D03ACE3ECC14
:1004E00042CA46C872C676C47AC27EC0EF40E031C6
:1004F00013050020EF00306585476303F5041305FD
:100500000010EF00506485476305F50613050008E9
:10051000EF00706385476303F50613050004EF00E1
:10052000906285476301F50613050002EF00B06194
:100530008547631BF50013050002EF00906229A0B8
:1005400013050020EF00F061EF40602EF250E25200
:100550005253C2533255A255125682567247E24741
:100560005248C248324EA24E124F824F2161730050
:10057000203013050010EF00D05EF9B71305000816
:10058000EF00305ED1B713050004EF00905D6DBF42
:10059000397106DE16DC1ADA1ED82AD62ED432D2EB
:1005A00036D03ACE3ECC42CA46C872C676C47AC26B
:1005B0007EC0EF4080252165EF00F0588547630835
:1005C000F5041165EF0030588547630AF5060965A3
:1005D000EF00705785476308F5060565EF00B056D4
:1005E00085476306F506056513050580EF00B055E0
:1005F00085476302F50613050040EF00D054854798
:10060000631AF50013050040EF00B05521A02165E5
:10061000EF003055EF40A021F250E2525253C25346
:100620003255A255125682567247E2475248C24886
:10063000324EA24E124F824F21617300203011655D
:10064000EF003052C1BF0965EF00B051E1B7056559
:10065000EF003051C1B7056513050580EF007050FC
:1006600055BF397106DE16DC1ADA1ED82AD62ED40A
:1006700032D236D03ACE3ECC42CA46C872C676C4D2
:100680007AC27EC0EF406018EF40601AF250E2522A
:100690005253C2533255A255125682567247E24700
:1006A0005248C248324EA24E124F824F216173000F
:1006B0002030397106DE16DC1ADA1ED82AD62ED47E
:1006C00032D236D03ACE3ECC42CA46C872C676C482
:1006D0007AC27EC0EF4060139305000837350140B1
:1006E000130505C0EF10C05815E5EF404014F25057
:1006F000E2525253C2533255A25512568256724795
:10070000E2475248C248324EA24E124F824F2161F8
:10071000730020309305000837350140130505C0EC
:10072000EF10C056D9B7397106DE16DC1ADA1ED8BA
:100730002AD62ED432D236D03ACE3ECC42CA46C881
:1007400072C676C47AC27EC0EF40200C854537352C
:100750000140130505C0EF10A05115E5EF40200D35
:10076000F250E2525253C2533255A255125682569B
:100770007247E2475248C248324EA24E124F824F51
:10078000216173002030854537350140130505C0D0
:10079000EF10C04FE1B7397106DE16DC1ADA1ED849
:1007A0002AD62ED432D236D03ACE3ECC42CA46C811
:1007B00072C676C47AC27EC0EF402005930500045D
:1007C00037350140130505C0EF10804A1DED930534
:1007D000000237350140130505C0EF1060491DEDDB
:1007E000EF40E004F250E2525253C2533255A25548
:1007F000125682567247E2475248C248324EA24EC3
:10080000124F824F21617300203093050004373569
:100810000140130505C0EF10604755BF9305000266
:1008200037350140130505C0EF10404655BF3971FB
:1008300006DE16DC1ADA1ED82AD62ED432D236D0EC
:100840003ACE3ECC42CA46C872C676C47AC27EC090
:10085000EF30B07B894537350140130505C0EF10F7
:10086000204131ED914537350140130505C0EF10AA
:10087000204031EDA14537350140130505C0EF108B
:10088000203F31EDC14537350140130505C0EF105C
:10089000203E31EDEF30B079F250E2525253C25364
:1008A0003255A255125682567247E2475248C24804
:1008B000324EA24E124F824F216173002030894583
:1008C00037350140130505C0EF10403C61BF91452D
:1008D00037350140130505C0EF10403B61BFA1450E
:1008E00037350140130505C0EF10403A61BFC145DF
:1008F00037350140130505C0EF10403961BF411184
:1009000006C6EF309070854537050040EF10403641
:1009100011E5EF30D071B240410182808545370545
:100920000040EF10A036EF20E058E5B7397106DE41
:1009300016DC1ADA1ED82AD62ED432D236D03ACEC7
:100940003ECC42CA46C872C676C47AC27EC0EF3078
:10095000D06B85453705004013050540EF10403149
:1009600015E5EF30D06CF250E2525253C25332557B
:10097000A255125682567247E2475248C248324E3A
:10098000A24E124F824F21617300203085453705FA
:10099000004013050540EF10602FE1B7397106DE06
:1009A00016DC1ADA1ED82AD62ED432D236D03ACE57
:1009B0003ECC42CA46C872C676C47AC27EC0EF3008
:1009C000D06485453715004013050580EF10402A97
:1009D00015E5EF30D065F250E2525253C253325512
:1009E000A255125682567247E2475248C248324ECA
:1009F000A24E124F824F216173002030854537157A
:100A0000004013050580EF106028E1B7397106DE5C
:100A100016DC1ADA1ED82AD62ED432D236D03ACEE6
:100A20003ECC42CA46C872C676C47AC27EC0EF3097
:100A3000D05D930550523745004013050540EF1037
:100A4000603C19C9B707002083A7C70F0947638A0D
:100A5000E7020547638AE702EF30705DF250E25229
:100A60005253C2533255A255125682567247E2472C
:100A70005248C248324EA24E124F824F216173003B
:100A80002030EF20E048C9BFEF10305AF1B739717C
:100A900006DE16DC1ADA1ED82AD62ED432D236D08A
:100AA0003ACE3ECC42CA46C872C676C47AC27EC02E
:100AB000EF30B055EF30B057F250E2525253C253BC
:100AC0003255A255125682567247E2475248C248E2
:100AD000324EA24E124F824F216173002030397185
:100AE00006DE16DC1ADA1ED82AD62ED432D236D03A
:100AF0003ACE3ECC42CA46C872C676C47AC27EC0DE
:100B0000EF30B0500965EF00407685476307F50286
:100B1000EF30F051F250E2525253C2533255A255C7
:100B2000125682567247E2475248C248324EA24E8F
:100B3000124F824F2161730020300965EF00E0748D
:100B4000B707002083A7C70F09476388E700054759
:100B5000E390E7FCEF10F07565BFEF2040424DBF1A
:100B6000397106DE16DC1ADA1ED82AD62ED432D215
:100B700036D03ACE3ECC42CA46C872C676C47AC295
:100B80007EC0EF309048EF30904AF250E25252531C
:100B9000C2533255A255125682567247E247524806
:100BA000C248324EA24E124F824F21617300203054
:100BB000397106DE16DC1ADA1ED82AD62ED432D2C5
:100BC00036D03ACE3ECC42CA46C872C676C47AC245
:100BD0007EC0EF30904301A0397106DE16DC1ADAD0
:100BE0001ED82AD62ED432D236D03ACE3ECC42CAE5
:100BF00046C872C676C47AC27EC0EF301041EF306C
:100C00001043F250E2525253C2533255A25512567B
:100C100082567247E2475248C248324EA24E124FA5
:100C2000824F216173002030411106C6EF30F03D44
:100C3000EF30F03FB24041018280411106C6EF30F3
:100C4000D03CEF30D03EB24041018280411106C617
:100C5000EF30B03BEF30B03DB240410182804111F6
:100C600006C6EF30903AEF30903CB24041018280AE
:100C7000397106DE16DC1ADA1ED82AD62ED432D204
:100C800036D03ACE3ECC42CA46C872C676C47AC284
:100C90007EC0EF309037EF309039F250E25252532D
:100CA000C2533255A255125682567247E2475248F5
:100CB000C248324EA24E124F824F21617300203043
:100CC000397106DE16DC1ADA1ED82AD62ED432D2B4
:100CD00036D03ACE3ECC42CA46C872C676C47AC234
:100CE0007EC0EF309032EF309034F250E2525253E7
:100CF000C2533255A255125682567247E2475248A5
:100D0000C248324EA24E124F824F216173002030F2
:100D1000397106DE16DC1ADA1ED82AD62ED432D263
:100D200036D03ACE3ECC42CA46C872C676C47AC2E3
:100D30007EC0EF30902DEF30902FF250E2525253A0
:100D4000C2533255A255125682567247E247524854
:100D5000C248324EA24E124F824F216173002030A2
:100D6000397106DE16DC1ADA1ED82AD62ED432D213
:100D700036D03ACE3ECC42CA46C872C676C47AC293
:100D80007EC0EF309028EF30902AF250E25252535A
:100D9000C2533255A255125682567247E247524804
:100DA000C248324EA24E124F824F21617300203052
:100DB000397106DE16DC1ADA1ED82AD62ED432D2C3
:100DC00036D03ACE3ECC42CA46C872C676C47AC243
:100DD0007EC0EF309023EF309025F250E252525314
:100DE000C2533255A255125682567247E2475248B4
:100DF000C248324EA24E124F824F21617300203002
:100E0000397106DE16DC1ADA1ED82AD62ED432D272
:100E100036D03ACE3ECC42CA46C872C676C47AC2F2
:100E20007EC0EF30901EEF309020F250E2525253CD
:100E3000C2533255A255125682567247E247524863
:100E4000C248324EA24E124F824F216173002030B1
:100E5000411106C622C4014681453795000013059D
:100E6000456BEF30A04823ACA182EF10D03BEF10D0
:100E7000202BEF60E033EF60C03DEF60C028EF60F3
:100E8000401CEF60803FEF60E035EF60405EFD5555
:100E900003A58183EF3080482945EF40502FC5BF1F
:100EA00097010020938181A517410020130181152E
:100EB00017A50000130505B097F5FF1F938585144E
:100EC0001386818363FAC5008322050023A05500A1
:100ED00011059105E3EAC5FE13858183973500204E
:100EE0009385C5726377B500232005001105E36D76
:100EF000B5FE9302800873A0023097F2FFFF938241
:100F0000E21393E2120073905230EF50D075014516
:100F10008145EF30C0299732000093828229739077
:100F2000123473002030B7270140938707406303D2
:100F3000F5008280411106C6854513050020D12F9A
:100F4000814513050020F127B240410182805C41B8
:100F50003707F1FF1307F7EF7D8FDC41A2079441BC
:100F6000D58FD98F5CC11C4537F7F1FF1307D77FA9
:100F70007D8F9C49D445D58F94458606D58FD98FD2
:100F80001CC55C55370710FF7D177D8F83C7450152
:100F9000FD1793F7F70FD207D98F5CD5828091C5E3
:100FA0001C4593E717001CC582801C45F99B1CC596
:100FB00082801C4593E787001CC5828008450D810F
:100FC000058982801C4593E747001CC5828008453F
:100FD000098105898280A54763F7B7048328C50086
:100FE000138865FF1317180042979D47B397E700D2
:100FF00093C7F7FFB3F71701B396E600DD8E54C52C
:10100000994763E3C70458597D16931726003E9607
:10101000FD47B397C70093C7F7FFF98F3396C50015
:101020005D8E50D9828003280501139715002E97F5
:101030009D47B397E70093C7F7FFB3F70701B39650
:10104000E600DD8E14C96DBFB14763E3C7021459D2
:10105000130796FF131627003A96FD47B397C7006C
:1010600093C7F7FFF58F3396C5005D8E10D9828048
:1010700054554D16131726003A96FD47B397C700EF
:1010800093C7F7FFF58FB395C500DD8D4CD58280F2
:101090001C4141677917F98F1CC1232005002322C9
:1010A00005002324050023260500B7070240A107F9
:1010B0006304F508B7070240F1076306F508B707B0
:1010C0000240938707036307F508B7070240938739
:1010D0004704630AF508B707024093878705630B47
:1010E000F508B70702409387C706630DF508B707F1
:1010F000024093870708630FF508B70702409387FC
:1011000087406301F50AB70702409387C74163042C
:10111000F50AB7070240938707436307F50AB70745
:10112000024093874744630CF50AB7070240938750
:101130008745630FF50A8280370702405C4393E7D7
:10114000F7005CC38280370702405C4393E7070FD8
:101150005CC38280B7060240DC420567130707F0D4
:10116000D98FDCC28280370702405C43BD66D58FD1
:101170005CC38280370702405C43B7060F00D58FFF
:101180005CC38280370702405C43B706F000D58F0E
:101190005CC38280370702405C43B706000FD58FDF
:1011A0005CC38280B707024003A747401367F7007C
:1011B00023A2E7408280B707024003A74740136796
:1011C000070F23A2E7408280B707024003A74740EA
:1011D0008566938606F0558F23A2E7408280B70785
:1011E000024003A74740BD66558F23A2E740828097
:1011F000B707024003A74740B7060F00558F23A249
:10120000E74015BF1C4161773D077D8F9C45945198
:10121000D58F9449D58FD449D58F944DD58FD44D42
:10122000D58FD451D58F9455D58FD98F1CC1DC451E
:101230005CC19C411CC5DC415CC5828091C51C41E0
:1012400093E717001CC182801C4141677917F98F11
:101250001CC1828009C61C41DD8D0CC182801C41ED
:1012600093C5F5FFFD8D0CC182809317350063DABD
:101270000700B707024083A707407D8D3335A000E4
:101280008280B70702409C43CDBF9317350063D7D8
:101290000700B707024023A2A7408280B707024099
:1012A000C8C382805C45D9C3B70601409387064016
:1012B00003A6064018411347F7FF718F23A0E640AD
:1012C00083A6464018411347F7FF758FD8C358418E
:1012D0003E9714431041D18E14C3944718411347CD
:1012E000F7FF758F98C7D44718411347F7FF758FDD
:1012F000D8C71C454147638CE700370701401307F7
:101300000740BA9798431441558F98C38280B70716
:10131000014003A787401441558F23A4E74003A74A
:10132000C7401441558F23A6E74082805841B70734
:101330000140938707403E9714431C4193C7F7FF32
:10134000F58F1CC38280370701408327074003279E
:101350004741698F09C77D8D3335A00082800145E3
:101360008280B707014023AAA74082809C4593F85A
:10137000F700C18B81C7DC41B3E8F80083C70500E3
:10138000A9CB10418147054E3D4F930E8002930F2C
:101390008004214329A054C98507638B6702B316D3
:1013A000FE0003D70500758FE398E6FE139727002C
:1013B0003318EF001348F8FF3376C8003397E8007E
:1013C000598E9845E309D7FDE318F7FD14C9E9B72D
:1013D00010C103D705009307F00F63FDE7045041E8
:1013E000A147054EBD4F130F8002930E8004414369
:1013F00031A054C915A88507638D6702B316FE0096
:1014000003D70500758FE398E6FE139727000117B1
:101410003398EF001348F8FF3376C8003397E8009D
:10142000598E9845E307E7FD9845E316D7FD14C9A3
:10143000D9B750C1828019C20CC982804CC9828040
:101440002A8663400504B7070140DC439316050173
:10145000C182370730003378E5006308E8021317CC
:10146000B500635C0704135705011378F7000D47B7
:10147000331707011347F7FF7D8FB707000FD98F89
:101480000DA0B7070140DC4FD1B7370700F17D173A
:10149000F98FB708014003A848003377E80023A27A
:1014A000E80091C5558112053395A600C98F6342A6
:1014B0000602370701405CC38280135755011207AB
:1014C0003397E6001347F7FF7D8FB707000FD98FDB
:1014D000C9BF370701405CCF828093F735008A0788
:1014E00013F7C50FB7050140BA9594453D4733172B
:1014F000F7001347F7FF758F98C598453315F5002A
:10150000598D88C58280B7E700E0BC47898B95CFAD
:101510008346050083472500920793F7F70F37E7C7
:1015200000E036972300F7405C41B5C7034705004C
:10153000935757008546B396E600938707048A07BA
:1015400037E700E0BA9794C38280B7E700E0BC4772
:10155000898BF9FB034715008547630FF700834626
:10156000050083472500920793F7F70F37E700E060
:1015700036972300F7404DBF83460500834725007B
:10158000920793E707F893F7F70F37E700E03697EE
:101590002300F74051BF0347050093575700854686
:1015A000B396E600938707068A0737E700E0BA9705
:1015B00094C38280B7160240DC4251777D17F98FC1
:1015C0005D8DC8C28280B7170240DC43B18B1147E2
:1015D0006384E70821476387E70899C7B7177A004C
:1015E000938707201CC131A0B7177A009387072083
:1015F0001CC1371602405C429183BD8B3707002027
:1016000013070700BA9783C607001C41B3D7D7005A
:101610005CC15442A1829D8ABA9683C60600B3D6A5
:10162000D70014C55442AD829D8A36970347070000
:10163000B3D7E7005CC55842398393763700370744
:1016400000201307870F3697034707001377F70F1C
:10165000B3D7E7021CC98280B7177A0093870720A7
:101660001CC141BF371702405C435843C983BD8B3F
:1016700089079316F70063CA060037173D00130762
:101680000790B387E7021CC1ADB737170240584334
:101690009316E70063DA060037173D00130707903B
:1016A000B387E7021CC1B1B737177A0013070720C9
:1016B000B387E7021CC135BF99C5371702405C4BA1
:1016C0005D8D48CB8280B7170240D84B1345F5FF9C
:1016D000798DC8CB828099C5371702401C4F5D8D2C
:1016E00008CF8280B7170240984F1345F5FF798DD8
:1016F00088CF828099C5371702405C4F5D8D48CFF7
:101700008280B7170240D84F1345F5FF798DC8CFB7
:10171000828099C5371702405C475D8D48C782803B
:10172000B7170240D8471345F5FF798DC8C78280A7
:10173000035705008D67938707047D8F83D70500C6
:1017400083D62500D58F83D64500D58F83D66500F7
:10175000D58F83D68500D58F83D6A500D58F83D628
:10176000C500D58F83D6E500D58FD98F2310F5001E
:101770000357C501FD779387F77FF98F231EF50087
:1017800083D705012318F500828081C9835705009E
:1017900093E707042310F500828083570500C207F2
:1017A000C18393F7F7FBC207C1832310F500828042
:1017B00083570500C207C18337370140130707C0AD
:1017C0006300E504370700406307E5061307074099
:1017D0006303E5063717004013070780630DE50430
:1017E00093F7F7CF03D76500D98F2310F50083D780
:1017F00045002316F50283D705002314F50285A0C2
:1018000093F7F7F803D72500D98F93F7F7CF03D7CE
:101810006500D98F2310F50083D745002316F50204
:1018200083D705002314F50203C78500B7370140AD
:101830002398E7C22DA093F7F7F803D72500D98F97
:1018400093F7F7CF03D76500D98F2310F50083D71F
:1018500045002316F50283D705002314F5028547BA
:10186000231AF500828083570502C207C183F99BC2
:10187000C207C1832310F50283570502C207C18343
:1018800083564500C206C182035785014207418342
:101890001377C7F803D60500518FF59B03D6850053
:1018A00003D8250033660601D18F37360140130671
:1018B00006C0630DC5002312D500231CE50003D725
:1018C0006500231AE5022310F5028280DD9B03D612
:1018D000A500D18FED9B03D64500D18F93F6F6CFAF
:1018E00003D6C50003D8E50033660601D18EE1B703
:1018F00083570502C207C183BD9BC207C183231062
:10190000F50283570502C207C1830356450042060C
:1019100041828356850165771307F7CF758F83D68C
:101920000500A206558F4207418393F7F7FD03D8C0
:10193000850083D62500B3E606019206D58FC2073F
:10194000C183B7360140938606C0630DD5002312CC
:10195000C500231CE50003D76500231CE502231006
:10196000F502828093F7F7F783D6A5009206D58F0C
:10197000C207C18393F7F7FB83D645009206D58F44
:10198000C207C183FD769386F63F758E03D8C500E6
:1019900083D6E500B3E606018A06558E42064182EB
:1019A0007DB783570502C207C18393F7F7EFC207DC
:1019B000C1832310F50283570502C207C183035672
:1019C0004500420641820357C50142074183137710
:1019D000C7F883D60500558F93F7F7DF03D8850046
:1019E00083D62500B3E60601A206D58FC207C183C0
:1019F000B7360140938606C0630DD5002312C5009B
:101A0000231EE50003D76500231EE5022310F5021F
:101A10008280FD769386F67FF58F83D6A500A20699
:101A2000D58FC207C18393F7F7BF83D64500A206BF
:101A3000D58FC207C183F576FD16758E03D8C50014
:101A400083D6E500B3E606019206558E4206418232
:101A500075B703570502FD77FD17F98F2310F502BF
:101A60000358050203564500420641828357C501CB
:101A700065771307F7CF7D8F83D60500A206558FB4
:101A800042074183F977FD17B3F7070103D88500B3
:101A900083D62500B3E60601B206D58FC207C183FF
:101AA000B7360140938606C0630DD5002312C500EA
:101AB000231EE50003D765002310E5042310F5027B
:101AC0008280F176FD16758E83D6C5009A06558EF6
:101AD00042064182E1BF81C98357050093E71700A1
:101AE0002310F500828083570500C207C183F99B4C
:101AF000C207C1832310F500828081C98357450442
:101B00002167D98F2312F504828083574504C607C5
:101B1000C5832312F504828019C68357C500DD8D65
:101B20002316B50082808357C50093C5F5FFFD8D50
:101B30002316B50082808357850093F7F70FA2061E
:101B40004D8ED18ED58FC207C1832314F5008280BC
:101B5000411106C622C42A84F93F8357840093E7C3
:101B600077072314F400B240224441018280835756
:101B70008500C207C18393F7F7F8DD8D2314B50004
:101B8000828083578501C207C183DD9BDD8D231CC5
:101B9000B500828003578501FD779387F77FF98F22
:101BA000A205CD8FC207C183231CF5008280835715
:101BB000C501C207C183DD9BDD8D231EB500828078
:101BC0000357C501FD779387F77FF98FA205CD8F66
:101BD000C207C183231EF500828083578501C20797
:101BE000C183ED9BDD8D231CB50082808357850169
:101BF000C207C18393F7F7BFA205CD8FC207C18388
:101C0000231CF50082808357C501C207C183ED9B69
:101C1000DD8D231EB50082808357C501C207C183B5
:101C200093F7F7BFA205CD8FC207C183231EF5002E
:101C3000828083578500C207C183E19BC207C183AD
:101C40002314F50083578500DD8D2314B5008280B1
:101C500083578500C207C18393F7F7F7C207C18393
:101C60002314F50083578500DD8D2314B500828091
:101C7000835705010355C50042054181ED8F89C792
:101C80006D8D3335A00082800145828093C5F5FFBC
:101C9000C205C1812318B5008280797106D622D48D
:101CA00026D22A84AE8403570501F577FD17F98FF4
:101CB00003D76500D98F2318F5000357C500FD77BA
:101CC0009387379FF98F03D74500D98F03D78500B6
:101CD000D98F03D7A500D98F2316F5008357450167
:101CE000C207C18393F7F7CF03D7C500D98F231A53
:101CF000F5006800EFF03F8DB747014093870780FC
:101D00006301F40652478357C400C207C18763CCFE
:101D1000070493171700BA978E07BA9798400A07D7
:101D2000B3D7E70213074006B3D6E7029206B3F72C
:101D3000E7020357C4004207418763400704920744
:101D40009387270313074006B3D7E702BD8BD58FD0
:101D5000C207C1832314F400B25022549254456147
:101D6000828062474DB793171700BA978E07BA97CC
:101D700098400607B3D7E70275B7139737001307E4
:101D80002703930740063357F7021D8BB367D7002D
:101D9000C1B781C98357C5000967D98F2316F500DC
:101DA00082800357C500F977FD17F98F2316F500D8
:101DB000828093F7F50F95830547B315B700638CC1
:101DC000E700894613074501638AD70019CA1C43F7
:101DD000DD8D0CC382801307C500CDBF130705013D
:101DE000F5B71C4393C5F5FFFD8D0CC3828093F5B9
:101DF000F51F2312B5008280035505006D8D333524
:101E0000A000828093F7F50F958385463397B6003F
:101E10006388D70289466389D702835745017D8F3E
:101E20000355050093170501C183014509CBA18125
:101E30000545B315B50033F5B7003335A0008280F2
:101E40008357C5007D8FE9BF835705017D8FC9BFCB
:101E5000011106CEA307A10085461306F100B28545
:101E60000545EF1030730345F100F24005618280B3
:101E7000011106CE22CC26CA4AC84EC6AE8493575C
:101E80003600F18B29671307C7E4BA9703A9070047
:101E900005443314C40042044180232A8900136599
:101EA00005087D3726856D37232889000545EF1005
:101EB0001072232A89000145613FAA890145493FE3
:101EC00023288900338534413335A000F240624431
:101ED000D2444249B24905618280411106C622C4FA
:101EE00026C24AC02E8993573600F18B2967130703
:101EF000C7E4BA97844305443314C40042044180C4
:101F0000C0C813650504A9370145993780C8054540
:101F1000EF10F06BC0C80145253F2300A900014523
:101F2000053F80C8B2402244924402494101828068
:101F3000411106C622C426C2AE840564098C42043F
:101F400041801204420441802E869375040F01459E
:101F500005372686935584000545193FB240224433
:101F6000924441018280411106C622C426C24AC061
:101F700093573500F18B29671307C7E4BA9703A974
:101F8000070005443314A40042044180232A890039
:101F900001457D3D9384C18322052390A400014522
:101FA000453D83D70400C98FC207C1832328890018
:101FB00099832390F4009386E18303D706001D8F55
:101FC0001377F73F2390F60013151700137505409C
:101FD0003305A740B2402244924402494101828025
:101FE000011106CE22CC26CAAA8471442686930506
:101FF000F1001945DD358347F100E39987FEF24092
:102000006244D24405618280411106C622C42A84FA
:10201000094881472A879306200213061002930578
:1020200000020545EF10504722855D3F228681451D
:1020300025453D3DA2850145E53DB2402244410193
:102040008280011106CE22CC26CAA96783A4C7E4E8
:10205000056413040480C0C82306A100A306B100D0
:1020600089467000B2850545EF10D05280C8F24015
:102070006244D24405618280011106CE22CC26CA78
:102080004AC82E89A96783A4C7E4056413040480A1
:10209000C0C8136505F82306A10083C70500A30681
:1020A000F10089467000B2850545EF10B04E8347B8
:1020B000D1002300F90080C8F2406244D244424972
:1020C00005618280411106C622C426C2A96783A485
:1020D000C7E4056413040480C0C8AE862A86AA85B6
:1020E0000545EF10304B80C8B24022449244410174
:1020F0008280011106CE22CCA3070100494493053A
:10210000F100130550078D3F15458145EF10D04C68
:102110008347F100E39587FEF240624405618280C7
:10212000011106CE22CCA307010029458145EF10FD
:10213000B04A094881472D47930620021306100232
:10214000930500020545EF1030356537930500080B
:102150001305B006FD3509458145EF10F04713041E
:1021600010049305F1001305B00639372945814560
:10217000EF1090468347F100E39587FE85451305F0
:10218000B006C13581451305C006653D85456945E5
:102190004D3D9D4565457535E1456D455D35C1450F
:1021A000714545358D457545693DF240624405618F
:1021B0008280011106CE930730FC2304F1009D4577
:1021C0002800093783479100A2070347A100D98F50
:1021D0002391F1848347B100A2070347C100D98F3F
:1021E0002392F1848347D100A2070347E100D98FEE
:1021F0002393F184F24005618280011106CE22CC46
:1022000026CAA307A100A96703A447E5A16444C89F
:1022100091675CC8854601469305F1000145EF10C2
:10222000703704C8F2406244D244056182800111D3
:1022300006CE22CC26CAA307A100A96703A447E5BE
:10224000A16444C891671CC8854601469305F10006
:102250000145EF10303404C8F2406244D2440561B5
:102260008280011106CE22CC26CAA96703A447E5C5
:10227000A16444C8935785002306F100A306A1007A
:1022800091671CC8894601466C000145EF109030EB
:1022900004C8F2406244D24405618280011106CE36
:1022A00022CC26CA4AC84EC6AA89AE843289368450
:1022B0001305A002993713858902420541815537DC
:1022C0001305890242054181693F1305B002353784
:1022D00013854403420541816937130544034205D0
:1022E000418141371305C002093FF2406244D244A4
:1022F0004249B24905618280011106CE22CC26CA2C
:102300004AC84EC6AA84930660081306F00E81459B
:10231000014569371309000F9309700839A07D1929
:10232000420913590901630A09004E842685153FA5
:102330007D14420441807DF8DDB7F2406244D2440E
:102340004249B24905618280411106C622C426C2B3
:10235000014881471307F004930630020546814582
:102360000145EF10701393060031054685451305AE
:102370000008EF102007930600310146854513053C
:10238000E004EF1020069306003101468545130551
:10239000D004EF102005A96703A447E5896444C869
:1023A0001305800C8145EF10302304C81305400647
:1023B0008145EF1070221305600381351305400637
:1023C0008145EF1070211305000A95351305A00310
:1023D0002D351545A93D1305200B05353145813DAA
:1023E0003145B1350145A135130530038935130554
:1023F0003003353D1305700B093513055003053DBA
:102400001305B00BDD3B1305700315351305000CE8
:10241000ED331305C002213D1305200CF93B0545A2
:1024200039351305300CD13B494511351305400CA6
:10243000E93313050002E53B1305600C7D3B3D4588
:10244000FD331305000D553B1305400ACD3313052D
:10245000100AF13B1305000E4D331305000DC13B6F
:102460001145F1333545E1334545D1334D45C13350
:102470001305B0026D3B1305F003553B13054005F2
:102480007D331305C0046533614555333545453308
:102490002D45713B7D45613B13053002493B1305DA
:1024A000100EA13B1305000D593311454933314539
:1024B000BD3B4545AD3B4D459D3B1305C002853BAE
:1024C0001305F003AD3313054004953313051005D0
:1024D000B93B1305F002A13B7D45913B7D45813B16
:1024E00013050002A93313053002913313051002BE
:1024F000293345451933130580078145EF10D00D69
:1025000013059002DD3941657D15FD33B24022444B
:10251000924441018280797106D622D426D24AD0D3
:102520004ECE52CC56CA5AC85EC662C466C22A8C07
:102530001206930A06E0A5679387C76B3389FA00F2
:10254000930A0901B3852541939B050193DB0B0198
:10255000130B7500420B135B0B01A14CC169138A6D
:10256000F9FF938909801DA05285EFF09FCF8580E8
:102570007D141374F40F01C893F71400F5D74E853A
:10258000EFF03FCEEDB70509630F5901B3852B017D
:10259000C205C181AE865A866285EFF03FD0834482
:1025A00009006684D1BFB250225492540259F249B4
:1025B000624AD24A424BB24B224C924C45618280D5
:1025C000011106CE22CC26CA4AC84EC6B2890306DD
:1025D000060015C62A8492051399050113590901AD
:1025E0008144CA852285053F8504C204C180B38722
:1025F0009900038607002104420441807DF2F240E5
:102600006244D2444249B24905618280797106D65A
:1026100022D426D24AD04ECE2A842E89B284634A4E
:1026200006089205C205C18113060002ED358967CF
:1026300093870771B3C7F4022304F1001307803EA8
:1026400033C7E402A9473367F702A304E100130785
:10265000400633C7E4023367F7022305E10033C7BE
:10266000F4023367F702A305E100B3E4F4022306A2
:10267000910012094209135909012400210442045E
:1026800041809309D10003C60400130606036206C5
:102690006186CA8522854135850421044204418032
:1026A000E39334FFB250225492540259F2494561E7
:1026B00082809205C205C1811306D002A93DB304F0
:1026C0009040C204C184A5B75D7186C6A2C4A6C2EB
:1026D000CAC04EDE2A89AE893685A94763F3D70082
:1026E00029459374F50F138414001374F40F634297
:1026F0000606930700022306F100B7A500009385A4
:10270000C5CA1305D100712105051375F50F637353
:1027100085027C00AA971307D1002A973385A4402D
:102720001375F50F2A97930600022380D7008507BB
:10273000E39DE7FE1C183E94230E04FC7000CE853A
:102740004A85BD3DB640264496440649F25961612A
:102750008280B7A500009385C5CA68001D2913753E
:10276000F50F75B7797106D622D426D24AD04ECE4F
:1027700052CC56CA5AC85EC662C466C2AA8CAE891A
:102780002E8C9307000F63F4B700130C000F420C5C
:10279000135C0C01B28B9307700863F4C700930BB2
:1027A0007008C20B93DB0B019386FBFF1306FCFF43
:1027B000C206C1824206418281450145EFF01FAE4B
:1027C00063880B04014B814A628929A0850A4E9BCC
:1027D00063807A0581440144338A6C01E3080CFE6E
:1027E000B3D72403D29703C7070093170701C18308
:1027F00013D5270016058D83AE07C98F13553700F3
:102800005D8DEFF01FA60504CE94E31B24FD7DBF74
:10281000B250225492540259F249624AD24A424B6F
:10282000B24B224C924C45618280411106C622C4B3
:102830001384F184834504009387C184BE950545C4
:10284000EF10407E83470400850793F7F70F2300BE
:10285000F4000547638EE7000D476397E700A38701
:10286000018405472388E184B240224441018280EB
:1028700003C7C1849307500AE308F7FEA3870184C6
:10288000E5B7797106D622D426D24AD04ECEAA898F
:10289000238801842E8493844502130950FA230669
:1028A000210183570400A306F100031724009317A6
:1028B0000701C183A1832307F100A307E1001146AB
:1028C0006C004E85EF10206D09458145EF10C0501A
:1028D0001104E31694FC9387018583C7070093F7DF
:1028E000F70FF5DB238801849387C18403C71700A2
:1028F00083C627009307F00F6310F700E39EF6FEF0
:10290000B250225492540259F24945618280397181
:1029100006DE22DC26DA4AD84ED652D456D25AD017
:102920005ECEAA8BAE84138B0502930A50FA455AE9
:102930001389C18423065101A3064101A689039787
:10294000040093170701C183A1832307F100A307A4
:10295000E10011466C005E85EF10E063938701850E
:1029600083C7070093F7F70FF5DB93870185238073
:10297000070083471900A20703472900D98F239135
:10298000F9009104E39864FBF2506254D254425926
:10299000B259225A925A025BF24B21618280411154
:1029A00006C613068004B1450545EF00903A8546FA
:1029B000014685455D45EF001040B24041018280EF
:1029C000411106C6B1450145EF001015B240410165
:1029D0008280411106C622C426C2130470049304E7
:1029E00000049146014681452285EF00B01F7D1409
:1029F000E31994FE89669386864B03A6C185B715B5
:102A00000140A1053705024013054504EF00100100
:102A10008546014681457945EF00F039B2402244B0
:102A2000924441018280411106C622C426C2B707E2
:102A30000020054723AEE70EB70700209387472005
:102A400023AEF184C5464146896593850558054501
:102A5000EF10C04585450545EF10005713840185EB
:102A600023000400B7040020938504010545453583
:102A700023000400B70500209385050305451135A3
:102A800023000400938504010545513599370D3F16
:102A90003937B2402244924441018280B707024054
:102AA00009671307874BB8C7F84313671700F8C3C4
:102AB0008280411106C605472384E184B70602409F
:102AC000FC4241677917F98FFCC203A58183EF109F
:102AD0009013B24041018280AA8729C21357F54161
:102AE000B347A700998F368633E7D702130707034A
:102AF0002380E500B3C6D702B5C2AE87850733E7AA
:102B0000C602130707032380E700B3C6C602138576
:102B100017000D8D1375F50FF5F282802E86B6889D
:102B200025480547B305B7400DA0130707031377E2
:102B3000F70F2300E60033D7D7023305B60013752D
:102B4000F50F63EE17010506BA8733F7D702E37E68
:102B5000E8FC130777031377F70FE1BF0545828081
:102B600013D81500854763F5B7029387F5FFAA9739
:102B70002A872E9583860700030607002380C70057
:102B80002300D7000507B306F540FD17E3E406FF71
:102B90008280757186D6A2D4A6D2CAD0CECED2CC2F
:102BA000D6CADAC8DEC6E2C4E6C2EAC06EDEB2DC6D
:102BB000B6DE3AC13EC342C546C7BC183ED683877F
:102BC00005006388072C2A84814C93045002930AE1
:102BD0003005296A130A0ACB37A70000032907E04A
:102BE000832947E071A4B257138747003AD69C4324
:102BF0002300F4000504850CBDA4B25713874700D9
:102C00003AD683AB0700A94605462C005E85E93518
:102C10002A8B63CD0B00DA85280099375A862C0061
:102C20002285EF5060735A94DA9C35AC1C18AA9731
:102C30001307D002238CE7FC130B1500137BFB0F4B
:102C4000D9BFB2579D07E19B138787003AD603ABE4
:102C5000070083AB47005A85DE85EF5000552A8D6B
:102C6000A94605462C008D3DAA8D014681465A8510
:102C7000DE85EF40100963400506EE852800CD355E
:102C80006E862C002285EF50206D6E94EE9C6A8536
:102C9000EF5020582A86AE865A85DE85EF40505D7B
:102CA0004A86CE86EF4050112A8BAE8B0146814674
:102CB000EF40807E1DE993070003A306F100230681
:102CC000F100A305F1002305F100A304F1002304A2
:102CD000F100194589A81C18EE971307D002238C20
:102CE000E7FC850D93FDFD0F49BF5A85DE85EF504A
:102CF000C04BA94605462C00EFF01FDE954763E464
:102D0000A7023C00AA97130791002A979546898E3F
:102D100093F6F60F3697930600032380D7008507B6
:102D2000E31DF7FE19451C18AA971307E002238C30
:102D3000E7FC0505137BF50FDA85280015355A8663
:102D40002C002285EF504061DA9C31AAB2571387DC
:102D500047003AD6A94601462C008843EFF0DFD75A
:102D60002A8BAA852800ED3B5A862C002285EF503D
:102D7000A05E5A94DA9CC5A8B257138747003AD68A
:102D8000A14601462C008843EFF01FD52A8BAA8567
:102D90002800EFF0FFDC5A862C002285EF50C05B44
:102DA0005A94DA9CC9A0B257138747003AD6C14655
:102DB00001462C008843EFF03FD22A8BAA852800D9
:102DC000EFF01FDA5A862C002285EF50E0585A9413
:102DD000DA9C51A8B257138747003AD69443038729
:102DE000060051C3A28733848C402380E700850707
:102DF000B38C870085060387060065FB3E84A5A08B
:102E0000A1452800EFF0DFD58348810003489100F9
:102E10000345A1008345B1000346C1008346D100AC
:102E20000347E1008347F10023001401A3000401DC
:102E30002301A400A301B4002302C400A302D40010
:102E40002303E400A303F4002104A10C29A89307A1
:102E500050022300F4000504850C31A02300F40087
:102E60000504850C2E8C93051C0083071C009DC354
:102E7000E39697FE138C150083C715009387B7FD63
:102E800013F7F70FE3E1EAFE93172700D2979C436D
:102E90008287814C6685B650265496540659F64969
:102EA000664AD64A464BB64B264C964C064DF25DCA
:102EB00049618280011106CE22CC26CA4AC84EC67C
:102EC000A96783A447E5114798C8A147DCC8D8C8BB
:102ED0009CC898C8DCC8372400201304C46B93092D
:102EE0000410114923AA240181452945B52C23103A
:102EF000A40023A824010904E31634FF0547A3888E
:102F0000E184F2406244D2444249B2490561828080
:102F1000411106C622C4138481858345040093872A
:102F20004185BE950545EF10E00F834704008507F6
:102F300093F7F70F2300F4000547638EE7000D4772
:102F40006397E700238C01840547A38BE184B2409B
:102F500022444101828003C741859307500AE30858
:102F6000F7FE238C0184E5B7B70702400567130716
:102F70000796B8C7F84313671700F8C38280054760
:102F80002389E184B7060240FC4241677917F98F33
:102F9000FCC28280411106C62DC58547630AF5062D
:102FA0008947630DF5068D476300F5089147630374
:102FB000F50895476306F50899476309F5089D47A5
:102FC000630CF508A147630FF508A5476303F50AED
:102FD000A9476307F50AAD47630BF50AB147630FCD
:102FE000F50AB5476303F50CB9476307F50CBD4710
:102FF000631DF50081460146814513055004DD2619
:1030000029A0814601468145F12EB24041018280CE
:103010008146014681450545F126C5BF81460146E9
:1030200081450945C126D5B78146014681450D45F3
:10303000552EE1BF81460146814511456526F1B710
:103040008146014681451545712EC1B7814601462D
:1030500081451945412E55BF8146014681451D4593
:10306000512665B7814601468145130500029D2E14
:1030700069BF81460146814513051002A52671B737
:1030800081460146814513050004A92EBDBF814636
:103090000146814513051004B12685BF81460146CE
:1030A0008145130520043D2E8DB78146014681459B
:1030B00013053004052E91BF814601468145130555
:1030C00040040D2699B7797106D622D42A84854505
:1030D00013054020EFE02FE02285EFF0BFEB03A7C0
:1030E0000186B7C70105938707D063FBE706316503
:1030F000EFE04FCC3724014013050440EFD0BFE28E
:1031000002C402C602C8B7070E003ECA02CC8547F9
:10311000230EF1002C0013050440EFD05FE385453A
:1031200013050440EFD0BFE713050440EFD07FE85C
:10313000130404402285EFD07FE86DFD3725014060
:1031400013050540EFD01FE8372401401304044065
:103150002285EFD0DFE76DFDB250225445618280B9
:103160002165EFE02FC579B7411106C622C426C2FA
:10317000AE84814605469375F50F3724014013054B
:103180000440EFD05FE58327844037075000D98F94
:103190002324F4403727014083270740898BEDDF44
:1031A000B727014003A5C744335595004205418127
:1031B000B2402244924441018280011106CE22CCC9
:1031C00026CA4AC84EC652C42A8AAE893289814468
:1031D000014415C6CE855285413FAA940504137457
:1031E000F40FE31989FE33D5840242054181F24090
:1031F0006244D2444249B249224A05618280B7A65C
:103200000000938686E12966130686E09305600731
:1032100037A50000130505E2EF50000E5D7186C66C
:10322000A2C4A6C2CAC04EDE2A84AE893289B68440
:10323000B7070240A1076308F508B7070240F10786
:103240006303F508B707024093870703630DF5068C
:10325000B7070240938747046307F506B7070240A4
:10326000938787056301F506B70702409387C70672
:10327000630BF504B7070240938707086305F5045D
:10328000B707024093878740630AF502B7070240F9
:103290009387C7416304F502B7070240938707434A
:1032A000630EF500B7070240938747446308F500B3
:1032B000B707024093878745631BF500854509459D
:1032C000EFE08FBF29A085450545EFE0EFBE2285E1
:1032D000EFD01FDC4EC24AC402C626C802CA9307FA
:1032E00000083ECC02CE02D002D28D673ED402D678
:1032F0004C002285EFD01FF1054689452285EFD08D
:103300007FF585452285EFD07FF3B640264496446D
:103310000649F25961618280011106CE22CC26CA8B
:103320002A84AE8485450545EFE0EFBA51C4854750
:10333000630BF4088947630DF4088D47630FF408A5
:1033400091460146814526857128FD572314F100D9
:10335000231201002315010023130100230601009D
:103360000A04A9679387C7E53E9400404C00228574
:10337000EFE00FC48146216681452285EFE04FFDD5
:10338000930500072285EFE08FFE91452285EFE04F
:103390005F8A930500082285EFE09F8B8545228593
:1033A000EFE06FF3054691652285EFE0EFF6F2401E
:1033B0006244D24405618280854505651305058018
:1033C000EFE06FB1B5BF85450545EFE0AFB28DBF0A
:1033D00085450945EFE00FB2A5B785451145EFE0FA
:1033E0006FB1B9BF130700086306E510797106D6FF
:1033F00022D426D24AD04ECE52CC9357550013F940
:1034000077001374F501368AB289AE848DCB0547F7
:103410006389E7060947638BE7060D47638DE70677
:1034200011476380E70815476383E7081947639CE2
:10343000E700854513050010EFE0EFA929A08545B9
:103440001145EFE04FA9854733948700420441803E
:10345000231281006383F4069376FA0F36C613179E
:103460002900A9679387C7E4BA974C008843EFD037
:10347000FFEFB250225492540259F249624A456118
:10348000828085452145EFE00FA575BF8545414503
:10349000EFE06FA44DBF854513050002EFE0AFA339
:1034A0005DB7854513050004EFE0EFA269BF8545D0
:1034B00013050008EFE02FA279B793170A01C18323
:1034C000A1839DE78D473EC49376FA0F36C6131746
:1034D0002900A9669386C6E4369704434C002685E6
:1034E000EFD0DFE84E86A2852685EFD0DFF451B716
:1034F0003EC4D9BF8280935755009D8B7D89054777
:10350000638DE5008A0729671307C7E4BA979843D4
:1035100085473395A70048CB82808A072967130720
:10352000C7E4BA97984385473395A70008CB8280B4
:10353000135735009376C70129671307C7E43697F9
:103540001C43984785473395A700798D3335A000F4
:103550008280011106CE22CC26CA4AC82A84AE84B3
:10356000328985450545EFE00F97CA8601468145BA
:103570002285EFF03FE7135554009375F40113755E
:10358000F50FEFD09FF585473394870022C002C224
:1035900026C43EC60A85EFD0FFD0F2406244D24432
:1035A000424905618280B7E700E07D5723A0E71814
:1035B00023A2E7188280011106CE2304A100A304F0
:1035C000B1002305C10036C62800EFD0DFF337E68F
:1035D00000E01842B7270020FD76F98E03A7C77BCD
:1035E000558F23AEE77A58429387C77B1207118322
:1035F000D443558FD8C303C7870085476305F700B9
:10360000F24005618280EFF01FFADDBF411106C66E
:10361000930700206301F51E63F1A704930730218F
:103620006306F52263EBA70E930730206305F51EB2
:1036300063F4A70C930710216308F51E63EFA71E20
:1036400093070021631CF5129306803101468545DE
:1036500013056004EFF01FD915A293071010630241
:10366000F51463FBA70293070011630CF51463F5CF
:10367000A706930720116307F516636CF5149307EB
:103680003011631DF50E9306803101468545130503
:10369000B002EFF03FD5DDA089476304F50E63F17A
:1036A000A7028D476307F50E930700106318F50C0A
:1036B00093068031014685450145EFF0BFD27DA8D4
:1036C0005DC58547631CF50A930680310146854533
:1036D0002545EFF03FD15DA093072010630BF50C5B
:1036E00093073010631CF508930680310146854529
:1036F0000D45EFF03FCF59A0930710206305F5105B
:1037000093072020631CF50693068031014685450A
:1037100013050002EFF01FCD95A093070030630959
:10372000F51463F5A702930720306305F516636A65
:10373000F514930730306313F50493068031014686
:10374000854513059002EFF0FFC90DA893070022ED
:103750006307F510930710226312F5029306803178
:103760000146854513055002EFF0DFC701A8930617
:103770008031014685452145EFF0DFC6B240410169
:10378000828093068031014685452945EFF09FC52B
:10379000F5B793068031014685452D45EFF09FC46E
:1037A000F1BF93068031014685450545EFF09FC383
:1037B000F1B793068031014685450945EFF09FC278
:1037C00075BF93068031014685453D45EFF09FC1A9
:1037D00075B7930680310146854513053002EFF039
:1037E0007FC069BF93068031014685451305A0025D
:1037F000EFF05FBF61B793068031014685451945FB
:10380000EFF05FBEA5BF93068031014685451D459B
:10381000EFF05FBDA5B793068031014685451305DE
:103820001002EFF03FBC99BF9306803101468545F9
:1038300013057004EFF01FBB91B79306803101466A
:10384000854513058004EFF0FFB90DBF9306803165
:103850000146854513059004EFF0DFB805B79306E0
:1038600080310146854513054002EFF0BFB739B7F7
:10387000930680310146854513056002EFF09FB63F
:10388000F5BD930680310146854513057002EFF0C2
:103890007FB5EDB59306803101468545130580025D
:1038A000EFF05FB4E1BD397106DE22DC26DA4AD8DA
:1038B0004ED6AA84AE893289EFF05FD513D4840046
:1038C00075C085476307F40E8947630CF4108D4774
:1038D000630FF41285450545EFD0FFDFB7170240AF
:1038E000DC43C983BD8B37177A0013070720B387E2
:1038F000E7023727F40013070740BA9723A0F186A1
:1039000033D73703418393051700B3853503B3D706
:10391000B7029386F7FF231CD100231AE100231D71
:103920000100231B0100230E0100130700072312CF
:10393000E10005472313E10023140100C207C183FE
:10394000B3872703096713070771B3D7E702231566
:10395000F10089472316F1002317F1002318010015
:10396000231901000A04A9679387C7E53E94004024
:103970004C082285EFD0DFE38D88F9C08547638C42
:10398000F40E89476387F4104C002285EFE06F8CBA
:10399000A1452285EFE0CFA2930500402285EFE00C
:1039A000AFA75DA88545056513050580EFD0BFD29B
:1039B00015B785450545EFD0FFD385450545EFD0C3
:1039C0009FD193D7440041476388E7044547E39775
:1039D000E7F085453705180013050530EFD05FA6E1
:1039E000F5BD85450945EFD0FFD085450545EFD0AC
:1039F0009FCE93D74400130710026397E7028545D3
:103A000037151A00130505C0EFD09FA3C1BD85452A
:103A10001145EFD03FCE7DBD854537051600130516
:103A20000504EFD0FFA15DBD13072002E398E7EA8C
:103A3000854537151A0013050580EFD07FA079BDA5
:103A40004C002285EFD03FE2A1452285EFE06F9345
:103A500091452285EFE06F9885452285EFE0AF879D
:103A600085452285EFE06F89F2506254D254425965
:103A7000B259216182804C002285EFD07FE7A145B9
:103A80002285EFE02F91930500402285EFE00F960D
:103A9000E1B74C002285EFD0DFF0A1452285EFE0B1
:103AA0000F9191452285EFE00F967DB71357850062
:103AB00093172700A9669386C6E5B6979C4383D7DC
:103AC000C702B385F502896793870771B3D5F502FD
:103AD00001EF0D89B75700109387D7B03E950A05BF
:103AE000C205C1810CC1828085476309F7008947FF
:103AF0006300F7028D476308F70282800D89B707DC
:103B00000010B5073E950A05C205C1810CC182802F
:103B10000D89B70700109387D7103E950A05C20597
:103B2000C1810CC182800D89B70700109387D7200F
:103B30003E950A05C205C1810CC1C1B7411106C637
:103B400022C426C24AC0AE84328436892DCDC147F4
:103B50006303F508930700026318F50893068031A4
:103B6000054685451305D002EFF0DF878547638C56
:103B7000F408C5476381F40A930710026396F40AB8
:103B800093068031054685451305F002EFF09F85C9
:103B90008947630AF40AC947630FF40A93072002AE
:103BA0006304F40C930730026319F40C930600319C
:103BB000054685454A85EFF0FF82B2402244924493
:103BC00002494101828093068031054685451545AD
:103BD000EFF05F8161BF930680310546854513058F
:103BE0003002EFF03F8059B7B7A600009386C6E7D2
:103BF00029661306C6E69305D00237A50000130513
:103C000005E8EF40606F93068031054685451D4508
:103C1000EFF04FFDB5BF930680310546854513058E
:103C20005002EFF02FFCADB7B7A600009386C6E7B1
:103C300029661306C6E69305200337A50000130581
:103C400005E8EF40606B93068031054685451945D0
:103C5000EFF04FF9A1BF9306803105468545130566
:103C60004002EFF02FF899B793068031054685455D
:103C70001305E002EFF00FF715BFB7A6000093861B
:103C8000C6E729661306C6E69305800337A500003C
:103C9000130505E8EF404066397106DE22DC26DABE
:103CA0004AD84ED652D456D25AD02A84AE89328AB5
:103CB000B68A3A8BBE84428949C585476309F508AF
:103CC000DA865686D2854E85EFF05FE7231601002F
:103CD000930740102317F1002318010085476383E1
:103CE000F40893978401E187ADCB89476382F40898
:103CF0008D476385F40893070020231BF1000E090C
:103D0000231C2101231D01009D47231EF1000A04ED
:103D100013850181229500416C002285EFD05FA1BF
:103D2000C1476384F90685452285EFD01FA6F2506E
:103D30006254D2544259B259225A925A025B2161BA
:103D40008280854505650505EFD0FF9895BF8545BF
:103D500011650505EFD01F9AA5B723190100231A95
:103D6000010051BF231901008547231AF10061B7F3
:103D700089472319F100231A0100B5BF8947231988
:103D8000F1008547231AF100BDB785450545EFD001
:103D90002FEB51BFAE96938701810A053E9563874D
:103DA000B602184183578700898BEDDF850583C7ED
:103DB000F5FF2316F70065D683578700858BEDDF67
:103DC0008357C7002300F6000506D1BF82807D150A
:103DD000420541816DFD8280411106C6EF10303BE6
:103DE000B24041018280411106C60DE585476385D9
:103DF000F500B2404101828093068031014685453D
:103E00002545EFF02FDE9146014681452945EFF02B
:103E10006FDDC5B789476309F502C1476306F5043D
:103E2000930700026310F50693068031014685452D
:103E30001305A002EFF00FDB914601468145130503
:103E4000B002EFF02FDA75B7930680310146854551
:103E500013056002EFF00FD9914601468145130525
:103E60007002EFF02FD871B7930680310146854577
:103E70000945EFF02FD79146014681450D45EFF0FA
:103E80006FD685BF93072002E315F5F693068031C0
:103E9000014685451305A004EFF0CFD491460146B5
:103EA00081451305B004EFF0EFD3A1B7797106D6C1
:103EB00022D426D24AD04ECE2A84AE89B284368904
:103EC00085450545EFD03F81CA852685EFF0BFF1D6
:103ED00089476381F402930720026390F4029307F9
:103EE0003002631CF9008545370514004105EFD009
:103EF0002FD521A08D47630AF90429CC854763009B
:103F0000F40689476303F4064EC02312010023130D
:103F100001002314010023160100B1472315F1000D
:103F20000A04A9679387C7EA3E9400408A852285E0
:103F3000EFD0BFD685452285EFD0BFE5B2502254E1
:103F400092540259F2494561828085451145EFD06E
:103F50002FCF65B785451165EFD0EFF775B785456C
:103F600037050200EFD00FF945B785453705040046
:103F7000EFD04FF851BF0A05A9679387C7EAAA9700
:103F800098438357070093F70708E5DFC205C1810F
:103F90002312B700828005CA411106C622C426C278
:103FA0004AC02A892E84B384C50005048345F4FFE2
:103FB0004A85EFF05FFCE39A84FEB24022449244CB
:103FC0000249410182808280411106C622C426C274
:103FD0002A84AE8413172500A9679387C7EABA9786
:103FE0000546930550528843EFD0BFDCA6860146B4
:103FF000854513055403EFF00FDCB2402244924490
:10400000410182800A05A9679387C7EAAA97984366
:104010008357070093F70702E5DF835747002380A4
:10402000F50082800A05A9679387C7EAAA97984393
:104030008357070093F7070299E30145828083576E
:1040400047002380F5000545828003A541868280D4
:10405000411106C6938741869843050798C3EF1020
:10406000C0763C41FD173CC191C7EF10D039B2403A
:10407000410182805C5D3CC1EF109001FDB763425D
:1040800005029307803E3347F5023307F702336595
:10409000F5023305F5021305753E3345F5023A95F1
:1040A00082807D5582800145828001458280014564
:1040B0008280014582802D6713070792AD67938741
:1040C0004792637CF702411106C622C426C22D64C2
:1040D00093040492AD6793873792858FF19B910784
:1040E000BE94130404921C4082971104E31D94FEB5
:1040F000B240224492444101828082802D6713079E
:104100004792AD679387C792637CF702411106C659
:1041100022C426C22D6493044492AD679387B7925C
:10412000858FF19B9107BE94130444921C408297A3
:104130001104E31D94FEB240224492444101828066
:104140008280411106C6EFF07FFBEFC07FD0B24006
:1041500041018280411106C6D147094793060040BC
:104160000146B74500009385251437A500001305C7
:10417000C5EBEF10E065EF10B007B240410182805F
:10418000411106C6EFB0DFFBEF20102FEF00D05932
:10419000EF107030EF10C031EFF0DFFBEF10503058
:1041A000C128EF1000340145B24041018280411125
:1041B00006C6EFF0FFFC0145B2404101828003A733
:1041C000018993870189630FF708011106CE22CC7C
:1041D00026CA4AC84EC652C456C293890189854A26
:1041E0002DA02685EF10402C630A5505EF104046A0
:1041F0005285EFB05FF54848EF1000072685EF10B5
:10420000602783A7018963863705EFB07FF32A8A89
:1042100083A70189638D370303A401899304C4FE36
:1042200018405C405CC3184098C340C000C0EF1009
:1042300020407C4CDDD72685829765B72685EF1018
:10424000401AEF10E0405285EFB0FFEF19A0EFB039
:104250009FEFF2406244D2444249B249224A924A14
:10426000056182808280411106C6EFF05FF5F5BFDF
:10427000411106C622C437240020930800021D48BD
:1042800093070030373700201307078481463746ED
:10429000000013066626B7A50000938545EC1305BC
:1042A000847CEF1080471305847CEF106074B2406B
:1042B000224441018280411106C622C426C24AC05E
:1042C0002A843289B6842E868945EF10600A9307C6
:1042D00044011CCC5CC8231E2401A30494000145A6
:1042E000B24022449244024941018280411106C6F3
:1042F00022C426C2AE843284AA850945EF1040113B
:1043000009C9930745011CCD5CC9231E9500A30470
:104310008500B2402244924441018280797106D6E0
:1043200022D426D24AD04ECE52CC2A842EC6EFB00A
:104330003FE1AA898357C401A1E7B247A9CBEF1097
:10434000C048AA842328050213094401034A9400A3
:10435000EF10005A63010A0485476308FA04B24764
:104360006348F0084E85EFB01FDEEF10A01A8858A2
:10437000B250225492540259F249624A45618280F5
:10438000FD17231EF400EFB01FDC0145D5B7EFB0D9
:104390009FDB7955F1BF93874401184C1CC3184C1F
:1043A00098CC1CCC23AA24015DBF5C486308F902A9
:1043B00083C6540303C7170263E9E6009C43630FF7
:1043C000F90003C71702E3FBE6FE13874401D44359
:1043D00098C2D44394CCD8C3DCC851B79387440166
:1043E000184C1CC3184C98CC1CCC23AA240185BFA4
:1043F00013844404700081452285EF10C07C22851F
:10440000EF10806E85B7411106C622C426C22A84E9
:10441000EFB01FD3AA844848930744016300F50214
:104420003115EF10E0572685EFB0FFD1EF10800E69
:104430000145B24022449244410182808357C40125
:104440008507231EF4002685EFB0FFCFD5B74111B5
:1044500006C622C426C24AC0AE843289AA85154542
:10446000EF00107B2A841DC9A30425019307450191
:104470001CCD5CC9231095021395040141810A05E6
:10448000EF00304848CC15C1231104022312040266
:1044900023130402930784025CD41CD42285B24007
:1044A000224492440249410182802285EF00907C9F
:1044B0000144EDB7397106DE22DC26DA4AD84ED641
:1044C00052D456D25AD05ECE62CC66CA2A842E8C82
:1044D00032C6EF10802FAA84EFB09FC6AA89035777
:1044E0002402835704026309F704035744025C4C17
:1044F0000A07BA9723A08701835744028507C2079A
:10450000C1832312F4020357040263E4E700231279
:1045100004028357240285072311F40248485104FA
:10452000630785123115EF10A0474E85EFB0BFC16C
:10453000EF00507E014525A0B247814C89CB130A7C
:104540008402938A4401054B938B4404B9A8EFB0CD
:104550009FBF755529A04E85EFB0FFBE7555F2502F
:104560006254D2544259B259225A925A025BF24BC7
:10457000624CD24C216182805C5423A057015C5470
:104580009CCC2326540323AA4401B2476345F00878
:104590004E85EFB05FBBEF00F077885869F1EFB060
:1045A0003FBAAA89B2476344F008035724028357ED
:1045B0000402E31CF7F223A80402B247C9DF03494F
:1045C00094002685EF10C032E30809FAE31F69FB67
:1045D0001C546308FA0283C6540303C7170263E935
:1045E000E6009C43630FFA0003C71702E3FBE6FEF5
:1045F000D84323205701D84398CC23A25701DCC8C5
:1046000069B75C5423A057015C549CCC2326540307
:1046100023AA44019DBFEFF05FA3AA8C70008145DF
:104620005E85EF10405A5E85EF10004C95B7EFF0B5
:10463000DFA133079541B247E6973385A74063452D
:1046400005002AC6BA8C95B702C6BA8CB9BF4E858A
:10465000EFB07FAF014521B7411106C60146EFF02B
:104660007FE5B24041018280397106DE22DC26DA24
:104670004AD84ED652D456D25AD05ECE62CC66CAF2
:10468000AA842E8C32C6EF1040142A84EFB05FABA0
:10469000AA8983D72402639C0710B247814C89CB37
:1046A000138A4401930A4401054B930B44048DA0E3
:1046B000EFB07FA9795539A04E85EFB0DFA8F95743
:1046C0001CD87955F2506254D2544259B259225AE8
:1046D000925A025BF24B624CD24C216182809C4C1C
:1046E00023A057019C4C1CCC23AC5401232A440129
:1046F000B2476342F0084E85EFB0FFA4EF0090612F
:10470000085869F1EFB0DFA3AA89B2476341F00806
:1047100083D72402C9EF23280402B247D1DF03C99B
:1047200094002285EF10C01CE30B09FAE31269FD27
:10473000DC486308FA028346540303C7170263E99F
:10474000E6009C43630FFA0003C71702E3FBE6FE93
:10475000D84323205701D84318CC23A257015CC863
:1047600041BF9C4C23A057019C4C1CCC23AC540152
:10477000232A4401B5BFEFF05F8DAA8C70008145FC
:104780005E85EF1040445E85EF100036ADB7EFF068
:10479000DF8B33079541B247E6973385A7406345E2
:1047A00005002AC6BA8CADB702C6BA8C95B703D736
:1047B0006402DC4C0A07BA979C432320FC0083D791
:1047C00064028507C207C1832393F40203D704025E
:1047D00063E4E7002393040283D72402FD172391A7
:1047E000F402885493848402630C95003115EF1011
:1047F000201B4E85EFB03F95EF00D0510145D9B554
:104800004E85EFB05F94014575BD411106C6EFB00E
:104810003F931387818683470700850793F7F70F38
:104820002300F700EFB03F92B24041018280411176
:1048300006C6EFB0FF901387818683470700FD17F8
:1048400093F7F70F2300F700EFB0FF8FB24041015D
:104850008280411193780804639F0802296F130F27
:104860000F1C93780801638C08021378E8FF930209
:1048700000029378280063840804634B060293784F
:104880004800930FB002639D0802937F8800B33FF6
:10489000F001960F35A0296F130FCF11D9B7937878
:1048A000180093020003E39608FC93020002D1B7BC
:1048B0003306C040930FD0028148A94E81A8814F92
:1048C00065FE930600032300D1008548468E63D31E
:1048D000F8003E8E3307C74193761801BDE2638826
:1048E0000F10635EE00E1303E7FF854663C5E61015
:1048F0001A87FDA01373F60011828508330E11018B
:104900007A9303430300A30F6EFE69D2E394D6FFAC
:104910003373D6033356D603CDB70507B306E64047
:104920006357D000E37BB7FE2300D701FDB7130721
:10493000F3FF1346F3FF7D86B376C300158F85061C
:104940003695639F0F0813780801631208029306D7
:10495000F7FF6357E0042A9721A005056307E500E8
:10496000E37DB5FE23005500CDBF3A857D57B306E4
:104970001E41AA961306000363CFC801AA86635F8F
:1049800010038DCF46830A8533061501B68739A8F3
:104990000505E306D5FEE37DB5FE2300C500CDBFCA
:1049A0003687F1B785077D166309A600E3FCB7FEDD
:1049B0000348F6FF23800701F5B79A963385E60092
:1049C000930700026348E000368541018280850636
:1049D000E38DA6FEE3FDB6FE2380F600CDBF7D1776
:1049E0006374B5002300F5017D170505A9BF130306
:1049F000F7FF6359E0002A87930E000213061500A3
:104A00001A960DB71A8781B78D4763F9C700937758
:104A100035008DC71307F6FFAA8729A0AA871307B9
:104A2000F6FF01CE05073E978507A38FB7FEE39DEE
:104A3000E7FE8280BA874286DDB7828093F7F50F62
:104A400093968700D58F93960701DD8EBD4763F15E
:104A5000C704930706FFC19BC107AA972A8714C3FF
:104A600054C314C74107232ED7FEE39AE7FE1378F9
:104A7000F600318A61D29307C8FFF19B9107BA977C
:104A80001107232ED7FEE31DF7FE1376380041BF32
:104A90002A873288CDB763E0A502B306C500AA878E
:104AA00011CA850585070387F5FFA38FE7FEE39A03
:104AB000D7FE828082803387C500E370E5FEB307AE
:104AC000C50065DA7D17FD17830607002380D70030
:104AD000E31AF5FE828009CEAA8685059387160023
:104AE0000387F5FFA38FE7FE09C77D16BE8675F61F
:104AF00082801307F6FF6DDF36968507A38F07FECA
:104B0000E31DF6FE82808307050089CBAA8785070F
:104B1000038707006DFF3385A7408280AA87E5BF22
:104B20005D7186C6A2C4A6C2CAC04EDE52DC56DA89
:104B30005AD85ED662D466D26AD06ECEAA8C2E8D3A
:104B4000368CB30AB50063F5AA00134DF5FFFD5A84
:104B500083070600E68963820736930B5002130928
:104B6000B0022967930DC7EC41677D173AC409A8C5
:104B7000850932841306140083071400638F0732FB
:104B800063877701E3F659FF2380F900D5B78144A5
:104B90001307D002930600029305300213050003A9
:104BA00021A093E404012286130416008307160053
:104BB000E389E7FE638B2701638CD700638DB70021
:104BC000639EA70093E41400F9BF93E44400E1BF9F
:104BD00093E48400C9BF93E40402F1B73E8793864F
:104BE00007FDA54563F6D5041307A0027D5A63822D
:104BF000E706030704009307E0027D5B6309F706FD
:104C00008307040013F6B7FF930680060147630C81
:104C1000D60A834704009387B7FD13F6F70F930670
:104C2000300563E8C62093172600EE979C438287E1
:104C3000014AA546050493172A003E9A060A3A9AA5
:104C4000130A0AFD03070400930707FDE3F4F6FEC9
:104C50004DB71304260093074C00032A0C003E8C2A
:104C6000E3590AF8330A404193E4040159B71307A2
:104C7000140083071400BE86938507FD25466379DB
:104C8000B6009306A0026386D7023A84014B8DBF1B
:104C9000014B050793172B00DA978607B697138BFE
:104CA00007FD83060700938706FDE374F6FE3A844A
:104CB00029A00904032B0C00110C9347FBFFFD876F
:104CC000337BFB0035BF13F7F70F050499B7C146D7
:104CD00041AAC1889DC093064C0063F65901832701
:104CE0000C002380F9009387190005476351471D85
:104CF00052864E9A130700020DA89307FAFF6351DC
:104D0000F002CE971307000221A0850963873701BF
:104D1000E3FD59FF2380E900CDBFBE89014A65BF8D
:104D20003E8A55BF850763874701E3FD57FF238010
:104D3000E700CDBFB299368C35BD93074C003EC617
:104D4000032C0C0063010C026285EFF0DFDB63557E
:104D500060016353AB005A85C18899C86350A006AF
:104D6000B387A900A9A0B7A70000138C871BE9BFD0
:104D70009306FAFF63574503D2852A87B307AA40F3
:104D8000CE971306000221A085096387F900E3FD91
:104D900059FF2380C900CDBF330AB740369ABE8978
:104DA00075BF368A65BF8509050C638AF900E3FC87
:104DB00059FF03070C002380E900F5B7CE87635B3A
:104DC000450F3305AA40B389A7001307000221A0AD
:104DD000850763873701E3FD57FF2380E700CDBFD9
:104DE000324C49BBFD576302FA0293074C003EC6A2
:104DF0002688DA875287C14603260C00D6854E8561
:104E0000EFF03FA5AA89324CB5B393E41400214AD0
:104E1000E9BF63F65901930750022380F900850921
:104E200091BB93E40404C14625A893E42400A94659
:104E300005A863F65901930750022380F9001387F0
:104E400019008307040099C763745701A380F90010
:104E500089090DB37D14BA8931BBA94611A0A146B9
:104E60009307C0066302F702930780066302F70206
:104E700003260C00110C2688DA875287D6854E85CA
:104E8000EFF03F9DAA89FDB103260C00110CE5B798
:104E900093074C0003260C0013F7240009E7224770
:104EA000798E3E8CC9BF420641863E8CE9B7368C6E
:104EB000BE89C9B1324CBE8975B963060D0063F570
:104EC00059032380090033859941B640264496440E
:104ED0000649F259625AD25A425BB25B225C925C3A
:104EE000025DF24D61618280A38F0AFEE9BF3971D4
:104EF00006CE22CC2ED232D436D63AD83EDA42DC96
:104F000046DE541036C6373400202A869305F00753
:104F1000130504B4EFF0DFC0130504B4EF1070679D
:104F2000F240624421618280411106C637A500002B
:104F300013050513EFF0BFFB37A500001305C513DC
:104F4000EFF0FFFA37A70000130707168D46054656
:104F50008D4537A500001305C516EFF05FF937A59D
:104F600000001305C518EFF09FF8B24041018280A0
:104F70000DC59377F50F9DE3C167938707F0E98F20
:104F800095E7B707FF00E98F8DEF6181A9679387E8
:104F9000C7013E9503450500650582802967130713
:104FA000C701BA9703C507000505828021851375DF
:104FB000F50FA9679387C7013E95034505002505B1
:104FC000828041851375F50FA9679387C7013E95C8
:104FD000034505004505828003A701875C41BA9718
:104FE0006304F50283D6270085E283A6C186638D1C
:104FF000F60083A64187638BF602D44354C1DC4399
:10500000BA97B306E54094C71445B307D700630EBB
:10501000F50003D6270011EA03A64187630BA6001B
:105020005041D0C35C413E9714C7828023AAA18619
:10503000E9B723AAF186EDB7411106C683A5C1875A
:1050400037A500001305051EEFF07FEA83A5018850
:1050500037A500001305451FEFF07FE983A5818781
:1050600037A5000013058520EFF07FE8B24041012D
:105070008280411106C622C413F7C5FFE14663F9D9
:10508000E60093073500F19B930687FE63FEF6006A
:105090002E86AA8537A500001305C527EFF03FE54A
:1050A000B2402244410182801D8F130687FE23AE49
:1050B000C186138401871CC08966938606EA239003
:1050C000D7005117D8C323A4070023910700BA972C
:1050D00023A6F1862390D70085462391D700D8C315
:1050E00098C781460546B7A5000093854527373503
:1050F0000020130505BCEFF00F9C184023AAE186A1
:1051000045B7630A0512411106C622C426C293049C
:105110003500F19883A7C18763E19712B14763F324
:10512000F400B144FD5537350020130505BCEFF000
:10513000EF9E03A5418783A60187B307D54003A847
:10514000C1873306984063E4C7063735002013054E
:1051500005BCEFF04FAB0145B240224492444101FF
:10516000828085472311F40093870188904332970A
:1051700098C383A7818763F0E70A23ACE18661A81F
:1051800083572500C5C303A7C186630DE5084841C1
:1051900036958357250091C7E31BA7FE23AAA18656
:1051A00051A023AAA186BDA85C40E3F0C7FA3384CE
:1051B000F600035724006DFB58401D8F930547FFF1
:1051C000E3E495FE13868401E3EDC5F81386C4007D
:1051D0003E963387C6008965938505EA2310B7009C
:1051E000231107004C404CC31CC750C085472311F6
:1051F000F4005C43310863840701B69790C71387B6
:1052000001881C43B107BE9404C383A7818763F45C
:10521000970023AC91868967938707EA2310F400EF
:10522000E30085F637350020130505BCEFF0AF9D90
:105230001305C40015B701458280014531BF4111F6
:1052400006C622C426C2B304B5022685EFF07FEB62
:105250002A8409C526868145EFF00FFB2285B240DE
:10526000224492444101828009C983A70187636671
:10527000F50083A7C1866363F5008280411106C6ED
:1052800022C426C22A84930445FFFD5537350020E9
:10529000130505BCEFF08F88835764FF81CB03575C
:1052A00044FF8967938707EA6303F70237A5000085
:1052B00013058522EFF0BFC3835644FF035664FFF6
:1052C000A68537A5000013054524EFF05FC2231B18
:1052D00004FE8967938707EA231AF4FE83A74187B0
:1052E00063F4F40023AA9186138701881C43832664
:1052F00084FF958F83A60187B386D440B6971CC3DD
:105300002685EFF07FCD37350020130505BCEFF083
:105310008F8FB2402244924441018280AA8737078E
:10532000002003274705630CE50237070020032709
:1053300047066302E5023707002003274707630E8D
:10534000E500370700200327470801456303F700FE
:1053500082800D4531A0054521A0094511A00145D8
:105360009317450037050020130545053E95CDB739
:10537000011106CE22CC26CA4AC84EC652C4AA84FF
:10538000AE89328A2E85EFF07FF92A89552483274A
:10539000490013044900638587009C43E39F87FE0F
:1053A000452C93E909F8238434012146D2852685CA
:1053B000EFF06FF2EFA0DFD89387C4000327490016
:1053C0005CC303274900D8C42322F90080C8EFA09A
:1053D0009FD7F2406244D2444249B249224A056111
:1053E0008280411106C622C42A8423040500EFA04E
:1053F0003FD59307C40054441848D8C2544414C33A
:105400001CC85CC4EFA03FD4B2402244410182805A
:10541000011106CE22CC26CA4AC84EC6AA892E89B8
:10542000EFF0DFEFAA844845EFF0BFCD2A841DC915
:10543000D0448145EFF04FDD23043401A304040080
:105440002146CA852285EFF00FE9EFA07FCF9307B1
:10545000C400D8405CC3D84058C4DCC0910404C820
:10546000EFA07FCE2285F2406244D2444249B24945
:1054700005618280411106C622C42A8423040500E6
:10548000EFA01FCC9307C40054441848D8C254441A
:1054900014C31CC85CC4EFA01FCB2285EFF0DFDC77
:1054A000B240224441018280030585007D818280D3
:1054B00023960188B7370020938707BE1387070418
:1054C000DCC39CC3A107E39DE7FE1D472382E1885F
:1054D00023A4018823AC018893870189DCC39CC382
:1054E0008280411106C603A58189EFF07FA87D1552
:1054F0009317350037350020130505BE3E9508414A
:105500001307C5FE23A4E1882105EFA03FC4B240E4
:1055100041018280411106C622C4EFA07FC22A84C5
:105520008397C188B1E303A58189EFF07FA47D153E
:1055300013173500B7370020938707BEBA978C43FF
:105540009387C5FE03A781886300F7022382A188A1
:1055500023A4F18883C7818693F7F70F89CFA1052C
:105560001305C701EF00C0782285EFA0DFBDB24070
:10557000224441018280A1051305C701EF00007696
:105580002285EFA05FBCE5B7411106C622C42A847C
:10559000EFA01FBB83474403C19B93E71700230A77
:1055A000F402834754039306440113973700B73737
:1055B0000020938707BEBA97D84314C3D84318CCAA
:1055C000D4C35CC893878189185C9443558F98C372
:1055D000EFA07FB7B240224441018280411106C64C
:1055E00022C42A84EFA0DFB5930744015448184C25
:1055F000D8C2544814C31CCC5CC8834754031397C7
:105600003700B7370020938707BEBA9798436308DF
:10561000F700EFA05FB3B2402244410182801387BC
:1056200081891C5C93C7F7FF1443F58F1CC3D5B762
:10563000411106C6EFA0DFB09387C18803D70700EA
:1056400005072390E700EFA01FB0B2404101828020
:10565000411106C6EFA0DFAE1387C188835707004C
:10566000FD17C207C1872310F7006357F000EFA0B2
:105670009FADB2404101828023960188EFA0BFAC6C
:1056800083A78188FDD7EFF0FFE8E5B7411106C693
:1056900022C426C203A48188EFA09FAAAA842285DF
:1056A000EFF0DFF39147230AF40213054404C12607
:1056B0002285EFF07FDF85476307F502130744017A
:1056C00083A60189D8C254C823A8E1889387018999
:1056D0001CCC2685EFA03FA7EFF0DFE3B2402244C9
:1056E0009244410182803C58F1FB2285EFF07FCF4C
:1056F000CDB7411106C6795718D91307450150494E
:10570000144D54C2504990C218CD58C9EFF0DFE78C
:10571000EFF05FE0B24041018280011106CE22CC61
:1057200026CA4AC84EC652C456C25AC02A84328BB0
:10573000B68ABA893E8A4289C6842E868545EFF0AC
:105740003FC3930744011CCC5CC82320640323227D
:105750005403232434032326440352869305300242
:105760004E85EFF06FAA5C54F1171054B756000045
:105770009386C6683E964C500850252348CC230B90
:105780002403A30A2403232C040244DC24C023287A
:105790000402230A040223280406232A040681475C
:1057A0000147A286375600001306266FA28513050F
:1057B0004404BD240145F2406244D2444249B24906
:1057C000224A924A024B0561828003A58188828029
:1057D000011106CE22CC26CA4AC84EC652C456C2B1
:1057E000AE8A328AB684BA893E89AA850545EFF029
:1057F0003FC249CD2A842685EFF0BF9059C1930757
:1058000044011CCC5CC8232054032322440308D445
:1058100044D4268693053002EFF00F9F5C54F117B5
:105820001054B75600009386C6683E964C500850F8
:105830008D2948CC230B3403A30A3403232C040200
:10584000232E24032320240523280402230A0402F0
:1058500023280406232A040681470147A2863756D7
:1058600000001306266FA28513054404552A2285DD
:10587000F2406244D2444249B249224A924A056106
:1058800082802285EFF01FBF0144D5B70144C5B720
:10589000411106C6EFA0DF8A83A7818803C74703AB
:1058A0003D8B85466316D700D44B984F6398E6002E
:1058B000EFA07F890145B2404101828013864701F4
:1058C000D8C2D44B14C390CFD0CB83C6570337373D
:1058D00000208E06130707BE3697544390C25443E8
:1058E00094CF50C3D8CBEFA01F86EFF0BFC2D9B77B
:1058F00083474503BD8B05476390E704411106C606
:1059000022C426C22A84EFA0BF83AA84834744030B
:10591000C19B93E72700230AF4022285EFF01FCCF6
:105920001305440485242685EFA0FF810145B2407C
:1059300022449244410182807D558280011106CE2D
:1059400022CC26CA4AC82AC6EFA08FFF2A8903A400
:1059500081882285EFF0DFF99304440470008145CB
:1059600026859524268549224A85EFA0CFFDEFF0B4
:105970007FBA1858F9576309F7000145F2406244AD
:10598000D24442490561828023280402FDB74111B7
:1059900006C6EFE0CFEEEFF07FFAB2404101828021
:1059A00083474503BD8B09476392E704411106C64F
:1059B00022C426C22A84EFA0AFF8AA849307440128
:1059C0005448184CD8C2544814C31CCC5CC81305A6
:1059D00044044D2A2685EFA00FF72285EFF0DFBAA9
:1059E0000145B24022449244410182807D5582802B
:1059F000411106C683466503A30AD502054733173E
:105A0000D70018DD0947230AE502EFF07FF983A7E5
:105A1000818899C3EFF01FB00145B24041018280F7
:105A2000011106CE22CC26CA4AC84EC652C42A84C8
:105A3000328AB6893A89BE842E86A945EFF05F93F3
:105A4000F998A3049400232E440123203403232433
:105A5000040223222403930744011CCC5CC8F240B7
:105A60006244D2444249B249224A056182804111CE
:105A700006C622C42A84EFA0AFEC93074401544821
:105A8000184CD8C2544814C31CCC5CC8EFA0AFEB70
:105A90002285EFF01F950145B240224441018280EA
:105AA000011106CE22CC26CA4AC84EC6AE8932891A
:105AB000B6843A84AA852945EFF09F9519CD799847
:105AC000A3048500232E350123202503232405026A
:105AD00044D1930745011CCD5CC9F2406244D244D5
