:100000006F00D07413000000130000001300000004
:100010001300000013000000130000001300000094
:100020001300000013000000130000001300000084
:08003000130000007300100032
:100038006FF09FFC000000006F00D0316F00903619
:1000480000000000000000000000000000000000A8
:100058000000000000000000000000000000000098
:100068006F50C06D000000006F00000F000000001E
:100078006F00D0356FF05FF86F00503A6F00303B7B
:100088006F00103C6F00F03C6F0060226F0060282A
:100098006F0060306F0060366F00603C6F00903C0E
:1000A8006F0050416F0010466F00F0226F00904AB9
:1000B8006F00504F6F0010546F00205A000000006E
:1000C8000000000000000000000000006F00603F1A
:1000D8006F00A05D6F00A0646F00606B6F00A0747C
:1000E8006F0070016F0010046F00D00A6FF0DFF02E
:1000F8006FF09FF06FF05FF06FF01FF06FF0DFEFC1
:100108006FF09FEF6F50B0066F00D00F6F00B01701
:100118006F0080476FF05FEE6FF01FEE6FF0DFED5E
:1001280000000000000000000000000000000000C7
:080138000000000000000000BF
:1001400073750430828073100530828097520020CE
:10015000938242EB739002340321050095A00100C5
:10016000197106C212C816CA1ACC1ECE22D026D2C7
:100170002AD42ED632D836DA3ADC3EDEC2C0C6C227
:10018000CAC4CEC6D2C8D6CADACCDECEE2D0E6D257
:10019000EAD4EED6F2D8F6DAFADCFEDEF32200304C
:1001A00016C483A2818923A02200F322103416C032
:1001B000EF40C06C83A2C18903A1020011A001001D
:1001C000824273901234A2427390023092404242B3
:1001D000D2426243F243025492542255B2554256DF
:1001E000D2566257F257064896482649B649464ABB
:1001F000D64A664BF64B065C965C265DB65D465E5F
:10020000D65E665FF65F09617300203000003D43F3
:100210002A876373C3029377F700BDEFADE593764A
:1002200006FF3D8ABA960CC34CC30CC74CC74107A6
:10023000E36BD7FE11E28280B306C3408A069702C1
:10024000000096966780A6002307B700A306B700B4
:100250002306B700A305B7002305B700A304B70022
:100260002304B700A303B7002303B700A302B7001A
:100270002302B700A301B7002301B700A300B70012
:100280002300B700828093F5F50F93968500D58DF6
:1002900093960501D58D61B79396270097020000CC
:1002A00096968682E78086FA9680C1171D8F3E96C5
:1002B000E374C3F8A5B7397106DE16DC1ADA1ED866
:1002C0002AD62ED432D236D03ACE3ECC42CA46C8F6
:1002D00072C676C47AC27EC0EF30C0100545EF000A
:1002E000905E85476307F502EF300012F250E2524C
:1002F0005253C2533255A255125682567247E247A4
:100300005248C248324EA24E124F824F21617300B2
:1003100020300545EF00F05CC1BF397106DE16DC08
:100320001ADA1ED82AD62ED432D236D03ACE3ECCC5
:1003300042CA46C872C676C47AC27EC0EF30800A0E
:100340000945EF00505885476307F502EF30C00BB1
:10035000F250E2525253C2533255A25512568256AF
:100360007247E2475248C248324EA24E124F824F65
:10037000216173002030B707002083A7470B09478E
:100380006389E70005476389E7000945EF00705579
:1003900075BFEF107046D5BFEF105037FDB73971FC
:1003A00006DE16DC1ADA1ED82AD62ED432D236D081
:1003B0003ACE3ECC42CA46C872C676C47AC27EC025
:1003C000EF3040021145EF00105085476307F502FA
:1003D000EF308003F250E2525253C2533255A255CD
:1003E000125682567247E2475248C248324EA24ED7
:1003F000124F824F2161730020301145EF00704E83
:10040000C1BF397106DE16DC1ADA1ED82AD62ED400
:1004100032D236D03ACE3ECC42CA46C872C676C434
:100420007AC27EC0EF20107C2145EF00D04985477D
:100430006307F502EF20507DF250E2525253C2534F
:100440003255A255125682567247E2475248C24868
:10045000324EA24E124F824F21617300203021454F
:10046000EF003048C1BF397106DE16DC1ADA1ED83B
:100470002AD62ED432D236D03ACE3ECC42CA46C844
:1004800072C676C47AC27EC0EF20D0754145EF00B7
:10049000904385476307F502EF201077F250E25250
:1004A0005253C2533255A255125682567247E247F2
:1004B0005248C248324EA24E124F824F2161730001
:1004C00020304145EF00F041C1BF397106DE16DC36
:1004D0001ADA1ED82AD62ED432D236D03ACE3ECC14
:1004E00042CA46C872C676C47AC27EC0EF20906FF8
:1004F00013050020EF00303D85476303F504130525
:100500000010EF00503C85476305F5061305000811
:10051000EF00703B85476303F50613050004EF0009
:10052000903A85476301F50613050002EF00B039E4
:100530008547631BF50013050002EF00903A29A0E0
:1005400013050020EF00F039EF20106CF250E2525A
:100550005253C2533255A255125682567247E24741
:100560005248C248324EA24E124F824F2161730050
:10057000203013050010EF00D036F9B7130500083E
:10058000EF003036D1B713050004EF0090356DBF92
:10059000397106DE16DC1ADA1ED82AD62ED432D2EB
:1005A00036D03ACE3ECC42CA46C872C676C47AC26B
:1005B0007EC0EF2030632165EF00F030854763088F
:1005C000F5041165EF0030308547630AF5060965CB
:1005D000EF00702F85476308F5060565EF00B02E24
:1005E00085476306F506056513050580EF00B02D08
:1005F00085476302F50613050040EF00D02C8547C0
:10060000631AF50013050040EF00B02D21A021650D
:10061000EF00302DEF20505FF250E2525253C253A0
:100620003255A255125682567247E2475248C24886
:10063000324EA24E124F824F21617300203011655D
:10064000EF00302AC1BF0965EF00B029E1B70565A9
:10065000EF003029C1B7056513050580EF0070284C
:1006600055BF397106DE16DC1ADA1ED82AD62ED40A
:1006700032D236D03ACE3ECC42CA46C872C676C4D2
:100680007AC27EC0EF201056EF201058F250E2528E
:100690005253C2533255A255125682567247E24700
:1006A0005248C248324EA24E124F824F216173000F
:1006B0002030397106DE16DC1ADA1ED82AD62ED47E
:1006C00032D236D03ACE3ECC42CA46C872C676C482
:1006D0007AC27EC0EF2010519305000837350140E3
:1006E000130505C0EF10A01E15E5EF20F051F250E4
:1006F000E2525253C2533255A25512568256724795
:10070000E2475248C248324EA24E124F824F2161F8
:10071000730020309305000837350140130505C0EC
:10072000EF10A01CD9B7397106DE16DC1ADA1ED814
:100730002AD62ED432D236D03ACE3ECC42CA46C881
:1007400072C676C47AC27EC0EF20D049854537355F
:100750000140130505C0EF10801715E5EF20D04AC2
:10076000F250E2525253C2533255A255125682569B
:100770007247E2475248C248324EA24E124F824F51
:10078000216173002030854537350140130505C0D0
:10079000EF10A015E1B7397106DE16DC1ADA1ED8A3
:1007A0002AD62ED432D236D03ACE3ECC42CA46C811
:1007B00072C676C47AC27EC0EF20D0429305000490
:1007C00037350140130505C0EF1060101DED93058E
:1007D000000237350140130505C0EF10400F1DED35
:1007E000EF209042F250E2525253C2533255A2557A
:1007F000125682567247E2475248C248324EA24EC3
:10080000124F824F21617300203093050004373569
:100810000140130505C0EF10400D55BF93050002C0
:1008200037350140130505C0EF10200C55BF397155
:1008300006DE16DC1ADA1ED82AD62ED432D236D0EC
:100840003ACE3ECC42CA46C872C676C47AC27EC090
:10085000EF205039894537350140130505C0EF10A9
:10086000000731ED914537350140130505C0EF1004
:10087000000631EDA14537350140130505C0EF10E5
:10088000000531EDC14537350140130505C0EF10B6
:10089000000431EDEF205037F250E2525253C25370
:1008A0003255A255125682567247E2475248C24804
:1008B000324EA24E124F824F216173002030894583
:1008C00037350140130505C0EF10200261BF914587
:1008D00037350140130505C0EF10200161BFA14568
:1008E00037350140130505C0EF10200061BFC14539
:1008F00037350140130505C0EF00307F61BF41115E
:1009000006C6EF20302E854537050040EF00307CCD
:1009100011E5EF20702FB2404101828085453705F7
:100920000040EF00907CEF102062E5B7397106DEE1
:1009300016DC1ADA1ED82AD62ED432D236D03ACEC7
:100940003ECC42CA46C872C676C47AC27EC0EF2088
:10095000702985453705004013050540EF003077C5
:1009600015E5EF20702AF250E2525253C25332552D
:10097000A255125682567247E2475248C248324E3A
:10098000A24E124F824F21617300203085453705FA
:10099000004013050540EF005075E1B7397106DEE0
:1009A00016DC1ADA1ED82AD62ED432D236D03ACE57
:1009B0003ECC42CA46C872C676C47AC27EC0EF2018
:1009C000702285453715004013050580EF00307013
:1009D00015E5EF207023F250E2525253C2533255C4
:1009E000A255125682567247E2475248C248324ECA
:1009F000A24E124F824F216173002030854537157A
:100A0000004013050580EF00506EE1B7397106DE36
:100A100016DC1ADA1ED82AD62ED432D236D03ACEE6
:100A20003ECC42CA46C872C676C47AC27EC0EF20A7
:100A3000701B930550523745004013050540EF10D9
:100A4000400219C9B707002083A7470B0947638AEB
:100A5000E7020547638AE702EF20101BF250E252DB
:100A60005253C2533255A255125682567247E2472C
:100A70005248C248324EA24E124F824F216173003B
:100A80002030EF10E051C9BFEF10C042F1B739710B
:100A900006DE16DC1ADA1ED82AD62ED432D236D08A
:100AA0003ACE3ECC42CA46C872C676C47AC27EC02E
:100AB000EF205013EF205015F250E2525253C25320
:100AC0003255A255125682567247E2475248C248E2
:100AD000324EA24E124F824F216173002030397185
:100AE00006DE16DC1ADA1ED82AD62ED432D236D03A
:100AF0003ACE3ECC42CA46C872C676C47AC27EC0DE
:100B0000EF20500E0965592385476307F502EF2052
:100B1000B00FF250E2525253C2533255A255125600
:100B200082567247E2475248C248324EA24E124F96
:100B3000824F21617300203009658D2BB70700209B
:100B400083A7470B09476388E7000547E391E7FC64
:100B5000EF10203D6DBFEF10804B55BF397106DEA1
:100B600016DC1ADA1ED82AD62ED432D236D03ACE95
:100B70003ECC42CA46C872C676C47AC27EC0EF2056
:100B80007006EF207008F250E2525253C2533255B1
:100B9000A255125682567247E2475248C248324E18
:100BA000A24E124F824F216173002030397106DE50
:100BB00016DC1ADA1ED82AD62ED432D236D03ACE45
:100BC0003ECC42CA46C872C676C47AC27EC0EF2006
:100BD000700101A0397106DE16DC1ADA1ED82AD699
:100BE0002ED432D236D03ACE3ECC42CA46C872C695
:100BF00076C47AC27EC0EF20E07EEF20F000F25093
:100C0000E2525253C2533255A2551256825672477F
:100C1000E2475248C248324EA24E124F824F2161E3
:100C200073002030411106C6EF20C07BEF20C07D4D
:100C3000B24041018280411106C6EF20A07AEF2028
:100C4000A07CB24041018280411106C6EF2080792C
:100C5000EF20807BB24041018280411106C6EF2027
:100C60006078EF20607AB24041018280397106DEFF
:100C700016DC1ADA1ED82AD62ED432D236D03ACE84
:100C80003ECC42CA46C872C676C47AC27EC0EF2045
:100C90006075EF206077F250E2525253C2533255E2
:100CA000A255125682567247E2475248C248324E07
:100CB000A24E124F824F216173002030397106DE3F
:100CC00016DC1ADA1ED82AD62ED432D236D03ACE34
:100CD0003ECC42CA46C872C676C47AC27EC0EF20F5
:100CE0006070EF206072F250E2525253C25332559C
:100CF000A255125682567247E2475248C248324EB7
:100D0000A24E124F824F216173002030397106DEEE
:100D100016DC1ADA1ED82AD62ED432D236D03ACEE3
:100D20003ECC42CA46C872C676C47AC27EC0EF20A4
:100D3000606BEF20606DF250E2525253C253325555
:100D4000A255125682567247E2475248C248324E66
:100D5000A24E124F824F216173002030397106DE9E
:100D600016DC1ADA1ED82AD62ED432D236D03ACE93
:100D70003ECC42CA46C872C676C47AC27EC0EF2054
:100D80006066EF206068F250E2525253C25332550F
:100D9000A255125682567247E2475248C248324E16
:100DA000A24E124F824F216173002030397106DE4E
:100DB00016DC1ADA1ED82AD62ED432D236D03ACE43
:100DC0003ECC42CA46C872C676C47AC27EC0EF2004
:100DD0006061EF206063F250E2525253C2533255C9
:100DE000A255125682567247E2475248C248324EC6
:100DF000A24E124F824F216173002030397106DEFE
:100E000016DC1ADA1ED82AD62ED432D236D03ACEF2
:100E10003ECC42CA46C872C676C47AC27EC0EF20B3
:100E2000605CEF20605EF250E2525253C253325582
:100E3000A255125682567247E2475248C248324E75
:100E4000A24E124F824F216173002030411106C61D
:100E500022C426C2EF00905AEF405057EF40706016
:100E600041657D15EF009054377600001306460A61
:100E70009305300413058007EF00107FB77400005E
:100E80000564130484BB1386040B81450145EF0000
:100E9000B07D85451305A004EF10002F9305007D5C
:100EA00013050030EF10300385451305B004EF1033
:100EB000A02D9305007D13051030EF10D00185455E
:100EC0001305C002EF10402C9305007D1305203060
:100ED000EF10700085452145EF10002B9305007D34
:100EE00013053030EF10207F1305007D8145EF1092
:100EF000903081451305A004EF100029A285130549
:100F00000030EF10407D81451305B004EF10C0277D
:100F1000A28513051030EF10007C81451305C00237
:100F2000EF108026A28513052030EF10C07A81458E
:100F30002145EF106025A28513053030EF10A07910
:100F40001305007D8145EF10102B35BF9701002060
:100F500093814196174100201301C10A17750000C3
:100F60001305451697F5FF1F9385C50913868183E1
:100F700063FAC5008322050023A0550011059105E1
:100F8000E3EAC5FE13858183971500209385C51577
:100F90006377B500232005001105E36DB5FE9302CC
:100FA000800873A0023097F2FFFF9382220993E238
:100FB000120073905230EF40B02301458145EF108D
:100FC000705D97220000938222DD739012347300CB
:100FD0002030A54763F7B7048328C500138865FF51
:100FE0001317180042979D47B397E70093C7F7FF81
:100FF000B3F71701B396E600DD8E54C5994763E356
:10100000C70458597D16931726003E96FD47B3979F
:10101000C70093C7F7FFF98F3396C5005D8E50D98F
:10102000828003280501139715002E979D47B397DB
:10103000E70093C7F7FFB3F70701B396E600DD8E2D
:1010400014C96DBFB14763E3C7021459130796FF74
:10105000131627003A96FD47B397C70093C7F7FFCB
:10106000F58F3396C5005D8E10D9828054554D168C
:10107000131726003A96FD47B397C70093C7F7FFAB
:10108000F58FB395C500DD8D4CD582809317350063
:1010900063DA0700B707024083A707407D8D333529
:1010A000A0008280B70702409C43CDBF9317350054
:1010B00063D70700B707024023A2A7408280B70783
:1010C0000240C8C3828037070140832707400327B7
:1010D0004741698F09C77D8D3335A0008280014566
:1010E0008280B707014023AAA74082809C4593F8DD
:1010F000F700C18B81C7DC41B3E8F80083C7050066
:10110000A9CB10418147054E3D4F930E8002930FAE
:101110008004214329A054C98507638B6702B31655
:10112000FE0003D70500758FE398E6FE13972700AE
:101130003318EF001348F8FF3376C8003397E80000
:10114000598E9845E309D7FDE318F7FD14C9E9B7AF
:1011500010C103D705009307F00F63FDE70450416A
:10116000A147054EBD4F130F8002930E80044143EB
:1011700031A054C915A88507638D6702B316FE0018
:1011800003D70500758FE398E6FE13972700011734
:101190003398EF001348F8FF3376C8003397E80020
:1011A000598E9845E307E7FD9845E316D7FD14C926
:1011B000D9B750C1828019C20CC982804CC98280C3
:1011C0002A8663400504B7070140DC4393160501F6
:1011D000C182370730003378E5006308E80213174F
:1011E000B500635C0704135705011378F7000D473A
:1011F000331707011347F7FF7D8FB707000FD98F0C
:101200000DA0B7070140DC4FD1B7370700F17D17BC
:10121000F98FB708014003A848003377E80023A2FC
:10122000E80091C5558112053395A600C98F634228
:101230000602370701405CC382801357550112072D
:101240003397E6001347F7FF7D8FB707000FD98F5D
:10125000C9BF370701405CCF8280B7E700E0BC47D9
:10126000898B95CF8346050083472500920793F726
:10127000F70F37E700E036972300F7405C41B5C72A
:1012800003470500935757008546B396E6009387BA
:1012900007048A0737E700E0BA9794C38280B7E76C
:1012A00000E0BC47898BF9FB034715008547630FB6
:1012B000F7008346050083472500920793F7F70F51
:1012C00037E700E036972300F7404DBF834605001F
:1012D00083472500920793E707F893F7F70F37E75F
:1012E00000E036972300F74051BF034705009357AE
:1012F00057008546B396E600938707068A0737E7C7
:1013000000E0BA9794C38280B7170240DC43B18BE8
:1013100011476384E70821476387E70899C7B71730
:101320007A00938707201CC131A0B7177A009387F2
:1013300007201CC1371602405C429183BD8B3707E2
:10134000002013070700BA9783C607001C41B3D7D4
:10135000D7005CC15442A1829D8ABA9683C606001A
:10136000B3D6D70014C55442AD829D8A3697034741
:101370000700B3D7E7005CC558423983937637003E
:10138000370700201307070B36970347070013772B
:10139000F70FB3D7E7021CC98280B7177A0093878B
:1013A00007201CC141BF371702405C435843C98323
:1013B000BD8B89079316F70063CA060037173D00F7
:1013C00013070790B387E7021CC1ADB73717024078
:1013D00058439316E70063DA060037173D001307FA
:1013E0000790B387E7021CC1B1B737177A0013071C
:1013F0000720B387E7021CC135BF99C537170240E4
:101400001C4F5D8D08CF8280B7170240984F13455F
:10141000F5FF798D88CF828099C5371702405C4FE0
:101420005D8D48CF8280B7170240D84F1345F5FF36
:10143000798DC8CF8280035705008D679387070495
:101440007D8F83D7050083D62500D58F83D64500B1
:10145000D58F83D66500D58F83D68500D58F83D66B
:10146000A500D58F83D6C500D58F83D6E500D58F4F
:10147000D98F2310F5000357C501FD779387F77FB8
:10148000F98F231EF50083D705012318F50082800C
:1014900081C98357050093E707042310F500828074
:1014A00083570500C207C18393F7F7FBC207C183C7
:1014B0002310F500828083570500C207C1833737A8
:1014C0000140130707C06300E504370700406307C6
:1014D000E506130707406303E506371700401307C7
:1014E0000780630DE50493F7F7CF03D76500D98F25
:1014F0002310F50083D745002316F50283D7050096
:101500002314F50285A093F7F7F803D72500D98FA8
:1015100093F7F7CF03D76500D98F2310F50083D752
:1015200045002316F50283D705002314F50203C7EF
:101530008500B73701402398E7C22DA093F7F7F84D
:1015400003D72500D98F93F7F7CF03D76500D98F3D
:101550002310F50083D745002316F50283D7050035
:101560002314F5028547231AF5008280835705026C
:10157000C207C183F99BC207C1832310F5028357B9
:101580000502C207C18383564500C206C1820357C4
:101590008501420741831377C7F803D60500518FB1
:1015A000F59B03D6850003D8250033660601D18F4D
:1015B00037360140130606C0630DC5002312D5005F
:1015C000231CE50003D76500231AE5022310F5026A
:1015D0008280DD9B03D6A500D18FED9B03D645000D
:1015E000D18F93F6F6CF03D6C50003D8E500336656
:1015F0000601D18EE1B783570502C207C183BD9BA7
:10160000C207C1832310F50283570502C207C183B5
:1016100003564500420641828356850165771307CC
:10162000F7CF758F83D60500A206558F42074183F9
:1016300093F7F7FD03D8850083D62500B3E60601AE
:101640009206D58FC207C183B7360140938606C084
:10165000630DD5002312C500231CE50003D76500E8
:10166000231CE5022310F502828093F7F7F783D657
:10167000A5009206D58FC207C18393F7F7FB83D6E7
:1016800045009206D58FC207C183FD769386F63F4B
:10169000758E03D8C50083D6E500B3E606018A0639
:1016A000558E420641827DB783570502C207C1832A
:1016B00093F7F7EFC207C1832310F50283570502A2
:1016C000C207C18303564500420641820357C50144
:1016D000420741831377C7F883D60500558F93F7E8
:1016E000F7DF03D8850083D62500B3E60601A206FE
:1016F000D58FC207C183B7360140938606C0630DFC
:10170000D5002312C500231EE50003D76500231E64
:10171000E5022310F5028280FD769386F67FF58F31
:1017200083D6A500A206D58FC207C18393F7F7BF62
:1017300083D64500A206D58FC207C183F576FD1674
:10174000758E03D8C50083D6E500B3E60601920680
:10175000558E4206418275B703570502FD77FD1786
:10176000F98F2310F502035805020356450042067F
:1017700041828357C50165771307F7CF7D8F83D6E5
:101780000500A206558F42074183F977FD17B3F78D
:10179000070103D8850083D62500B3E60601B2060B
:1017A000D58FC207C183B7360140938606C0630D4B
:1017B000D5002312C500231EE50003D765002310C2
:1017C000E5042310F5028280F176FD16758E83D62E
:1017D000C5009A06558E42064182E1BF81C98357F2
:1017E000050093E717002310F5008280835705005A
:1017F000C207C183F99BC207C1832310F500828011
:1018000081C9835745042167D98F2312F50482804B
:1018100083574504C607C5832312F5048280835786
:101820008501C207C183DD9BDD8D231CB50082804D
:1018300003578501FD779387F77FF98FA205CD8F39
:10184000C207C183231CF50082808357C501C207EC
:10185000C183DD9BDD8D231EB50082800357C5014A
:10186000FD779387F77FF98FA205CD8FC207C183DC
:10187000231EF500828083578501C207C183ED9B3B
:10188000DD8D231CB500828083578501C207C1838B
:1018900093F7F7BFA205CD8FC207C183231CF500C4
:1018A00082808357C501C207C183ED9BDD8D231E56
:1018B000B50082808357C501C207C18393F7F7BF84
:1018C000A205CD8FC207C183231EF50082808357F6
:1018D00005010355C50042054181ED8F89C76D8D16
:1018E0003335A00082800145828093C5F5FFC20593
:1018F000C1812318B5008280797106D622D426D200
:101900002A84AE8403570501F577FD17F98F03D7B5
:101910006500D98F2318F5000357C500FD7793871D
:10192000379FF98F03D74500D98F03D78500D98F0B
:1019300003D7A500D98F2316F50083574501C207A9
:10194000C18393F7F7CF03D7C500D98F231AF500CA
:101950006800EFF07F9BB7470140938707806301E2
:10196000F40652478357C400C207C18763CC0704FB
:1019700093171700BA978E07BA9798400A07B3D7FC
:10198000E70213074006B3D6E7029206B3F7E70271
:101990000357C400420741876340070492079387B7
:1019A000270313074006B3D7E702BD8BD58FC207C5
:1019B000C1832314F400B2502254925445618280B2
:1019C00062474DB793171700BA978E07BA9798409A
:1019D0000607B3D7E70275B7139737001307270336
:1019E000930740063357F7021D8BB367D700C1B783
:1019F00081C98357C5000967D98F2316F5008280F6
:101A00000357C500F977FD17F98F2316F50082807B
:101A100093F7F50F95830547B315B700638CE7007F
:101A2000894613074501638AD70019CA1C43DD8D17
:101A30000CC382801307C500CDBF13070501F5B79E
:101A40001C4393C5F5FFFD8D0CC3828093F5F51FF4
:101A50002312B5008280035505006D8D3335A0003B
:101A6000828093F7F50F958385463397B600638898
:101A7000D70289466389D702835745017D8F035575
:101A8000050093170501C183014509CBA1810545D7
:101A9000B315B50033F5B7003335A0008280835706
:101AA000C5007D8FE9BF835705017D8FC9BF011137
:101AB00006CE22CC26CAA307A1009D6703A4876B8C
:101AC000A16444C891675CC8854601469305F1004E
:101AD0000145EF00B06E04C8F2406244D244056193
:101AE0008280011106CE22CC26CAA307A1009D67E1
:101AF00003A4876BA16444C891671CC8854601464E
:101B00009305F1000145EF00706B04C8F240624498
:101B1000D24405618280011106CE22CC26CA9D677F
:101B200003A4876BA16444C8935785002306F10082
:101B3000A306A10091671CC8894601466C000145B7
:101B4000EF00D06704C8F2406244D244056182804D
:101B5000011106CE22CC26CA4AC84EC6AA89AE8436
:101B6000328936841305A00299371385890242050C
:101B7000418155371305890242054181693F1305AB
:101B8000B002353713854403420541816937130597
:101B900044034205418141371305C002093FF24029
:101BA0006244D2444249B24905618280011106CEA5
:101BB00022CC26CA4AC84EC6AA84930660081306D9
:101BC000F00E8145014569371309000F930970082C
:101BD00039A07D19420913590901630A09004E848D
:101BE0002685153F7D14420441807DF8DDB7F24023
:101BF0006244D2444249B24905618280411106C61D
:101C000022C426C2014881471307F004930630021C
:101C1000054681450145EF00D04A9306003105464F
:101C20008545130500088129930600310146854545
:101C30001305E0048921930600310146854513050B
:101C4000D00415299D6703A4876B896444C81305D4
:101C5000800C8145EF00305A04C8130540068145C9
:101C6000EF0070591305600399351305400681454F
:101C7000EF0070581305000AAD351305A003053DAC
:101C8000154585351305200B1D353145993D3145E9
:101C9000893D0145B93513053003A13513053003DE
:101CA00089351305700B2135130550031D3D1305B0
:101CB000B00BF53B130570032D351305000CC53B28
:101CC0001305C002393D1305200CD5330545113DE0
:101CD0001305300CE93B494529351305400CC13B40
:101CE00013050002FD3B1305600CD1333D45D53B88
:101CF0001305000D6D3B1305400AE5331305100A6B
:101D0000CD331305000E65331305000DD93B114586
:101D1000C93B3545F9334545E9334D45D9331305BD
:101D2000B002C1331305F0036D3B13054005553B6D
:101D30001305C0047D3361456D3335455D332D4555
:101D40004D337D45793B13053002613B1305100E81
:101D5000B93B1305000D71331145613331455133E2
:101D6000454541334D45B53B1305C0029D3B130529
:101D7000F003853B13054004AD331305100595337F
:101D80001305F002B93B7D45A93B7D45993B130501
:101D90000002813B13053002A93313051002013BF9
:101DA00045453133130580078145EF00D0441305C5
:101DB0009002F53941657D15D53BB24022449244ED
:101DC00041018280797106D622D426D24AD04ECEE5
:101DD00052CC56CA5AC85EC662C466C22A8C120663
:101DE000930A06E09D679387070C3389FA00930AEC
:101DF0000901B3852541939B050193DB0B01130B6F
:101E00007500420B135B0B01A14CC169138AF9FFEA
:101E1000938909800DA05285FD3985807D14137446
:101E2000F40F19C493F71400FDD74E85ED31F5B7C3
:101E30000509630E5901B3852B01C205C181AE8628
:101E40005A8662853133834409006684E1BFB2500B
:101E5000225492540259F249624AD24A424BB24B3E
:101E6000224C924C45618280011106CE22CC26CABA
:101E70004AC84EC6B2890306060015C62A849205D2
:101E800013990501135909018144CA8522851D3F13
:101E90008504C204C180B38799000386070021042A
:101EA000420441807DF2F2406244D2444249B24948
:101EB00005618280411106C622C4138431848345A2
:101EC000040093870184BE950545EF005054834775
:101ED0000400850793F7F70F2300F4000547638E8E
:101EE000E7000D476397E700A3810184054723823C
:101EF000E184B24022444101828003C701849307F8
:101F0000500AE308F7FEA3810184E5B7B707024052
:101F100009671307874BB8C7F84313671700F8C35F
:101F20008280411106C60547238EE182B706024032
:101F3000FC4241677917F98FFCC203A58183EF103A
:101F4000200AB24041018280011106CE22CC26CA6D
:101F50004AC84EC69D6783A4876B114798C8A1479E
:101F6000DCC8D8C89CC898C8DCC81384818E930983
:101F70000410114923AA2401814529456520231015
:101F8000A40023A824010904E31634FF0547A38213
:101F9000E184F2406244D2444249B2490561828000
:101FA000411106C622C41384C1848345040093876B
:101FB0008184BE950545EF00904583470400850761
:101FC00093F7F70F2300F4000547638EE7000D47F2
:101FD0006397E700238601840547A385E184B24027
:101FE00022444101828003C781849307500AE30899
:101FF000F7FE23860184E5B7B7070240056713079C
:102000000796B8C7F84313671700F8C382800547DF
:102010002383E184B7060240FC4241677917F98FB8
:10202000FCC28280411106C622C426C2AE8481460B
:1020300005469375F50F3724014013050440EFE082
:102040005FF98327844037075000D98F2324F44059
:102050003727014083270740898BEDDFB7270140F1
:1020600003A5C7443355950042054181B24022443F
:10207000924441018280130700086306E5107971DC
:1020800006D622D426D24AD04ECE52CC93575500F3
:1020900013F977001374F501368AB289AE848DCBBB
:1020A00005476389E7060947638BE7060D47638D9C
:1020B000E70611476380E70815476383E708194778
:1020C000639CE700854513050010EFF00FB329A0CE
:1020D00085451145EFF06FB2854733948700420480
:1020E0004180231281006383F4069376FA0F36C68B
:1020F000131729009D679387076BBA974C00884395
:10210000EFE0DFFEB250225492540259F249624A83
:102110004561828085452145EFF02FAE75BF85452D
:102120004145EFF08FAD4DBF854513050002EFF03F
:10213000CFAC5DB7854513050004EFF00FAC69BF68
:10214000854513050008EFF04FAB79B793170A01E7
:10215000C183A1839DE78D473EC49376FA0F36C6AF
:10216000131729009D669386066B369704434C002F
:102170002685EFE0BFF74E86A2852685EFF0AF8378
:1021800051B73EC4D9BF8280935755009D8B7D893E
:102190000547638DE5008A071D671307076BBA972C
:1021A000984385473395A70048CB82808A071D67EF
:1021B0001307076BBA97984385473395A70008CB59
:1021C0008280135735009376C7011D671307076B8D
:1021D00036971C43984785473395A700798D33354B
:1021E000A0008280B7E700E07D5723A0E71823A274
:1021F000E7188280011106CE2304A100A304B100D8
:102200002305C10036C62800EFF02F8537E600E031
:102210001842FD76F98E03A7819E558F23A4E19E77
:1022200058429387819E12071183D443558FD8C398
:1022300003C7870085476305F700F2400561828088
:102240005537E5BF411106C693070020630AF51C08
:1022500063F0A70493073021630FF52063E5A70E11
:1022600093073020630EF51C63FFA70A9307102124
:102270006301F51E63E8A71E930700216315F5129D
:10228000930680310146854513056004ED3321AA8C
:1022900093071010630CF51263FAA702930700115D
:1022A0006306F51463F2A706930720116301F51680
:1022B0006366F514930730116317F50E93068031AA
:1022C000014685451305B0027D33F1A88947630FA8
:1022D000F50C63F0A7028D476302F50E930700101B
:1022E0006313F50C93068031014685450145613342
:1022F0005DA85DC185476318F50A930680310146E4
:10230000854525458D3B45A0930720106308F50CB6
:10231000930730106319F50893068031014685450F
:102320000D45913B49A0930710206303F5109307D7
:102330002020631AF5069306803101468545130572
:102340000002153B8DA0930700306308F51463F479
:10235000A702930720306304F5166369F514930709
:1023600030306312F504930680310146854513052C
:10237000900211330DA8930700226307F51093070D
:1023800010226312F502930680310146854513053C
:102390005002EFF05FCE01A89306803101468545DB
:1023A0002145EFF05FCDB24041018280930680313C
:1023B000014685452945EFF01FCCF5B793068031DE
:1023C000014685452D45EFF01FCBF1BF93068031C7
:1023D000014685450545EFF01FCAF1B793068031E8
:1023E000014685450945EFF01FC975BF9306803149
:1023F000014685453D45EFF01FC875B7930680310E
:102400000146854513053002EFF0FFC669BF93060C
:102410008031014685451305A002EFF0DFC561B7A5
:1024200093068031014685451945EFF0DFC4A5BF0D
:1024300093068031014685451D45EFF0DFC3A5B702
:10244000930680310146854513051002EFF0BFC2A7
:1024500099BF930680310146854513057004EFF05E
:102460009FC191B7930680310146854513058004CD
:10247000EFF07FC00DBF93068031014685451305FF
:102480009004EFF05FBF05B79306803101468545A4
:1024900013054002EFF03FBE39B793068031014685
:1024A000854513056002EFF01FBDF5BD9306803131
:1024B0000146854513057002EFF0FFBBEDB59306AD
:1024C00080310146854513058002EFF0DFBAE1BD9A
:1024D000397106DE22DC26DA4AD84ED6AA84AE89C5
:1024E0003289EFF03FD613D4840075C08547630767
:1024F000F40E8947630CF4108D47630FF412854581
:102500000545EFE09FEFB7170240DC43C983BD8B61
:1025100037177A0013070720B387E7023727F4003D
:1025200013070740BA9723A8F18433D737034183B1
:1025300093051700B3853503B3D7B7029386F7FF2A
:10254000231CD100231AE100231D0100231B0100DD
:10255000230E0100130700072312E1000547231390
:10256000E10023140100C207C183B3872703096771
:1025700013070771B3D7E7022315F1008947231624
:10258000F1002317F10023180100231901000A04A8
:102590009D679387076C3E9400404C082285EFE0CE
:1025A0009FF18D88F9C08547638CF40E8947638756
:1025B000F4104C002285EFF02F9AA1452285EFF010
:1025C000EFA9930500402285EFF0CFAE5DA88545C9
:1025D000056513050580EFE05FE215B78545054504
:1025E000EFE09FE385450545EFE03FE193D74400E9
:1025F00041476388E7044547E397E7F0854537059A
:10260000180013050530EFE0BFBBF5BD8545094552
:10261000EFE09FE085450545EFE03FDE93D74400BE
:10262000130710026397E702854537151A00130553
:1026300005C0EFE0FFB8C1BD85451145EFE0DFDD26
:102640007DBD85453705160013050504EFE05FB72E
:102650005DBD13072002E398E7EA854537151A00A8
:1026600013050580EFE0DFB579BD4C002285EFE072
:10267000FFEFA1452285EFF08F9A91452285EFF07B
:102680008F9F85452285EFF06F9585452285EFF078
:102690002F97F2506254D2544259B259216182802C
:1026A0004C002285EFE03FF5A1452285EFF04F98E1
:1026B000930500402285EFF02F9DE1B74C00228565
:1026C000EFE09FFEA1452285EFF02F9891452285EE
:1026D000EFF02F9D7DB713578500931727009D6658
:1026E0009386066CB6979C4383D7C702B385F502E1
:1026F000896793870771B3D5F50201EF0D89B75745
:1027000000109387D7B03E950A05C205C1810CC160
:10271000828085476309F70089476300F7028D4788
:102720006308F70282800D89B7070010B5073E9550
:102730000A05C205C1810CC182800D89B70700104E
:102740009387D7103E950A05C205C1810CC18280CE
:102750000D89B70700109387D7203E950A05C2055B
:10276000C1810CC1C1B7411106C622C426C24AC0EC
:10277000AE84328436892DCDC1476303F5089307B3
:1027800000026318F5089306803105468545130558
:10279000D002EFF05F8E8547638CF408C5476381F4
:1027A000F40A930710026396F40A930680310546F3
:1027B00085451305F002EFF01F8C8947630AF40A80
:1027C000C947630FF40A930720026304F40C9307CC
:1027D00030026319F40C93060031054685454A859D
:1027E000EFF07F89B2402244924402494101828045
:1027F00093068031054685451545EFF0DF8761BFBB
:10280000930680310546854513053002EFF0BF86FB
:1028100059B7B77600009386066E1D661306066DDF
:102820009305D002377500001305456EEF30C04B9D
:1028300093068031054685451D45EFF0DF83B5BF22
:10284000930680310546854513055002EFF0BF829F
:10285000ADB7B77600009386066E1D661306066D4B
:1028600093052003377500001305456EEF30C04710
:1028700093068031054685451945EFF0CFFFA1BF8E
:10288000930680310546854513054002EFF0AFFE03
:1028900099B793068031054685451305E002EFF0B0
:1028A0008FFD15BFB77600009386066E1D66130672
:1028B000066D93058003377500001305456EEF30F4
:1028C000A042397106DE22DC26DA4AD84ED652D42E
:1028D00056D25AD02A84AE89328AB68A3A8BBE84BE
:1028E000428941C585476308F508DA865686D28550
:1028F0004E85953D23160100930740102317F100E4
:102900002318010085476383F40893978401E187C6
:10291000ADCB89476382F4088D476385F40893073C
:102920000020231BF1000E09231C2101231D01009F
:102930009D47231EF1000A04138501812295004161
:102940006C002285EFE03FAFC1476384F9068545FF
:102950002285EFE0FFB3F2506254D2544259B2598B
:10296000225A925A025B21618280854505650505E0
:10297000EFE0BFA89DBF854511650505EFE0DFA924
:10298000ADB723190100231A010051BF231901001B
:102990008547231AF10061B789472319F100231AEB
:1029A0000100B5BF89472319F1008547231AF100BB
:1029B000BDB785450545EFE0BF8051BFAE96938713
:1029C00001810A053E956387B60218418357870047
:1029D000898BEDDF850583C7F5FF2316F70065D6E4
:1029E00083578700858BEDDF8357C7002300F600F0
:1029F0000506D1BF8280411106C6EF10B033B24048
:102A000041018280411106C60DE585476385F500C9
:102A1000B2404101828093068031014685452545BB
:102A2000EFF06FE59146014681452945EFF0AFE4AF
:102A3000C5B789476309F502C1476306F5049307E3
:102A400000026310F50693068031014685451305A3
:102A5000A002EFF04FE29146014681451305B00216
:102A6000EFF06FE175B79306803101468545130598
:102A70006002EFF04FE09146014681451305700278
:102A8000EFF06FDF71B79306803101468545094548
:102A9000EFF06FDE9146014681450D45EFF0AFDD69
:102AA00085BF93072002E315F5F6930680310146B2
:102AB00085451305A004EFF00FDC914601468145E2
:102AC0001305B004EFF02FDBA1B7797106D622D43D
:102AD00026D24AD04ECE2A84AE89B2843689854524
:102AE0000545EFE09F91CA852685293F8947638187
:102AF000F402930720026390F40293073002631CF0
:102B0000F9008545370514004105EFE06FEB21A082
:102B10008D47630AF90429CC85476300F406894789
:102B20006303F4064EC02312010023130100231493
:102B3000010023160100B1472315F1000A049D6727
:102B4000938707713E9400408A852285EFE0DFDAA3
:102B500085452285EFE0DFE9B250225492540259B4
:102B6000F2494561828085451145EFE06FE565B723
:102B700085451165EFE07F8875B78545370502000B
:102B8000EFE09F8945B7854537050400EFE0DF8812
:102B900051BF0A059D6793870771AA97984383578A
:102BA000070093F70708E5DFC205C1812312B700CC
:102BB0008280411106C622C426C22A84AE8413171D
:102BC00025009D6793870771BA9705469305505274
:102BD0008843EFE0FFE3A6860146854513055403CD
:102BE000EFF04FE1B24022449244410182800A0555
:102BF0009D6793870771AA9798438357070093F7B8
:102C00000702E5DF835747002380F50082800A052D
:102C10009D6793870771AA9798438357070093F797
:102C2000070299E301458280835747002380F5001E
:102C30000545828003A541858280411106C69387A0
:102C400041859843050798C3EF10C0723C41FD17BA
:102C50003CC191C7EF109035B240410182805C5D6C
:102C60003CC1EF10807DFDB7634205029307803EB3
:102C70003347F5023307F7023365F5023305F502F2
:102C80001305753E3345F5023A9582807D55828065
:102C90000145828001458280014582800145828014
:102CA00021671307C702A16793870703637CF702B5
:102CB000411106C622C426C221649304C402A1673E
:102CC0009387F702858FF19B9107BE941304C4028A
:102CD0001C4082971104E31D94FEB24022449244AA
:102CE000410182808280216713070703A1679387D0
:102CF0008703637CF702411106C622C426C2216401
:102D000093040403A16793877703858FF19B910751
:102D1000BE94130404031C4082971104E31D94FE27
:102D2000B24022449244410182808280411106C611
:102D30005D3FEFE0AF91B24041018280411106C694
:102D4000D1470947930600400146B73500009385F7
:102D5000C5D23775000013050572EF100062EF1041
:102D60009003B24041018280411106C6EFD04FBDB1
:102D7000EF203029EF00B058EF10502CEF10202F2B
:102D8000753FEF10502CF120EF1040310145B2405B
:102D900041018280411106C6C13F0145B240410157
:102DA000828003A7018893870188630FF7080111C8
:102DB00006CE22CC26CA4AC84EC652C456C29389F1
:102DC0000188854A2DA02685EF10E029630A550564
:102DD000EF10A0425285EFD00FB74848EF10200502
:102DE0002685EF10002583A7018863863705EFD07D
:102DF0002FB52A8A83A70188638D370303A401882E
:102E00009304C4FE18405C405CC3184098C340C0A3
:102E100000C0EF10803C7C4CDDD72685829765B7DB
:102E20002685EF10E017EF10403D5285EFD0AFB18F
:102E300019A0EFD04FB1F2406244D2444249B249A6
:102E4000224A924A056182808280411106C6913FE2
:102E5000FDBF411106C622C4930800021D48930716
:102E600000301387C1A68146373600001306A6E45A
:102E7000B7750000938585721385419FEF108044DC
:102E80001385419FEF102071B2402244410182809E
:102E9000411106C622C426C24AC02A843289B68499
:102EA0002E868945EF10A008930744011CCC5CC80E
:102EB000231E2401A30494000145B24022449244FD
:102EC000024941018280411106C622C426C2AE8455
:102ED0003284AA850945EF10800F09C9930745017F
:102EE0001CCD5CC9231E9500A3048500B24022447A
:102EF000924441018280797106D622D426D24AD0EA
:102F00004ECE52CC2A842EC6EFD08FA3AA898357E7
:102F1000C401A1E7B247A9CBEF10C045AA8423287A
:102F2000050213094401034A9400EF10C0566301DF
:102F30000A0485476308FA04B2476348F0084E85DF
:102F4000EFD06FA0EF1060188858B25022549254FE
:102F50000259F249624A45618280FD17231EF4003E
:102F6000EFD06F9E0145D5B7EFD0EF9D7955F1BFFA
:102F700093874401184C1CC3184C98CC1CCC23AA32
:102F800024015DBF5C486308F90283C6540303C78C
:102F9000170263E9E6009C43630FF90003C71702B9
:102FA000E3FBE6FE13874401D44398C2D44394CC98
:102FB000D8C3DCC851B793874401184C1CC3184CC4
:102FC00098CC1CCC23AA240185BF13844404700030
:102FD00081452285EF1080792285EF10406B85B7FF
:102FE000411106C622C426C22A84EFD06F95AA8456
:102FF0004848930744016300F5023115EF10A054CF
:103000002685EFD04F94EF10400C0145B24022448A
:103010009244410182808357C4018507231EF40036
:103020002685EFD04F92D5B7411106C622C426C2DD
:103030004AC0AE843289AA851545EF0050792A84AA
:103040001DC9A3042501930745011CCD5CC92310AC
:1030500095021395040141810A05EF00B04748CC61
:1030600015C123110402231204022313040293073F
:1030700084025CD41CD42285B2402244924402498A
:10308000410182802285EF00D07A0144EDB7397189
:1030900006DE22DC26DA4AD84ED652D456D25AD090
:1030A0005ECE62CC66CA2A842E8C32C6EF10802C8B
:1030B000AA84EFD0EF88AA89035724028357040219
:1030C0006309F704035744025C4C0A07BA9723A02C
:1030D0008701835744028507C207C1832312F40284
:1030E0000357040263E4E700231204028357240217
:1030F00085072311F40248485104630785123115EE
:10310000EF1060444E85EFD00F84EF00107C014536
:1031100025A0B247814C89CB130A8402938A4401CB
:10312000054B938B4404B9A8EFD0EF81755529A0C6
:103130004E85EFD04F817555F2506254D2544259AA
:10314000B259225A925A025BF24B624CD24C216124
:1031500082805C5423A057015C549CCC23265403EA
:1031600023AA4401B2476345F0084E85EFC0BFFD76
:10317000EF00B075885869F1EFC09FFCAA89B2478B
:103180006344F0080357240283570402E31CF7F258
:1031900023A80402B247C9DF034994002685EF1033
:1031A000802FE30809FAE31F69FB1C546308FA0245
:1031B00083C6540303C7170263E9E6009C43630F09
:1031C000FA0003C71702E3FBE6FED84323205701AA
:1031D000D84398CC23A25701DCC869B75C5423A01C
:1031E00057015C549CCC2326540323AA44019DBF61
:1031F000EFF05FA4AA8C700081455E85EF10005748
:103200005E85EF10C04895B7EFF0DFA23307954118
:10321000B247E6973385A740634505002AC6BA8CB6
:1032200095B702C6BA8CB9BF4E85EFC0DFF1014534
:1032300021B7411106C60146EFF07FE5B2404101DA
:103240008280397106DE22DC26DA4AD84ED652D484
:1032500056D25AD05ECE62CC66CAAA842E8C32C6B2
:10326000EF1040112A84EFC0BFEDAA8983D7240252
:10327000639C0710B247814C89CB138A4401930A9F
:103280004401054B930B44048DA0EFC0DFEB79554F
:1032900039A04E85EFC03FEBF9571CD87955F25055
:1032A0006254D2544259B259225A925A025BF24B9A
:1032B000624CD24C216182809C4C23A057019C4CD3
:1032C0001CCC23AC5401232A4401B2476342F008CA
:1032D0004E85EFC05FE7EF00505F085869F1EFC01F
:1032E0003FE6AA89B2476341F00883D72402C9EFB9
:1032F00023280402B247D1DF03C994002285EF10CE
:103300008019E30B09FAE31269FDDC486308FA024D
:103310008346540303C7170263E9E6009C43630F27
:10332000FA0003C71702E3FBE6FED8432320570148
:10333000D84318CC23A257015CC841BF9C4C23A0A2
:1033400057019C4C1CCC23AC5401232A4401B5BF2B
:10335000EFF05F8EAA8C700081455E85EF10004112
:103360005E85EF10C032ADB7EFF0DF8C33079541CB
:10337000B247E6973385A740634505002AC6BA8C55
:10338000ADB702C6BA8C95B703D76402DC4C0A0706
:10339000BA979C432320FC0083D764028507C207A9
:1033A000C1832393F40203D7040263E4E700239369
:1033B000040283D72402FD172391F40288549384D6
:1033C0008402630C95003115EF10E0174E85EFC0B5
:1033D0009FD7EF00904F0145D9B54E85EFC0BFD6BE
:1033E000014575BD411106C6EFC09FD51387818584
:1033F00083470700850793F7F70F2300F700EFC017
:103400009FD4B24041018280411106C6EFC05FD314
:103410001387818583470700FD1793F7F70F230074
:10342000F700EFC05FD2B240410182804111937832
:103430000804639F0802216F130F4FA293780801BD
:10344000638C08021378E8FF930200029378280047
:1034500063840804634B060293784800930FB0021C
:10346000639D0802937F8800B33FF001960F35A05B
:10347000216F130F0F98D9B79378180093020003A8
:10348000E39608FC93020002D1B73306C040930FC5
:10349000D0028148A94E81A8814F65FE93060003A2
:1034A0002300D1008548468E63D3F8003E8E330753
:1034B000C74193761801BDE263880F10635EE00E8A
:1034C0001303E7FF854663C5E6101A87FDA0137353
:1034D000F60011828508330E11017A93034303002D
:1034E000A30F6EFE69D2E394D6FF3373D60333562F
:1034F000D603CDB70507B306E6406357D000E37B9C
:10350000B7FE2300D701FDB71307F3FF1346F3FF00
:103510007D86B376C300158F85063695639F0F08A9
:1035200013780801631208029306F7FF6357E0045B
:103530002A9721A005056307E500E37DB5FE23007A
:103540005500CDBF3A857D57B3061E41AA96130696
:10355000000363CFC801AA86635F10038DCF468343
:103560000A8533061501B68739A80505E306D5FE99
:10357000E37DB5FE2300C500CDBF3687F1B78507D3
:103580007D166309A600E3FCB7FE0348F6FF23801F
:103590000701F5B79A963385E60093070002634862
:1035A000E0003685410182808506E38DA6FEE3FDBD
:1035B000B6FE2380F600CDBF7D176374B5002300EF
:1035C000F5017D170505A9BF1303F7FF6359E00057
:1035D0002A87930E0002130615001A960DB71A8754
:1035E00081B78D4763F9C700937735008DC71307FF
:1035F000F6FFAA8729A0AA871307F6FF01CE0507C1
:103600003E978507A38FB7FEE39DE7FE8280BA87CA
:103610004286DDB7828093F7F50F93968700D58FAA
:1036200093960701DD8EBD4763F1C704930706FF3C
:10363000C19BC107AA972A8714C354C314C7410763
:10364000232ED7FEE39AE7FE1378F600318A61D283
:103650009307C8FFF19B9107BA971107232ED7FE56
:10366000E31DF7FE1376380041BF2A873288CDB7B5
:1036700063E0A502B306C500AA8711CA85058507C0
:103680000387F5FFA38FE7FEE39AD7FE828082804F
:103690003387C500E370E5FEB307C50065DA7D1723
:1036A000FD17830607002380D700E31AF5FE82800A
:1036B00009CEAA868505938716000387F5FFA38F99
:1036C000E7FE09C77D16BE8675F682801307F6FFF2
:1036D0006DDF36968507A38F07FEE31DF6FE828019
:1036E0008307050089CBAA878507038707006DFF3D
:1036F0003385A7408280AA87E5BF5D7186C6A2C4D4
:10370000A6C2CAC04EDE52DC56DA5AD85ED662D4A1
:1037100066D26AD06ECEAA8C2E8D368CB30AB500D6
:1037200063F5AA00134DF5FFFD5A83070600E689ED
:1037300063820736930B50021309B0021D67930D85
:10374000077341677D173AC409A8850932841306B7
:10375000140083071400638F073263877701E3F651
:1037600059FF2380F900D5B781441307D00293068F
:103770000002930530021305000321A093E4040125
:1037800022861304160083071600E389E7FE638B85
:103790002701638CD700638DB700639EA70093E475
:1037A0001400F9BF93E44400E1BF93E48400C9BF6F
:1037B00093E40402F1B73E87938607FDA54563F6BF
:1037C000D5041307A0027D5A6382E70603070400AD
:1037D0009307E0027D5B6309F7068307040013F695
:1037E000B7FF930680060147630CD60A834704009F
:1037F0009387B7FD13F6F70F9306300563E8C620ED
:1038000093172600EE979C438287014AA54605043C
:1038100093172A003E9A060A3A9A130A0AFD0307EA
:103820000400930707FDE3F4F6FE4DB713042600EA
:1038300093074C00032A0C003E8CE3590AF8330A24
:10384000404193E4040159B713071400830714009F
:10385000BE86938507FD25466379B6009306A002D0
:103860006386D7023A84014B8DBF014B050793173E
:103870002B00DA978607B697138B07FD83060700A0
:10388000938706FDE374F6FE3A8429A00904032B0E
:103890000C00110C9347FBFFFD87337BFB0035BF0A
:1038A00013F7F70F050499B7C14641AAC1889DC017
:1038B00093064C0063F6590183270C002380F9001E
:1038C0009387190005476351471D52864E9A130787
:1038D00000020DA89307FAFF6351F002CE97130779
:1038E000000221A0850963873701E3FD59FF23808A
:1038F000E900CDBFBE89014A65BF3E8A55BF850735
:1039000063874701E3FD57FF2380E700CDBFB299EE
:10391000368C35BD93074C003EC6032C0C0063016A
:103920000C026285EFF0DFDB635560016353AB008F
:103930005A85C18899C86350A006B387A900A9A079
:10394000B7870000138CC7A1E9BF9306FAFF63573E
:103950004503D2852A87B307AA40CE9713060002F3
:1039600021A085096387F900E3FD59FF2380C90081
:10397000CDBF330AB740369ABE8975BF368A65BF58
:103980008509050C638AF900E3FC59FF03070C0065
:103990002380E900F5B7CE87635B450F3305AA4066
:1039A000B389A7001307000221A0850763873701A9
:1039B000E3FD57FF2380E700CDBF324C49BBFD57E5
:1039C0006302FA0293074C003EC62688DA875287C4
:1039D000C14603260C00D6854E85EFF03FA5AA8987
:1039E000324CB5B393E41400214AE9BF63F65901A0
:1039F000930750022380F900850991BB93E40404E6
:103A0000C14625A893E42400A94605A863F65901F8
:103A1000930750022380F9001387190083070400DD
:103A200099C763745701A380F90089090DB37D1408
:103A3000BA8931BBA94611A0A1469307C00663020B
:103A4000F702930780066302F70203260C00110CAD
:103A50002688DA875287D6854E85EFF03F9DAA8962
:103A6000FDB103260C00110CE5B793074C000326AB
:103A70000C0013F7240009E72247798E3E8CC9BF5A
:103A8000420641863E8CE9B7368CBE89C9B1324CBC
:103A9000BE8975B963060D0063F5590323800900DB
:103AA00033859941B640264496440649F259625AF4
:103AB000D25A425BB25B225C925C025DF24D616164
:103AC0008280A38F0AFEE9BF397106CE22CC2ED2A6
:103AD00032D436D63AD83EDA42DC46DE541036C608
:103AE0002A869305F0071385C1D6EFF01FC1138511
:103AF000C1D6EF10B062F240624421618280411170
:103B000006C63785000013054599EFF0FFFB3785A2
:103B100000001305059AEFF03FFB378700001307FD
:103B2000479C8D4605468D45378500001305059D4C
:103B3000EFF09FF9378500001305059FEFF0DFF8E0
:103B4000B240410182800DC59377F50F9DE3C167B7
:103B5000938707F0E98F95E7B707FF00E98F8DEFAF
:103B60006181A167938707883E9503450500650538
:103B70008280216713070788BA9703C507000505E8
:103B8000828021851375F50FA167938707883E957D
:103B9000034505002505828041851375F50FA16752
:103BA000938707883E95034505004505828003A756
:103BB00001865C41BA976304F50283D6270085E24B
:103BC00083A6C185638DF60083A64186638BF602CA
:103BD000D44354C1DC43BA97B306E54094C71445B7
:103BE000B307D700630EF50003D6270011EA03A63A
:103BF0004186630BA6005041D0C35C413E9714C779
:103C0000828023A2A186E9B723A2F186EDB74111F4
:103C100006C683A5C18637850000130545A4EFF0CD
:103C2000BFEA83A5018737850000130585A5EFF05E
:103C3000BFE983A58186378500001305C5A6EFF08F
:103C4000BFE8B24041018280411106C622C413F789
:103C5000C5FFE14663F9E60093073500F19B930643
:103C600087FE63FEF6002E86AA85378500001305C1
:103C700005AEEFF07FE5B2402244410182801D8F06
:103C8000130687FE23A6C186138401861CC089669D
:103C9000938606EA2390D7005117D8C323A40700C0
:103CA00023910700BA9723AEF1842390D70085466D
:103CB0002391D700D8C398C781460546B785000031
:103CC000938585AD1385C1DEEFF08F9C184023A24C
:103CD000E18655B763040512411106C622C426C207
:103CE00093043500F19883A7C18663EB9710B14721
:103CF00063F3F400B144FD551385C1DEEFF0AF9FCF
:103D000003A5418683A60186B307D54003A8C186D3
:103D10003306984063E2C7061385C1DEEFF04FAC6F
:103D20000145B240224492444101828085472311DB
:103D3000F400938701879043329798C383A78186C5
:103D400063F0E70A23A4E18661A883572500C5C371
:103D500003A7C185630DE5084841369583572500C3
:103D600091C7E31BA7FE23A2A18651A023A2A1868F
:103D7000BDA85C40E3F2C7FA3384F6000357240081
:103D80006DFB58401D8F930547FFE3E495FE1386B6
:103D90008401E3EDC5F81386C4003E963387C60060
:103DA0008965938505EA2310B700231107004C406D
:103DB0004CC31CC750C085472311F4005C43310835
:103DC00063840701B69790C7138701871C43B10727
:103DD000BE9404C383A7818663F4970023A49186CD
:103DE0008967938707EA2310F400E30085F61385BB
:103DF000C1DEEFF0EF9E1305C40025B701458280B8
:103E0000014505B7411106C622C426C2B304B50256
:103E10002685EFF03FEC2A8409C526868145EFF020
:103E20004FFC2285B240224492444101828009C95C
:103E300083A701866366F50083A7C1856363F500E8
:103E40008280411106C622C426C22A84930445FFFB
:103E5000FD551385C1DEEFF00F8A835764FF81CBD8
:103E6000035744FF8967938707EA6303F70237859F
:103E700000001305C5A8EFF03FC5835644FF035665
:103E800064FFA68537850000130585AAEFF0DFC320
:103E9000231B04FE8967938707EA231AF4FE83A78E
:103EA000418663F4F40023A29186138701871C43A3
:103EB000832684FF958F83A60186B386D440B69768
:103EC0001CC32685EFF0BFCE1385C1DEEFF04F9106
:103ED000B2402244924441018280AA8737070020E1
:103EE00003270701630CE5023707002003270702B9
:103EF0006302E5023707002003270703630EE5008E
:103F0000370700200327070401456303F700828079
:103F10000D4531A0054521A0094511A00145931784
:103F2000450037050020130505013E95CDB7011169
:103F300006CE22CC26CA4AC84EC652C4AA84AE892E
:103F4000328A2E85EFF07FF92A89412C8327490098
:103F500013044900638587009C43E39F87FE712C0F
:103F600093E909F8238434012146D2852685EFF0B0
:103F70002FF4EFC0EF9C9387C400032749005CC374
:103F800003274900D8C42322F90080C8EFC0AF9BA3
:103F9000F2406244D2444249B249224A05618280D9
:103FA000411106C622C42A8423040500EFC04F999C
:103FB0009307C40054441848D8C2544414C31CC8BE
:103FC0005CC4EFC04F98B24022444101828001118D
:103FD00006CE22CC26CA4AC84EC6AA892E89EFF040
:103FE000DFEFAA844845EFF0FFCE2A841DC9D044F4
:103FF0008145EFF00FDF23043401A30404002146C0
:10400000CA852285EFF0CFEAEFC08F939307C400F3
:10401000D8405CC3D84058C4DCC0910404C8EFC089
:104020008F922285F2406244D2444249B2490561EE
:104030008280411106C622C42A8423040500EFC0F1
:104040002F909307C40054441848D8C2544414C352
:104050001CC85CC4EFC02F8F2285EFF05FDDB2403B
:10406000224441018280030585007D818280239E58
:1040700001869387C1E013870704DCC39CC3A107B3
:10408000E39DE7FE1D47238AE18623AC018623A436
:10409000018893870188DCC39CC38280411106C6D6
:1040A00003A58188EFF03FAA7D159317350013858E
:1040B000C1E03E9508411307C5FE23ACE18621050A
:1040C000EFC0CF88B24041018280411106C622C4B0
:1040D000EFC00F872A848397C187A1E303A5818856
:1040E000EFF07FA67D15131735009387C1E0BA97CF
:1040F0008C439387C5FE03A781876300F702238A59
:10410000A18623ACF18683C7818593F7F70F89CF0A
:10411000A1051305C701EF0000782285EFC0AF822B
:10412000B240224441018280A1051305C701EF007E
:1041300040752285EFC02F81E5B7411106C622C424
:104140002A84EFB0FFFF83474403C19B93E7170026
:10415000230AF4028347540393064401139737005C
:104160009387C1E0BA97D84314C3D84318CCD4C3BB
:104170005CC893878188185C9443558F98C3EFB0CF
:104180009FFCB240224441018280411106C622C4F4
:104190002A84EFB0FFFA930744015448184CD8C260
:1041A000544814C31CCC5CC883475403139737008E
:1041B0009387C1E0BA9798436308F700EFB0BFF860
:1041C000B240224441018280138781881C5C93C7DE
:1041D000F7FF1443F58F1CC3D5B7411106C6EFB0E6
:1041E0003FF69387C18703D7070005072390E700B1
:1041F000EFB07FF5B24041018280411106C6EFB0B9
:104200003FF41387C18783570700FD17C207C18793
:104210002310F7006357F000EFB0FFF2B240410106
:104220008280239E0186EFB01FF283A78187FDD78E
:10423000EFF0BFE9E5B7411106C622C426C203A4C8
:104240008187EFB0FFEFAA842285EFF01FF491473A
:10425000230AF40213054404752E2285EFF0BFE013
:1042600085476307F5021307440183A60188D8C276
:1042700054C823A0E188938701881CCC2685EFB021
:104280009FECEFF09FE4B2402244924441018280CF
:104290003C58F1FB2285EFF0BFD0CDB7411106C6E7
:1042A000795718D9130745015049144D54C2504944
:1042B00090C218CD58C9EFF05FE8EFF01FE1B240AF
:1042C00041018280011106CE22CC26CA4AC84EC6C0
:1042D00052C456C25AC02A84328BB68ABA893E8AE0
:1042E0004289C6842E868545EFF07FC4930744013A
:1042F0001CCC5CC8232064032322540323243403EE
:10430000232644035286930530024E85EFF06FADAD
:104310005C54F1171054B7460000938666233E960E
:104320004C500850152348CC230B2403A30A240324
:10433000232C040244DC24C023280402230A0402A0
:1043400023280406232A040681470147A28637460C
:1043500000001306C629A28513054404AD240145B7
:10436000F2406244D2444249B249224A924A024B44
:104370000561828003A581878280011106CE22CC4F
:1043800026CA4AC84EC652C456C2AE8A328AB684BB
:10439000BA893E89AA850545EFF07FC349CD2A84B5
:1043A0002685EFF03F9359C1930744011CCC5CC8AC
:1043B000232054032322440308D444D4268693059F
:1043C0003002EFF00FA25C54F1171054B746000012
:1043D000938666233E964C500850BD2148CC230B53
:1043E0003403A30A3403232C0402232E24032320A2
:1043F000240523280402230A040223280406232A6E
:10440000040681470147A286374600001306C629E5
:10441000A28513054404452A2285F2406244D24411
:104420004249B249224A924A056182802285EFF0D0
:104430005FC00144D5B70144C5B7411106C6EFB00E
:104440003FD083A7818703C747033D8B854663160B
:10445000D700D44B984F6398E600EFB0DFCE01450C
:10446000B2404101828013864701D8C2D44B14C3A5
:1044700090CFD0CB83C657038E061387C1E0369703
:10448000544390C2544394CF50C3D8CBEFB0BFCB6A
:10449000EFF0BFC3E9B783474503BD8B0547639082
:1044A000E704411106C622C426C22A84EFB05FC9C0
:1044B000AA8483474403C19B93E72700230AF4029D
:1044C0002285EFF09FCC1305440485242685EFB0A8
:1044D0009FC70145B24022449244410182807D55EC
:1044E0008280011106CE22CC26CA4AC82AC6EFB065
:1044F0003FC52A8903A481872285EFF0DFF9930461
:1045000044047000814526859524268549224A85E4
:10451000EFB07FC3EFF07FBB1858F9576309F7007E
:104520000145F2406244D244424905618280232819
:104530000402FDB7411106C6EFE00FF3EFF07FFA7A
:10454000B2404101828083474503BD8B0947639296
:10455000E704411106C622C426C22A84EFB05FBE1A
:10456000AA84930744015448184CD8C2544814C331
:104570001CCC5CC8130544044D2A2685EFB0BFBC93
:104580002285EFF09FBB0145B24022449244410195
:1045900082807D558280411106C683466503A30A49
:1045A000D50205473317D70018DD0947230AE5026E
:1045B000EFF07FF983A7818799C3EFF01FB1014521
:1045C000B24041018280011106CE22CC26CA4AC8DF
:1045D0004EC652C42A84328AB6893A89BE842E864F
:1045E000A945EFF0DF94F998A3049400232E440129
:1045F00023203403232404022322240393074401A9
:104600001CCC5CC8F2406244D2444249B249224ABE
:1046100005618280411106C622C42A84EFB05FB2D0
:10462000930744015448184CD8C2544814C31CCCB6
:104630005CC8EFB05FB12285EFF09F960145B240B4
:10464000224441018280011106CE22CC26CA4AC8EA
:104650004EC6AE893289B6843A84AA852945EFF0E0
:104660001F9719CD7998A3048500232E35012320A7
:1046700025032324050244D1930745011CCD5CC9C1
:10468000F2406244D2444249B249056182804111FC
:1046900006C622C426C22A84EFB09FAA930444010E
:1046A00058481C4C5CC3584898C304CC44C8834742
:1046B0009400F99BA304F400EFB0FFA8EFE08FD7BC
:1046C0005C503E9508D4EFB0BFA793870189CC43D7
:1046D00013870189370800801348E8FF11A0368747
:1046E000638CE5001443DC4A1054E38AC7FE918FC3
:1046F0006374F8003687EDB79387C18894438506C5
:1047000094C31C43C4C31C435CC804C318CC834774
:10471000940093E71700A304F400EFB0DFA2014573
:10472000B240224492444101828083479500858BA8
:1047300099E37D558280411106C622C42A84EFB0D8
:104740003FA0930744015448184CD8C2544814C39E
:104750001CCC5CC8EFB03F9F83479400F99BA30437
:10476000F4000145B24022444101828085476385BF
:10477000F50263DFB70089476384F5028D47639FC5
:10478000F5008347950093E72700A304F50039A0BF
:1047900091E51C425CD119A05C511CC2014582808C
:1047A00083479500F59BA304F500CDBF011106CE0C
:1047B00022CC26CA4AC84EC652C456C2EFE08FC7A2
:1047C0002A8AEFB0FF97AA8993840189B7070080EE
:1047D00013C9E7FF8D4A8040631E94004E85EFB0F9
:1047E0009F96F2406244D2444249B249224A924AD8
:1047F000056182805C48330AFA40E36149FF184052
:104800005C405CC3184098C340C000C01C4448448E
:104810008297EFE02FC22A8A834754FF13F73700AD
:1048200063065701F99BA30AF4FE75B7F99BA30A27
:10483000F4FE1305C4FEEFF09FE571BF9387018975
:10484000DCC39CC3828082802A881106719A13057A
:1048500006F8AA8737C7ADDE1307F7EE98C39107AE
:10486000E31EF6FE2322D6F82324B6FA232006F907
:10487000A167938707882324F6F8828023A0018A02
:10488000828023ACA18823AEB188B7E700E011672E
:1048900023A0E720828083A7018A99E323ACA18823
:1048A00023AEB188054723A0E18AB7E700E011678E
:1048B00023A0E7208280411106C63785000013053A
:1048C000C5BAEFF06FA00145B240410182800111ED
:1048D00006CE22CC26CA4AC84EC6004163088502CD
:1048E000AA8437890000B789000001A8138589E5EB
:1048F000EFF08F9D0040638B84009305C4FE130589
:1049000049E5EFF06F9C1C40E39297FEF240624451
:10491000D2444249B24905618280411106C6EFF096
:104920000F9E0145B24041018280011106CE22CC8A
:1049300026CA4AC84EC623A80500DC45BDC383C7A6
:104940008500B5C32E892A8483A9050039CDEFB02F
:104950002FFF8347C4FF93F7F7F70347890063915D
:10496000E7028327490081440040638F8900850462
:10497000910723AE87FE0327C900E31797FE31A0F6
:10498000EFB06FFC014431A00144EFB0CFFB23280E
:1049900099002285F2406244D2444249B2490561FD
:1049A00082800144FDB70144EDB7EFB06FF94E844A
:1049B0004DBF517186D7A2D5A6D3CAD1CECFD2CD05
:1049C000D6CBDAC9DEC7E2C5E6C3EAC16EDF05456C
:1049D000EFF0AFD011052ACF85472302F10AFC186A
:1049E0003ED1A1473ED502D737860000130646CBFD
:1049F000A145378500001305C5CBEFF0EF8C2144AE
:104A0000B7840000138504D0EFF00F8C7D147DF87F
:104A100037850000130545D0EFF00F8B814AB78B27
:104A20000000378B0000B78D0000D5A8130A44FFA3
:104A300013068007D2854800EF1000314E85EFB095
:104A40008FF003479402D2862146A14513854BD4AB
:104A5000EFF08F8783478402BD8B05476382E708A9
:104A600009476384E708D9C71147638AE7080D47F8
:104A7000638CE7084C4C03C7050093073002631CA6
:104A8000F708AE8613073002850683C70600E38D5C
:104A9000E7FE1050B295B386D54093074006B38623
:104AA000F60208485C505858B3D6C602898D1305E3
:104AB000CBD8EFF06F8185041109BA5763DFF40496
:104AC00003240900EFB0CFE7AA898347C4FF93F717
:104AD000F7F70347410AE38BE7F4EFB0CFE6E1BF16
:104AE00013850CD5EFE05FFE71B71305CDD5EFE070
:104AF000BFFD49B713058CD6EFE01FFDA5BF138599
:104B00004DD7EFE07FFCBDB7B7870000138507D80E
:104B1000EFE09FFB85B7AE86ADBF63840A026C09E8
:104B20005685EFF09FE0AA8ABA57E358F0FE1309C2
:104B3000C1078144378C0000378D0000B78C00001E
:104B400041B70145BE502E549E540E59FE496E4A3F
:104B5000DE4A4E4BBE4B2E4C9E4C0E4DFA5D6D61A7
:104B60008280011106CE22CC26CA4AC84EC652C443
:104B700037850000130505BCEFE01FF503A4418A4B
:104B800083A7818A637AF402B7890000378A00001C
:104B900031A0210483A7818A6370F402044009468E
:104BA000938549BD2685EF10901265D5A68513051E
:104BB0008ABDEFE07FF1F1BF0145F2406244D2448B
:104BC0004249B249224A056182801D7186CEA2CC3B
:104BD000A6CACAC8CEC6D2C4D6C2DAC02945EFF02A
:104BE000CFAF11052AD6A947230AF1027C003ED88F
:104BF000A1473EDC02DE37860000130646DBA145F6
:104C0000378500001305C5DBEFE01FEC2144B784B6
:104C10000000138504D0EFE03FEB7D147DF837856D
:104C20000000130545DEEFE03FEA014AB7890000C6
:104C3000378B0000B78A000085A0EFB0CFD0850485
:104C40001109F25763D8F40403240900EFB04FCFE1
:104C50008347C4FF93F7F7F703474103E39FE7FC5C
:104C6000EFB06FCE5C4C184C930644FF2146A14533
:104C7000138589E0EFE05FE58347D4FF858B91C71B
:104C800013850AE2EFE05FE45DBF1305CBE2EFE0DE
:104C9000BFE375B7630E0A006C105285EFF0FFC8D2
:104CA0002A8AF257E358F0FE1309C100814469BF14
:104CB000EFD05FF8AA85378500001305C5E3EFE064
:104CC000BFE00145F6406644D6444649B649264A07
:104CD000964A064B25618280597186D6A2D4A6D207
:104CE000CAD0CECED2CCD6CADAC8DEC61545EFF0D1
:104CF000CF9E11052AD69547230AF1027C003ED8A3
:104D0000A1473EDC02DE378600001306C6BDA14582
:104D100037850000130545BEEFE01FDB2144B78453
:104D20000000138504D0EFE03FDA7D147DF837856D
:104D30000000130585C0EFE03FD9014AB78B0000A2
:104D4000378B0000B78A000061A0EFB0CFBF050924
:104D50009109F257635CF90603A40900EFB04FBE56
:104D60008347C4FF93F7F7F703474103E39FE7FC4B
:104D7000EFB06FBD930484001044638BC4029306AC
:104D800044FF03576401835744010148050810425A
:104D9000E39EC4FE2146A14513054BC2EFE0DFD2DE
:104DA0002685EFF0DFB21385CABBEFE0FFD145B730
:104DB00001488357440103576401930644FF214689
:104DC000A1451385CBC3EFE03FD051B7630E0A0076
:104DD0006C105285EFF07FB52A8AF257E358F0FE47
:104DE0009309C10001498DBF0145B6502654965420
:104DF0000659F649664AD64A464BB64B65618280EB
:104E0000597186D6A2D4A6D2CAD0CECED2CCD6CA1A
:104E1000DAC8DEC60945EFF04F8C11052AD689475E
:104E2000230AF1027C003ED8A1473EDC02DE378631
:104E30000000130646C5A14537850000130505C6C9
:104E4000EFE09FC82144B7840000138504D0EFE051
:104E5000BFC77D147DF8378500001305C5C7EFE097
:104E6000BFC6014AB78B0000378B0000B78A00002D
:104E700041A0EFB04FAD05099109F2576358F9060B
:104E800083A40900EFB0CFAB83C7C4FF93F7F7F754
:104E900003474103E39FE7FCEFB0EFAA13848400CC
:104EA00090446309C402938644FF03D704018147F9
:104EB00085071042E31EC4FE2146A14513054BC9D8
:104EC000EFE09FC02285EFF09FA01385CABBEFE003
:104ED000BFBF55B7814703D70401938644FF2146DE
:104EE000A14513854BCAEFE03FBE71B7630E0A00C0
:104EF0006C105285EFF07FA32A8AF257E358F0FE38
:104F00009309C1000149ADBF0145B65026549654DE
:104F10000659F649664AD64A464BB64B65618280C9
:104F2000011106CE22CC26CA4AC84EC652C43785C5
:104F30000000130585EBEFE03FB903A4418A83A786
:104F4000818A637BF402B7890000378A000031A0B0
:104F5000210483A7818A6371F40204401946938572
:104F600049ED2685EF10A05665F59385640013057D
:104F7000CAEDEFE07FB5E9BF378500001305C5BB7B
:104F8000EFE09FB40145F2406244D2444249B24945
:104F9000224A05618280411106C6EFF09FA10145BA
:104FA000B24041018280411106C6EFE05FC6014573
:104FB000B24041018280054582805D7186C6A2C4EF
:104FC000A6C2CAC04EDE52DC56DA5AD85ED62A8451
:104FD000AA9513070002A54611A00504B3848540D5
:104FE00083070400E38BE7FEE389D7FE014581ECEC
:104FF000B640264496440649F259625AD25A425B58
:10500000B25B61618280814A13070002A54611A04C
:10501000D28A138A1A00B307440183870700638882
:10502000E7006386D700E3159AFE268A19A063017C
:105030000A1403A9418A03AB818A637B6913B78B86
:10504000000021A02109637569138329090019460D
:1050500093854BED4E85EF1080476DF55286A28506
:1050600013856900EF10A04671FDD69983877900FA
:10507000F1FB032A4900630D0A0E02C002C202C4FA
:1050800002C602C802CA02CC02CE8A890A8E2287D0
:105090000149014613080002A548A14F930E2002C2
:1050A000130FC00539A0637C960E23000700050787
:1050B000050683070700E38807FFE38617FF630DF4
:1050C000F9036374960A638BD7032320EE0013055C
:1050D00019003383C4403A93BA878507B386C70063
:1050E000998E83850700638B050763891507E3960F
:1050F00067FE8A85029AEDBD21496DA093071700CE
:10510000930616002320FE0013051900030717005D
:10511000630DD70363EF9600E9BF1386170085067A
:10512000930716008506030716006300D703E3F212
:1051300096FC3E86E316E7FF03871700E30FD7FDD3
:105140008506038717008507DDB7E3F496FA238009
:1051500007008507850663E5960061BFE3FB96F8C7
:105160000509110E3E873686A9B74A85E31309F86B
:105170008307040093F7F7FD228799C70507830784
:10518000070093F7F7FDFDFB23000700A285378595
:105190000000130505EAEFE03F937D5591BD9D4763
:1051A000E3F527FD37850000130505E8EFE0DF9103
:1051B0000144B784000083A509001385C4EDEFE026
:1051C000BF9005049109E36824FF378500001305AB
:1051D000C5BBEFE07F8F4A8529BF797106D622D4FF
:1051E00026D24AD04ECE52CC56CA5AC85EC662C4E7
:1051F0008307050099CF2A8903A4418A83A7818A5E
:105200006379F40A8149014A378B0000B78B0000AB
:1052100035A081450145EFF0BFD061A8CE87B387A7
:10522000374163D347013E8AA68513858BBDEFE0E6
:10523000BF89210483A7818A6376F406032C0400C6
:10524000194693054BED6285EF1060287DF19304BC
:105250006C004A85EF1080262A86A6854A85EF10C5
:10526000002761F963170A002685EF1020252A8A96
:10527000A68983870900DDD303076C0005C363910A
:10528000E7022687CE87850705070386070041DAF0
:1052900083060700C9D6E308D6FE51B7CE8741B7CB
:1052A000CE87B5BF638709005286CE854A85EFE079
:1052B0002FC0B250225492540259F249624AD24A43
:1052C000424BB24B224C45618280411106C622C43A
:1052D00026C2A1679387C70323A2F18AA167938798
:1052E000C70B23A4F18AA1679387C70B23A6F18A72
:1052F000A1679387C70B23A8F18A9305C0070545CB
:10530000EFE05FB023ACA18A31CDA94719479306DE
:1053100000600146B75500009385054037850000C1
:10532000130585EFEFF06F85AA841384818B814686
:105330000146B7850000938505F00840EFD05FB5C2
:1053400018408347470293E727002302F7020145ED
:1053500089C42685EFF02FA40145B240224492442F
:105360004101828037850000130505EEEFE0CFF59F
:105370007D55E5B783A7818B83C74702898B9DC382
:10538000411106C622C483A5418B95C113060008AE
:105390001385C1E4EF1060161385C1E4B2402244C6
:1053A00041018280238601E41385C1E48280EFF00D
:1053B0009FC005C99387C1E4377768201307D736A4
:1053C00098C3238207001384C1E41385C1E4EF105E
:1053D000E00E22959307E0032300F500A3000500EB
:1053E00065BF9387C1E437776E731307679698C3D9
:1053F0000967130787062392E70023830700E1B7B5
:10540000797106D622D426D24AD04ECE52CC56CA74
:105410005AC85EC662C403A7818B8347470293E7DD
:1054200017002302F702EFF0FFF4EFE0EFE9B7898E
:105430000000B78B000037890000378A0000B78A68
:105440000000378C0000378B000029A083A7818BD8
:10545000054798D321232A84AA85E34D05FEED470D
:10546000E306F5FE83A7818B98538546630ED70626
:1054700089466305D708F9DD25476387E50E1307DD
:10548000F0076386E51421476383E5143547638B92
:10549000E51C29476388E51C03D767079306F004DA
:1054A00063FDE620239B070601473E97A302870280
:1054B00083C74702858B6398072603A7818B835791
:1054C00067078507C207C183231BF7068356870733
:1054D0008506231CD7069306F004E3FDF6F6231B8E
:1054E0000706231C0706BDB71307B0056305E500D3
:1054F00023A0070249B7094798D3A9BF23A00702F1
:105500001307F5FB1377F70F8546E3F5E6F413076A
:105510004004630BE50213073004E31EE5F403D7F0
:10552000870783D66707E377D7F2BA978385570251
:105530001385CAF0EFE04FD903A7818B8357870704
:105540008507231CF70639B783D78707E38407F05D
:10555000130589F0EFE04FD703A7818B83578707A7
:10556000FD17231CF706FDB503D7870709CF0144B4
:10557000130589F0EFE04FD5050483A7818B03D78E
:105580008707E347E4FE138457021305CABBEFE025
:10559000AFD3EFF05FA285476307F502EFF09FDD21
:1055A0002286AA8513050BF1EFE00FD203A4818BAD
:1055B00013055402EF00907042054181231BA4069D
:1055C000231CA40641BD2285EFF03FC1C1BF03D714
:1055D0008707E30107E803D667077D164206418285
:1055E000239BC7067D1742074183239CE706636E12
:1055F000C700138509F2EFE02FCD83A7818B03D776
:105600006707BA97A3820702B1B59305670213052E
:105610005702198EBE953E95EFE08F851384818BDE
:105620001C4003D767073E97A302070283D587076D
:1056300093855502BE9513858BF1EFE0EFC81C40B2
:1056400003D4870783D76707E3C687E0130589F08C
:10565000EFE08FC7050483A7818B83D76707E3D764
:1056600087FECDBBEFF03F9585476304F502EFF071
:105670007FD0EFE06FC503A4818B13060005814541
:1056800013055402EFA0BFB8231B0406231C040615
:10569000D1B383A7818B83C74702858B91EB03A589
:1056A000818B8355650713055502EFF01F91C1B734
:1056B0001305CABBEFE04FC1DDB703D68707E3761A
:1056C000E6DE93055602130566023306C740BE9513
:1056D0003E95EFD0FFF983A5818B83D6850733876D
:1056E000D500A302870203C74502058B0DE783A7F8
:1056F000818B03D4870783D76707E350F4DC130556
:1057000089F0EFE06FBC050483A7818B83D767071F
:10571000E347F4FE5DB393865602B69513054CE558
:10572000EFE08FBAE9B71385CAF0EFE0EFB971B3D4
:1057300037050020130505788280372500201305E2
:10574000050E8280397106DE16DC1ADA1ED82AD6DA
:105750002ED432D236D03ACE3ECC42CA46C872C6D9
:1057600076C47AC27EC0EFD0FFC7B7F700E02382CD
:105770000700A382070023830700A3830700238475
:105780000700A384070023850700A3850700EFD047
:10579000CFCAEFD07FC7F250E2525253C2533255B4
:1057A000A255125682567247E2475248C248324EBC
:1057B000A24E124F824F216173002030411106C664
:1057C000B7170240DC43C983BD8B37177A00130734
:1057D0000720B387E7023727F40013070740BA977B
:1057E00023A8F18485460146F1659385052001458E
:1057F000EFD0AFAD85450145EFD0AFBBB240410121
:105800008280411106C622C426C24AC0EFF01FFBA7
:1058100003A701858967938707F43357F7027D173C
:10582000B7F700E023820700A38207002383070065
:10583000A383070023840700A384070023850700B0
:10584000A38507009376F70F2386D700935687002A
:1058500093F6F60FA386D7009356070193F6F60F3B
:105860002387D7006183A387E70023880700A388E5
:10587000070023890700A389070037E400E0FD54EF
:105880002306944005672320E410054798C3EFD012
:105890002FC1EFF0FFE92A89EFF03FEAAA854A8598
:1058A000EFE08FBA0146A94537850000130545F2A0
:1058B000EFD08FF723AEA18A91672320F41023073E
:1058C0009440B24022449244024941018280011135
:1058D00006CE22CC26CA4AC84EC6B2896358C00238
:1058E000AE843389C5009D6703A407719305000446
:1058F0002285EFC04F967DD985048385F4FFC205CC
:10590000C1812285EFC08F94E31299FE4E85F2404B
:105910006244D2444249B24905618280830705004E
:105920008DCF411106C622C426C22A84A94431A8BB
:10593000B5450145EFD0EFA505048345F4FF0145CA
:10594000EFD02FA58307040081C7E39797FECDB75B
:10595000B24022449244410182808280011106CEED
:105960007D566C0003A5C18BEFD0BF8D0305C10030
:10597000F240056182805D7186C696C49AC29EC05F
:105980002ADE2EDC32DA36D83AD63ED442D246D09F
:1059900072CE76CC7ACA7EC8EFD0DFA4930550527F
:1059A0003745014013050580EFC0AF8B15E5EFD0FB
:1059B000BFA5B640A642164386437255E2555256DD
:1059C000C2563257A25712588258724EE24E524F68
:1059D000C24F6161730020309305F1000145EFD0A3
:1059E0000FA18345F10003A5C18BEFD09F84C1B700
:1059F0004111B717024098431367170098C3D84363
:105A0000B706FFF8758FD8C39843B706F7FEFD16A3
:105A1000758F98C39843B706FCFFFD16758F98C322
:105A2000D843B70681FFFD16758FD8C337079F008F
:105A300098C702C402C69843C166558F98C33716EB
:105A40000240B7060200130700501C42F58F3EC605
:105A5000A24785073EC4B24781E7A247E397E7FE26
:105A6000B71702409C431397E7006350070285472E
:105A70003EC632478547630CF70037E700E0B707BB
:105A800005FA85073CC74101828002C6DDB7B7270A
:105A9000024098431367070198C39843719B98C3CA
:105AA00098431367270098C3B7170240D843D8C359
:105AB000D843D8C3D843D8C3D843B706C1FFFD16CF
:105AC000758FD8C3D843B7062500558FD8C39843E0
:105AD000B7060001558F98C3371702401C439396B1
