:100000006F001068130000001300000013000000D0
:100010001300000013000000130000001300000094
:100020001300000013000000130000001300000084
:08003000130000007300100032
:100038006FF09FFC000000006F00D0316F00903619
:1000480000000000000000000000000000000000A8
:100058000000000000000000000000000000000098
:100068006F50506D000000006F00000F000000008E
:100078006F00D0356FF05FF86F00503A6F00303B7B
:100088006F00103C6F00F03C6F0060226F0060282A
:100098006F0060306F0060366F00603C6F00903C0E
:1000A8006F0050416F0010466F00F0226F00904AB9
:1000B8006F00504F6F0010546F00205A000000006E
:1000C8000000000000000000000000006F00603F1A
:1000D8006F00A05D6F00A0646F00606B6F00A0747C
:1000E8006F0070016F0010046F00D00A6FF0DFF02E
:1000F8006FF09FF06FF05FF06FF01FF06FF0DFEFC1
:100108006FF09FEF6F6020066F00D00F6F00B01781
:100118006F0080476FF05FEE6FF01FEE6FF0DFED5E
:1001280000000000000000000000000000000000C7
:080138000000000000000000BF
:1001400073750430828073100530828097520020CE
:10015000938242EB739002340321050095A00100C5
:10016000197106C212C816CA1ACC1ECE22D026D2C7
:100170002AD42ED632D836DA3ADC3EDEC2C0C6C227
:10018000CAC4CEC6D2C8D6CADACCDECEE2D0E6D257
:10019000EAD4EED6F2D8F6DAFADCFEDEF32200304C
:1001A00016C483A2418A23A02200F322103416C071
:1001B000EF40906A83A2818A03A1020011A001008E
:1001C000824273901234A2427390023092404242B3
:1001D000D2426243F243025492542255B2554256DF
:1001E000D2566257F257064896482649B649464ABB
:1001F000D64A664BF64B065C965C265DB65D465E5F
:10020000D65E665FF65F09617300203000003D43F3
:100210002A876373C3029377F700BDEFADE593764A
:1002200006FF3D8ABA960CC34CC30CC74CC74107A6
:10023000E36BD7FE11E28280B306C3408A069702C1
:10024000000096966780A6002307B700A306B700B4
:100250002306B700A305B7002305B700A304B70022
:100260002304B700A303B7002303B700A302B7001A
:100270002302B700A301B7002301B700A300B70012
:100280002300B700828093F5F50F93968500D58DF6
:1002900093960501D58D61B79396270097020000CC
:1002A00096968682E78086FA9680C1171D8F3E96C5
:1002B000E374C3F8A5B7397106DE16DC1ADA1ED866
:1002C0002AD62ED432D236D03ACE3ECC42CA46C8F6
:1002D00072C676C47AC27EC0EF30500B0545EF007F
:1002E000D05185476307F502EF30900CF250E2528F
:1002F0005253C2533255A255125682567247E247A4
:100300005248C248324EA24E124F824F21617300B2
:1003100020300545EF003050C1BF397106DE16DCD4
:100320001ADA1ED82AD62ED432D236D03ACE3ECCC5
:1003300042CA46C872C676C47AC27EC0EF30100583
:100340000945EF00904B85476307F502EF305006F3
:10035000F250E2525253C2533255A25512568256AF
:100360007247E2475248C248324EA24E124F824F65
:10037000216173002030B707002083A7470B09478E
:100380006389E70005476389E7000945EF00B04846
:1003900075BFEF202039D5BFEF10F06CFDB7397174
:1003A00006DE16DC1ADA1ED82AD62ED432D236D081
:1003B0003ACE3ECC42CA46C872C676C47AC27EC025
:1003C000EF30C07C1145EF00504385476307F502CD
:1003D000EF30007EF250E2525253C2533255A255D2
:1003E000125682567247E2475248C248324EA24ED7
:1003F000124F824F2161730020301145EF00B04150
:10040000C1BF397106DE16DC1ADA1ED82AD62ED400
:1004100032D236D03ACE3ECC42CA46C872C676C434
:100420007AC27EC0EF3080762145EF00103D8547CF
:100430006307F502EF30C077F250E2525253C253D5
:100440003255A255125682567247E2475248C24868
:10045000324EA24E124F824F21617300203021454F
:10046000EF00703BC1BF397106DE16DC1ADA1ED808
:100470002AD62ED432D236D03ACE3ECC42CA46C844
:1004800072C676C47AC27EC0EF3040704145EF003C
:10049000D03685476307F502EF308071F250E252A3
:1004A0005253C2533255A255125682567247E247F2
:1004B0005248C248324EA24E124F824F2161730001
:1004C00020304145EF003035C1BF397106DE16DC02
:1004D0001ADA1ED82AD62ED432D236D03ACE3ECC14
:1004E00042CA46C872C676C47AC27EC0EF30006A7D
:1004F00013050020EF00703085476303F5041305F2
:100500000010EF00902F85476305F50613050008DE
:10051000EF00B02E85476303F50613050004EF00D6
:10052000D02D85476301F50613050002EF00F02C7E
:100530008547631BF50013050002EF00D02D29A0AD
:1005400013050020EF00302DEF308066F250E252AC
:100550005253C2533255A255125682567247E24741
:100560005248C248324EA24E124F824F2161730050
:10057000203013050010EF00102AF9B7130500080A
:10058000EF007029D1B713050004EF00D0286DBF2C
:10059000397106DE16DC1ADA1ED82AD62ED432D2EB
:1005A00036D03ACE3ECC42CA46C872C676C47AC26B
:1005B0007EC0EF30A05D2165EF00302485476308E1
:1005C000F5041165EF0070238547630AF506096598
:1005D000EF00B02285476308F5060565EF00F021BE
:1005E00085476306F506056513050580EF00F020D5
:1005F00085476302F50613050040EF00102085478C
:10060000631AF50013050040EF00F02021A02165DA
:10061000EF007020EF30C059F250E2525253C253F3
:100620003255A255125682567247E2475248C24886
:10063000324EA24E124F824F21617300203011655D
:10064000EF00701DC1BF0965EF00F01CE1B7056543
:10065000EF00701CC1B7056513050580EF00B01BE6
:1006600055BF397106DE16DC1ADA1ED82AD62ED40A
:1006700032D236D03ACE3ECC42CA46C872C676C4D2
:100680007AC27EC0EF308050EF308052F250E2529A
:100690005253C2533255A255125682567247E24700
:1006A0005248C248324EA24E124F824F216173000F
:1006B0002030397106DE16DC1ADA1ED82AD62ED47E
:1006C00032D236D03ACE3ECC42CA46C872C676C482
:1006D0007AC27EC0EF30804B930500083735014069
:1006E000130505C0EF10E01115E5EF30604CF25036
:1006F000E2525253C2533255A25512568256724795
:10070000E2475248C248324EA24E124F824F2161F8
:10071000730020309305000837350140130505C0EC
:10072000EF10E00FD9B7397106DE16DC1ADA1ED8E1
:100730002AD62ED432D236D03ACE3ECC42CA46C881
:1007400072C676C47AC27EC0EF30404485453735E4
:100750000140130505C0EF10C00A15E5EF30404514
:10076000F250E2525253C2533255A255125682569B
:100770007247E2475248C248324EA24E124F824F51
:10078000216173002030854537350140130505C0D0
:10079000EF10E008E1B7397106DE16DC1ADA1ED870
:1007A0002AD62ED432D236D03ACE3ECC42CA46C811
:1007B00072C676C47AC27EC0EF30403D9305000415
:1007C00037350140130505C0EF10A0031DED93055B
:1007D000000237350140130505C0EF1080021DED02
:1007E000EF30003DF250E2525253C2533255A255FF
:1007F000125682567247E2475248C248324EA24EC3
:10080000124F824F21617300203093050004373569
:100810000140130505C0EF10800055BF930500028D
:1008200037350140130505C0EF00707F55BF3971A2
:1008300006DE16DC1ADA1ED82AD62ED432D236D0EC
:100840003ACE3ECC42CA46C872C676C47AC27EC090
:10085000EF30C033894537350140130505C0EF003F
:10086000507A31ED914537350140130505C0EF0051
:10087000507931EDA14537350140130505C0EF0032
:10088000507831EDC14537350140130505C0EF0003
:10089000507731EDEF30C031F250E2525253C25333
:1008A0003255A255125682567247E2475248C24804
:1008B000324EA24E124F824F216173002030894583
:1008C00037350140130505C0EF00707561BF9145D4
:1008D00037350140130505C0EF00707461BFA145B5
:1008E00037350140130505C0EF00707361BFC14586
:1008F00037350140130505C0EF00707261BF41112B
:1009000006C6EF30A028854537050040EF00706F20
:1009100011E5EF30E029B24041018280854537057D
:100920000040EF00D06FEF10B054E5B7397106DE2C
:1009300016DC1ADA1ED82AD62ED432D236D03ACEC7
:100940003ECC42CA46C872C676C47AC27EC0EF3078
:10095000E02385453705004013050540EF00706A28
:1009600015E5EF30E024F250E2525253C2533255B3
:10097000A255125682567247E2475248C248324E3A
:10098000A24E124F824F21617300203085453705FA
:10099000004013050540EF009068E1B7397106DEAD
:1009A00016DC1ADA1ED82AD62ED432D236D03ACE57
:1009B0003ECC42CA46C872C676C47AC27EC0EF3008
:1009C000E01C85453715004013050580EF00706376
:1009D00015E5EF30E01DF250E2525253C25332554A
:1009E000A255125682567247E2475248C248324ECA
:1009F000A24E124F824F216173002030854537157A
:100A0000004013050580EF009061E1B7397106DE03
:100A100016DC1ADA1ED82AD62ED432D236D03ACEE6
:100A20003ECC42CA46C872C676C47AC27EC0EF3097
:100A3000E015930550523745004013050540EF007F
:100A4000907519C9B707002083A7470B0947638A28
:100A5000E7020547638AE702EF308015F250E25261
:100A60005253C2533255A255125682567247E2472C
:100A70005248C248324EA24E124F824F216173003B
:100A80002030EF10B044C9BFEF106078F1B7397172
:100A900006DE16DC1ADA1ED82AD62ED432D236D08A
:100AA0003ACE3ECC42CA46C872C676C47AC27EC02E
:100AB000EF30C00DEF30C00FF250E2525253C2532C
:100AC0003255A255125682567247E2475248C248E2
:100AD000324EA24E124F824F216173002030397185
:100AE00006DE16DC1ADA1ED82AD62ED432D236D03A
:100AF0003ACE3ECC42CA46C872C676C47AC27EC0DE
:100B0000EF30C00809656D2985476307F502EF30AE
:100B1000200AF250E2525253C2533255A255125695
:100B200082567247E2475248C248324EA24E124F96
:100B3000824F21617300203009655D21B7070020D5
:100B400083A7470B09476388E7000547E391E7FC64
:100B5000EF10C0726DBFEF10503E55BF397106DE09
:100B600016DC1ADA1ED82AD62ED432D236D03ACE95
:100B70003ECC42CA46C872C676C47AC27EC0EF3046
:100B8000E000EF30E002F250E2525253C2533255CD
:100B9000A255125682567247E2475248C248324E18
:100BA000A24E124F824F216173002030397106DE50
:100BB00016DC1ADA1ED82AD62ED432D236D03ACE45
:100BC0003ECC42CA46C872C676C47AC27EC0EF2006
:100BD000F07B01A0397106DE16DC1ADA1ED82AD69F
:100BE0002ED432D236D03ACE3ECC42CA46C872C695
:100BF00076C47AC27EC0EF207079EF20707BF2500D
:100C0000E2525253C2533255A2551256825672477F
:100C1000E2475248C248324EA24E124F824F2161E3
:100C200073002030411106C6EF205076EF20507837
:100C3000B24041018280411106C6EF203075EF209D
:100C40003077B24041018280411106C6EF20107416
:100C5000EF201076B24041018280411106C6EF209C
:100C6000F072EF20F074B24041018280397106DEEB
:100C700016DC1ADA1ED82AD62ED432D236D03ACE84
:100C80003ECC42CA46C872C676C47AC27EC0EF2045
:100C9000F06FEF20F071F250E2525253C2533255CE
:100CA000A255125682567247E2475248C248324E07
:100CB000A24E124F824F216173002030397106DE3F
:100CC00016DC1ADA1ED82AD62ED432D236D03ACE34
:100CD0003ECC42CA46C872C676C47AC27EC0EF20F5
:100CE000F06AEF20F06CF250E2525253C253325588
:100CF000A255125682567247E2475248C248324EB7
:100D0000A24E124F824F216173002030397106DEEE
:100D100016DC1ADA1ED82AD62ED432D236D03ACEE3
:100D20003ECC42CA46C872C676C47AC27EC0EF20A4
:100D3000F065EF20F067F250E2525253C253325541
:100D4000A255125682567247E2475248C248324E66
:100D5000A24E124F824F216173002030397106DE9E
:100D600016DC1ADA1ED82AD62ED432D236D03ACE93
:100D70003ECC42CA46C872C676C47AC27EC0EF2054
:100D8000F060EF20F062F250E2525253C2533255FB
:100D9000A255125682567247E2475248C248324E16
:100DA000A24E124F824F216173002030397106DE4E
:100DB00016DC1ADA1ED82AD62ED432D236D03ACE43
:100DC0003ECC42CA46C872C676C47AC27EC0EF2004
:100DD000F05BEF20F05DF250E2525253C2533255B5
:100DE000A255125682567247E2475248C248324EC6
:100DF000A24E124F824F216173002030397106DEFE
:100E000016DC1ADA1ED82AD62ED432D236D03ACEF2
:100E10003ECC42CA46C872C676C47AC27EC0EF20B3
:100E2000F056EF20F058F250E2525253C25332556E
:100E3000A255125682567247E2475248C248324E75
:100E4000A24E124F824F216173002030411106C61D
:100E500022C426C2EF50E065EF50C056EF50C06E7E
:100E6000EF50D00D416413040480A564A28711479C
:100E700093864498414681450145EF10202AFDB7ED
:100E800097010020938101A31741002013018117CE
:100E900017950000130505E697F5FF1F9385851646
:100EA0001386818363FAC5008322050023A05500C1
:100EB00011059105E3EAC5FE13858183973500206E
:100EC000938505706377B500232005001105E36D58
:100ED000B5FE9302800873A0023097F2FFFF938261
:100EE000E21593E2120073905230EF50E02F01456B
:100EF0008145EF200064972200009382C2637390C3
:100F0000123473002030A54763F7B7048328C50067
:100F1000138865FF1317180042979D47B397E700A2
:100F200093C7F7FFB3F71701B396E600DD8E54C5FC
:100F3000994763E3C70458597D16931726003E96D8
:100F4000FD47B397C70093C7F7FFF98F3396C500E6
:100F50005D8E50D9828003280501139715002E97C6
:100F60009D47B397E70093C7F7FFB3F70701B39621
:100F7000E600DD8E14C96DBFB14763E3C7021459A3
:100F8000130796FF131627003A96FD47B397C7003D
:100F900093C7F7FFF58F3396C5005D8E10D9828019
:100FA00054554D16131726003A96FD47B397C700C0
:100FB00093C7F7FFF58FB395C500DD8D4CD58280C3
:100FC0009317350063DA0700B707024083A707408D
:100FD0007D8D3335A0008280B70702409C43CDBF92
:100FE0009317350063D70700B707024023A2A74035
:100FF0008280B7070240C8C3828037070140832739
:10100000074003274741698F09C77D8D3335A0000D
:10101000828001458280B707014023AAA7408280D1
:101020009C4593F8F700C18B81C7DC41B3E8F80019
:1010300083C70500A9CB10418147054E3D4F930E54
:101040008002930F8004214329A054C98507638B34
:101050006702B316FE0003D70500758FE398E6FE1E
:10106000139727003318EF001348F8FF3376C800B2
:101070003397E800598E9845E309D7FDE318F7FD4B
:1010800014C9E9B710C103D705009307F00F63FD3A
:10109000E7045041A147054EBD4F130F8002930E48
:1010A0008004414331A054C915A88507638D6702A8
:1010B000B316FE0003D70500758FE398E6FE13977D
:1010C000270001173398EF001348F8FF3376C80064
:1010D0003397E800598E9845E307E7FD9845E316F6
:1010E000D7FD14C9D9B750C1828019C20CC98280FA
:1010F0004CC982802A8663400504B7070140DC435F
:1011000093160501C182370730003378E500630884
:10111000E8021317B500635C070413570501137841
:10112000F7000D47331707011347F7FF7D8FB70708
:10113000000FD98F0DA0B7070140DC4FD1B737079B
:1011400000F17D17F98FB708014003A848003377F5
:10115000E80023A2E80091C5558112053395A60049
:10116000C98F63420602370701405CC38280135770
:10117000550112073397E6001347F7FF7D8FB70736
:10118000000FD98FC9BF370701405CCF8280B7E716
:1011900000E0BC47898B95CF834605008347250037
:1011A000920793F7F70F37E700E036972300F740F1
:1011B0005C41B5C703470500935757008546B39672
:1011C000E600938707048A0737E700E0BA9794C3DD
:1011D0008280B7E700E0BC47898BF9FB0347150025
:1011E0008547630FF7008346050083472500920774
:1011F00093F7F70F37E700E036972300F7404DBF2E
:101200008346050083472500920793E707F893F785
:10121000F70F37E700E036972300F74051BF034749
:101220000500935757008546B396E6009387070657
:101230008A0737E700E0BA9794C38280B717024065
:10124000DC43B18B11476384E70821476387E708D4
:1012500099C7B7177A00938707201CC131A0B71729
:101260007A00938707201CC1371602405C429183A5
:10127000BD8B3707002013070700BA9783C6070006
:101280001C41B3D7D7005CC15442A1829D8ABA9653
:1012900083C60600B3D6D70014C55442AD829D8ADA
:1012A000369703470700B3D7E7005CC55842398338
:1012B00093763700370700201307070B369703474D
:1012C00007001377F70FB3D7E7021CC98280B7175F
:1012D0007A00938707201CC141BF371702405C4347
:1012E0005843C983BD8B89079316F70063CA06006C
:1012F00037173D0013070790B387E7021CC1ADB74E
:101300003717024058439316E70063DA0600371791
:101310003D0013070790B387E7021CC1B1B7371729
:101320007A0013070720B387E7021CC135BF99C5B0
:10133000371702401C4F5D8D08CF8280B7170240DF
:10134000984F1345F5FF798D88CF828099C537175F
:1013500002405C4F5D8D48CF8280B7170240D84F66
:101360001345F5FF798DC8CF8280035705008D673F
:10137000938707047D8F83D7050083D62500D58FFB
:1013800083D64500D58F83D66500D58F83D685005B
:10139000D58F83D6A500D58F83D6C500D58F83D6AC
:1013A000E500D58FD98F2310F5000357C501FD77D0
:1013B0009387F77FF98F231EF50083D70501231844
:1013C000F500828081C98357050093E70704231045
:1013D000F500828083570500C207C18393F7F7FBAE
:1013E000C207C1832310F500828083570500C2071E
:1013F000C18337370140130707C06300E50437078F
:1014000000406307E506130707406303E506371747
:10141000004013070780630DE50493F7F7CF03D768
:101420006500D98F2310F50083D745002316F502F8
:1014300083D705002314F50285A093F7F7F803D7A7
:101440002500D98F93F7F7CF03D76500D98F2310E5
:10145000F50083D745002316F50283D70500231432
:10146000F50203C78500B73701402398E7C22DA0D6
:1014700093F7F7F803D72500D98F93F7F7CF03D762
:101480006500D98F2310F50083D745002316F50298
:1014900083D705002314F5028547231AF5008280BF
:1014A00083570502C207C183F99BC207C18323107A
:1014B000F50283570502C207C18383564500C20661
:1014C000C18203578501420741831377C7F803D6CA
:1014D0000500518FF59B03D6850003D825003366A0
:1014E0000601D18F37360140130606C0630DC500D3
:1014F0002312D500231CE50003D76500231AE5025B
:101500002310F5028280DD9B03D6A500D18FED9BD1
:1015100003D64500D18F93F6F6CF03D6C50003D886
:10152000E50033660601D18EE1B783570502C20795
:10153000C183BD9BC207C1832310F50283570502F7
:10154000C207C18303564500420641828356850186
:1015500065771307F7CF758F83D60500A206558FE1
:101560004207418393F7F7FD03D8850083D6250012
:10157000B3E606019206D58FC207C183B736014094
:10158000938606C0630DD5002312C500231CE50019
:1015900003D76500231CE5022310F502828093F730
:1015A000F7F783D6A5009206D58FC207C18393F7BC
:1015B000F7FB83D645009206D58FC207C183FD761F
:1015C0009386F63F758E03D8C50083D6E500B3E653
:1015D00006018A06558E420641827DB78357050271
:1015E000C207C18393F7F7EFC207C1832310F50247
:1015F00083570502C207C183035645004206418254
:101600000357C501420741831377C7F883D6050006
:10161000558F93F7F7DF03D8850083D62500B3E60F
:101620000601A206D58FC207C183B7360140938653
:1016300006C0630DD5002312C500231EE50003D7A5
:101640006500231EE5022310F5028280FD76938655
:10165000F67FF58F83D6A500A206D58FC207C1837A
:1016600093F7F7BF83D64500A206D58FC207C18383
:10167000F576FD16758E03D8C50083D6E500B3E672
:1016800006019206558E4206418275B70357050240
:10169000FD77FD17F98F2310F50203580502035655
:1016A0004500420641828357C50165771307F7CF8E
:1016B0007D8F83D60500A206558F42074183F977B7
:1016C000FD17B3F7070103D8850083D62500B3E6DD
:1016D0000601B206D58FC207C183B7360140938693
:1016E00006C0630DD5002312C500231EE50003D7F5
:1016F00065002310E5042310F5028280F176FD16C3
:10170000758E83D6C5009A06558E42064182E1BF8A
:1017100081C98357050093E717002310F5008280E5
:1017200083570500C207C183F99BC207C1832310F9
:10173000F500828081C9835745042167D98F231220
:10174000F504828083574504C607C5832312F50438
:10175000828083578501C207C183DD9BDD8D231CF9
:10176000B500828003578501FD779387F77FF98F56
:10177000A205CD8FC207C183231CF5008280835749
:10178000C501C207C183DD9BDD8D231EB5008280AC
:101790000357C501FD779387F77FF98FA205CD8F9A
:1017A000C207C183231EF500828083578501C207CB
:1017B000C183ED9BDD8D231CB5008280835785019D
:1017C000C207C18393F7F7BFA205CD8FC207C183BC
:1017D000231CF50082808357C501C207C183ED9B9E
:1017E000DD8D231EB50082808357C501C207C183EA
:1017F00093F7F7BFA205CD8FC207C183231EF50063
:101800008280835705010355C50042054181ED8F54
:1018100089C76D8D3335A00082800145828093C5D4
:10182000F5FFC205C1812318B5008280797106D603
:1018300022D426D22A84AE8403570501F577FD17FA
:10184000F98F03D76500D98F2318F5000357C5001A
:10185000FD779387379FF98F03D74500D98F03D73B
:101860008500D98F03D7A500D98F2316F50083579C
:101870004501C207C18393F7F7CF03D7C500D98FBE
:10188000231AF5006800EFF07F9BB747014093876C
:1018900007806301F40652478357C400C207C1871B
:1018A00063CC070493171700BA978E07BA9798402E
:1018B0000A07B3D7E70213074006B3D6E70292063A
:1018C000B3F7E7020357C4004207418763400704A8
:1018D00092079387270313074006B3D7E702BD8B10
:1018E000D58FC207C1832314F400B25022549254FE
:1018F0004561828062474DB793171700BA978E07EC
:10190000BA9798400607B3D7E70275B71397370021
:1019100013072703930740063357F7021D8BB3675E
:10192000D700C1B781C98357C5000967D98F23166E
:10193000F50082800357C500F977FD17F98F23164C
:10194000F500828093F7F50F95830547B315B7002F
:10195000638CE700894613074501638AD70019CADB
:101960001C43DD8D0CC382801307C500CDBF130758
:101970000501F5B71C4393C5F5FFFD8D0CC38280AF
:1019800093F5F51F2312B5008280035505006D8D78
:101990003335A000828093F7F50F95838546339702
:1019A000B6006388D70289466389D7028357450109
:1019B0007D8F0355050093170501C183014509CBB0
:1019C000A1810545B315B50033F5B7003335A00047
:1019D00082808357C5007D8FE9BF835705017D8FC6
:1019E000C9BF011106CEA307A10085461306F10069
:1019F000B2850545EF1060760345F100F2400561C0
:101A00008280411106C622C426C24AC093573500BF
:101A1000F18B256713074719BA9703A907000544F7
:101A20003314A40042044180232A89000145553F14
:101A30009384C18322052390A40001455D3783D799
:101A40000400C98FC207C18323288900998323908A
:101A5000F4009386E18303D706001D8F1377F73FC9
:101A60002390F60013151700137505403305A740A2
:101A7000B24022449244024941018280411106C68B
:101A800022C426C2A56783A44719056413040480F1
:101A9000C0C8AE862A86AA850545EF10006C80C8AE
:101AA000B2402244924441018280011106CE930744
:101AB00030FC2304F1009D452800C937834791007D
:101AC000A2070347A100D98F2391F1848347B10076
:101AD000A2070347C100D98F2392F1848347D10025
:101AE000A2070347E100D98F2393F184F2400561F7
:101AF0008280011106CE22CC26CAA307A100A567C9
:101B000003A4C719A16444C891675CC8854601460F
:101B10009305F1000145EF10406404C8F2406244AF
:101B2000D24405618280011106CE22CC26CAA307C9
:101B3000A100A56703A4C719A16444C891671CC884
:101B4000854601469305F1000145EF10006104C888
:101B5000F2406244D24405618280011106CE22CC5B
:101B600026CAA56703A4C719A16444C89357850072
:101B70002306F100A306A10091671CC8894601460F
:101B80006C000145EF10605D04C8F2406244D2442D
:101B900005618280011106CE22CC26CA4AC84EC6F3
:101BA000AA89AE84328936841305A0029937138539
:101BB0008902420541815537130589024205418159
:101BC000693F1305B002353713854403420541814F
:101BD0006937130544034205418141371305C002AB
:101BE000093FF2406244D2444249B24905618280D1
:101BF000011106CE22CC26CA4AC84EC6AA84930634
:101C000060081306F00E8145014569371309000F7E
:101C10009309700839A07D19420913590901630A13
:101C200009004E842685153F7D14420441807DF8CD
:101C3000DDB7F2406244D2444249B2490561828034
:101C4000411106C622C426C2014881471307F00489
:101C500093063002054681450145EF10404093064A
:101C600000310546854513050008EF00B03993069D
:101C70000031014685451305E004EF00B0389306B6
:101C80000031014685451305D004EF00B037A56744
:101C900003A4C719896444C81305800C8145EF105B
:101CA000604F04C8130540068145EF10A04E130590
:101CB00060038135130540068145EF10A04D1305E3
:101CC000000A95351305A0032D351545A93D1305CB
:101CD000200B05353145813D3145B1350145A135F3
:101CE00013053003893513053003353D1305700B9B
:101CF000093513055003053D1305B00BDD3B1305F6
:101D0000700315351305000CED331305C002213D9A
:101D10001305200CF93B054539351305300CD13B33
:101D2000494511351305400CE93313050002E53B25
:101D30001305600C7D3B3D45FD331305000D553B00
:101D40001305400ACD331305100AF13B1305000EAD
:101D50004D331305000DC13B1145F1333545E133DA
:101D60004545D1334D45C1331305B0026D3B1305D5
:101D7000F003553B130540057D331305C00465335F
:101D800061455533354545332D45713B7D45613BB7
:101D900013053002493B1305100EA13B1305000D3E
:101DA0005933114549333145BD3B4545AD3B4D4563
:101DB0009D3B1305C002853B1305F003AD331305AE
:101DC0004004953313051005B93B1305F002A13B00
:101DD0007D45913B7D45813B13050002A9331305E9
:101DE0003002913313051002293345451933130589
:101DF00080078145EF10003A13059002DD394165F7
:101E00007D15FD33B24022449244410182807971B4
:101E100006D622D426D24AD04ECE52CC56CA5AC862
:101E20005EC662C466C22A8C1206930A06E0A567E3
:101E3000938747A03389FA00930A0901B3852541A6
:101E4000939B050193DB0B01130B7500420B135B96
:101E50000B01A14CC169138AF9FF938909800DA078
:101E60005285E53985807D141374F40F19C493F7F6
:101E70001400FDD74E85D531F5B70509630E59011C
:101E8000B3852B01C205C181AE865A86628519339E
:101E9000834409006684E1BFB2502254925402592F
:101EA000F249624AD24A424BB24B224C924C4561B3
:101EB0008280011106CE22CC26CA4AC84EC6B289FB
:101EC0000306060015C62A849205139905011359C5
:101ED00009018144CA8522851D3F8504C204C18051
:101EE000B3879900038607002104420441807DF2F4
:101EF000F2406244D2444249B2490561828079711C
:101F000006D622D426D24AD04ECE2A842E89B28436
:101F1000634A06089205C205C18113060002C53D49
:101F2000896793870771B3C7F4022304F10013078D
:101F3000803E33C7E402A9473367F702A304E100F8
:101F40001307400633C7E4023367F7022305E100B5
:101F500033C7F4023367F702A305E100B3E4F402E8
:101F60002306910012094209135909012400210492
:101F7000420441809309D10003C6040013060603FE
:101F800062066186CA85228559358504210442048A
:101F90004180E39334FFB250225492540259F249E3
:101FA000456182809205C205C1811306D002853544
:101FB000B3049040C204C184A5B75D7186C6A2C4B3
:101FC000A6C2CAC04EDE2A89AE893685A94763F308
:101FD000D70029459374F50F138414001374F40F7C
:101FE00063420606930700022306F100B79500003E
:101FF000938545FF1305D100952605051375F50F4B
:10200000637385027C00AA971307D1002A97338552
:10201000A4401375F50F2A97930600022380D7007A
:102020008507E39DE7FE1C183E94230E04FC700018
:10203000CE854A85BD3DB640264496440649F259B0
:1020400061618280B7950000938545FF680039265D
:102050001375F50F75B7797106D622D426D24AD0FA
:102060004ECE52CC56CA5AC85EC662C466C2AA8C4C
:10207000AE892E8C9307000F63F4B700130C000F8A
:10208000420C135C0C01B28B9307700863F4C70019
:10209000930B7008C20B93DB0B019386FBFF1306B7
:1020A000FCFFC206C1824206418281450145EFF034
:1020B0007FAE63880B04014B814A628929A0850A9F
:1020C0004E9B63807A0581440144338A6C01E308A6
:1020D0000CFEB3D72403D29703C707009317070159
:1020E000C18313D5270016058D83AE07C98F1355FD
:1020F00037005D8DEFF07FA60504CE94E31B24FD31
:102100007DBFB250225492540259F249624AD24AD7
:10211000424BB24B224C924C456182801D7186CE5F
:10212000A2CCA6CACAC8CEC6D2C4D6C2DAC05EDEA7
:1021300062DC66DA6AD86ED6328BB6843A893ACCDB
:10214000BE891354360093170601C1839386F5FFA9
:10215000BE96B387E7021306F5FF3E96C206C1821C
:1021600042064182EFF01FA35ACA63536009228DD1
:10217000B30B8B02B38B8B4022C826C6814D9307CD
:10218000F9FF93F7F70F3ECE1D4C41697D1991A8D9
:102190004A85EFF09F9C01CC7D1483C70400B3D720
:1021A0008740858BF5D74E85EFF03F9BEDB78504D3
:1021B000638544012144CDB7268AB3047A01FD1A10
:1021C00093FAFA0F63879A01E3786CFF338AA401CC
:1021D000D5B7850DB2474247BA973EC6D247638905
:1021E000FD00B244F24A930CF00FE247F1FFD5B77D
:1021F000F6406644D6444649B649264A964A064BB6
:10220000F25B625CD25C425DB25D2561828041110D
:1022100006C622C41384F184834504009387C184D5
:10222000BE950545EF10801883470400850793F796
:10223000F70F2300F4000547638EE7000D4763970F
:10224000E700A387018405472388E184B240224444
:102250004101828003C7C1849307500AE308F7FE57
:10226000A3870184E5B7B707024009671307874BC7
:10227000B8C7F84313671700F8C38280411106C638
:1022800005472384E184B7060240FC424167791781
:10229000F98FFCC203A58183EF10004FB2404101CA
:1022A0008280AA8729C21357F541B347A700998FA7
:1022B000368633E7D702130707032380E500B3C64A
:1022C000D702B5C2AE87850733E7C60213070703F7
:1022D0002380E700B3C6C602138517000D8D137562
:1022E000F50FF5F282802E86B68825480547B3059E
:1022F000B7400DA0130707031377F70F2300E6007D
:1023000033D7D7023305B6001375F50F63EE170107
:102310000506BA8733F7D702E37EE8FC1307770395
:102320001377F70FE1BF0545828013D81500854765
:1023300063F5B7029387F5FFAA972A872E958386C0
:102340000700030607002380C7002300D700050706
:10235000B306F540FD17E3E406FF8280757186D66B
:10236000A2D4A6D2CAD0CECED2CCD6CADAC8DEC6C5
:10237000E2C4E6C2EAC06EDEB2DCB6DE3AC13EC3FB
:1023800042C546C7BC183ED6838705006381072C2B
:102390002A84814C93045002930A3005256A130A5B
:1023A0008AFF37970000032987148329C714BDAC1F
:1023B000B257138747003AD69C432300F400050424
:1023C000850C85A4B257138747003AD683AB070024
:1023D000A94605462C005E85E9352A8B63CD0B00A6
:1023E000DA85280099375A862C002285EF50A023E1
:1023F0005A94DA9C3DA41C18AA971307D002238C88
:10240000E7FC130B1500137BFB0FD9BFB2579D07D9
:10241000E19B138787003AD603AB070083AB4700E5
:102420005A85DE85EF5040052A8DA94605462C00C9
:102430008D3DAA8D014681465A85DE85EF404039A3
:1024400063400506EE852800CD356E862C0022857A
:10245000EF50601D6E94EE9C6A85EF5060082A86EE
:10246000AE865A85DE85EF40900D4A86CE86EF40D7
:1024700080412A8BAE8B01468146EF40C02E1DE97C
:1024800093070003A306F1002306F100A305F10062
:102490002305F100A304F1002304F100194581A8EC
:1024A0001C18EE971307D002238CE7FC850D93FDD3
:1024B000FD0F49BF5A85DE85EF40107CA9460546D1
:1024C0002C00C533954763E4A7023C00AA97130785
:1024D00091002A979546898E93F6F60F36979306C4
:1024E00000032380D7008507E31DF7FE19451C185C
:1024F000AA971307E002238CE7FC0505137BF50F71
:10250000DA8528001D355A862C002285EF50A0114F
:10251000DA9C01AAB257138747003AD6A94601466A
:102520002C008843BD3B2A8BAA852800FD3B5A8698
:102530002C002285EF50200F5A94DA9CDDA0B25770
:10254000138747003AD6A14601462C008843913BA9
:102550002A8BAA852800D13B5A862C002285EF5071
:10256000800C5A94DA9C75A8B257138747003AD664
:10257000C14601462C0088432D332A8BAA852800AA
:102580006D335A862C002285EF50E0095A94DA9C6C
:1025900049A8B257138747003AD6944303870600E9
:1025A00049C3A28733848C402380E7008507B38C1E
:1025B000870085060387060065FB3E849DA0A14534
:1025C0002800A53383488100034891000345A100FA
:1025D0008345B1000346C1008346D1000347E100B3
:1025E0008347F10023001401A30004012301A40088
:1025F000A301B4002302C400A302D4002303E40017
:10260000A303F4002104A10C29A89307500223007E
:10261000F4000504850C31A02300F4000504850CAA
:102620002E8C93051C0083071C009DC3E39697FE28
:10263000138C150083C715009387B7FD13F7F70FA9
:10264000E3E1EAFE93172700D2979C438287814CEF
:102650006685B650265496540659F649664AD64AB7
:10266000464BB64B264C964C064DF25D4961828036
:10267000011106CE22CC26CA4AC84EC6A56783A43D
:10268000C719114798C8A147DCC8D8C89CC898C8C2
:10269000DCC837240020130404679309041011498F
:1026A00023AA24018145294565202310A40023A8DD
:1026B00024010904E31634FF0547A388E184F240AE
:1026C0006244D2444249B24905618280411106C642
:1026D00022C4138481858345040093874185BE9578
:1026E0000545EF00B04C83470400850793F7F70FCB
:1026F0002300F4000547638EE7000D476397E7006A
:10270000238C01840547A38BE184B240224441011C
:10271000828003C741859307500AE308F7FE238CA4
:102720000184E5B7B7070240056713070796B8C7E6
:10273000F84313671700F8C3828005472389E184B3
:10274000B7060240FC4241677917F98FFCC28280CC
:10275000411106C622C426C2AE8481460546937541
:10276000F50F3724014013050440EFE0CFF983272C
:10277000844037075000D98F2324F4403727014085
:1027800083270740898BEDDFB727014003A5C744A6
:102790003355950042054181B240224492444101A3
:1027A0008280011106CE22CC26CA4AC84EC652C427
:1027B0002A8AAE8932898144014415C6CE85528564
:1027C000413FAA9405041374F40FE31989FE33D52D
:1027D000840242054181F2406244D2444249B249F6
:1027E000224A05618280B796000093860616256608
:1027F0001306061593056007379500001305851627
:10280000EF40705C130700086306E510797106D687
:1028100022D426D24AD04ECE52CC9357550013F92B
:1028200077001374F501368AB289AE848DCB0547E3
:102830006389E7060947638BE7060D47638DE70663
:1028400011476380E70815476383E7081947639CCE
:10285000E700854513050010EFE07FAD29A0854511
:102860001145EFE0DFAC8547339487004204418097
:10287000231281006383F4069376FA0F36C613178A
:102880002900A56793874719BA974C008843EFE062
:102890002FF9B250225492540259F249624A4561CA
:1028A000828085452145EFE09FA875BF854541455C
:1028B000EFE0FFA74DBF854513050002EFE03FA7FE
:1028C0005DB7854513050004EFE07FA669BF854528
:1028D00013050008EFE0BFA579B793170A01C1837C
:1028E000A1839DE78D473EC49376FA0F36C6131732
:1028F0002900A56693864619369704434C00268521
:10290000EFE00FF24E86A2852685EFE00FFE51B76D
:102910003EC4D9BF8280935755009D8B7D89054762
:10292000638DE5008A07256713074719BA9798430F
:1029300085473395A70048CB82808A072567130710
:102940004719BA97984385473395A70008CB8280EB
:10295000135735009376C701256713074719369734
:102960001C43984785473395A700798D3335A000E0
:102970008280B7E700E07D5723A0E71823A2E7187D
:102980008280011106CE2304A100A304B100230517
:10299000C10036C62800EFE08FFF37E600E018429E
:1029A000B7270020FD76F98E03A70777558F23A858
:1029B000E77658429387077712071183D443558FE0
:1029C000D8C303C7870085476305F700F240056158
:1029D00082804537E5BF411106C693070020630F8B
:1029E000F51C63F0A704930730216304F52263E923
:1029F000A70E930730206303F51E63F2A70C93071D
:102A000010216306F51E63EDA71E93070021631ACC
:102A1000F512930680310146854513056004DD33C8
:102A20000DA2930710106301F51463FAA702930730
:102A30000011630BF51463F4A706930720116306D6
:102A4000F516636BF51493073011631CF50E9306AE
:102A50008031014685451305B0026D33DDA08947FD
:102A60006304F50E63F1A7028D476307F50E930724
:102A700000106318F50C9306803101468545014529
:102A8000EFF05FD87DA85DC58547631CF50A930606
:102A90008031014685452545EFF0DFD65DA09307DF
:102AA0002010630BF50C93073010631CF508930698
:102AB0008031014685450D45EFF0DFD459A09307DD
:102AC00010206305F51093072020631CF50693067C
:102AD00080310146854513050002EFF0BFD295A075
:102AE000930700306309F51463F5A70293072030BC
:102AF0006305F516636AF514930730306313F50424
:102B0000930680310146854513059002EFF09FCF73
:102B10000DA8930700226307F51093071022631294
:102B2000F502930680310146854513055002EFF00A
:102B30007FCD01A893068031014685452145EFF000
:102B40007FCCB240410182809306803101468545A9
:102B50002945EFF03FCBF5B7930680310146854517
:102B60002D45EFF03FCAF1BF930680310146854500
:102B70000545EFF03FC9F1B7930680310146854521
:102B80000945EFF03FC875BF930680310146854582
:102B90003D45EFF03FC775B7930680310146854547
:102BA00013053002EFF01FC669BF9306803101465E
:102BB00085451305A002EFF0FFC461B7930680318D
:102BC000014685451945EFF0FFC3A5BF9306803147
:102BD000014685451D45EFF0FFC2A5B7930680313C
:102BE0000146854513051002EFF0DFC199BF93063A
:102BF00080310146854513057004EFF0BFC091B7E1
:102C0000930680310146854513058004EFF09FBF90
:102C10000DBF930680310146854513059004EFF002
:102C20007FBE05B7930680310146854513054002F6
:102C3000EFF05FBD39B79306803101468545130536
:102C40006002EFF03FBCF5BD93068031014685453B
:102C500013057002EFF01FBBEDB5930680310146FE
:102C6000854513058002EFF0FFB9E1BD397106DE3D
:102C700022DC26DA4AD84ED6AA84AE893289EFF011
:102C80009FD513D4840075C085476307F40E894728
:102C9000630CF4108D47630FF41285450545EFE092
:102CA0000FE9B7170240DC43C983BD8B37177A00A1
:102CB00013070720B387E7023727F40013070740FD
:102CC000BA9723AEF18433D73703418393051700B6
:102CD000B3853503B3D7B7029386F7FF231CD10022
:102CE000231AE100231D0100231B0100230E010014
:102CF000130700072312E10005472313E100231403
:102D00000100C207C183B38727030967130707714F
:102D1000B3D7E7022315F10089472316F1002317E3
:102D2000F10023180100231901000A04A567938705
:102D3000471A3E9400404C082285EFE00FEB8D8847
:102D4000F9C08547638CF40E89476387F4104C0003
:102D50002285EFE0BF93A1452285EFE07FA3930595
:102D600000402285EFE05FA85DA885450565130555
:102D70000580EFE0CFDB15B785450545EFE00FDDBA
:102D800085450545EFE0AFDA93D7440041476388B6
:102D9000E7044547E397E7F0854537051800130535
:102DA0000530EFE02FB5F5BD85450945EFE00FDAB9
:102DB00085450545EFE0AFD793D7440013071002D0
:102DC0006397E702854537151A00130505C0EFE044
:102DD0006FB2C1BD85451145EFE04FD77DBD85453B
:102DE0003705160013050504EFE0CFB05DBD1307EE
:102DF0002002E398E7EA854537151A001305058098
:102E0000EFE04FAF79BD4C002285EFE06FE9A145BF
:102E10002285EFE01F9491452285EFE01F998545BB
:102E20002285EFE0FF8E85452285EFE0BF90F250CE
:102E30006254D2544259B259216182804C00228599
:102E4000EFE0AFEEA1452285EFE0DF919305004072
:102E50002285EFE0BF96E1B74C002285EFE00FF846
:102E6000A1452285EFE0BF9191452285EFE0BF9615
:102E70007DB71357850093172700A5669386461ADA
:102E8000B6979C4383D7C702B385F50289679387BA
:102E90000771B3D5F50201EF0D89B757001093877D
:102EA000D7B03E950A05C205C1810CC18280854715
:102EB0006309F70089476300F7028D476308F7024B
:102EC00082800D89B7070010B5073E950A05C20537
:102ED000C1810CC182800D89B70700109387D7107C
:102EE0003E950A05C205C1810CC182800D89B707D4
:102EF00000109387D7203E950A05C205C1810CC1F9
:102F0000C1B7411106C622C426C24AC0AE8432846B
:102F100036892DCDC1476303F50893070002631876
:102F2000F50893068031054685451305D002EFF07C
:102F30007F8D8547638CF408C5476381F40A930746
:102F400010026396F40A9306803105468545130501
:102F5000F002EFF03F8B8947630AF40AC947630F19
:102F6000F40A930720026304F40C930730026319F8
:102F7000F40C93060031054685454A85EFF09F889D
:102F8000B24022449244024941018280930680313A
:102F9000054685451545EFF0FF8661BF93068031F4
:102FA0000546854513053002EFF0DF8559B7B79622
:102FB00000009386461C25661306461B9305D00227
:102FC000379500001305851CEF40E05F93068031C4
:102FD000054685451D45EFF0FF82B5BF930680315C
:102FE0000546854513055002EFF0DF81ADB7B79672
:102FF00000009386461C25661306461B9305200396
:10300000379500001305851CEF40E05B9306803187
:10301000054685451945EFF0EFFEA1BF93068031C7
:103020000546854513054002EFF0CFFD99B793069D
:103030008031054685451305E002EFF0AFFC15BF72
:10304000B79600009386461C25661306461B93051B
:103050008003379500001305851CEF40C056397179
:1030600006DE22DC26DA4AD84ED652D456D25AD0C0
:103070002A84AE89328AB68A3A8BBE84428949C58F
:1030800085476309F508DA865686D2854E85EFF0C6
:103090005FE723160100930740102317F100231860
:1030A000010085476383F40893978401E187ADCBE2
:1030B00089476382F4088D476385F40893070020ED
:1030C000231BF1000E09231C2101231D01009D4734
:1030D000231EF1000A0413850181229500416C0032
:1030E0002285EFE08FA8C1476384F90685452285D4
:1030F000EFE04FADF2506254D2544259B259225AC5
:10310000925A025B21618280854505650505EFE0E5
:103110000FA295BF854511650505EFE02FA3A5B763
:1031200023190100231A010051BF2319010085470B
:10313000231AF10061B789472319F100231A01000E
:10314000B5BF89472319F1008547231AF100BDB7A0
:1031500085450545EFD01FFA51BFAE969387018193
:103160000A053E956387B602184183578700898B0D
:10317000EDDF850583C7F5FF2316F70065D6835776
:103180008700858BEDDF8357C7002300F600050617
:10319000D1BF8280411106C6EF109037B240410185
:1031A0008280411106C60DE585476385F500B24072
:1031B0004101828093068031014685452545EFF027
:1031C0006FE49146014681452945EFF0AFE3C5B76D
:1031D00089476309F502C1476306F50493070002B6
:1031E0006310F50693068031014685451305A0025C
:1031F000EFF04FE19146014681451305B002EFF033
:103200006FE075B79306803101468545130560026E
:10321000EFF04FDF91460146814513057002EFF054
:103220006FDE71B793068031014685450945EFF0A1
:103230006FDD9146014681450D45EFF0AFDC85BF5E
:1032400093072002E315F5F6930680310146854584
:103250001305A004EFF00FDB9146014681451305ED
:10326000B004EFF02FDAA1B7797106D622D426D2B6
:103270004AD04ECE2A84AE89B2843689854505452A
:10328000EFE0EF8ACA852685293F89476381F402EA
:10329000930720026390F40293073002631CF90045
:1032A0008545370514004105EFD0DFE421A08D47A7
:1032B000630AF90429CC85476300F4068947630350
:1032C000F4064EC023120100231301002314010051
:1032D00023160100B1472315F1000A04A56793875F
:1032E000471F3E9400408A852285EFE02FD4854514
:1032F0002285EFE02FE3B250225492540259F24952
:103300004561828085451145EFD0DFDE65B7854593
:103310001165EFE0CF8175B7854537050200EFE015
:10332000EF8245B7854537050400EFE02F8251BF96
:103330000A05A5679387471FAA97984383570700F5
:1033400093F70708E5DFC205C1812312B700828029
:10335000411106C622C426C22A84AE841317250052
:10336000A5679387471FBA97054693055052884330
:10337000EFE04FDDA6860146854513055403EFF0C7
:103380004FE0B24022449244410182800A05A56781
:103390009387471FAA9798438357070093F707021D
:1033A000E5DF835747002380F50082800A05A56783
:1033B0009387471FAA9798438357070093F70702FD
:1033C00099E301458280835747002380F500054536
:1033D000828003A501868280411106C693870186FB
:1033E0009843050798C3EF1060763C41FD173CC138
:1033F00091C7EF107039B240410182805C5D3CC1E1
:10340000EF103001FDB7634205029307803E33475A
:10341000F5023307F7023365F5023305F5021305AC
:10342000753E3345F5023A9582807D55828001458F
:103430008280014582800145828001458280296722
:10344000130707C6A967938747C6637CF702411134
:1034500006C622C426C22964930404C6A9679387BA
:1034600037C6858FF19B9107BE94130404C61C4098
:1034700082971104E31D94FEB2402244924441011C
:10348000828082802967130747C6A9679387C7C6CA
:10349000637CF702411106C622C426C22964930444
:1034A00044C6A9679387B7C6858FF19B9107BE94E1
:1034B000130444C61C4082971104E31D94FEB240DD
:1034C00022449244410182808280411106C65D3FC0
:1034D000EFD0DF97B24041018280411106C6D1474B
:1034E0000947930600400146B73500009385A54C77
:1034F0003795000013054520EF10A065EF10700709
:10350000B24041018280411106C6EFC07FC3EF2067
:10351000D02EEF009059EF103030EF108031753F12
:10352000EF103030F920EF10E0330145B240410197
:103530008280411106C6C13F0145B24041018280EF
:1035400003A7C1889387C188630FF708011106CECE
:1035500022CC26CA4AC84EC652C456C29389C188D4
:10356000854A2DA02685EF10402C630A5505EF10E3
:1035700040465285EFC03FBD4848EF100007268502
:10358000EF10602783A7C18863863705EFC05FBB54
:103590002A8A83A7C188638D370303A4C188930453
:1035A000C4FE18405C405CC3184098C340C000C0D3
:1035B000EF1020407C4CDDD72685829765B72685A5
:1035C000EF10401AEF10E0405285EFC0DFB719A0AE
:1035D000EFC07FB7F2406244D2444249B249224A26
:1035E000924A056182808280411106C6EFF05FF544
:1035F000F5BF411106C622C43724002093080002FB
:103600001D4893070030372700201307477F814666
:10361000373600001306865EB79500009385C520F7
:103620001305C477EF1080471305C477EF1060745B
:10363000B240224441018280411106C622C426C202
:103640004AC02A843289B6842E868945EF10600AE2
:10365000930744011CCC5CC8231E2401A3049400DE
:103660000145B24022449244024941018280411105
:1036700006C622C426C2AE843284AA850945EF104C
:10368000401109C9930745011CCD5CC9231E950053
:10369000A3048500B24022449244410182807971A2
:1036A00006D622D426D24AD04ECE52CC2A842EC65A
:1036B000EFC01FA9AA898357C401A1E7B247A9CBCC
:1036C000EF10C048AA842328050213094401034AC5
:1036D0009400EF10005A63010A0485476308FA0456
:1036E000B2476348F0084E85EFC0FFA5EF10A01A5F
:1036F0008858B250225492540259F249624A4561A4
:103700008280FD17231EF400EFC0FFA30145D5B74B
:10371000EFC07FA37955F1BF93874401184C1CC3B8
:10372000184C98CC1CCC23AA24015DBF5C486308CC
:10373000F90283C6540303C7170263E9E6009C43FA
:10374000630FF90003C71702E3FBE6FE138744018A
:10375000D44398C2D44394CCD8C3DCC851B7938720
:103760004401184C1CC3184C98CC1CCC23AA24012F
:1037700085BF13844404700081452285EF10C07C0E
:103780002285EF10806E85B7411106C622C426C27D
:103790002A84EFC0FF9AAA84484893074401630033
:1037A000F5023115EF10E0572685EFC0DF99EF10D5
:1037B000800E0145B24022449244410182808357E9
:1037C000C4018507231EF4002685EFC0DF97D5B717
:1037D000411106C622C426C24AC0AE843289AA85D7
:1037E0001545EF00107B2A841DC9A304250193070A
:1037F00045011CCD5CC9231095021395040141813C
:103800000A05EF00304848CC15C1231104022312E9
:10381000040223130402930784025CD41CD422857F
:10382000B240224492440249410182802285EF0045
:10383000907C0144EDB7397106DE22DC26DA4AD8E5
:103840004ED652D456D25AD05ECE62CC66CA2A84A4
:103850002E8C32C6EF10802FAA84EFC07F8EAA89EB
:1038600003572402835704026309F70403574402F1
:103870005C4C0A07BA9723A0870183574402850747
:10388000C207C1832312F4020357040263E4E70072
:10389000231204028357240285072311F4024848A7
:1038A0005104630785123115EF10A0474E85EFC014
:1038B0009F89EF00507E014525A0B247814C89CBFE
:1038C000130A8402938A4401054B938B4404B9A8DC
:1038D000EFC07F87755529A04E85EFC0DF867555EF
:1038E000F2506254D2544259B259225A925A025B4F
:1038F000F24B624CD24C216182805C5423A0570170
:103900005C549CCC2326540323AA4401B24763454C
:10391000F0084E85EFC03F83EF00F077885869F1DB
:10392000EFC01F82AA89B2476344F00803572402FC
:1039300083570402E31CF7F223A80402B247C9DF4D
:10394000034994002685EF10C032E30809FAE31F0B
:1039500069FB1C546308FA0283C6540303C71702A9
:1039600063E9E6009C43630FFA0003C71702E3FB19
:10397000E6FED84323205701D84398CC23A2570111
:10398000DCC869B75C5423A057015C549CCC232647
:10399000540323AA44019DBFEFF0BFA3AA8C70007B
:1039A00081455E85EF10405A5E85EF10004C95B75B
:1039B000EFF03FA233079541B247E6973385A74022
:1039C000634505002AC6BA8C95B702C6BA8CB9BF42
:1039D0004E85EFC04FF7014521B7411106C601469C
:1039E000EFF07FE5B24041018280397106DE22DCD2
:1039F00026DA4AD84ED652D456D25AD05ECE62CCAF
:103A000066CAAA842E8C32C6EF1040142A84EFC0F6
:103A10002FF3AA8983D72402639C0710B247814CF5
:103A200089CB138A4401930A4401054B930B440448
:103A30008DA0EFC04FF1795539A04E85EFC0AFF0A2
:103A4000F9571CD87955F2506254D2544259B259A0
:103A5000225A925A025BF24B624CD24C2161828014
:103A60009C4C23A057019C4C1CCC23AC5401232A12
:103A70004401B2476342F0084E85EFC0CFECEF003F
:103A80009061085869F1EFC0AFEBAA89B247634172
:103A9000F00883D72402C9EF23280402B247D1DFFC
:103AA00003C994002285EF10C01CE30B09FAE3124E
:103AB00069FDDC486308FA028346540303C7170212
:103AC00063E9E6009C43630FFA0003C71702E3FBB8
:103AD000E6FED84323205701D84318CC23A2570130
:103AE0005CC841BF9C4C23A057019C4C1CCC23AC10
:103AF0005401232A4401B5BFEFF0BF8DAA8C70009A
:103B000081455E85EF1040445E85EF100036ADB70D
:103B1000EFF03F8C33079541B247E6973385A740D6
:103B2000634505002AC6BA8CADB702C6BA8C95B7F4
:103B300003D76402DC4C0A07BA979C432320FC009D
:103B400083D764028507C207C1832393F40203D796
:103B5000040263E4E7002393040283D72402FD17E1
:103B60002391F402885493848402630C95003115E8
:103B7000EF10201B4E85EFC00FDDEF00D051014547
:103B8000D9B54E85EFC02FDC014575BD411106C684
:103B9000EFC00FDB1387418683470700850793F744
:103BA000F70F2300F700EFC00FDAB2404101828027
:103BB000411106C6EFC0CFD813874186834707005F
:103BC000FD1793F7F70F2300F700EFC0CFD7B240F0
:103BD00041018280411193780804639F0802256F98
:103BE000130F8F5093780801638C08021378E8FF55
:103BF000930200029378280063840804634B060252
:103C000093784800930FB002639D0802937F880069
:103C1000B33FF001960F35A0256F130F4F46D9B76C
:103C20009378180093020003E39608FC93020002C5
:103C3000D1B73306C040930FD0028148A94E81A866
:103C4000814F65FE930600032300D1008548468E10
:103C500063D3F8003E8E3307C74193761801BDE267
:103C600063880F10635EE00E1303E7FF854663C5AC
:103C7000E6101A87FDA01373F60011828508330E33
:103C800011017A9303430300A30F6EFE69D2E394FC
:103C9000D6FF3373D6033356D603CDB70507B30625
:103CA000E6406357D000E37BB7FE2300D701FDB7A2
:103CB0001307F3FF1346F3FF7D86B376C300158F1A
:103CC00085063695639F0F08137808016312080272
:103CD0009306F7FF6357E0042A9721A005056307C1
:103CE000E500E37DB5FE23005500CDBF3A857D5745
:103CF000B3061E41AA961306000363CFC801AA8625
:103D0000635F10038DCF46830A8533061501B6879E
:103D100039A80505E306D5FEE37DB5FE2300C50001
:103D2000CDBF3687F1B785077D166309A600E3FC92
:103D3000B7FE0348F6FF23800701F5B79A9633854F
:103D4000E600930700026348E00036854101828067
:103D50008506E38DA6FEE3FDB6FE2380F600CDBF0B
:103D60007D176374B5002300F5017D170505A9BF14
:103D70001303F7FF6359E0002A87930E000213062E
:103D800015001A960DB71A8781B78D4763F9C700DA
:103D9000937735008DC71307F6FFAA8729A0AA8756
:103DA0001307F6FF01CE05073E978507A38FB7FEE1
:103DB000E39DE7FE8280BA874286DDB7828093F773
:103DC000F50F93968700D58F93960701DD8EBD473B
:103DD00063F1C704930706FFC19BC107AA972A870F
:103DE00014C354C314C74107232ED7FEE39AE7FE3A
:103DF0001378F600318A61D29307C8FFF19B9107CF
:103E0000BA971107232ED7FEE31DF7FE137638006D
:103E100041BF2A873288CDB763E0A502B306C5004B
:103E2000AA8711CA850585070387F5FFA38FE7FEDB
:103E3000E39AD7FE828082803387C500E370E5FE77
:103E4000B307C50065DA7D17FD17830607002380D9
:103E5000D700E31AF5FE828009CEAA8685059387EE
:103E600016000387F5FFA38FE7FE09C77D16BE8600
:103E700075F682801307F6FF6DDF36968507A38FF0
:103E800007FEE31DF6FE82808307050089CBAA8723
:103E90008507038707006DFF3385A7408280AA87C7
:103EA000E5BF5D7186C6A2C4A6C2CAC04EDE52DCA2
:103EB00056DA5AD85ED662D466D26AD06ECEAA8C52
:103EC0002E8D368CB30AB50063F5AA00134DF5FFAD
:103ED000FD5A83070600E68963820736930B50027A
:103EE0001309B0022567930D472141677D173AC436
:103EF00009A8850932841306140083071400638F10
:103F0000073263877701E3F659FF2380F900D5B7BD
:103F100081441307D0029306000293053002130573
:103F2000000321A093E404012286130416008307F2
:103F30001600E389E7FE638B2701638CD700638D4E
:103F4000B700639EA70093E41400F9BF93E4440014
:103F5000E1BF93E48400C9BF93E40402F1B73E8754
:103F6000938607FDA54563F6D5041307A0027D5A85
:103F70006382E706030704009307E0027D5B6309A1
:103F8000F7068307040013F6B7FF93068006014780
:103F9000630CD60A834704009387B7FD13F6F70F27
:103FA0009306300563E8C62093172600EE979C43DE
:103FB0008287014AA546050493172A003E9A060AFD
:103FC0003A9A130A0AFD03070400930707FDE3F476
:103FD000F6FE4DB71304260093074C00032A0C008D
:103FE0003E8CE3590AF8330A404193E4040159B77F
:103FF0001307140083071400BE86938507FD25462A
:104000006379B6009306A0026386D7023A84014B17
:104010008DBF014B050793172B00DA978607B697DC
:10402000138B07FD83060700938706FDE374F6FEF6
:104030003A8429A00904032B0C00110C9347FBFFC1
:10404000FD87337BFB0035BF13F7F70F050499B7E6
:10405000C14641AAC1889DC093064C0063F6590130
:1040600083270C002380F9009387190005476351CB
:10407000471D52864E9A130700020DA89307FAFFB8
:104080006351F002CE971307000221A085096387D0
:104090003701E3FD59FF2380E900CDBFBE89014A06
:1040A00065BF3E8A55BF850763874701E3FD57FF1C
:1040B0002380E700CDBFB299368C35BD93074C0005
:1040C0003EC6032C0C0063010C026285EFF0DFDBBF
:1040D000635560016353AB005A85C18899C863502A
:1040E000A006B387A900A9A0B7970000138C0750BA
:1040F000E9BF9306FAFF63574503D2852A87B307C2
:10410000AA40CE971306000221A085096387F90013
:10411000E3FD59FF2380C900CDBF330AB740369A6B
:10412000BE8975BF368A65BF8509050C638AF900AB
:10413000E3FC59FF03070C002380E900F5B7CE87A5
:10414000635B450F3305AA40B389A700130700023C
:1041500021A0850763873701E3FD57FF2380E70030
:10416000CDBF324C49BBFD576302FA0293074C00A6
:104170003EC62688DA875287C14603260C00D685BC
:104180004E85EFF03FA5AA89324CB5B393E41400F5
:10419000214AE9BF63F65901930750022380F900D1
:1041A000850991BB93E40404C14625A893E4240047
:1041B000A94605A863F65901930750022380F90028
:1041C000138719008307040099C763745701A380FC
:1041D000F90089090DB37D14BA8931BBA94611A034
:1041E000A1469307C0066302F702930780066302A5
:1041F000F70203260C00110C2688DA875287D68531
:104200004E85EFF03F9DAA89FDB103260C00110CED
:10421000E5B793074C0003260C0013F7240009E7C9
:104220002247798E3E8CC9BF420641863E8CE9B753
:10423000368CBE89C9B1324CBE8975B963060D0092
:1042400063F559032380090033859941B64026441C
:1042500096440649F259625AD25A425BB25B225CDA
:10426000925C025DF24D61618280A38F0AFEE9BF1C
:10427000397106CE22CC2ED232D436D63AD83EDA96
:1042800042DC46DE541036C6373400202A869305B9
:10429000F007130544AFEFF0DFC0130544AFEF1094
:1042A0007067F240624421618280411106C63795F1
:1042B000000013058547EFF0BFFB3795000013059D
:1042C0004548EFF0FFFA379700001307874A8D46FD
:1042D00005468D45379500001305454BEFF05FF916
:1042E000379500001305454DEFF09FF8B2404101AE
:1042F00082800DC59377F50F9DE3C167938707F023
:10430000E98F95E7B707FF00E98F8DEF6181A5671A
:10431000938747363E9503450500650582802567EE
:1043200013074736BA9703C5070005058280218524
:104330001375F50FA567938747363E95034505002E
:104340002505828041851375F50FA567938747364C
:104350003E95034505004505828003A7C1865C4163
:10436000BA976304F50283D6270085E283A6818687
:10437000638DF60083A60187638BF602D44354C194
:10438000DC43BA97B306E54094C71445B307D7009A
:10439000630EF50003D6270011EA03A60187630B1D
:1043A000A6005041D0C35C413E9714C7828023A829
:1043B000A186E9B723A8F186EDB7411106C683A50A
:1043C00081873795000013058552EFF07FEA83A5BA
:1043D000C187379500001305C553EFF07FE983A52A
:1043E00041873795000013050555EFF07FE8B2408F
:1043F00041018280411106C622C413F7C5FFE14680
:1044000063F9E60093073500F19B930687FE63FE90
:10441000F6002E86AA85379500001305455CEFF05F
:104420003FE5B2402244410182801D8F130687FE82
:1044300023ACC1861384C1861CC08966938606EAB4
:104440002390D7005117D8C323A407002391070056
:10445000BA9723A4F1862390D70085462391D700ED
:10446000D8C398C781460546B79500009385C55BBC
:1044700037350020130545B7EFF00F9C184023A8EF
:10448000E18645B7630A0512411106C622C426C259
:1044900093043500F19883A7818763E19712B147B0
:1044A00063F3F400B144FD5537350020130545B7DB
:1044B000EFF0EF9E03A5018783A6C186B307D54021
:1044C00003A881873306984063E4C7063735002088
:1044D000130545B7EFF04FAB0145B240224492447B
:1044E0004101828085472311F4009387C18790435F
:1044F000329798C383A7418763F0E70A23AAE1862E
:1045000061A883572500C5C303A78186630DE5080D
:10451000484136958357250091C7E31BA7FE23A882
:10452000A18651A023A8A186BDA85C40E3F0C7FAEC
:104530003384F600035724006DFB58401D8F93050C
:1045400047FFE3E495FE13868401E3EDC5F8138687
:10455000C4003E963387C6008965938505EA23101B
:10456000B700231107004C404CC31CC750C08547FF
:104570002311F4005C43310863840701B69790C7A8
:104580001387C1871C43B107BE9404C383A7418727
:1045900063F4970023AA91868967938707EA23101B
:1045A000F400E30085F637350020130545B7EFF03A
:1045B000AF9D1305C40015B701458280014531BF89
:1045C000411106C622C426C2B304B5022685EFF007
:1045D0007FEB2A8409C526868145EFF00FFB2285F3
:1045E000B240224492444101828009C983A7C18616
:1045F0006366F50083A781866363F50082804111BD
:1046000006C622C426C22A84930445FFFD553735C9
:104610000020130545B7EFF08F88835764FF81CBE7
:10462000035744FF8967938707EA6303F7023795C7
:10463000000013050557EFF0BFC3835644FF035630
:1046400064FFA685379500001305C558EFF05FC2DB
:10465000231B04FE8967938707EA231AF4FE83A7C6
:10466000018763F4F40023A891861387C1871C4354
:10467000832684FF958F83A6C186B386D440B697E0
:104680001CC32685EFF07FCD37350020130545B7D5
:10469000EFF08F8FB2402244924441018280AA877A
:1046A0003707002003270701630CE50237070020C6
:1046B000032707026302E5023707002003270703E9
:1046C000630EE50037070020032707040145630355
:1046D000F70082800D4531A0054521A0094511A0B4
:1046E00001459317450037050020130505013E9548
:1046F000CDB7011106CE22CC26CA4AC84EC652C436
:10470000AA84AE89328A2E85EFF07FF92A89552452
:104710008327490013044900638587009C43E39F76
:1047200087FE452C93E909F8238434012146D2857C
:104730002685EFF06FF2EFB0BFA09387C400032788
:1047400049005CC303274900D8C42322F90080C86C
:10475000EFB07F9FF2406244D2444249B249224ABC
:1047600005618280411106C622C42A842304050003
:10477000EFB01F9D9307C40054441848D8C2544456
:1047800014C31CC85CC4EFB01F9CB240224441015A
:104790008280011106CE22CC26CA4AC84EC6AA89FA
:1047A0002E89EFF0DFEFAA844845EFF0BFCD2A84D1
:1047B0001DC9D0448145EFF04FDD23043401A3042B
:1047C00004002146CA852285EFF00FE9EFB05F971C
:1047D0009307C400D8405CC3D84058C4DCC09104DF
:1047E00004C8EFB05F962285F2406244D244424949
:1047F000B24905618280411106C622C42A8423047D
:104800000500EFB0FF939307C40054441848D8C282
:10481000544414C31CC85CC4EFB0FF922285EFF06F
:10482000DFDCB240224441018280030585007D81A6
:10483000828023940188B7370020938747B9138774
:104840000704DCC39CC3A107E39DE7FE1D4723804B
:10485000E18823A2018823AA01889387C188DCC349
:104860009CC38280411106C603A54189EFF07FA851
:104870007D159317350037350020130545B93E9552
:1048800008411307C5FE23A2E1882105EFB01F8C64
:10489000B24041018280411106C622C4EFB05F8A56
:1048A0002A8483978188B1E303A54189EFF07FA42F
:1048B0007D1513173500B7370020938747B9BA978E
:1048C0008C439387C5FE03A741886300F7022380CA
:1048D000A18823A2F18883C7418693F7F70F89CF78
:1048E000A1051305C701EF00C0782285EFB0BF8591
:1048F000B240224441018280A1051305C701EF00A7
:1049000000762285EFB03F84E5B7411106C622C488
:104910002A84EFB0FF8283474403C19B93E71700CB
:10492000230AF40283475403930644011397370084
:10493000B7370020938747B9BA97D84314C3D843F1
:1049400018CCD4C35CC893874189185C9443558FB5
:1049500098C3EFB04FFFB240224441018280411121
:1049600006C622C42A84EFB0AFFD93074401544821
:10497000184CD8C2544814C31CCC5CC88347540399
:1049800013973700B7370020938747B9BA979843F2
:104990006308F700EFB02FFBB24022444101828050
:1049A000138741891C5C93C7F7FF1443F58F1CC321
:1049B000D5B7411106C6EFB0AFF89387818803D70A
:1049C000070005072390E700EFB0EFF7B240410181
:1049D0008280411106C6EFB0AFF6138781888357F6
:1049E0000700FD17C207C1872310F7006357F000C7
:1049F000EFB06FF5B2404101828023940188EFB09F
:104A00008FF483A74188FDD7EFF0FFE8E5B74111A8
:104A100006C622C426C203A44188EFB06FF2AA845E
:104A20002285EFF0DFF39147230AF40213054404D3
:104A3000C1262285EFF07FDF85476307F502130764
:104A4000440183A6C188D8C254C823A6E1889387AD
:104A5000C1881CCC2685EFB00FEFEFF0DFE3B2404A
:104A600022449244410182803C58F1FB2285EFF0C0
:104A70007FCFCDB7411106C6795718D91307450125
:104A80005049144D54C2504990C218CD58C9EFF046
:104A9000DFE7EFF05FE0B24041018280011106CE16
:104AA00022CC26CA4AC84EC652C456C25AC02A840C
:104AB000328BB68ABA893E8A4289C6842E8685455B
:104AC000EFF03FC3930744011CCC5CC82320640370
:104AD00023225403232434032326440352869305BC
:104AE00030024E85EFF06FAA5C54F1171054B756A0
:104AF00000009386E6A03E964C500850252348CCF3
:104B0000230B2403A30A2403232C040244DC24C023
:104B100023280402230A040223280406232A040665
:104B200081470147A28637560000130646A7A28593
:104B300013054404BD240145F2406244D244424975
:104B4000B249224A924A024B0561828003A54188FC
:104B50008280011106CE22CC26CA4AC84EC652C453
:104B600056C2AE8A328AB684BA893E89AA8505457C
:104B7000EFF03FC249CD2A842685EFF0BF9059C19E
:104B8000930744011CCC5CC8232054032322440314
:104B900008D444D4268693053002EFF00F9F5C546E
:104BA000F1171054B75600009386E6A03E964C507D
:104BB00008508D2948CC230B3403A30A3403232C3B
:104BC0000402232E24032320240523280402230A7D
:104BD000040223280406232A040681470147A286EB
:104BE00037560000130646A7A28513054404552A2C
:104BF0002285F2406244D2444249B249224A924A52
:104C0000056182802285EFF01FBF0144D5B70144C2
:104C1000C5B7411106C6EFB0AFD283A7418803C71D
:104C200047033D8B85466316D700D44B984F639856
:104C3000E600EFB04FD10145B240410182801386BA
:104C40004701D8C2D44B14C390CFD0CB83C65703EF
:104C5000373700208E06130747B93697544390C262
:104C6000544394CF50C3D8CBEFB0EFCDEFF0BFC2D9
:104C7000D9B783474503BD8B05476390E7044111CE
:104C800006C622C426C22A84EFB08FCBAA848347EB
:104C90004403C19B93E72700230AF4022285EFF027
:104CA0001FCC1305440485242685EFB0CFC90145E8
:104CB000B24022449244410182807D55828001119C
:104CC00006CE22CC26CA4AC82AC6EFB06FC72A89A8
:104CD00003A441882285EFF0DFF9930444047000B7
:104CE000814526859524268549224A85EFB0AFC5A2
:104CF000EFF07FBA1858F9576309F7000145F24001
:104D00006244D24442490561828023280402FDB7EF
:104D1000411106C6EFE02FEFEFF07FFAB2404101FC
:104D2000828083474503BD8B09476392E7044111A5
:104D300006C622C426C22A84EFB08FC0AA84930775
:104D400044015448184CD8C2544814C31CCC5CC805
:104D5000130544044D2A2685EFB0EFBE2285EFF0FF
:104D6000DFBA0145B24022449244410182807D5520
:104D70008280411106C683466503A30AD502054712
:104D80003317D70018DD0947230AE502EFF07FF952
:104D900083A7418899C3EFF01FB00145B24041019C
:104DA0008280011106CE22CC26CA4AC84EC652C401
:104DB0002A84328AB6893A89BE842E86A945EFF0C4
:104DC0005F93F998A3049400232E44012320340315
:104DD0002324040223222403930744011CCC5CC82F
:104DE000F2406244D2444249B249224A056182807B
:104DF000411106C622C42A84EFB08FB49307440140
:104E00005448184CD8C2544814C31CCC5CC8EFB0EA
:104E10008FB32285EFF01F950145B2402244410136
:104E20008280011106CE22CC26CA4AC84EC6AE895F
:104E30003289B6843A84AA852945EFF09F9519CD29
:104E40007998A3048500232E3501232025032324EC
:104E5000050244D1930745011CCD5CC9F240624470
:104E6000D2444249B24905618280411106C622C43A
:104E700026C22A84EFB0CFAC9304440158481C4C9E
:104E80005CC3584898C304CC44C883479400F99B3A
:104E9000A304F400EFB02FABEFE0AFD35C503E952E
:104EA00008D4EFB0EFA99387C189CC431387C18998
:104EB000370800801348E8FF11A03687638CE500AF
:104EC0001443DC4A1054E38AC7FE918F6374F800E0
:104ED0003687EDB7938781899443850694C31C4335
:104EE000C4C31C435CC804C318CC8347940093E735
:104EF0001700A304F400EFB00FA50145B24022440F
:104F000092444101828083479500858B99E37D55CA
:104F10008280411106C622C42A84EFB06FA2930793
:104F200044015448184CD8C2544814C31CCC5CC823
:104F3000EFB06FA183479400F99BA304F4000145EF
:104F4000B24022444101828085476385F50263DFD8
:104F5000B70089476384F5028D47639FF500834757
:104F6000950093E72700A304F50039A091E51C42C2
:104F70005CD119A05C511CC2014582808347950019
:104F8000F59BA304F500CDBF011106CE22CC26CAA5
:104F90004AC84EC652C456C2EFE0AFC32A8AEFB029
:104FA0002F9AAA899384C189B707008013C9E7FFA4
:104FB0008D4A8040631E94004E85EFB0CF98F2403A
:104FC0006244D2444249B249224A924A05618280EF
:104FD0005C48330AFA40E36149FF18405C405CC317
:104FE000184098C340C000C01C4448448297EFE07A
:104FF0004FBE2A8A834754FF13F7370063065701D1
:10500000F99BA30AF4FE75B7F99BA30AF4FE1305F6
:10501000C4FEEFF09FE571BF9387C189DCC39CC3D9
:10502000828082802A881106719A130506F8AA8761
:1050300037C7ADDE1307F7EE98C39107E31EF6FE00
:105040002322D6F82324B6FA232006F9A1679387F2
:1050500007882324F6F8828023A6018A828023A26F
:10506000A18A23A4B18AB7E700E0116723A0E72053
:10507000828083A7C18A99E323A2A18A23A4B18A4B
:10508000054723A6E18AB7E700E0116723A0E720E0
:105090008280411106C63795000013050569EFF0BF
:1050A0002F9D0145B24041018280011106CE22CCE4
:1050B00026CA4AC84EC6004163088502AA8437A999
:1050C0000000B7A9000001A81385C993EFF04F9A1B
:1050D0000040638B84009305C4FE13058993EFF0B1
:1050E0002F991C40E39297FEF2406244D244424919
:1050F000B24905618280411106C6EFF00F9B014560
:10510000B24041018280011106CE22CC26CA4AC893
:105110004EC623A80500DC45BDC383C78500B5C3C3
:105120002E892A8483A9050039CDEFB06F8183478A
:10513000C4FF93F7F7F7034789006391E7028327DA
:10514000490081440040638F89008504910723AEA4
:1051500087FE0327C900E31797FE31A0EFA0BFFE2B
:10516000014431A00144EFA01FFE232899002285AD
:10517000F2406244D2444249B2490561828001440E
:10518000FDB70144EDB7EFA0BFFB4E844DBF517199
:1051900086D7A2D5A6D3CAD1CECFD2CDD6CBDAC9A7
:1051A000DEC7E2C5E6C3EAC16EDF0545EFF02FCFEB
:1051B00011052ACF85472302F10AFC183ED1A147E9
:1051C0003ED502D73796000013068679A14537955C
:1051D00000001305057AEFF0AF892144B794000071
:1051E0001385447EEFF0CF887D147DF8379500005D
:1051F0001305857EEFF0CF87814AB7AB000037AB50
:105200000000B7AD0000D5A8130A44FF13068007BD
:10521000D2854800EF2020414E85EFA0DFF2034702
:105220009402D2862146A14513858B82EFF04F84EC
:1052300083478402BD8B05476382E708094763847F
:10524000E708D9C71147638AE7080D47638CE70869
:105250004C4C03C7050093073002631CF708AE8669
:1052600013073002850683C70600E38DE7FE105062
:10527000B295B386D54093074006B386F602084838
:105280005C505858B3D6C602898D13050B87EFE0E2
:105290003FFE85041109BA5763DFF40403240900B3
:1052A000EFA01FEAAA898347C4FF93F7F7F70347E4
:1052B000410AE38BE7F4EFA01FE9E1BF13854C83BC
:1052C000EFE01FFB71B713050D84EFE07FFA49B7DC
:1052D0001305CC84EFE0DFF9A5BF13858D85EFE0E2
:1052E0003FF9BDB7B7A7000013854786EFE05FF829
:1052F00085B7AE86ADBF63840A026C095685EFF0B0
:105300009FE0AA8ABA57E358F0FE1309C107814407
:1053100037AC000037AD0000B7AC000041B7014525
:10532000BE502E549E540E59FE496E4ADE4A4E4BD4
:10533000BE4B2E4C9E4C0E4DFA5D6D61828001116C
:1053400006CE22CC26CA4AC84EC652C437950000A3
:105350001305456AEFE0DFF103A4018B83A7418BBE
:10536000637AF402B7990000379A000031A0210453
:1053700083A7418B6370F402044009469385896BCF
:105380002685EF20B02265D5A6851305CA6BEFE010
:105390003FEEF1BF0145F2406244D2444249B24976
:1053A000224A056182801D7186CEA2CCA6CACAC8D7
:1053B000CEC6D2C4D6C2DAC02945EFF04FAE110531
:1053C0002AD6A947230AF1027C003ED8A1473EDC39
:1053D00002DE37A6000013068689A14537A5000026
:1053E0001305058AEFE0DFE82144B7940000138538
:1053F000447EEFE0FFE77D147DF837A5000013053C
:10540000858CEFE0FFE6014AB7A9000037AB00004A
:10541000B7AA000085A0EFA01FD385041109F25799
:1054200063D8F40403240900EFA09FD18347C4FF8D
:1054300093F7F7F703474103E39FE7FCEFA0BFD0E3
:105440005C4C184C930644FF2146A1451385C98E38
:10545000EFE01FE28347D4FF858B91C713854A9005
:10546000EFE01FE15DBF13050B91EFE07FE075B743
:10547000630E0A006C105285EFF0FFC82A8AF257BB
:10548000E358F0FE1309C100814469BFEFD07FF4F7
:10549000AA8537A5000013050592EFE07FDD0145E1
:1054A000F6406644D6444649B649264A964A064BD3
:1054B00025618280597186D6A2D4A6D2CAD0CECE1A
:1054C000D2CCD6CADAC8DEC61545EFF04F9D11051D
:1054D0002AD69547230AF1027C003ED8A1473EDC3C
:1054E00002DE379600001306066CA14537950000D2
:1054F0001305856CEFE0DFD72144B79400001385D6
:10550000447EEFE0FFD67D147DF83795000013054B
:10551000C56EEFE0FFD5014AB79B0000379B000046
:10552000B79A000061A0EFA01FC205099109F257C8
:10553000635CF90603A40900EFA09FC08347C4FF82
:1055400093F7F7F703474103E39FE7FCEFA0BFBFE3
:10555000930484001044638BC402930644FF0357F2
:10556000640183574401014805081042E39EC4FECC
:105570002146A14513058B70EFE09FCF2685EFF004
:10558000DFB213850A6AEFE0BFCE45B70148835703
:10559000440103576401930644FF2146A145138546
:1055A0000B72EFE0FFCC51B7630E0A006C1052850E
:1055B000EFF07FB52A8AF257E358F0FE9309C10055
:1055C00001498DBF0145B650265496540659F649F7
:1055D000664AD64A464BB64B65618280597186D67B
:1055E000A2D4A6D2CAD0CECED2CCD6CADAC8DEC613
:1055F0000945EFF0CF8A11052AD68947230AF1021F
:105600007C003ED8A1473EDC02DE37960000130640
:105610008673A1453795000013054574EFE05FC51B
:105620002144B79400001385447EEFE07FC47D14CD
:105630007DF83795000013050576EFE07FC3014A3A
:10564000B79B0000379B0000B79A000041A0EFA075
:105650009FAF05099109F2576358F90683A4090021
:10566000EFA01FAE83C7C4FF93F7F7F703474103CB
:10567000E39FE7FCEFA03FAD1384840090446309EF
:10568000C402938644FF03D7040181478507104273
:10569000E31EC4FE2146A14513058B77EFE05FBDF5
:1056A0002285EFF09FA013850A6AEFE07FBC55B713
:1056B000814703D70401938644FF2146A145138502
:1056C0008B78EFE0FFBA71B7630E0A006C10528559
:1056D000EFF07FA32A8AF257E358F0FE9309C10046
:1056E0000149ADBF0145B650265496540659F649B6
:1056F000664AD64A464BB64B65618280011106CE9A
:1057000022CC26CA4AC84EC652C437A5000013058B
:10571000C599EFE0FFB503A4018B83A7418B637BA1
:10572000F402B7A9000037AA000031A0210483A722
:10573000418B6371F402044019469385899B268549
:10574000EF20C06665F59385640013050A9CEFE0C1
:105750003FB2E9BF379500001305056AEFE05FB17E
:105760000145F2406244D2444249B249224A0561AD
:105770008280411106C6EFF09FA10145B240410170
:105780008280411106C6EFE05FC30145B24041018E
:105790008280054582805D7186C6A2C4A6C2CAC049
:1057A0004EDE52DC56DA5AD85ED62A84AA95130702
:1057B0000002A54611A00504B384854083070400B8
:1057C000E38BE7FEE389D7FE014581ECB640264432
:1057D00096440649F259625AD25A425BB25B616101
:1057E0008280814A13070002A54611A0D28A138A3B
:1057F0001A00B3074401838707006388E7006386C4
:10580000D700E3159AFE268A19A063010A1403A99A
:10581000018B03AB418B637B6913B7AB000021A005
:1058200021096375691383290900194693858B9BA8
:105830004E85EF20A0576DF55286A285138569002D
:10584000EF20C05671FDD69983877900F1FB032ABA
:105850004900630D0A0E02C002C202C402C602C899
:1058600002CA02CC02CE8A890A8E228701490146E9
:1058700013080002A548A14F930E2002130FC00584
:1058800039A0637C960E23000700050705068307F1
:105890000700E38807FFE38617FF630DF9036374CE
:1058A000960A638BD7032320EE0013051900338378
:1058B000C4403A93BA878507B386C700998E83851B
:1058C0000700638B050763891507E39667FE8A85E2
:1058D000029AEDBD21496DA09307170093061600AB
:1058E0002320FE001305190003071700630DD703DB
:1058F00063EF9600E9BF138617008506930716002D
:105900008506030716006300D703E3F296FC3E8684
:10591000E316E7FF03871700E30FD7FD850603872C
:1059200017008507DDB7E3F496FA238007008507A3
:10593000850663E5960061BFE3FB96F80509110E45
:105940003E873686A9B74A85E31309F88307040022
:1059500093F7F7FD228799C705078307070093F799
:10596000F7FDFDFB23000700A28537A50000130506
:105970004598EFE0FF8F7D5591BD9D47E3F527FDED
:1059800037A5000013054596EFE09F8E0144B7A4AC
:10599000000083A509001385049CEFE07F8D0504BA
:1059A0009109E36824FF379500001305056AEFE0CD
:1059B0003F8C4A8529BF797106D622D426D24AD097
:1059C0004ECE52CC56CA5AC85EC662C48307050082
:1059D00099CF2A8903A4018B83A7418B6379F40AA9
:1059E0008149014A37AB0000B79B000035A08145D3
:1059F0000145EFF0BFD061A8CE87B387374163D3AD
:105A000047013E8AA6851385CB6BEFE07F86210494
:105A100083A7418B6376F406032C04001946930593
:105A20008B9B6285EF2080387DF193046C004A8562
:105A3000EF20A0362A86A6854A85EF20203761F917
:105A400063170A002685EF2040352A8AA6898387B6
:105A50000900DDD303076C0005C36391E7022687C5
:105A6000CE87850705070386070041DA830607000E
:105A7000C9D6E308D6FE51B7CE8741B7CE87B5BFAA
:105A8000638709005286CE854A85EFE0EFBCB250AD
:105A9000225492540259F249624AD24A424BB24BC2
:105AA000224C45618280411106C622C426C2A967E4
:105AB000938707C723A8F18AA967938707CF23AAEB
:105AC000F18AA967938707CF23ACF18AA9679387E7
:105AD00007CF23AEF18A9305C0070545EFE05FAE1F
