:100000006F00406A1300000013000000130000009E
:100010001300000013000000130000001300000094
:100020001300000013000000130000001300000084
:08003000130000007300100032
:100038006FF09FFC000000006F0040576F000058F1
:1000480000000000000000000000000000000000A8
:100058000000000000000000000000000000000098
:100068006FF09FF9000000006FF01FF9000000001A
:100078006FF09FF86FF05FF86FF01FF86FF0DFF721
:100088006FF09FF76FF05FF76F0080156F004016F5
:100098006F00A01A6F00C01B6F00801C6FF0DFF5A7
:1000A8006FF09FF56FF05FF56F00E04B6FF0DFF4D6
:1000B8006FF09FF46FF05FF46F00801D0000000088
:1000C8000000000000000000000000006F00401A5F
:1000D8006F00001D6F0000206F00C0226F00002815
:1000E8006F00C0306F00803A6F00403D6FF0DFF066
:1000F8006FF09FF06FF05FF06FF01FF06FF0DFEFC1
:100108006FF09FEF6F00803E6F00403F6F00A0448C
:100118006F0000176FF05FEE6FF01FEE6FF0DFED0E
:1001280000000000000000000000000000000000C7
:080138000000000000000000BF
:100140003D432A876373C3029377F700BDEFADE5A4
:10015000937606FF3D8ABA960CC34CC30CC74CC7B6
:100160004107E36BD7FE11E28280B306C3408A06E3
:100170009702000096966780A6002307B700A306A3
:10018000B7002306B700A305B7002305B700A304F3
:10019000B7002304B700A303B7002303B700A302EB
:1001A000B7002302B700A301B7002301B700A300E3
:1001B000B7002300B700828093F5F50F9396850072
:1001C000D58D93960501D58D61B79396270097023B
:1001D000000096968682E78086FA9680C1171D8F6A
:1001E0003E96E374C3F8A5B7411122C6000801008A
:1001F0003244410173002030411122C600080945F4
:10020000EF0090202A8785476318F702B707002080
:1002100003A7470789476315F700EF30E01611A8D9
:10022000B707002003A7470785476314F700EF20AF
:10023000A02A0945EF00B0220100324441017300B9
:100240002030411122C600081145EF005021010065
:100250003244410173002030411122C600080100E0
:100260003244410173002030411122C600080100D0
:100270003244410173002030411122C600080100C0
:100280003244410173002030411122C600080100B0
:100290003244410173002030411122C600080100A0
:1002A0003244410173002030411122C600089305F9
:1002B0000008B7370140138507C0EF10904BAA879D
:1002C00089CB93050008B7370140138507C0EF10AD
:1002D000505101003244410173002030411122C6C7
:1002E00000088545B7370140138507C0EF107048F7
:1002F000AA8781CB8545B7370140138507C0EF102A
:10030000504E01003244410173002030411122C699
:10031000000893050004B7370140138507C0EF10AC
:100320005045AA8789CB93050004B7370140138550
:1003300007C0EF10104B93050002B737014013853B
:1003400007C0EF101043AA8789CB93050002B73787
:100350000140138507C0EF10D0480100324441012D
:1003600073002030411122C600088945B73701408B
:10037000138507C0EF10F03FAA8781CB8945B737B7
:100380000140138507C0EF10D0459145B7370140B4
:10039000138507C0EF10F03DAA8781CB9145B73791
:1003A0000140138507C0EF10D043A145B737014086
:1003B000138507C0EF10F03BAA8781CBA145B73763
:1003C0000140138507C0EF10D041C145B737014048
:1003D000138507C0EF10F039AA8781CBC145B73725
:1003E0000140138507C0EF10D03F010032444101A6
:1003F00073002030411122C60008854537050040B2
:10040000EF103037AA87D1C3854537050040EF107C
:10041000503D13054002EF30804CAA8781EB83C723
:100420008181850713F7F70F238CE18013054002C4
:10043000EF30E04AAA873E878547631EF70003C76F
:100440008181D14763F9E70083C79181850713F75D
:10045000F70FA38CE18013054002EF304048AA87D4
:100460003E8785476313F70203C78181D14763FE47
:10047000E70003C79181D14763F9E700054723846B
:10048000E180238C0180A38C018001003244410172
:1004900073002030411122C600088545B70700408F
:1004A00013850740EF10F02CAA8781CB8545B7074D
:1004B000004013850740EF10D03201003244410163
:1004C00073002030411122C600088545B71700404F
:1004D00013850780EF10F029AA8781CB8545B717D0
:1004E000004013850780EF10D02F010032444101F6
:1004F00073002030411122C600080100324441013E
:1005000073002030411122C6000893055052B747AE
:10051000004013850740EF103060AA8785CF930510
:100520005052B747004013850740EF10106FB707D0
:10053000002003A7470789476315F700EF20D05D28
:1005400011A8B707002003A7470785476314F700E2
:10055000EF109071010032444101730020304111CD
:1005600022C60008010032444101730020304111CD
:1005700022C600080965FD2B2A8785476317F70205
:100580000965B925B707002003A747078947631501
:10059000F700EF20D06211A8B707002003A7470794
:1005A00085476314F700EF10907601003244410153
:1005B00073002030411122C600080100324441017D
:1005C00073002030411122C6000801A0411106C667
:1005D00022C4000885460146F1679385072001453E
:1005E000EF30906C93068034054681451305400238
:1005F000EF30A014EF2020120145EF203077114595
:10060000EF20D0761945EF2070762145EF20107647
:100610002545EF20B075856713868738930520033D
:1006200013050011EF30101485450545EF30E04407
:100630000100B240224441018280011106CE22CC49
:100640004ACA4EC852C656C40010EF30C03C03A779
:10065000C1828967938707F43357F7029307C01263
:10066000B307F7023E8A814A5285D685EF30D04BD8
:10067000EF30D073A13F0145EF30A03DEF40A01A0D
:1006800003A7C1828967938707F43357F70293075B
:100690004006B307F7023E8981494A85CE85EF308F
:1006A000B048E9BF970100209381C11C1751002079
:1006B00013014195177500001305053597050020B6
:1006C000938545941386818163FAC50083220500D2
:1006D00023A0550011059105E3EAC5FE138581812C
:1006E000938501896377B500232005001105E36D2B
:1006F000B5FE9302800873A0023097020000938237
:10070000E29393E2120073905230EF40000A970296
:1007100000009382C2F273901234730020300111F2
:1007200006CE22CC00102326A4FE0327C4FEB72742
:10073000014093870740631CF7008545130500209F
:10074000EF00B051814513050020EF00105101006A
:10075000F240624405618280797122D60018232E0E
:10076000A4FC232CB4FC232604FEA30504FE83274B
:10077000C4FDDC432326F4FE0327C4FEB707F1FFC4
:100780009387F7EFF98F2326F4FE832784FD9843A0
:10079000832784FDDC43A207D98F0327C4FED98FAA
:1007A0002326F4FE8327C4FD0327C4FED8C3832772
:1007B000C4FD9C472326F4FE0327C4FEB7F7F1FFD0
:1007C0009387D77FF98F2326F4FE832784FD984BE8
:1007D000832784FDDC475D8F832784FD9C47860744
:1007E000D98F0327C4FED98F2326F4FE8327C4FDA7
:1007F0000327C4FE98C78327C4FDDC572326F4FED5
:100800000327C4FEB70710FFFD17F98F2326F4FE58
:10081000832784FD83C74701FD1713F7F70F83472D
:10082000B4FED98FA305F4FE8347B4FED207032795
:10083000C4FED98F2326F4FE8327C4FD0327C4FEFC
:10084000D8D70100325445618280011122CE0010B8
:100850002326A4FE2324B4FE832784FE91CB832782
:10086000C4FE9C4713E717008327C4FE98C709A856
:100870008327C4FE9C4713F7E7FF8327C4FE98C76E
:100880000100724405618280011122CE00102326EE
:10089000A4FE8327C4FE9C4713E787008327C4FE7A
:1008A00098C70100724405618280797122D60018D0
:1008B000232EA4FC232604FE8327C4FD9C47A18B82
:1008C00089C785472326F4FE19A0232604FE832723
:1008D000C4FE3E85325445618280011122CE001053
:1008E0002326A4FE8327C4FE9C4713E747008327E3
:1008F000C4FE98C70100724405618280797122D6D6
:100900000018232EA4FC232604FE8327C4FD9C4745
:10091000918B89C785472326F4FE19A0232604FE60
:100920008327C4FE3E85325445618280797122D688
:100930000018232EA4FCAE873687A30DF4FCB287E3
:10094000230DF4FCBA87A30CF4FC232604FE232415
:1009500004FE0347B4FDA54763F6E7068327C4FDFD
:10096000DC472326F4FE8347B4FD138767FFBA876D
:100970008607BA971D47B317F7002324F4FE832791
:1009800084FE93C7F7FF0327C4FEF98F2326F4FEE6
:10099000834694FD8347B4FD138767FFBA878607B4
:1009A000BA97B397F6002324F4FE0327C4FE8327E7
:1009B00084FED98F2326F4FE8327C4FD0327C4FEBB
:1009C000D8C785A08327C4FD9C4B2326F4FE03478C
:1009D000B4FDBA878607BA971D47B317F7002324DB
:1009E000F4FE832784FE93C7F7FF0327C4FEF98F25
:1009F0002326F4FE834694FD0347B4FDBA87860799
:100A0000BA97B397F6002324F4FE0327C4FE832786
:100A100084FED98F2326F4FE8327C4FD0327C4FE5A
:100A200098CB0347A4FD994763E6E7068327C4FDF7
:100A3000DC5B2326F4FE8347A4FD1387F7FFBA8708
:100A40008A07BA977D47B317F7002324F4FE83275C
:100A500084FE93C7F7FF0327C4FEF98F2326F4FE15
:100A60008346B4FD8347A4FD1387F7FFBA878A073F
:100A7000BA97B397F6002324F4FE0327C4FE832716
:100A800084FED98F2326F4FE8327C4FD0327C4FEEA
:100A9000D8DBE9A80347A4FDB14763E6E70683274F
:100AA000C4FD9C5B2326F4FE8347A4FD138797FFB8
:100AB000BA878A07BA977D47B317F7002324F4FE55
:100AC000832784FE93C7F7FF0327C4FEF98F2326ED
:100AD000F4FE8346B4FD8347A4FD138797FFBA87CE
:100AE0008A07BA97B397F6002324F4FE0327C4FEBF
:100AF000832784FED98F2326F4FE8327C4FD032792
:100B0000C4FE98DBA5A08327C4FDDC572326F4FE92
:100B10008347A4FD138737FFBA878A07BA977D47B3
:100B2000B317F7002324F4FE832784FE93C7F7FF4F
:100B30000327C4FEF98F2326F4FE8346B4FD8347C2
:100B4000A4FD138737FFBA878A07BA97B397F600D1
:100B50002324F4FE0327C4FE832784FED98F232693
:100B6000F4FE8327C4FD0327C4FED8D70100325406
:100B700045618280797122D60018232EA4FC232699
:100B800004FE232404FE0327C4FDB7070010F98FD9
:100B900089CBB7070240938707409C432324F4FE88
:100BA00031A0B70702409C432324F4FE032784FEB0
:100BB0008327C4FDF98F89C785472326F4FE19A032
:100BC000232604FE8327C4FE3E853254456182807D
:100BD000011122CE00102326A4FE0327C4FEB7076E
:100BE0000010F98F89CBB70702409387074003278E
:100BF000C4FED8C331A0B70702400327C4FED8C340
:100C00000100724405618280797122D60018232E7A
:100C1000A4FC232604FE232404FEB7070140938787
:100C200007409C430327C4FDF98F2324F4FEB70734
:100C3000014093870740D84B8327C4FDF98F81CBB0
:100C4000832784FE89C785472326F4FE19A023261F
:100C500004FE8327C4FE3E85325445618280011123
:100C600022CE00102326A4FEB70701409387074039
:100C70000327C4FED8CB010072440561828039711C
:100C800022DE80002326A4FC2324B4FC232604FEB9
:100C9000232004FE232404FE232E04FC232204FE2E
:100CA000232C04FC832784FC9C47BD8B2326F4FE65
:100CB000832784FC9C47C18B89CB832784FCDC433E
:100CC0000327C4FED98F2326F4FE832784FC83D711
:100CD000070093F7F70FF1CF8327C4FC9C4323222F
:100CE000F4FE232404FE65A8832784FE0547B3177A
:100CF000F700232EF4FC832784FC83D707003E876C
:100D00008327C4FDF98F2320F4FE032704FE8327E5
:100D1000C4FD6311F708832784FE8A07232EF4FCA1
:100D20008327C4FD3D47B317F700232CF4FC83272A
:100D300084FD93C7F7FF032744FEF98F2322F4FEB7
:100D40008327C4FD0327C4FEB317F700032744FE1F
:100D5000D98F2322F4FE832784FC984793078002CF
:100D6000631BF700832784FE05473317F7008327AB
:100D7000C4FCD8CB05A0832784FC98479307800444
:100D8000631AF700832784FE05473317F70083278C
:100D9000C4FC98CB832784FE85072324F4FE032715
:100DA00084FE9D47E3F2E7F48327C4FC032744FE57
:100DB00098C3832784FC03D707009307F00F63F1E0
:100DC000E70E8327C4FCDC432322F4FE232404FE25
:100DD00075A8832784FEA1070547B317F700232EC4
:100DE000F4FC832784FC83D707003E878327C4FD58
:100DF000F98F2320F4FE032704FE8327C4FD63122A
:100E0000F708832784FE8A07232EF4FC8327C4FD7A
:100E10003D47B317F700232CF4FC832784FD93C7C9
:100E2000F7FF032744FEF98F2322F4FE8327C4FD36
:100E30000327C4FEB317F700032744FED98F2322EC
:100E4000F4FE832784FC984793078002631BF70016
:100E5000832784FEA10705473317F7008327C4FCC7
:100E6000D8CB832784FC984793078004631BF70043
:100E7000832784FEA10705473317F7008327C4FCA7
:100E800098CB832784FE85072324F4FE032784FE62
:100E90009D47E3F0E7F48327C4FC032744FED8C34F
:100EA0000100725421618280011122CE001023269C
:100EB000A4FEAE872322C4FE2315F4FE832744FE3E
:100EC00099C70357A4FE8327C4FE98CB31A00357CC
:100ED000A4FE8327C4FED8CB010072440561828042
:100EE000797122D60018232EA4FC232CB4FC2324D1
:100EF00004FE232204FE232604FE232004FE83276F
:100F0000C4FD63D80700B7070140DC4F2326F4FE79
:100F100031A0B7070140DC432326F4FE8327C4FD3C
:100F2000C183BD8B2320F4FE0327C4FDC167FD17D9
:100F3000F98F2324F4FE0327C4FDB70730007D8F0B
:100F4000B70730006315F7020327C4FEB70700F1A7
:100F5000FD17F98F2326F4FEB7070140D443B707E6
:100F60000140370700F17D17758FD8C3ADA0032767
:100F7000C4FDB7071000F98F8DCB832704FE0D4702
:100F8000B317F7002322F4FE832744FE93C7F7FF2D
:100F90000327C4FEF98F2326F4FE0327C4FEB707F8
:100FA000000FD98F2326F4FE3DA08327C4FDD583EF
:100FB0009207032784FEB317F70093C7F7FF0327B1
:100FC000C4FEF98F2326F4FE0327C4FEB707000FE3
:100FD000D98F2326F4FE832784FD91CF8327C4FD78
:100FE000D5839207032784FEB317F7000327C4FEB7
:100FF000D98F2326F4FE8327C4FD63D80700B707E3
:1010000001400327C4FED8CF31A0B7070140032712
:10101000C4FED8C30100325445618280011122CE42
:1010200000102326A4FE8327C4FEFD8B0547B316BC
:10103000F70037E700E08327C4FE95839387070412
:101040008A07BA9794C30100724405618280011136
:1010500022CE00102326A4FE8327C4FEFD8B054765
:10106000B316F70037E700E08327C4FE9583938724
:1010700007068A07BA9794C301007244056182800B
:10108000011122CE00102326A4FEAE87A305F4FE94
:1010900037E700E08327C4FEBA970347B4FE2380F6
:1010A000E7400100724405618280011106CE22CC26
:1010B00000102326A4FEB7E700E0BC47898B8DC350
:1010C0008327C4FE83C707003E878327C4FE83C7E8
:1010D0002700920793F7F70FBE853A85553795A0FD
:1010E000B7E700E0BC47898BA9EF8327C4FE03C79D
:1010F000170085476318F7028327C4FE83C70700DC
:101100003E878327C4FE83C727009207E207E18753
:1011100093E707F8E207E18793F7F70FBE853A8573
:10112000853705A08327C4FE83C707003E87832732
:10113000C4FE83C72700920793F7F70FBE853A8551
:1011400081378327C4FEDC4381CB8327C4FE83C75A
:1011500007003E85E13539A08327C4FE83C7070019
:101160003E85F5350100F240624405618280797167
:1011700022D60018232EA4FC232604FEB717024013
:10118000DC432326F4FE0327C4FED177FD17F98F35
:101190002326F4FE0327C4FE8327C4FDD98F23260C
:1011A000F4FEB71702400327C4FED8C3010032542F
:1011B00045618280797122D60018232EA4FC232653
:1011C00004FE232404FE232204FE232004FEB7177A
:1011D0000240DC43B18B2326F4FE0327C4FE914773
:1011E0006302F7020327C4FEA1476305F7028327C2
:1011F000C4FEC5E78327C4FD37177A00130707200D
:1012000098C365A08327C4FD37177A00130707200A
:1012100098C361A8B7170240D843B7073C00F98FBD
:101220002324F4FEB7170240D843C167F98F232265
:10123000F4FE832784FEC98389072324F4FE8327D1
:1012400044FE89EF032784FEB7173D00938707907C
:101250003307F7028327C4FD98C381A8B71702405C
:10126000D843B7070200F98F89CF032784FEB71749
:101270003D00938707903307F7028327C4FD98C387
:101280002DA0032784FEB7177A0093870720330722
:10129000F7028327C4FD98C309A88327C4FD371725
:1012A0007A001307072098C30100B7170240DC43F8
:1012B00093F7070F2326F4FE8327C4FE918323268A
:1012C000F4FEB7070020138707008327C4FEBA97F0
:1012D00083C7070093F7F70F2320F4FE8327C4FD8D
:1012E0009843832704FE3357F7008327C4FDD8C3F0
:1012F000B7170240DC4393F707702326F4FE8327D9
:10130000C4FEA1832326F4FEB7070020138707003D
:101310008327C4FEBA9783C7070093F7F70F2320EC
:10132000F4FE8327C4FDD843832704FE3357F70018
:101330008327C4FD98C7B7170240D84391679387A6
:101340000780F98F2326F4FE8327C4FEAD8323266E
:10135000F4FEB7070020138707008327C4FEBA975F
:1013600083C7070093F7F70F2320F4FE8327C4FDFC
:10137000D843832704FE3357F7008327C4FDD8C71B
:10138000B7170240D843B167F98F2326F4FE8327AD
:10139000C4FEB9832326F4FEB7070020138707078E
:1013A0008327C4FEBA9783C7070093F7F70F23205C
:1013B000F4FE8327C4FDD847832704FE3357F70282
:1013C0008327C4FD98CB010032544561828001110E
:1013D00022CE00102326A4FE2324B4FE832784FEFD
:1013E00099CBB7170240944FB71702400327C4FEAA
:1013F000558F98CF21A8B7170240944F8327C4FE7A
:1014000013C7F7FFB7170240758F98CF01007244DA
:1014100005618280011122CE00102326A4FE232420
:10142000B4FE832784FE99CBB7170240D44FB71779
:1014300002400327C4FE558FD8CF21A8B71702401A
:10144000D44F8327C4FE13C7F7FFB7170240758F29
:10145000D8CF0100724405618280011122CE0010B4
:101460002326A4FE2324B4FE832784FE99CBB7173A
:101470000240D447B71702400327C4FE558FD8C790
:1014800021A8B7170240D4478327C4FE13C7F7FF2C
:10149000B7170240758FD8C701007244056182807A
:1014A000797122D60018232EA4FC232CB4FC231718
:1014B00004FE8327C4FD83D707002317F4FE032708
:1014C000C4FDB7370140938707C06308F7020327BD
:1014D000C4FDB70700406302F7020327C4FDB70746
:1014E000004093870740630AF7000327C4FDB7173E
:1014F0000040938707806311F7028357E4FE93F758
:10150000F7F82317F4FE832784FD03D727008357BA
:10151000E4FED98F2317F4FE8357E4FE93F7F7CF49
:101520002317F4FE832784FD03D767008357E4FE67
:10153000D98F2317F4FE8327C4FD0357E4FE2390BD
:10154000E700832784FD03D747008327C4FD239644
:10155000E702832784FD03D707008327C4FD239474
:10156000E7020327C4FDB7370140938707C0631D17
:10157000F700832784FD83C7870013970701418302
:101580008327C4FD2398E7028327C4FD0547239AD8
:10159000E7000100325445618280797122D600183B
:1015A000232EA4FC232CB4FC231504FE231704FED5
:1015B000231604FE8327C4FD83D70702C207C18315
:1015C000F99B1397070141838327C4FD2390E7020A
:1015D0008327C4FD83D707022317F4FE8327C4FDA6
:1015E00083D747002316F4FE8327C4FD83D78701E2
:1015F0002315F4FE8357A4FE93F7F7F82315F4FEA2
:101600008357A4FEF19B2315F4FE832784FD03D7A3
:1016100007008357A4FED98F2315F4FE8357E4FEF9
:10162000F59B2317F4FE832784FD03D78700835798
:10163000E4FED98F2317F4FE832784FD03D7270008
:101640008357E4FED98F2317F4FE0327C4FDB73771
:101650000140938707C0631CF7068357E4FEDD9BB8
:101660002317F4FE832784FD03D7A7008357E4FEE6
:10167000D98F2317F4FE8357E4FEED9B2317F4FE66
:10168000832784FD03D747008357E4FED98F2317B0
:10169000F4FE8357C4FE93F7F7EF2316F4FE835747
:1016A000C4FE93F7F7DF2316F4FE832784FD03D7E8
:1016B000C7008357C4FED98F2316F4FE832784FD09
:1016C00003D7E7008357C4FED98F2316F4FE832780
:1016D000C4FD0357C4FE2392E7008327C4FD0357CC
:1016E000A4FE239CE700832784FD03D7670083279C
:1016F000C4FD239AE7028327C4FD0357E4FE239029
:10170000E7020100325445618280797122D60018C7
:10171000232EA4FC232CB4FC231504FE231704FE63
:10172000231604FE8327C4FD83D70702C207C183A3
:10173000BD9B1397070141838327C4FD2390E702D4
:101740008327C4FD83D707022317F4FE8327C4FD34
:1017500083D747002316F4FE8327C4FD83D7870170
:101760002315F4FE0357A4FEE577FD17F98F231523
:10177000F4FE8357A4FE93F7F7CF2315F4FE8327D7
:1017800084FD83D70700A20713970701418383577E
:10179000A4FED98F2315F4FE8357E4FE93F7F7FDDB
:1017A0002317F4FE832784FD83D7870092071397BE
:1017B000070141838357E4FED98F2317F4FE832763
:1017C00084FD83D72700920713970701418383572E
:1017D000E4FED98F2317F4FE0327C4FDB737014079
:1017E000938707C06310F70A8357E4FE93F7F7F770
:1017F0002317F4FE832784FD83D7A700920713974E
:10180000070141838357E4FED98F2317F4FE8357E2
:10181000E4FE93F7F7FB2317F4FE832784FD83D7B9
:10182000470092071397070141838357E4FED98F3E
:101830002317F4FE8357C4FE93F7F7BF2316F4FE75
:101840000357C4FEFD779387F77FF98F2316F4FEC5
:10185000832784FD83D7C7008A0713970701418335
:101860008357C4FED98F2316F4FE832784FD83D7C4
:10187000E7008A071397070141838357C4FED98F76
:101880002316F4FE8327C4FD0357C4FE2392E7000A
:101890008327C4FD0357A4FE239CE700832784FD10
:1018A00003D767008327C4FD239CE7028327C4FD79
:1018B0000357E4FE2390E702010032544561828021
:1018C000797122D60018232EA4FC232CB4FC2315F6
:1018D00004FE231704FE231604FE8327C4FD83D7CA
:1018E0000702C207C18393F7F7EF139707014183FC
:1018F0008327C4FD2390E7028327C4FD83D7070213
:101900002317F4FE8327C4FD83D747002316F4FE74
:101910008327C4FD83D7C7012315F4FE8357A4FE94
:1019200093F7F7F82315F4FE8357A4FEF19B2315D4
:10193000F4FE832784FD03D707008357A4FED98FC5
:101940002315F4FE8357E4FE93F7F7DF2317F4FE25
:10195000832784FD83D78700A2071397070141835C
:101960008357E4FED98F2317F4FE832784FD83D7A2
:101970002700A2071397070141838357E4FED98FFD
:101980002317F4FE0327C4FDB7370140938707C030
:101990006312F70A0357E4FEFD779387F77FF98F09
:1019A0002317F4FE832784FD83D7A700A20713978C
:1019B000070141838357E4FED98F2317F4FE835731
:1019C000E4FE93F7F7BF2317F4FE832784FD83D744
:1019D0004700A2071397070141838357E4FED98F7D
:1019E0002317F4FE0357C4FEFD77FD17F98F231666
:1019F000F4FE0357C4FEF977FD17F98F2316F4FEA2
:101A0000832784FD83D7C70092071397070141837B
:101A10008357C4FED98F2316F4FE832784FD83D712
:101A2000E70092071397070141838357C4FED98FBC
:101A30002316F4FE8327C4FD0357C4FE2392E70058
:101A40008327C4FD0357A4FE239EE700832784FD5C
:101A500003D767008327C4FD239EE7028327C4FDC5
:101A60000357E4FE2390E70201003254456182806F
:101A7000797122D60018232EA4FC232CB4FC231643
:101A800004FE231504FE231704FE8327C4FD83D719
:101A90000702139707014183FD77FD17F98F13970D
:101AA000070141838327C4FD2390E7028327C4FDF8
:101AB00083D707022315F4FE8327C4FD83D747008D
:101AC0002317F4FE8327C4FD83D7C7012316F4FE32
:101AD0000357C4FEE577FD17F98F2316F4FE8357ED
:101AE000C4FE93F7F7CF2316F4FE832784FD83D734
:101AF0000700A2071397070141838357C4FED98FBC
:101B00002316F4FE0357A4FEF977FD17F98F23156A
:101B1000F4FE832784FD83D78700B207139707015C
:101B200041838357A4FED98F2315F4FE832784FDB8
:101B300083D72700B2071397070141838357A4FE79
:101B4000D98F2315F4FE0327C4FDB73701409387CF
:101B500007C06316F7020357E4FEF177FD17F98F0C
:101B60002317F4FE832784FD83D7C7009A071397B2
:101B7000070141838357E4FED98F2317F4FE83279F
:101B8000C4FD0357E4FE2392E7008327C4FD0357F7
:101B9000C4FE239EE700832784FD03D767008327C5
:101BA000C4FD2390E7048327C4FD0357A4FE2390BC
:101BB000E7020100325445618280011122CE0010FB
:101BC0002326A4FE2324B4FE832784FE8DC383270B
:101BD000C4FE83D70700C207C18393E7170013979A
:101BE000070141838327C4FE2390E70039A8832798
:101BF000C4FE83D70700C207C183F99B139707016F
:101C000041838327C4FE2390E700010072440561ED
:101C10008280011122CE00102326A4FE2324B4FECC
:101C2000832784FE95C38327C4FE83D74704139775
:101C300007014183E177D98F1397070141838327F8
:101C4000C4FE2392E70415A08327C4FE83D747046C
:101C5000139707014183A167FD17F98F13970701B8
:101C600041838327C4FE2392E70401007244056187
:101C70008280011122CE00102326A4FEAE872322EB
:101C8000C4FE2315F4FE832744FE9DC38327C4FEB0
:101C900083D7C7001397070141838357A4FED98FC9
:101CA0001397070141838327C4FE2396E70035A0DD
:101CB0008327C4FE83D7C700139707014183835747
:101CC000A4FE93C7F7FFC207C183F98F13970701DB
:101CD00041838327C4FE2396E70001007244056117
:101CE0008280797122D60018232EA4FCAE87231D92
:101CF000F4FC231704FE8327C4FD83D78701231731
:101D0000F4FE8357E4FEDD9B2317F4FE0357E4FE45
:101D10008357A4FDD98F2317F4FE8327C4FD0357EF
:101D2000E4FE239CE7000100325445618280797112
:101D300022D60018232EA4FCAE87231DF4FC231703
:101D400004FE8327C4FD83D787012317F4FE0357BE
:101D5000E4FEFD779387F77FF98F2317F4FE83570F
:101D6000A4FDA2071397070141838357E4FED98F8F
:101D70002317F4FE8327C4FD0357E4FE239CE700EA
:101D80000100325445618280797122D60018232ED9
:101D9000A4FCAE87231DF4FC231704FE8327C4FD97
:101DA00083D7C7012317F4FE8357E4FEDD9B231777
:101DB000F4FE0357E4FE8357A4FDD98F2317F4FEE6
:101DC0008327C4FD0357E4FE239EE700010032543D
:101DD00045618280797122D60018232EA4FCAE873B
:101DE000231DF4FC231704FE8327C4FD83D7C701FA
:101DF0002317F4FE0357E4FEFD779387F77FF98FEF
:101E00002317F4FE8357A4FDA2071397070141830C
:101E10008357E4FED98F2317F4FE8327C4FD0357AD
:101E2000E4FE239EE700010032544561828079710F
:101E300022D60018232EA4FCAE87231DF4FC231702
:101E400004FE8327C4FD83D787012317F4FE83573D
:101E5000E4FEED9B2317F4FE0357E4FE8357A4FD35
:101E6000D98F2317F4FE8327C4FD0357E4FE239C78
:101E7000E7000100325445618280797122D6001852
:101E8000232EA4FCAE87231DF4FC231704FE832716
:101E9000C4FD83D787012317F4FE8357E4FE93F72D
:101EA000F7BF2317F4FE8357A4FDA207139707017A
:101EB00041838357E4FED98F2317F4FE8327C4FDA3
:101EC0000357E4FE239CE700010032544561828001
:101ED000797122D60018232EA4FCAE87231DF4FCB2
:101EE000231704FE8327C4FD83D7C7012317F4FEFD
:101EF0008357E4FEED9B2317F4FE0357E4FE83575C
:101F0000A4FDD98F2317F4FE8327C4FD0357E4FEF5
:101F1000239EE7000100325445618280797122D608
:101F20000018232EA4FCAE87231DF4FC231704FE07
:101F30008327C4FD83D7C7012317F4FE8357E4FE2C
:101F400093F7F7BF2317F4FE8357A4FDA207139757
:101F5000070141838357E4FED98F2317F4FE8327BB
:101F6000C4FD0357E4FE239EE7000100325445619F
:101F70008280797122D60018232EA4FCAE87231DFF
:101F8000F4FC232604FE231504FE231404FE8327F9
:101F9000C4FD83D707011397070141838357A4FD2D
:101FA000F98F2315F4FE8327C4FD83D7C700139749
:101FB000070141838357A4FDF98F2314F4FE83574F
:101FC000A4FE81CB835784FE89C785472326F4FE70
:101FD00019A0232604FE8327C4FE3E8532544561A2
:101FE0008280011122CE00102326A4FEAE87231585
:101FF000F4FE8357A4FE93C7F7FF139707014183AD
:102000008327C4FE2398E7000100724405618280A3
:102010005D7186C6A2C48008232EA4FA232CB4FACC
:10202000232604FE232404FE232204FE232004FE90
:10203000232E04FC8327C4FB232EF4FC8327C4FB3C
:1020400083D70701C207C1832326F4FE0327C4FEFA
:10205000B567FD17F98F2326F4FE832784FB83D70A
:1020600067003E878327C4FED98F2326F4FE83278B
:10207000C4FE1397070141838327C4FB2398E7001D
:102080008327C4FB83D7C700C207C1832326F4FE7E
:102090000327C4FEBD679387379FF98F2326F4FE7D
:1020A000832784FB03D74700832784FB83D78700DC
:1020B000D98F139707014183832784FB83D7A70018
:1020C000D98FC207C1833E878327C4FED98F2326B9
:1020D000F4FE8327C4FE1397070141838327C4FBC3
:1020E0002396E7008327C4FB83D74701C207C18338
:1020F0002326F4FE0327C4FEC1679387F7CFF98F29
:102100002326F4FE832784FB83D7C7003E878327DB
:10211000C4FED98F2326F4FE8327C4FE139707013C
:1021200041838327C4FB239AE700930784FC3E8501
:10213000EFF04F880327C4FDB7470140938707801E
:102140006317F700832744FD2324F4FE29A0832787
:1021500004FD2324F4FE8327C4FB83D7C700C207F2
:10216000C183C207C18763D20702032784FEBA87EF
:102170008607BA978E073E97832784FB9C43860782
:10218000B357F7022322F4FE05A0032784FEBA8783
:102190008607BA978E073E97832784FB9C438A075E
:1021A000B357F7022322F4FE032744FE93074006A9
:1021B000B357F70292072326F4FE8327C4FE13D7F2
:1021C000470093074006B307F702032744FEB3070F
:1021D000F7402320F4FE8327C4FB83D7C700C20740
:1021E000C183C207C18763D20702832704FE8E071B
:1021F0001387270393074006B357F7029D8B0327E6
:10220000C4FED98F2326F4FE05A0832704FE92077F
:102210001387270393074006B357F702BD8B0327A5
:10222000C4FED98F2326F4FE8327C4FE139707012B
:1022300041838327C4FB2394E7000100B640264472
:1022400061618280011122CE00102326A4FE232486
:10225000B4FE832784FE95C38327C4FE83D7C700BB
:102260001397070141838967D98F1397070141832A
:102270008327C4FE2396E70015A08327C4FE83D7D7
:10228000C700139707014183F977FD17F98F13975B
:10229000070141838327C4FE2396E70001007244AF
:1022A00005618280011122CE00102326A4FEAE8794
:1022B0002315F4FE8357A4FE93F7F71F1397070126
:1022C00041838327C4FE2392E70001007244056125
:1022D0008280797122D60018232EA4FCAE87231D9C
:1022E000F4FC232604FE8327C4FD83D7070013973D
:1022F000070141838357A4FDF98FC207C18389C7B2
:1023000085472326F4FE19A0232604FE8327C4FE56
:102310003E85325445618280797122D60018232E81
:10232000A4FCAE87231DF4FC232204FE232604FE16
:10233000232004FE232404FE8357A4FD93F7F70F04
:10234000958393F7F70F2320F4FE8357A4FDFD8BAD
:102350002326F4FE8327C4FE0547B317F700232680
:10236000F4FE032704FE8547631FF7008327C4FD9F
:1023700083D7C700C207C1833E878327C4FEF98F76
:102380002326F4FE3DA8032704FE8947631FF700B8
:102390008327C4FD83D70701C207C1833E878327F4
:1023A000C4FEF98F2326F4FE29A88327C4FD83D712
:1023B0004701C207C1833E878327C4FEF98F2326C6
:1023C000F4FE8357A4FDA183C207C1832322F4FE38
:1023D000832744FE0547B317F7002322F4FE832723
:1023E000C4FD83D70700C207C1833E87832744FE0D
:1023F000F98F2322F4FE8327C4FE81CB832744FE7A
:1024000089C785472324F4FE19A0232404FE8327CB
:1024100084FE3E85325445618280797122D600184F
:10242000232EA4FCAE87231DF4FC231704FE2316E1
:1024300004FE8357A4FDA1832317F4FE8357E4FE13
:102440000547B317F7002316F4FE8357C4FE93C75E
:10245000F7FF1397070141838327C4FD2390E7000B
:102460000100325445618280411122C600089D67F7
:1024700093878779DC4383D747001397070141830C
:1024800083C7F181BE861377F70F9387C181B69713
:102490002380E70083C7F181850713F7F70FA38F28
:1024A000E18003C7F1818547631AF70003C7C18143
:1024B0009307500A6304F700A38F018003C7F181DB
:1024C0008D476317F700A38F018005472380E182C2
:1024D0000100324441018280411122C60008B70741
:1024E0000240938747040967130707E0D8C3B7077B
:1024F0000240938747049843B707024093874704F5
:102500001367170098C301003244410182804111D2
:1025100022C600080547A380E182B70702409387DF
:1025200047049443B70702409387470441677917EC
:10253000758F98C30100324441018280797122D69F
:102540000018AA87A30FF4FCA147A307F4FE9D6718
:10255000938707769C473E87A1675CCB9D679387EF
:1025600007769C473E8791671CCB9D6783A70776BC
:102570003E87930700025CCBB9A08307F4FD63DAC2
:1025800007009D6783A707763E87930700081CCB4B
:1025900001A89D6783A707763E87930700085CCB59
:1025A0009D6783A707763E87930700021CCB9D6734
:1025B00083A707763E87930700025CCB8347F4FD31
:1025C0008607A30FF4FC8347F4FE1387F7FFA307E6
:1025D000E4FEC5F79D67938707769C473E87A16712
:1025E0001CCB0100325445618280797122D60018DB
:1025F000AA87A30FF4FCA147A307F4FE9D67938766
:1026000007769C473E87A1675CCB9D6793870776DB
:102610009C473E8791675CCB9D6783A707763E8783
:10262000930700025CCBB9A08307F4FD63DA0700CF
:102630009D6783A707763E87930700081CCB01A8F8
:102640009D6783A707763E87930700085CCB9D674D
:1026500083A707763E87930700021CCB9D6783A75D
:1026600007763E87930700025CCB8347F4FD86071D
:10267000A30FF4FC8347F4FE1387F7FFA307E4FEE0
:10268000C5F79D67938707769C473E87A1671CCB5C
:102690000100325445618280797122D60018AA87E0
:1026A000232CB4FC231FF4FC9947A307F4FE8347B3
:1026B000F4FE032784FDBA9723800700B1A0834767
:1026C000F4FEFD17A307F4FE0357E4FDA947B37713
:1026D000F702C207C1832307F4FE0357E4FDA947AD
:1026E000B357F702231FF4FC8347E4FE93870703E5
:1026F00093F6F70F8347F4FE032784FDBA971397E9
:10270000860161872380E7008347F4FECDFB01004B
:10271000325445618280411106C622C44AC24EC06D
:10272000000893060031054685451545EF10E00089
:1027300093060031014685451D45EF1000009306C4
:102740000031054685451305D004EF00107F930640
:102750000031054685451305E004EF00107E930621
:102760000031054685451305F004EF00107D9D6797
:1027700083A707763E87930700021CCB9D6793874C
:1027800007769C473E8789675CCB03A7C182896730
:10279000938707F43357F70293072003B307F70231
:1027A0003E8981494A85CE85EF1010389D67938711
:1027B00007769C473E8789671CCB1305E00A3535B1
:1027C000014525354145153513050004393D1305EF
:1027D0001008213D1305F007093D1305100A313596
:1027E0001305800C19351305600A01351305800A9D
:1027F000ED3B1305F003D53B1305300DFD330145CB
:10280000ED331305500DD53313050008F93B1305BF
:10281000900DE13B1305100FC93B1305A00DF133DB
:102820004945E1331305B00DC93313050004753B69
:10283000130500025D3B09454D3B1305D008753378
:10284000514565331305400A4D331305600A713B4A
:102850001305F00A593B01454528814501450128EA
:102860000100B24022441249824941018280011193
:1028700006CE22CC0010AA872E87A307F4FEBA87C3
:102880002307F4FE8307F4FE63DF07009D6793864A
:10289000872F9D671386075F9305900D9D671385AE
:1028A0004730EF30E0750347E4FE9D4763FFE700E4
:1028B0009D67938687339D671386075F9305A00DF9
:1028C0009D6713854730EF30A0738347E4FE9387FD
:1028D00007FB93F7F70F3E85093B8347F4FE91838F
:1028E00093F7F70F93E7070193F7F70F3E85F53955
:1028F0008347F4FEBD8B93F7F70F3E85FD31010052
:10290000F240624405618280797106D622D40018B3
:10291000AA87A30FF4FCA30704FE91A08347F4FE4B
:10292000938707FB93F7F70F3E85C131054575394E
:1029300041456539230704FE11A88347F4FD3E8510
:10294000F53E8347E4FE85072307F4FE8307E4FE94
:10295000E3D507FE8347F4FE8507A307F4FE03478C
:10296000F4FE9D47E3FCE7FA0100B25022544561B2
:102970008280797106D622D40018AA872E87232C4C
:10298000C4FCA30FF4FCBA87230FF4FCA30604FED7
:10299000A30704FE230704FE49A88347E4FE032798
:1029A00084FDBA978387070093F7F70F8117A30673
:1029B000F4FE0347F4FD9307E00763F9E700A30F74
:1029C00004FC8347E4FD8507230FF4FC0347E4FD83
:1029D0008347F4FDBA853E85593DA30704FE3DA01B
:1029E0000347D4FE8346F4FE1D66BA878607BA976E
:1029F00086071307863CBA97B69783C707003E85BC
:102A0000353E8347F4FE8507A307F4FE0347F4FE33
:102A10009547E3F7E7FC8347F4FD9907A30FF4FC20
:102A20008347E4FE85072307F4FE8347E4FE03277C
:102A300084FDBA9783870700ADF30100B25022549A
:102A400045618280797106D622D40018AA87AE86A5
:102A50003287A30FF4FCB687230FF4FCBA87231E3A
:102A6000F4FC130784FE8357C4FDBA853E852D31DF
:102A7000930784FE938617000347E4FD8347F4FD24
:102A80003686BA853E85F5350100B250225445613F
:102A900082805D7186C6A2C480082328C4FA232AD6
:102AA000D4FABA863E87AA87231FF4FAAE87231E7C
:102AB000F4FAB687A30DF4FABA87230DF4FA0347A4
:102AC000A4FB994763F5E7009947230DF4FA034700
:102AD000B4FBA94763F5E700A947A30DF4FA014643
:102AE0008146032504FB832544FBEF208050AA8701
:102AF00063D10702130784FC032604FB832644FBEF
:102B00009D67938547353A85E924AA87A307F4FE94
:102B100035A0930784FC13871700032604FB832644
:102B200044FB9D67938547353A856524AA87A307AB
:102B3000F4FE8347F4FE8507A307F4FE8347F4FE03
:102B4000E51793F7F70F2306F4FE0347C4FE834708
:102B5000B4FBB307F74093F7F70FFD1793F7F70FA1
:102B60002307F4FE0347C4FE8347A4FBBA9793F7F9
:102B7000F70F850793F7F70FA306F4FE25A8830741
:102B8000D4FE130704FFBA9713070002238CE7FC57
:102B90008307D4FE93F7F70F850793F7F70FA30684
:102BA000F4FE8307E4FE93F7F70F850793F7F70F1B
:102BB0002307F4FE8307E4FEE3C307FC01468146D6
:102BC000032504FB832544FBEF20A042AA8763DC96
:102BD00007008307E4FE130704FFBA971307D00228
:102BE000238CE7FC11A88307E4FE130704FFBA97C0
:102BF00013070002238CE7FC8307D4FE130704FFAE
:102C0000BA97238C07FC8357E4FB93F7F70F03571E
:102C1000C4FB1377F70F930684FC3686BA853E858E
:102C2000893B0100B640264461618280797122D6D9
:102C30000018232EA4FC232CB4FCB2873687A30BE8
:102C4000F4FCBA87230BF4FCA30304FE230304FE65
:102C5000834774FDA5CB8327C4FD2326F4FE832779
:102C6000C4FE63D807008327C4FEB307F0402326C1
:102C7000F4FE834764FD0327C4FEB367F70293F7AE
:102C8000F70F9387070393F7F70F13978701618770
:102C9000832784FD2380E700834764FD0327C4FE68
:102CA000B347F7022326F4FE834764FE8507230318
:102CB000F4FE8327C4FEC9C3832784FD8507232C24
:102CC000F4FC45BF8327C4FD2324F4FE834764FD41
:102CD000032784FEB377F702A303F4FE034774FED1
:102CE000A54763F9E700834774FE93877703A3033F
:102CF000F4FE39A0834774FE93870703A303F4FE11
:102D0000030774FE832784FD2380E700834764FD67
:102D1000032784FEB357F7022324F4FE834764FE9F
:102D200085072303F4FE832784FE89CB832784FD54
:102D30008507232CF4FC59BF010011A00100834733
:102D400064FE3E85325445618280797122D6001836
:102D5000232EA4FC232CB4FC232604FE85A00327E9
:102D600084FD8327C4FEB307F740FD170327C4FD86
:102D7000BA9783C70700A305F4FE0327C4FD832782
:102D8000C4FE3E97832684FD8327C4FEB387F640A6
:102D9000FD178326C4FDB697030707002380E700CD
:102DA0000327C4FD8327C4FEBA970347B4FE2380DC
:102DB000E7008327C4FE85072326F4FE832784FDCE
:102DC00085830327C4FEE36CF7F8010032544561A4
:102DD0008280357186DEA2DC00012326A4F823243C
:102DE000B4F810C454C418C85CC8232C0401232EA2
:102DF0001401232604FE93070402A117232AF4FAE0
:102E0000FDA9832784F883C70700A301F4FE030705
:102E100034FE93075002631BF74A832784F8850723
:102E20002324F4F8832784F8838707009387B7FD6A
:102E300013073005636FF74A139727009D67938741
:102E40000760BA979C438287832744FB1387470018
:102E5000232AE4FA9C432301F4FE8327C4F80347A2
:102E600024FE2380E7008327C4F885072326F4F88F
:102E70008327C4FE85072326F4FEADA9832744FBE0
:102E800013874700232AE4FA9C43232EF4FC83276C
:102E9000C4FD130704F9A9460546BA853E85793372
:102EA000AA87A305F4FE8327C4FD63D007028347E6
:102EB000B4FE130704FFBA971307D0022380E7FA82
:102EC0008347B4FE8507A305F4FE0347B4FE9307CA
:102ED00004F9BA853E85953D0347B4FE930704F98E
:102EE0003A86BE850325C4F8EF3080178347B4FEC9
:102EF0000327C4F8BA972326F4F88347B4FE0327C0
:102F0000C4FEBA972326F4FEF5A6832744FB9D074B
:102F1000E19B13878700232AE4FA03A847009C4318
:102F20002328F4FC232A04FD032504FD832544FD06
:102F3000EF20D056AA873E87930704F9A946054695
:102F4000BE853A85E531AA872305F4FE0146814610
:102F5000032504FD832544FDEF20A009AA8763D043
:102F600007028347A4FE130704FFBA971307D00292
:102F70002380E7FA8347A4FE85072305F4FE034771
:102F8000A4FE930704F9BA853E85C1330347A4FE26
:102F9000930704F93A86BE850325C4F8EF30400C48
:102FA0008347A4FE0327C4F8BA972326F4F883477F
:102FB000A4FE0327C4FEBA972326F4FE032504FDCE
:102FC000832544FDEF20904DAA873E85EF20905346
:102FD000AA872E883E86C286032504FD832544FDEC
:102FE000EF200058AA872E883E85C2859D6703A6DC
:102FF000873583A6C735EF20200BAA872E88232884
:10300000F4FC232A04FD01468146032504FD8325A3
:1030100044FDEF107077AA8785C7032504FD83253B
:1030200044FDEF20B047AA873E87930704F9A946DD
:103030000546BE853A85DD3EAA872305F4FE99A89C
:1030400093070003A30AF4F8830754F9230AF4F85A
:10305000830744F9A309F4F8830734F92309F4F842
:10306000830724F9A308F4F8830714F92308F4F874
:1030700099472305F4FE39A88347A4FE130704FFEC
:10308000BA97130700032380E7FA8347A4FE850756
:103090002305F4FE0347A4FE9547E3FFE7FC8347BF
:1030A000A4FE130704FFBA971307E0022380E7FA90
:1030B0008347A4FE85072305F4FE0347A4FE930778
:1030C00004F9BA853E8551310347A4FE930704F9FC
:1030D0003A86BE850325C4F8EF2090788347A4FE86
:1030E0000327C4FEBA972326F4FE010021A48327F8
:1030F00044FB13874700232AE4FA9C432326F4FC6D
:10310000930704F9A9460146BE850325C4FC393E50
:10311000AA87A305F4FC0347B4FC930704F9BA8516
:103120003E8525310347B4FC930704F93A86BE85F2
:103130000325C4F8EF20D0728347B4FC0327C4F8FA
:10314000BA972326F4F88347B4FC0327C4FEBA9742
:103150002326F4FE45A2832744FB13874700232A36
:10316000E4FA9C432322F4FC930704F9A1460146A8
:10317000BE85032544FCEFF07FABAA87A301F4FCD6
:10318000034734FC930704F9BA853E857D3E034727
:1031900034FC930704F93A86BE850325C4F8EF2072
:1031A000306C834734FC0327C4F8BA972326F4F81D
:1031B000834734FC0327C4FEBA972326F4FE1DAAD6
:1031C000832744FB13874700232AE4FA9C43232EDA
:1031D000F4FA930704F9C1460146BE850325C4FBF2
:1031E000EFF0DFA4AA87A30DF4FA0347B4FB93071B
:1031F00004F9BA853E85913E0347B4FB930704F971
:103200003A86BE850325C4F8EF2090658347B4FB5A
:103210000327C4F8BA972326F4F88347B4FB03279F
:10322000C4FEBA972326F4FEF1A0832744FB13873C
:103230004700232AE4FA9C432322F4FE05A88327AF
:1032400044FE038707008327C4F82380E700832711
:10325000C4F885072326F4F88327C4FE85072326B0
:10326000F4FE832744FE85072322F4FE832744FED1
:1032700083870700E9F7BDA8930704F9A1453E85B8
:10328000EFF0BFAC930704F92146BE850325C4F8CF
:10329000EF20105D8327C4F8A1072326F4F88327C5
:1032A000C4FEA1072326F4FEB1A08327C4F81307A8
:1032B00050022380E7008327C4F885072326F4F80B
:1032C0008327C4FE85072326F4FE2DA0832784F8D8
:1032D000038707008327C4F82380E7008327C4F807
:1032E00085072326F4F88327C4FE85072326F4FEEA
:1032F00011A00100832784F885072324F4F883278D
:1033000084F883870700E39E07AE8327C4FE3E85CB
:10331000F65066540D618280411122C600089D67F7
:1033200093878779DC4383D747001397070141834D
:1033300083C77182BE861377F70F93874182B69752
:103340002380E70083C77182850713F7F70FA383F4
:10335000E18203C771828547631AF70003C7418280
:103360009307500A6304F700A383018203C77182A5
:103370008D476317F700A383018205472384E18209
:103380000100324441018280411122C60008B70782
:10339000024093874704056713070796D8C3B7070A
:1033A0000240938747049843B70702409387470436
:1033B0001367170098C30100324441018280411114
:1033C00022C600080547A384E182B707024093871D
:1033D00047049443B707024093874704416779172E
:1033E000758F98C30100324441018280011106CEDD
:1033F00022CC00102326A4FE8327C4FE99E7814631
:10340000014681450145152EA9AA0327C4FE85471B
:103410006318F7008146014681450545392E91A282
:103420000327C4FE89476318F7008146014681459A
:10343000094521263DA20327C4FE8D476318F700E6
:103440008146014681450D45CD2C21AA0327C4FEA6
:1034500091476318F7008146014681451145F12CDB
:1034600009A20327C4FE95476318F7008146014669
:1034700081451545D924F5A00327C4FE9947631853
:10348000F7008146014681451945452CD9A80327F7
:10349000C4FE9D476318F7008146014681451D45DE
:1034A000692CC1A00327C4FEA1476319F700814618
:1034B0000146814513050002492465A00327C4FE87
:1034C000A5476319F700814601468145130510029F
:1034D000AD2441A80327C4FEA9476319F70081461C
:1034E0000146814513050004892CA5A80327C4FEC5
:1034F000AD476319F7008146014681451305100465
:103500002D2C85A00327C4FEB1476319F70081461F
:1035100001468145130520040D24A1A00327C4FE04
:10352000B5476319F700814601468145130530040C
:10353000292405A80327C4FEB9476319F70081466B
:103540000146814513054004CD2A21A80327C4FE66
:10355000BD476318F70081460146814513055004B5
:10356000E92A0100F240624405618280397106DE79
:1035700022DC80002326A4FC854513054020EFD0E3
:103580001FE50325C4FC9D3503A7C182B7C701050C
:10359000938707D063F6E7003165EFD05FBD21A0C8
:1035A0002165EFD0DFBCB727014013850740EFD07E
:1035B0000F97232C04FC232E04FC232004FEB707C2
:1035C0000E002322F4FE232404FE85472306F4FE86
:1035D000930784FDBE85B727014013850740EFD0D0
:1035E000AF978545B727014013850740EFD0EFA57A
:1035F000B727014013850740EFD00FA90100B72777
:10360000014013850740EFD04FAAAA87EDFBB727EB
:10361000014013850740EFD04FAC0100B7270140B0
:1036200013850740EFD08FADAA87EDFB0100F25064
:10363000625421618280011106CE22CC0010232623
:10364000A4FE2324B4FE8327C4FE93F7F70F81461C
:103650000546BE85B727014013850740EFD00FAD63
:10366000B7270140938707409447B72701409387C6
:10367000074037075000558F98C70100B727014012
:10368000938707409C43898BF5DBB72701409387DD
:103690000740F847832784FEB357F700C207C1836A
:1036A0003E85F240624405618280797106D622D45B
:1036B0000018232EA4FC232CB4FCB287A30BF4FC2B
:1036C000834774FD91EF9D67938607369D67138648
:1036D0000775930560079D6713858736EF205012A5
:1036E000232404FEA30704FE15A0832584FD0325DF
:1036F000C4FD9137AA873E87832784FEBA97232487
:10370000F4FE8347F4FE8507A307F4FE0347F4FEA7
:10371000834774FDE36BF7FC834774FD032784FE46
:10372000B357F7022324F4FE832784FEC207C18324
:103730003E85B250225445618280797106D622D4EA
:103740000018232EA4FC232CB4FCB2872328D4FC1D
:10375000A30BF4FC8327C4FD958393F7F70F9D8B90
:10376000A307F4FE8327C4FD93F7F70FFD8B230710
:10377000F4FE0327C4FD93070008630DF7148327A5
:10378000C4FD958391E785451145EFD05FC461A8DD
:103790008327C4FD13D7570085476317F700854576
:1037A0002145EFD0DFC241A08327C4FD13D75700C6
:1037B00089476317F70085454145EFD05FC1A5A054
:1037C0008327C4FD13D757008D476318F70085453D
:1037D00013050002EFD0BFBFB9A08327C4FD13D7E4
:1037E000570091476318F700854513050004EFD093
:1037F0001FBE15A88327C4FD13D75700954763182C
:10380000F700854513050008EFD07FBC29A8832762
:10381000C4FD13D7570099476317F7008545130573
:103820000010EFD0DFBA8347E4FE0547B317F70077
:10383000C207C1832310F4FE032784FD8547631765
:10384000F702832704FDC207C183A183C207C18396
:1038500089E78D472322F4FE11A8832704FDC207C0
:10386000C183A183C207C1832322F4FE832704FD01
:10387000C207C18393F7F70F2324F4FE0347F4FE36
:103880009D670A0793870776BA979C433E879307FD
:1038900004FEBE853A85EFD08FBE032784FD8547A1
:1038A000631BF7020347F4FE9D670A0793870776B9
:1038B000BA979C43BE868347E4FE0547B317F700DB
:1038C000C207C183034774FD3A86BE853685EFD0B3
:1038D000AFDD11A00100B2502254456182807971A0
:1038E00022D60018232EA4FC8327C4FD958393F7CA
:1038F000F70F9D8BA307F4FE8327C4FD93F7F70F03
:10390000FD8B2307F4FE0347F4FE9D670A079387A8
:103910000776BA979C439C470347E4FE8546339756
:10392000E600F98F99C3854711A081473E8532543F
:1039300045618280797106D622D40018232EA4FC1A
:10394000AE873687A30DF4FCB287230DF4FCBA874B
:10395000A30CF4FC8327C4FD93F7F70F2304F4FEB4
:103960008347B4FDA304F4FE8347A4FD2305F4FEBE
:10397000834794FD2326F4FE930784FE3E85EFD013
:10398000CFF2B7E700E09843FD777D8F83A74184AE
:103990005D8F23A2E184B7E700E0D843B7070010AA
:1039A000FD177D8F93874184DC435D8F938741842E
:1039B000D8C39387418403C7870085476313F70003
:1039C00031200100B250225445618280411122C64B
:1039D0000008B7E700E07D5723A0E718B7E700E04D
:1039E0007D5723A2E7180100324441018280411132
:1039F00022C60008B7E700E003A7418423A0E71030
:103A0000B7E700E013874184584323A2E710010081
:103A1000324441018280011106CE22CC00109387EE
:103A2000418405472384E70083A7418481EB938782
:103A30004184DC4381E7A30704FE21A08547A30757
:103A4000F4FE69378347F4FE3E85F2406244056127
:103A50008280011106CE22CC0010AA87A307F4FEB3
:103A60008347F4FE91E7938741842384070041371D
:103A70000100F240624405618280797106D622D449
:103A80000018232EA4FCAE87231DF4FC8327C4FD5D
:103A900081EB8545856713850780EFD05F9335A857
:103AA0000327C4FD85476317F70085450545EFD01B
:103AB0007F9625A00327C4FD89476317F700854536
:103AC0000945EFD03F9511A80327C4FD8D47631624
:103AD000F70085451145EFD0FF938357A4FD91EF83
:103AE0009D67938647399D67138607779305200363
:103AF0009D6713858739EF20A05003A7C1829307E4
:103B0000007DB357F702C207C183FD17C207C18307
:103B10002314F4FE8357A4FD8607C207C183FD1753
:103B2000C207C1832312F4FE231504FE231304FEEF
:103B3000230604FE9D670327C4FD0A079387877841
:103B4000BA979C433E87930744FEBE853A85EFD0E3
:103B50003F959D670327C4FD0A0793878778BA9727
:103B60009C43054685453E85EFE0AF909D67032762
:103B7000C4FD0A0793878778BA979C4385453E859D
:103B8000EFE02FC68327C4FD81EB854609468545B6
:103B9000130590024533A1A00327C4FD854763198F
:103BA000F7008546094685451305C002613305A81F
:103BB0000327C4FD89476319F700854609468545F3
:103BC0001305D002853B21A80327C4FD8D47631848
:103BD000F7008546094685451305E002A13B9D6730
:103BE0000327C4FD0A0793878778BA979C438545C6
:103BF0003E85EFD09FFC0100B25022544561828087
:103C0000011106CE22CC00102326A4FE0327C4FEF9
:103C1000930700206307F7240327C4FE93070020BF
:103C200063EAE70A0327C4FE930710106300F71C3A
:103C30000327C4FE9307101063E2E7040327C4FEC2
:103C40008947630DF7160327C4FE894763ECE70035
:103C50008327C4FE638407140327C4FE85476307D4
:103C6000F714E5AC0327C4FE8D476301F71603275D
:103C7000C4FE930700106303F716C5A40327C4FE10
:103C800093070011630CF7180327C4FE9307001174
:103C900063EFE7000327C4FE930720106300F716C5
:103CA0000327C4FE930730106302F7167DA4032791
:103CB000C4FE930720116304F7180327C4FE93077B
:103CC00020116365F7160327C4FE930730116301C3
:103CD000F71861A40327C4FE930730216300F7207F
:103CE0000327C4FE9307302163EEE7040327C4FED5
:103CF000930730206300F71A0327C4FE9307302090
:103D000063EFE7000327C4FE930710206303F71651
:103D10000327C4FE930720206305F7163DAC032755
:103D2000C4FE930710216309F7180327C4FE930705
:103D3000102163ECE7180327C4FE930700216304F6
:103D4000F71621AC0327C4FE930700306303F71C6A
:103D50000327C4FE9307003063EFE7000327C4FE88
:103D6000930700226305F7180327C4FE9307102268
:103D70006308F718DDA20327C4FE93072030630C05
:103D8000F71A0327C4FE93072030636DF718032743
:103D9000C4FE930730306309F71AC1A2930680313D
:103DA000014685452145EFF05F9945AA930680318C
:103DB000014685452545EFF05F9845A29306803181
:103DC000014685452945EFF05F9741AA930680316A
:103DD000014685452D45EFF05F9641A2930680315F
:103DE000014685450145EFF05F9585AA9306803130
:103DF000014685450545EFF05F9485A29306803125
:103E0000014685450945EFF05F9381AA930680310D
:103E1000014685450D45EFF05F9281A29306803102
:103E2000014685453D45EFF05F9105AA9306803137
:103E30000146854513053002EFF03F9039AA9306FD
:103E40008031014685451305A002EFF01F8F31A296
:103E500093068031014685451305B002EFF0FF8DD2
:103E6000EDA893068031014685451945EFF0FF8C9A
:103E7000EDA093068031014685451D45EFF0FF8B8F
:103E8000E9A8930680310146854513050002EFF04D
:103E9000DF8AE1A0930680310146854513051002B3
:103EA000EFF0BF895DA89306803101468545130573
:103EB0006004EFF09F8855A0930680310146854548
:103EC00013057004EFF07F8749A8930680310146FF
:103ED000854513058004EFF05F8641A0930680318D
:103EE0000146854513059004EFF03F85BDA093067C
:103EF00080310146854513054002EFF01F84B1A8CB
:103F0000930680310146854513055002EFF0FF828C
:103F1000A9A0930680310146854513056002EFF0A4
:103F2000DF8125A89306803101468545130570027F
:103F3000EFF0BF801DA09306803101468545130533
:103F40008002EFF08FFF11A893068031014685456E
:103F500013059002EFF06FFE01000100F240624491
:103F600005618280397106DE22DC80002326A4FCF4
:103F70002324B4FC2322C4FC231704FE0325C4FC21
:103F8000EFF01FC88327C4FCA18381EB85458567BB
:103F900013850780EFD0AFC3A1A08327C4FC13D73C
:103FA000870085476317F70085450545EFD08FC625
:103FB00005A88327C4FC13D7870089476317F70038
:103FC00085450945EFD00FC521A88327C4FC13D729
:103FD00087008D476316F70085451145EFD08FC3E5
:103FE00085450545EFD0AFBE8327C4FC13D74700F6
:103FF000C147631AF7008545B70716001385070404
:10400000EFC01FEEB9A88327C4FC13D74700C547EC
:10401000631AF7008545B707180013850730EFC00E
:104020003FEC81A08327C4FC13D7470093071002FD
:10403000631AF7008545B7171A00138507C0EFC04C
:104040003FEA05A08327C4FC13D74700930720024B
:104050006319F7008545B7171A0013850780EFC06D
:104060003FE8B7170240DC43C98313F7F700B717DF
:104070007A00938707203307F702B727F400938766
:1040800007403E9723A6E18203A7C182832784FCD1
:10409000B357F702C1832317F4FE03A7C1828357E6
:1040A000E4FE8507BE86832784FCB387F602B357F8
:1040B000F7022316F4FE0357C4FE832744FC33079C
:1040C000F702896793870771B357F7022315F4FE48
:1040D0008357C4FEFD17C207C1832312F4FE835722
:1040E000E4FE2310F4FE231304FE231104FE230434
:1040F00004FE930700072318F4FC85472319F4FCFA
:10410000231A04FC8357A4FE231BF4FC8947231CB9
:10411000F4FC8947231DF4FC231E04FC231F04FC2C
:104120008327C4FC13D787009D670A079387877886
:10413000BA979C433E87930704FEBE853A85EFD02D
:104140002FB68327C4FC8D8BB9EF8327C4FC13D70C
:1041500087009D670A0793878778BA979C433E87B5
:10416000930704FDBE853A85EFD02FC38327C4FC97
:1041700013D787009D670A0793878778BA979C4370
:10418000A1453E85EFD0FFB58327C4FC13D7870038
:104190009D670A0793878778BA979C4391453E8528
:1041A000EFD0FFC889A28327C4FC13F737008547E7
:1041B0006311F7068327C4FC13D787009D670A079E
:1041C00093878778BA979C433E87930704FDBE8503
:1041D0003A85EFD08FD38327C4FC13D787009D6720
:1041E0000A0793878778BA979C43A1453E85EFD00D
:1041F0001FB48327C4FC13D787009D670A079387E2
:104200008778BA979C43930500403E85EFD0FFC660
:10421000D9A88327C4FC13F7370089476310F70632
:104220008327C4FC13D787009D670A079387877885
:10423000BA979C433E87930704FDBE853A85EFD02D
:104240002FE88327C4FC13D787009D670A0793874D
:104250008778BA979C43A1453E85EFD0FFB283276C
:10426000C4FC13D787009D670A0793878778BA979E
:104270009C4391453E85EFD0BFC5B5A08327C4FCC4
:1042800013F737008D476310F7068327C4FC13D755
:1042900087009D670A0793878778BA979C433E8774
:1042A000930704FDBE853A85EFD08FFC8327C4FCBD
:1042B00013D787009D670A0793878778BA979C432F
:1042C000A1453E85EFD01FB18327C4FC13D78700DB
:1042D0009D670A0793878778BA979C4393050040A8
:1042E0003E85EFD0BFC38327C4FC13D787009D67EB
:1042F0000A0793878778BA979C4385453E85EFD018
:10430000DF8B8327C4FC13D787009D670A07938739
:104310008778BA979C4385453E85EFD09F8F0100F3
:10432000F250625421618280011122CE00102324B8
:10433000A4FE2326B4FE37F700E02320070037F75A
:1043400000E02302070037F700E0A302070037F779
:1043500000E02303070037F700E0A303070037F767
:1043600000E02304070037F700E0A304070037F755
:1043700000E02305070037F700E0A305070037F743
:1043800000E0854614C3010037F700E01107184329
:10439000BA8701480327C4FEC286636DD70003278E
:1043A000C4FEC286E312D7FE032784FEBE86636383
:1043B000D700D9BF0100724405618280011106CE89
:1043C00022CC00102326A4FE2324B4FE8327C4FE9F
:1043D00085E7032784FE85476310F7029306803143
:1043E000014685452545EFF04FB59146014681458B
:1043F0002945EFF08FB465A00327C4FE89476312F7
:10440000F702930680310146854513056002EFF0FF
:10441000CFB291460146814513057002EFF0EFB12E
:10442000BDA80327C4FEC1476310F702930680317D
:10443000014685450945EFF04FB09146014681455B
:104440000D45EFF08FAFA1A80327C4FE930700022C
:104450006312F70293068031014685451305A002D9
:10446000EFF0AFAD9146014681451305B002EFF084
:10447000CFAC35A00327C4FE930720026311F702D7
:1044800093068031014685451305A004EFF0EFAA9D
:104490009146014681451305B004EFF00FAA0100D3
:1044A000F240624405618280797106D622D40018F8
:1044B000232EA4FC232CB4FC232AC4FC2328D4FCE4
:1044C00085450545EFC0BFF0832504FD032544FD68
:1044D000F535032744FD8947631BF700032704FDD7
:1044E0008D476316F70085451145EFC07F9F032771
:1044F00044FD93072002631FF700032704FD930781
:1045000030026319F7008545B707140013850701CA
:10451000EFC01F9D8327C4FD91E785451165EFC05E
:104520001FEB35A00327C4FD85476318F7008545B9
:1045300037050200EFC01FEE19A80327C4FD894705
:104540006317F700854537050400EFC0BFEC8327EC
:1045500084FD2320F4FE231204FE231304FE2314FF
:1045600004FE231604FEB1472315F4FE9D670327BE
:10457000C4FD0A0793878779BA979C433E879307C0
:1045800004FEBE853A85EFD0BFA89D670327C4FD12
:104590000A0793878779BA979C4385453E85EFD074
:1045A0007FCA0100B250225445618280411106C683
:1045B00022C40008B7170240DC43C98313F7F70091
:1045C000B7177A00938707203307F702B727F4005D
:1045D000938707403E9723A6E18285460146F1670F
:1045E000938507200145C9350100B24022444101AD
:1045F0008280797106D622D40018232EA4FC232CA5
:10460000B4FC232AC4FC232604FE99A001009D6764
:1046100083A78779930500043E85EFD09FCBAA87B7
:10462000FDD79D6783A78779BE86832784FD13877F
:104630001700232CE4FC83870700C207C183BE85D3
:104640003685EFD03FC68327C4FE85072326F4FEB8
:104650000327C4FE832744FDE34AF7FA832744FD7A
:104660003E85B250225445618280011122CE001055
:10467000232604FE232404FEB71702409443B717F1
:1046800002404167558F98C3B71702409843B70758
:104690000200F98F2324F4FE8327C4FE8507232616
:1046A000F4FE832784FE99E70327C4FE9307005096
:1046B000E31CF7FCB71702409843B7070200F98FD5
:1046C00089C785472324F4FE19A0232404FE032769
:1046D00084FE85476317F70CB72702409843B72736
:1046E00002401367070198C3B72702409843B727D2
:1046F0000240719B98C3B72702409843B7270240F6
:104700001367270098C337170240B7170240584372
:10471000D8C337170240B71702405843D8C33717DA
:104720000240B71702405843D8C3B7170240D443DA
:10473000B71702403707C1FF7D17758FD8C3B7176A
:104740000240D443B717024037072500558FD8C31E
:10475000B71702409443B717024037070001558F3F
:1047600098C30100B71702409843B7070002F98FBA
:10477000F5DBB7170240D843B7170240719BD8C387
:10478000B7170240D843B717024013672700D8C3B2
:104790000100B7170240DC4313F7C700A147E31A33
:1047A000F7FE0100724405618280411106C622C4F1
:1047B0000008B71702409843B71702401367170065
:1047C00098C3B7170240D443B71702403707FFF822
:1047D000758FD8C3B71702409443B7170240370705
:1047E000F7FE7D17758F98C3B71702409443B7172C
:1047F00002403707FCFF7D17758F98C3B71702403B
:10480000D443B7170240370781FF7D17758FD8C390
:10481000B717024037079F0098C7813D0100B2409B
:10482000224441018280011106CE22CC26CA4AC808
:104830004EC600100145EFE02F8D23AA018239A852
:1048400003A74183060793870186BA972390070041
:1048500083A741831387170023AAE18203A741831B
:104860009147E3DFE7FC294681450145EFE0FFE39F
:10487000AA873E872390E186294681451145EFE0CE
:10488000DFE2AA873E87938701862391E7002946C6
:1048900081451945EFE07FE1AA873E87938701862E
:1048A0002392E700294681452145EFE01FE0AA87D2
:1048B0003E87938701862393E70029468145254556
:1048C000EFE0BFDEAA873E87938701862394E70047
:1048D00023AA018205A883A7418393F6F70F03A7B4
:1048E0004183060793870186BA9783D707003E86E0
:1048F000B6850145EFE00F9583A741831387170025
:1049000023AAE18203A741839147E3D6E7FC03C7CB
:10491000018385476318F70A23AA018279A803A7B0
:104920004183060793870186BA9783D707003E85A0
:10493000EF10403D2A89AE8903A74183060793877C
:104940000185BA9783D707003E85EF10A03BAA8761
:104950002E883E86C2864A85CE85AD28AA872E88B7
:10496000BE86428783A441833685BA85EF10404BCB
:10497000AA861397240093870187BA9794C383A7C5
:10498000418393940701C18003A741830A0793875A
:104990000187BA979C433E85EF10C03D2A86AE86BC
:1049A00099470547A6851305C003EFE08F8E83A7BF
:1049B00041831387170023AAE18203A7418391470C
:1049C000E3DFE7F40100F2406244D2444249B249D5
:1049D00005618280397193D7450122DC4AD856D2CD
:1049E0002A891394C50006DE26DA4ED652D45AD050
:1049F0005ECE13F5F77F318093DAF501630B051076
:104A00009307F07F630BF514135AD9010E04336436
:104A10008A00370A8000336A4401131B390093046B
:104A200015C00144814B13D846011399C600137871
:104A3000F87FB2881359C90093D9F601630E0808AC
:104A40009307F07F6300F8041357D6010E0933690A
:104A50002701130818C0B70780003367F9009318BF
:104A60003600B38404418145BD4733C83A0163E44D
:104A7000871A97370000938767D30A043E94104043
:104A80003E9602863367C900938414806312071030
:104A90001364240081488945C1BF1306F07F814714
:104AA0000147B207F25062545206B1837E08D18F9B
:104AB000B3E70701D2544259B259225A925A025BC3
:104AC000F24B3A85BE852161828001481306F07F52
:104AD000B70708000147F1B73367C9004DC763083E
:104AE00009304A8532C4EF10404A2246130755FF69
:104AF000F547930685FF998F3319D900B357F60010
:104B000033E72701B318D60026959304353F814536
:104B1000A1BF336A240163030A0636C632C46306A2
:104B2000042A2285EF1060462246B246AA84130763
:104B300055FF754A138B84FF330AEA40331464012E
:104B4000335A4901336A8A00331B69011305D0C007
:104B5000B30495400144814BF9B5336A24016318CD
:104B60000A002144014B9304F07F894B6DBD228ADA
:104B70004A8B31449304F07F8D4B75B51144014B42
:104B80008144854B4DB51364140081488545E9BDCA
:104B9000136434004A878D45C1BD630A052E8547DD
:104BA000898F9306800363DDF63201468147014712
:104BB000CDBDCE868947638DF53A8D47E387F5F005
:104BC00085473688E383F5FE1385F43FE357A0FC61
:104BD00093F778006396072893D6380093177700E9
:104BE00063D80700B70700FFFD177D8F13850440CA
:104BF0009307E07FE3C3A7EA1316D7019317970043
:104C0000B1833367D6001376F57F61BDD6865287B0
:104C1000DA88DE8545B763614723630DEA20DA86CB
:104C2000FD145284014B9317870013D3880133631B
:104C3000F300935E0301B357D403131F0301135F03
:104C40000F0193D50601139E88003374D4033307F4
:104C5000FF024204C18D63FBE5009A951386F7FFBE
:104C600063EE652663FCE526F9179A95998D33D78F
:104C7000D503C206C182B3F5D5033306EF02C205E0
:104C8000D58D63FBC5009A959306F7FF63E665240F
:104C900063F4C52479179A95C20741645D8F930721
:104CA000F4FF3375F70093580701935F0E01B37754
:104CB000FE00B302F502B386C540B383F80293D574
:104CC00002013386AF021E962E963385F803637376
:104CD00076002295C168FD189355060133761601BA
:104CE0004206B3F81201AA95469663E6B6126382AD
:104CF000B6123306CB408D8E333BCB00338B6641EF
:104D00001385F43F630C6317B358DB039355060117
:104D1000337BDB03B3061F03420B33EB6501637B7D
:104D2000DB001A9B9385F8FF636D6B20637BDB20B0
:104D3000F9181A9B330BDB40B356DB034206418262
:104D4000337BDB03330FDF02420B33666601637B89
:104D5000E6011A969385F6FF6367661E6375E61F84
:104D6000F9161A96C208B3E8D8009395080193D2B1
:104D70000801C181B38EF5023306E641B385BF0257
:104D800093D60E01B387F202BE95AE96B38F5F0243
:104D900063F4F600C167BE9FC165FD1593D7060198
:104DA000ED8EC206B3FEBE00BE9FF696637FF60987
:104DB0001A969387F8FF6369661A6368F619630F9A
:104DC000F61BBE8893E8180011B54A85EF10E01B6A
:104DD00013075501F145930405022246B246E3DA72
:104DE000E5D4130485FF331A8900014B85B332855E
:104DF00032C4EF10801913075501F146AA872246E5
:104E000013050502E3D6E6CEE1173317F600814815
:104E1000E5B9E370CBEE729B3335CB011A95AA96B8
:104E20001305F7FF6378D30263E6B6106382D510EB
:104E30002A87C1B5E3651BDF93551B009316FA0162
:104E400013541A00CD8E7E0BF9BBE31DF6F7E38FEA
:104E500006D6B9BFE31ED3FCE378CBFD2A8751BD4C
:104E600093F7F8009146E389D7D693B7C8FF9386A6
:104E7000480093C717008D823E978DB381468547C2
:104E8000E34CA0FEFD58E31C05D0930410C08547F9
:104E90001385E441B316A70033D6F8003395A80074
:104EA000D18E3335A000C98E13F676003357F70044
:104EB00001CE93F7F60011466388C700938746003A
:104EC000B3B6D7003697BE869317870063D807041A
:104ED000054681470147F1B636877DBBB28779B376
:104EE000FD46E3D7F6FA0556098E930600023356BF
:104EF000C7006388D7009387E443B317F700B3E88C
:104F0000F800B3361001D18E13F67600814701CE3A
:104F100093F7F60011460147E392C7FA93179700FB
:104F20001316D701B18313D73600518F014695BEB2
:104F3000E370CBF0729B3335CB011A957917AA96A3
:104F40004DBBAE88C5BBAE8631BD93171E0033BEC8
:104F5000C70172931A96F9183E8EE315F6E7E30738
:104F6000DEC693E818009DB1BE88E30AF6FF99BD3E
:104F700036881306F07F8147014725B6E367DEFCDC
:104F8000BE88E310DEFE99B113D74501B7071000C4
:104F9000FD1713D846011377F77F9308F07F33FE90
:104FA000B700AA8EF58FFD81328F1378F87FFD82CE
:104FB000630B170105436306180163140701630DB2
:104FC000FE001A858280B368AE000543E39B08FEAD
:104FD000E319E8FED18FF5F70543E394EEFF0143B3
:104FE000E381D5FE054371FF3365AE003333A00086
:104FF000C9BF13D74501B7071000FD1713D84601E5
:105000001377F77F9308F07F33FEB700AA8EF58FF2
:10501000FD81328F1378F87FFD82630E1703630DD5
:10502000180129E3B368AE00631F08005D8E01EE2E
:105030000143638C080421A8B3E8C70009436396C1
:1050400008046DD305A0638408046385D502054375
:105050008DCD7D531DA8B368AE0009436397080248
:10506000630AE802631408005D8E75D2E391D5FEF1
:10507000E34FE8FC63490701E3EBC7FD630FFE0064
:1050800001436374FE00F1D505431A858280EDFE6D
:105090007D53E5BF5D8E79DACDBFE36ADFFB014367
:1050A000E3F5EEFFF5F175B739714AD813D945012B
:1050B0004ED652D456D29399C50006DE22DC26DAAB
:1050C0005AD05ECE1379F97F2A8A93D9C90093DA30
:1050D000F501630D090E9307F07F6306F918135469
:1050E000D5018E09B36934013704800033E48900A7
:1050F00093143500130919C08149814B13D7460118
:10510000139AC6001377F77FB285135ACA0013DBD0
:10511000F601630B07109307F07F6303F7049357BF
:10512000D6010E0A33EA4701130717C0B7078000FC
:10513000B367FA00931536003A99814833C76A017C
:10514000BD463A851308190063E836171726000094
:105150001306C6698A09B29983A60900B2968286A7
:10516000B367CA001309F97F6399071293E929000D
:1051700081458948E1B701479307F07F370408006C
:1051800081443204D20731807E075D8C598CA28520
:10519000F250625426854259D254B259225A925A38
:1051A000025BF24B216182805A853E84AE84C68BBD
:1051B0008947638DFB0E8D47E38FFBFA85472A876E
:1051C000639EFB3881470144814465BF33E4A900F5
:1051D00061C036C632C4638C092A4E85EF00F05A8E
:1051E0002246B246AA87130755FF7544938487FF6A
:1051F000198CB399990033548A0033643401B31481
:105200009A0013D746011309D0C0139AC60013772A
:10521000F77F3309F9408149814BB285135ACA009F
:1052200013DBF601E31907EEB367CA00B1C7630FDA
:105230000A22528532C4EF00505522462A8793062F
:1052400055FFF547930587FF958F331ABA00B3577B
:10525000F600B3E74701B315B6003309E940130977
:10526000D9C08148E1BD33E4A90001ECA1498144E2
:105270001309F07F894B59B593E919008145854899
:1052800075BD4E84AA84B1491309F07F8D4BBDB51D
:10529000914981440149854B95B593E93900D287FD
:1052A0008D4869BD89475685E397FBF02A879307A8
:1052B000F07F01448144F1B5C16E1386FEFF93D6A1
:1052C000040113DE0501F18CF18D338695023383E1
:1052D000B6029358060133059E021A95AA98B38226
:1052E000C60363F36800F692C16F1383FFFF33F5C3
:1052F000670093D30701B3F76800C20733736600F2
:105300003E933306950293D80801B387A602135F34
:105310000601B3849302BE94FA94B38E760263F3CB
:10532000F400FE9E416A9307FAFF935F0401B3768F
:10533000F400B3F9F4007D8EC1803384D502C20934
:10534000338FD401B299CE98B307DE02935E040185
:10535000B385BF02AE97BE9E330EFE0363F3BE005D
:10536000529EC1679385F7FF33F6BE006D8C4206EF
:10537000229693DE0E01B305D502769E3385AF02E9
:1053800013D40501B386D302AA96A296B38FF30372
:1053900063F3A600BE9F41657D15B3F7A600C20763
:1053A0006D8DAA97B3855800B3B93501FA97B295B8
:1053B0003384370133B6C500B30EC4013385CE0044
:1053C00033343401B3B7E701C18F33BECE0113D4F8
:1053D00006013336C5003E943366CE0093949500A3
:1053E00032947E94B3E46400260493567501B3347A
:1053F0009000DD8193179500CD8C558CDD8C931733
:10540000740063DB070093D7140085889316F401BA
:10541000DD8CD58C058042899307F93F6359F008EC
:1054200093F6740081CE93F6F40011466388C600AB
:1054300093864400B3B496002694B6849316740001
:1054400063D80600B70700FFFD177D8C930709405E
:105450009306E07F63CFF60E93D634009314D40105
:105460002604D58C318093F7F77F21BB328532C477
:10547000EF00B03193065501F147130705022246AC
:10548000E3D1D7DC6115B317A6008145F9B3EF006E
:10549000D02F13075501F145930705022246B24666
:1054A000E3D5E5D461153314AA00814499BB854640
:1054B0009D8EB1E71309E941B3972401B3D4D40019
:1054C00033192401B337F000B3649900DD8C93F7EE
:1054D0007400B356D40081CF93F7F400114663886B
:1054E000C70093874400B3B49700A696BE849397F1
:1054F000860063D8070485470144814459B11306E7
:105500008003E341D6CC7D46E356D6FA0556B30771
:10551000F640930500023356F4006387B600130982
:10552000E943B3172401DD8CB3349000D18C93F69A
:105530007400014499CA93F7F40011468146E3923E
:10554000C7FA139496003180F6068D80D58C81477A
:105550000DB99307F07F0144814425B142896DBDA7
:10556000370710007D1701113373B70093D8460138
:10557000758F935ED60122CC26CA0E0393D44501C3
:105580009357D5010E0706CE4AC84EC693F8F87F4A
:10559000130EF07F33E7EE0093F4F47F13D4F5019C
:1055A00033E36700131F3500FD82931E36006380CE
:1055B000C81993C61600B38514416305D41263510C
:1055C000B018638B081AB70780005D8F6380C459D9
:1055D0009307800363C3B734FD4763C4B748930799
:1055E00000028D8FB3D9BE003318F700B39EFE00C2
:1055F000336838013357B700B339D0013368380105
:105600003303E340B3090F41B3373F013306F3409F
:105610009317860063D30724370980007D193379F7
:105620002601630F092C4A85EF003016130785FF0A
:1056300093070002998FB3D7F9003316E900D18F91
:10564000B399E9006344972A058F13061700FD46B6
:1056500063C4C63A13070002118FB3D6C90033984A
:10566000E9003397E700558F33380001B36907012C
:1056700033D6C700814493F7790081CF93F6F900C0
:1056800091476388F6009386490033B83601429605
:10569000B6899317860063D6071C138714009307F7
:1056A000F07F05886306F720B70780FFFD17F18FAD
:1056B0001398D70193D93900A60733683801B1830D
:1056C0001377F77F9396C7005207B1827E04D98E75
:1056D000C18EF2406244D2444249B2494285B68505
:1056E000056182806356B00A638A0812B70780009A
:1056F0005D8F6386C42D9307800363C7B718FD478A
:1057000063D1B73C138805FE93070002B359070124
:10571000638AF50093070004B385B7403317B700D9
:10572000B3EEEE003338D0013368380195A2B36789
:10573000D7019385148099E393C61600630AD404B5
:10574000D1E19387140093F7E77F6398071EB3674F
:10575000E3013368D701639204166381073C631544
:105760000842131835009316D3011358380033E854
:1057700006019357330019A2B367D7016384071A50
:105780009387F5FF638A073A638BC523BE8589B586
:105790006398051C9386140093F7E67FC1EFB36707
:1057A000E301639F0434638C0744B367D7016393B9
:1057B00007460E051318D3010D813368A8009357CF
:1057C00033006DA8B385984063960420B367E30166
:1057D000638C07309387F5FF638807401305F07FDC
:1057E0006382A520BE859307800363C1B72AFD4766
:1057F00063C7B73C930700028D8F3318F30033560D
:10580000BF00B317FF003368C800B339F00033534B
:10581000B3003368380133076740ADACB367D701D5
:10582000638207109387F5FF638E071E638FC52D74
:10583000BE85D1B59307F07F638BF606FA9E33B62B
:10584000EE01B307E300B2971398F70193DE1E0051
:10585000B369D80113D61700B68493F77900E39F94
:1058600007E09317D60113D839003368F800A685EE
:10587000935736001307F07F6380E506B207B183C4
:1058800013F7F57F05883DBD3367D7013338E00056
:10589000B309E801B3B7E9013386670093178600BF
:1058A000E3DD07FA85049307F07F639BF41805880E
:1058B0001307F07F8147014831B5639007106300FB
:1058C000083C131836009317D70113583800336873
:1058D000F800368493573700B367F800E9DB0144DA
:1058E0001307F07FB70708000148E9BB370680FFC0
:1058F0007D167D8E93F77900998CE39107D895B743
:105900004E85612513078501FD47E3D3E7D21306D2
:1059100085FFB397C900814935B33368D701333860
:105920000001CDB1131835009317D3011358380077
:105930003368F8009357330035BFB309DF413309AB
:10594000E34033363F013309C9409317890063CAE6
:10595000072033E82901E31608CC8147014439BF09
:10596000B385984063810414B70680009307F07FE5
:105970003363D3006381F8209307800363CCB7229D
:10598000FD4763C9B72C930700028D8F3318F300CE
:10599000B356BF00B317FF003368D800B339F00027
:1059A0003353B300336838011A97B309D801B3B73A
:1059B000D9013386E700C684D5B5E31208F213187F
:1059C00035009317D301135838003368F800935704
:1059D000330019B7370580009307F07F3363A300C6
:1059E000E393F8E00E061318D7010D823368C80060
:1059F000935737003684CDB505179306000233D789
:105A0000E700630AD600930600043386C640339647
:105A1000C700B3E9C90033383001B369E800014673
:105A2000814425BDB309DF01B307E30033BFE901BA
:105A30003386E701931786008544E3D007E2894463
:105A4000B70780FFFD17F18F13D7190013F819005E
:105A5000336807019399F701B3E9090113D61700D9
:105A600019B9138805FE93070002B3590701638A29
:105A7000F50093070004B385B7403317B700B3EEC2
:105A8000EE003338D00133683801ADBE3363E30133
:105A900033386000B3890E41B3B73E013306F74097
:105AA000C6843684B5B6B367E30163870718938766
:105AB000F5FF638C071C9306F07F638ED50ABE85C5
:105AC00065BD930700028D8FB3D9BE003318F70070
:105AD000B39EFE00336838013357B700B339D001A5
